{
  "abi": [
    {
      "inputs": [
        {
          "internalType": "address",
          "name": "_owner",
          "type": "address"
        }
      ],
      "stateMutability": "nonpayable",
      "type": "constructor"
    },
    {
      "anonymous": false,
      "inputs": [
        {
          "indexed": true,
          "internalType": "address",
          "name": "owner",
          "type": "address"
        },
        {
          "indexed": true,
          "internalType": "address",
          "name": "operator",
          "type": "address"
        },
        {
          "indexed": false,
          "internalType": "bool",
          "name": "approved",
          "type": "bool"
        }
      ],
      "name": "ApprovalForAll",
      "type": "event"
    },
    {
      "anonymous": false,
      "inputs": [
        {
          "indexed": true,
          "internalType": "address",
          "name": "user",
          "type": "address"
        },
        {
          "indexed": true,
          "internalType": "address",
          "name": "newOwner",
          "type": "address"
        }
      ],
      "name": "OwnershipTransferred",
      "type": "event"
    },
    {
      "anonymous": false,
      "inputs": [
        {
          "indexed": true,
          "internalType": "address",
          "name": "operator",
          "type": "address"
        },
        {
          "indexed": true,
          "internalType": "address",
          "name": "from",
          "type": "address"
        },
        {
          "indexed": true,
          "internalType": "address",
          "name": "to",
          "type": "address"
        },
        {
          "indexed": false,
          "internalType": "uint256[]",
          "name": "ids",
          "type": "uint256[]"
        },
        {
          "indexed": false,
          "internalType": "uint256[]",
          "name": "amounts",
          "type": "uint256[]"
        }
      ],
      "name": "TransferBatch",
      "type": "event"
    },
    {
      "anonymous": false,
      "inputs": [
        {
          "indexed": true,
          "internalType": "address",
          "name": "operator",
          "type": "address"
        },
        {
          "indexed": true,
          "internalType": "address",
          "name": "from",
          "type": "address"
        },
        {
          "indexed": true,
          "internalType": "address",
          "name": "to",
          "type": "address"
        },
        {
          "indexed": false,
          "internalType": "uint256",
          "name": "id",
          "type": "uint256"
        },
        {
          "indexed": false,
          "internalType": "uint256",
          "name": "amount",
          "type": "uint256"
        }
      ],
      "name": "TransferSingle",
      "type": "event"
    },
    {
      "anonymous": false,
      "inputs": [
        {
          "indexed": false,
          "internalType": "string",
          "name": "value",
          "type": "string"
        },
        {
          "indexed": true,
          "internalType": "uint256",
          "name": "id",
          "type": "uint256"
        }
      ],
      "name": "URI",
      "type": "event"
    },
    {
      "inputs": [
        {
          "internalType": "address",
          "name": "minter",
          "type": "address"
        }
      ],
      "name": "addMinter",
      "outputs": [],
      "stateMutability": "nonpayable",
      "type": "function"
    },
    {
      "inputs": [
        {
          "internalType": "address",
          "name": "",
          "type": "address"
        },
        {
          "internalType": "uint256",
          "name": "",
          "type": "uint256"
        }
      ],
      "name": "balanceOf",
      "outputs": [
        {
          "internalType": "uint256",
          "name": "",
          "type": "uint256"
        }
      ],
      "stateMutability": "view",
      "type": "function"
    },
    {
      "inputs": [
        {
          "internalType": "address[]",
          "name": "owners",
          "type": "address[]"
        },
        {
          "internalType": "uint256[]",
          "name": "ids",
          "type": "uint256[]"
        }
      ],
      "name": "balanceOfBatch",
      "outputs": [
        {
          "internalType": "uint256[]",
          "name": "balances",
          "type": "uint256[]"
        }
      ],
      "stateMutability": "view",
      "type": "function"
    },
    {
      "inputs": [
        {
          "internalType": "address",
          "name": "",
          "type": "address"
        },
        {
          "internalType": "address",
          "name": "",
          "type": "address"
        }
      ],
      "name": "isApprovedForAll",
      "outputs": [
        {
          "internalType": "bool",
          "name": "",
          "type": "bool"
        }
      ],
      "stateMutability": "view",
      "type": "function"
    },
    {
      "inputs": [
        {
          "internalType": "address",
          "name": "initialOwner",
          "type": "address"
        },
        {
          "internalType": "uint256",
          "name": "tokenId",
          "type": "uint256"
        },
        {
          "internalType": "uint256",
          "name": "amount",
          "type": "uint256"
        },
        {
          "internalType": "bytes",
          "name": "data",
          "type": "bytes"
        }
      ],
      "name": "mint",
      "outputs": [],
      "stateMutability": "nonpayable",
      "type": "function"
    },
    {
      "inputs": [
        {
          "internalType": "address",
          "name": "",
          "type": "address"
        }
      ],
      "name": "minters",
      "outputs": [
        {
          "internalType": "bool",
          "name": "",
          "type": "bool"
        }
      ],
      "stateMutability": "view",
      "type": "function"
    },
    {
      "inputs": [],
      "name": "owner",
      "outputs": [
        {
          "internalType": "address",
          "name": "",
          "type": "address"
        }
      ],
      "stateMutability": "view",
      "type": "function"
    },
    {
      "inputs": [
        {
          "internalType": "address",
          "name": "from",
          "type": "address"
        },
        {
          "internalType": "address",
          "name": "to",
          "type": "address"
        },
        {
          "internalType": "uint256[]",
          "name": "ids",
          "type": "uint256[]"
        },
        {
          "internalType": "uint256[]",
          "name": "amounts",
          "type": "uint256[]"
        },
        {
          "internalType": "bytes",
          "name": "data",
          "type": "bytes"
        }
      ],
      "name": "safeBatchTransferFrom",
      "outputs": [],
      "stateMutability": "nonpayable",
      "type": "function"
    },
    {
      "inputs": [
        {
          "internalType": "address",
          "name": "from",
          "type": "address"
        },
        {
          "internalType": "address",
          "name": "to",
          "type": "address"
        },
        {
          "internalType": "uint256",
          "name": "id",
          "type": "uint256"
        },
        {
          "internalType": "uint256",
          "name": "amount",
          "type": "uint256"
        },
        {
          "internalType": "bytes",
          "name": "data",
          "type": "bytes"
        }
      ],
      "name": "safeTransferFrom",
      "outputs": [],
      "stateMutability": "nonpayable",
      "type": "function"
    },
    {
      "inputs": [
        {
          "internalType": "address",
          "name": "operator",
          "type": "address"
        },
        {
          "internalType": "bool",
          "name": "approved",
          "type": "bool"
        }
      ],
      "name": "setApprovalForAll",
      "outputs": [],
      "stateMutability": "nonpayable",
      "type": "function"
    },
    {
      "inputs": [
        {
          "internalType": "uint256",
          "name": "tokenId",
          "type": "uint256"
        },
        {
          "internalType": "string",
          "name": "tokenUri",
          "type": "string"
        }
      ],
      "name": "setTokenURI",
      "outputs": [],
      "stateMutability": "nonpayable",
      "type": "function"
    },
    {
      "inputs": [
        {
          "internalType": "bytes4",
          "name": "interfaceId",
          "type": "bytes4"
        }
      ],
      "name": "supportsInterface",
      "outputs": [
        {
          "internalType": "bool",
          "name": "",
          "type": "bool"
        }
      ],
      "stateMutability": "view",
      "type": "function"
    },
    {
      "inputs": [
        {
          "internalType": "uint256",
          "name": "",
          "type": "uint256"
        }
      ],
      "name": "tokenSupply",
      "outputs": [
        {
          "internalType": "uint256",
          "name": "",
          "type": "uint256"
        }
      ],
      "stateMutability": "view",
      "type": "function"
    },
    {
      "inputs": [
        {
          "internalType": "uint256",
          "name": "",
          "type": "uint256"
        }
      ],
      "name": "tokenURIs",
      "outputs": [
        {
          "internalType": "string",
          "name": "",
          "type": "string"
        }
      ],
      "stateMutability": "view",
      "type": "function"
    },
    {
      "inputs": [
        {
          "internalType": "address",
          "name": "newOwner",
          "type": "address"
        }
      ],
      "name": "transferOwnership",
      "outputs": [],
      "stateMutability": "nonpayable",
      "type": "function"
    },
    {
      "inputs": [
        {
          "internalType": "uint256",
          "name": "id",
          "type": "uint256"
        }
      ],
      "name": "uri",
      "outputs": [
        {
          "internalType": "string",
          "name": "",
          "type": "string"
        }
      ],
      "stateMutability": "view",
      "type": "function"
    },
    {
      "inputs": [],
      "name": "withdraw",
      "outputs": [],
      "stateMutability": "nonpayable",
      "type": "function"
    }
  ],
  "bytecode": {
    "object": "0x608060405234801561001057600080fd5b5060405161187a38038061187a83398101604081905261002f91610082565b600280546001600160a01b0319166001600160a01b0383169081179091556040518291906000907f8be0079c531659141344cd1fd0a4f28419497f9722a3daafe3b4186f6b6457e0908290a350506100b2565b60006020828403121561009457600080fd5b81516001600160a01b03811681146100ab57600080fd5b9392505050565b6117b9806100c16000396000f3fe608060405234801561001057600080fd5b506004361061010a5760003560e01c80636c8b703f116100a2578063a22cb46511610071578063a22cb46514610261578063e985e9c514610274578063f242432a146102a2578063f2fde38b146102b5578063f46eccc4146102c857600080fd5b80636c8b703f146101fd578063731133e9146102105780638da5cb5b14610223578063983b2d561461024e57600080fd5b80632693ebf2116100de5780632693ebf2146101a25780632eb2c2d6146101c25780633ccfd60b146101d55780634e1273f4146101dd57600080fd5b8062fdd58e1461010f57806301ffc9a71461014a5780630e89341c1461016d578063162094c41461018d575b600080fd5b61013761011d366004610f56565b600060208181529281526040808220909352908152205481565b6040519081526020015b60405180910390f35b61015d610158366004610f96565b6102eb565b6040519015158152602001610141565b61018061017b366004610fba565b61033d565b6040516101419190611019565b6101a061019b366004611075565b61043d565b005b6101376101b0366004610fba565b60046020526000908152604090205481565b6101a06101d0366004611106565b6104c0565b6101a0610763565b6101f06101eb3660046111c1565b6107bc565b604051610141919061122d565b61018061020b366004610fba565b6108f1565b6101a061021e366004611271565b61098b565b600254610236906001600160a01b031681565b6040516001600160a01b039091168152602001610141565b6101a061025c3660046112d9565b610ace565b6101a061026f3660046112f4565b610b1c565b61015d610282366004611330565b600160209081526000928352604080842090915290825290205460ff1681565b6101a06102b0366004611363565b610b88565b6101a06102c33660046112d9565b610d82565b61015d6102d63660046112d9565b60056020526000908152604090205460ff1681565b60006301ffc9a760e01b6001600160e01b03198316148061031c5750636cdb3d1360e11b6001600160e01b03198316145b8061033757506303a24d0760e21b6001600160e01b03198316145b92915050565b60008181526003602052604081208054606092919061035b906113db565b90501161039f5760405162461bcd60e51b815260206004820152600d60248201526c26a4a9a9a4a723afaa27a5a2a760991b60448201526064015b60405180910390fd5b600082815260036020526040902080546103b8906113db565b80601f01602080910402602001604051908101604052809291908181526020018280546103e4906113db565b80156104315780601f1061040657610100808354040283529160200191610431565b820191906000526020600020905b81548152906001019060200180831161041457829003601f168201915b50505050509050919050565b6002546001600160a01b031633146104675760405162461bcd60e51b815260040161039690611415565b827f6bb7ff708619ba0610cba295a58592e0451dee2622938c8755667688daf3529b8383604051610499929190611464565b60405180910390a260008381526003602052604090206104ba8284836114e1565b50505050565b8483146105015760405162461bcd60e51b815260206004820152600f60248201526e0988a9c8ea890be9a92a69a82a8869608b1b6044820152606401610396565b336001600160a01b038916148061053b57506001600160a01b038816600090815260016020908152604080832033845290915290205460ff165b6105785760405162461bcd60e51b815260206004820152600e60248201526d1393d517d055551213d49256915160921b6044820152606401610396565b60008060005b8781101561063357888882818110610598576105986115a1565b9050602002013592508686828181106105b3576105b36115a1565b6001600160a01b038e16600090815260208181526040808320898452825282208054939091029490940135955085939250906105f09084906115cd565b90915550506001600160a01b038a16600090815260208181526040808320868452909152812080548492906106269084906115e0565b909155505060010161057e565b50886001600160a01b03168a6001600160a01b0316336001600160a01b03167f4a39dc06d4c0dbc64b70af90fd698a233a518aa5d07e595d983b8c0526c8f7fb8b8b8b8b6040516106879493929190611625565b60405180910390a46001600160a01b0389163b1561072e5760405163bc197c8160e01b808252906001600160a01b038b169063bc197c81906106db9033908f908e908e908e908e908e908e90600401611657565b6020604051808303816000875af11580156106fa573d6000803e3d6000fd5b505050506040513d601f19601f8201168201806040525081019061071e91906116bb565b6001600160e01b0319161461073b565b6001600160a01b03891615155b6107575760405162461bcd60e51b8152600401610396906116d8565b50505050505050505050565b6002546001600160a01b0316331461078d5760405162461bcd60e51b815260040161039690611415565b60405133904780156108fc02916000818181858888f193505050501580156107b9573d6000803e3d6000fd5b50565b60608382146107ff5760405162461bcd60e51b815260206004820152600f60248201526e0988a9c8ea890be9a92a69a82a8869608b1b6044820152606401610396565b8367ffffffffffffffff81111561081857610818611480565b604051908082528060200260200182016040528015610841578160200160208202803683370190505b50905060005b848110156108e857600080878784818110610864576108646115a1565b905060200201602081019061087991906112d9565b6001600160a01b03166001600160a01b0316815260200190815260200160002060008585848181106108ad576108ad6115a1565b905060200201358152602001908152602001600020548282815181106108d5576108d56115a1565b6020908102919091010152600101610847565b50949350505050565b6003602052600090815260409020805461090a906113db565b80601f0160208091040260200160405190810160405280929190818152602001828054610936906113db565b80156109835780601f1061095857610100808354040283529160200191610983565b820191906000526020600020905b81548152906001019060200180831161096657829003601f168201915b505050505081565b3360009081526005602052604090205460ff16806109b357506002546001600160a01b031633145b610a135760405162461bcd60e51b815260206004820152602b60248201527f6f6e6c79206d696e746572206f72206f776e65722063616e2063616c6c20746860448201526a34b990333ab731ba34b7b760a91b6064820152608401610396565b60008311610a545760405162461bcd60e51b815260206004820152600e60248201526d1253959053125117d05353d5539560921b6044820152606401610396565b600084815260046020526040902054610a6e9084906115e0565b6004600086815260200190815260200160002081905550610ac785858585858080601f016020809104026020016040519081016040528093929190818152602001838380828437600092019190915250610df892505050565b5050505050565b6002546001600160a01b03163314610af85760405162461bcd60e51b815260040161039690611415565b6001600160a01b03166000908152600560205260409020805460ff19166001179055565b3360008181526001602090815260408083206001600160a01b03871680855290835292819020805460ff191686151590811790915590519081529192917f17307eab39ab6107e8899845ad3d59bd9653f200f220920489ca2b5937696c31910160405180910390a35050565b336001600160a01b0387161480610bc257506001600160a01b038616600090815260016020908152604080832033845290915290205460ff165b610bff5760405162461bcd60e51b815260206004820152600e60248201526d1393d517d055551213d49256915160921b6044820152606401610396565b6001600160a01b03861660009081526020818152604080832087845290915281208054859290610c309084906115cd565b90915550506001600160a01b03851660009081526020818152604080832087845290915281208054859290610c669084906115e0565b909155505060408051858152602081018590526001600160a01b03808816929089169133917fc3d58168c5ae7397731d063d5bbf3d657854427343f4c083240f7aacaa2d0f62910160405180910390a46001600160a01b0385163b15610d515760405163f23a6e6160e01b808252906001600160a01b0387169063f23a6e6190610cfe9033908b908a908a908a908a90600401611702565b6020604051808303816000875af1158015610d1d573d6000803e3d6000fd5b505050506040513d601f19601f82011682018060405250810190610d4191906116bb565b6001600160e01b03191614610d5e565b6001600160a01b03851615155b610d7a5760405162461bcd60e51b8152600401610396906116d8565b505050505050565b6002546001600160a01b03163314610dac5760405162461bcd60e51b815260040161039690611415565b600280546001600160a01b0319166001600160a01b03831690811790915560405133907f8be0079c531659141344cd1fd0a4f28419497f9722a3daafe3b4186f6b6457e090600090a350565b6001600160a01b03841660009081526020818152604080832086845290915281208054849290610e299084906115e0565b909155505060408051848152602081018490526001600160a01b0386169160009133917fc3d58168c5ae7397731d063d5bbf3d657854427343f4c083240f7aacaa2d0f62910160405180910390a46001600160a01b0384163b15610f115760405163f23a6e6160e01b808252906001600160a01b0386169063f23a6e6190610ebe903390600090899089908990600401611749565b6020604051808303816000875af1158015610edd573d6000803e3d6000fd5b505050506040513d601f19601f82011682018060405250810190610f0191906116bb565b6001600160e01b03191614610f1e565b6001600160a01b03841615155b6104ba5760405162461bcd60e51b8152600401610396906116d8565b80356001600160a01b0381168114610f5157600080fd5b919050565b60008060408385031215610f6957600080fd5b610f7283610f3a565b946020939093013593505050565b6001600160e01b0319811681146107b957600080fd5b600060208284031215610fa857600080fd5b8135610fb381610f80565b9392505050565b600060208284031215610fcc57600080fd5b5035919050565b6000815180845260005b81811015610ff957602081850181015186830182015201610fdd565b506000602082860101526020601f19601f83011685010191505092915050565b602081526000610fb36020830184610fd3565b60008083601f84011261103e57600080fd5b50813567ffffffffffffffff81111561105657600080fd5b60208301915083602082850101111561106e57600080fd5b9250929050565b60008060006040848603121561108a57600080fd5b83359250602084013567ffffffffffffffff8111156110a857600080fd5b6110b48682870161102c565b9497909650939450505050565b60008083601f8401126110d357600080fd5b50813567ffffffffffffffff8111156110eb57600080fd5b6020830191508360208260051b850101111561106e57600080fd5b60008060008060008060008060a0898b03121561112257600080fd5b61112b89610f3a565b975061113960208a01610f3a565b9650604089013567ffffffffffffffff8082111561115657600080fd5b6111628c838d016110c1565b909850965060608b013591508082111561117b57600080fd5b6111878c838d016110c1565b909650945060808b01359150808211156111a057600080fd5b506111ad8b828c0161102c565b999c989b5096995094979396929594505050565b600080600080604085870312156111d757600080fd5b843567ffffffffffffffff808211156111ef57600080fd5b6111fb888389016110c1565b9096509450602087013591508082111561121457600080fd5b50611221878288016110c1565b95989497509550505050565b6020808252825182820181905260009190848201906040850190845b8181101561126557835183529284019291840191600101611249565b50909695505050505050565b60008060008060006080868803121561128957600080fd5b61129286610f3a565b94506020860135935060408601359250606086013567ffffffffffffffff8111156112bc57600080fd5b6112c88882890161102c565b969995985093965092949392505050565b6000602082840312156112eb57600080fd5b610fb382610f3a565b6000806040838503121561130757600080fd5b61131083610f3a565b91506020830135801515811461132557600080fd5b809150509250929050565b6000806040838503121561134357600080fd5b61134c83610f3a565b915061135a60208401610f3a565b90509250929050565b60008060008060008060a0878903121561137c57600080fd5b61138587610f3a565b955061139360208801610f3a565b94506040870135935060608701359250608087013567ffffffffffffffff8111156113bd57600080fd5b6113c989828a0161102c565b979a9699509497509295939492505050565b600181811c908216806113ef57607f821691505b60208210810361140f57634e487b7160e01b600052602260045260246000fd5b50919050565b6020808252600c908201526b15539055551213d49256915160a21b604082015260600190565b81835281816020850137506000828201602090810191909152601f909101601f19169091010190565b60208152600061147860208301848661143b565b949350505050565b634e487b7160e01b600052604160045260246000fd5b601f8211156114dc57600081815260208120601f850160051c810160208610156114bd5750805b601f850160051c820191505b81811015610d7a578281556001016114c9565b505050565b67ffffffffffffffff8311156114f9576114f9611480565b61150d8361150783546113db565b83611496565b6000601f84116001811461154157600085156115295750838201355b600019600387901b1c1916600186901b178355610ac7565b600083815260209020601f19861690835b828110156115725786850135825560209485019460019092019101611552565b508682101561158f5760001960f88860031b161c19848701351681555b505060018560011b0183555050505050565b634e487b7160e01b600052603260045260246000fd5b634e487b7160e01b600052601160045260246000fd5b81810381811115610337576103376115b7565b80820180821115610337576103376115b7565b81835260006001600160fb1b0383111561160c57600080fd5b8260051b80836020870137939093016020019392505050565b6040815260006116396040830186886115f3565b828103602084015261164c8185876115f3565b979650505050505050565b6001600160a01b0389811682528816602082015260a060408201819052600090611684908301888a6115f3565b82810360608401526116978187896115f3565b905082810360808401526116ac81858761143b565b9b9a5050505050505050505050565b6000602082840312156116cd57600080fd5b8151610fb381610f80565b60208082526010908201526f155394d0519157d49150d2541251539560821b604082015260600190565b6001600160a01b03878116825286166020820152604081018590526060810184905260a06080820181905260009061173d908301848661143b565b98975050505050505050565b6001600160a01b03868116825285166020820152604081018490526060810183905260a06080820181905260009061164c90830184610fd356fea26469706673582212200cfaf389c8dbfeb84331ee9b9f8f28601d471e074204444f7a6022d16e827d2864736f6c63430008100033",
    "linkReferences": {}
  },
  "methodIdentifiers": {
    "addMinter(address)": "983b2d56",
    "balanceOf(address,uint256)": "00fdd58e",
    "balanceOfBatch(address[],uint256[])": "4e1273f4",
    "isApprovedForAll(address,address)": "e985e9c5",
    "mint(address,uint256,uint256,bytes)": "731133e9",
    "minters(address)": "f46eccc4",
    "owner()": "8da5cb5b",
    "safeBatchTransferFrom(address,address,uint256[],uint256[],bytes)": "2eb2c2d6",
    "safeTransferFrom(address,address,uint256,uint256,bytes)": "f242432a",
    "setApprovalForAll(address,bool)": "a22cb465",
    "setTokenURI(uint256,string)": "162094c4",
    "supportsInterface(bytes4)": "01ffc9a7",
    "tokenSupply(uint256)": "2693ebf2",
    "tokenURIs(uint256)": "6c8b703f",
    "transferOwnership(address)": "f2fde38b",
    "uri(uint256)": "0e89341c",
    "withdraw()": "3ccfd60b"
  },
  "id": 22
}