{
  "abi": [
    {
      "inputs": [
        {
          "internalType": "address",
          "name": "_artworkAddress",
          "type": "address"
        },
        {
          "internalType": "address[]",
          "name": "_tokenContracts",
          "type": "address[]"
        },
        {
          "internalType": "uint256",
          "name": "_numTemplates",
          "type": "uint256"
        },
        {
          "internalType": "string",
          "name": "_initialBaseURI",
          "type": "string"
        }
      ],
      "stateMutability": "nonpayable",
      "type": "constructor"
    },
    {
      "anonymous": false,
      "inputs": [
        {
          "indexed": true,
          "internalType": "address",
          "name": "owner",
          "type": "address"
        },
        {
          "indexed": true,
          "internalType": "address",
          "name": "spender",
          "type": "address"
        },
        {
          "indexed": true,
          "internalType": "uint256",
          "name": "id",
          "type": "uint256"
        }
      ],
      "name": "Approval",
      "type": "event"
    },
    {
      "anonymous": false,
      "inputs": [
        {
          "indexed": true,
          "internalType": "address",
          "name": "owner",
          "type": "address"
        },
        {
          "indexed": true,
          "internalType": "address",
          "name": "operator",
          "type": "address"
        },
        {
          "indexed": false,
          "internalType": "bool",
          "name": "approved",
          "type": "bool"
        }
      ],
      "name": "ApprovalForAll",
      "type": "event"
    },
    {
      "anonymous": false,
      "inputs": [
        {
          "indexed": true,
          "internalType": "address",
          "name": "user",
          "type": "address"
        },
        {
          "indexed": true,
          "internalType": "address",
          "name": "newOwner",
          "type": "address"
        }
      ],
      "name": "OwnershipTransferred",
      "type": "event"
    },
    {
      "anonymous": false,
      "inputs": [
        {
          "indexed": true,
          "internalType": "address",
          "name": "from",
          "type": "address"
        },
        {
          "indexed": true,
          "internalType": "address",
          "name": "to",
          "type": "address"
        },
        {
          "indexed": true,
          "internalType": "uint256",
          "name": "id",
          "type": "uint256"
        }
      ],
      "name": "Transfer",
      "type": "event"
    },
    {
      "anonymous": false,
      "inputs": [
        {
          "components": [
            {
              "internalType": "uint256",
              "name": "card",
              "type": "uint256"
            },
            {
              "internalType": "address",
              "name": "tokenContract",
              "type": "address"
            },
            {
              "internalType": "uint256",
              "name": "token",
              "type": "uint256"
            },
            {
              "internalType": "uint256",
              "name": "artwork",
              "type": "uint256"
            },
            {
              "internalType": "uint256",
              "name": "template",
              "type": "uint256"
            },
            {
              "internalType": "string",
              "name": "message",
              "type": "string"
            },
            {
              "internalType": "address",
              "name": "sender",
              "type": "address"
            },
            {
              "internalType": "address",
              "name": "recipient",
              "type": "address"
            }
          ],
          "indexed": false,
          "internalType": "struct WizzmasCard.Card",
          "name": "data",
          "type": "tuple"
        }
      ],
      "name": "WizzmasCardMinted",
      "type": "event"
    },
    {
      "inputs": [
        {
          "internalType": "string",
          "name": "_message",
          "type": "string"
        }
      ],
      "name": "addMessage",
      "outputs": [],
      "stateMutability": "nonpayable",
      "type": "function"
    },
    {
      "inputs": [
        {
          "internalType": "string[]",
          "name": "_messages",
          "type": "string[]"
        }
      ],
      "name": "addMessages",
      "outputs": [],
      "stateMutability": "nonpayable",
      "type": "function"
    },
    {
      "inputs": [
        {
          "internalType": "address",
          "name": "spender",
          "type": "address"
        },
        {
          "internalType": "uint256",
          "name": "id",
          "type": "uint256"
        }
      ],
      "name": "approve",
      "outputs": [],
      "stateMutability": "nonpayable",
      "type": "function"
    },
    {
      "inputs": [],
      "name": "artworkAddress",
      "outputs": [
        {
          "internalType": "address",
          "name": "",
          "type": "address"
        }
      ],
      "stateMutability": "view",
      "type": "function"
    },
    {
      "inputs": [],
      "name": "availableMessages",
      "outputs": [
        {
          "internalType": "string[]",
          "name": "",
          "type": "string[]"
        }
      ],
      "stateMutability": "view",
      "type": "function"
    },
    {
      "inputs": [
        {
          "internalType": "address",
          "name": "owner",
          "type": "address"
        }
      ],
      "name": "balanceOf",
      "outputs": [
        {
          "internalType": "uint256",
          "name": "",
          "type": "uint256"
        }
      ],
      "stateMutability": "view",
      "type": "function"
    },
    {
      "inputs": [],
      "name": "baseURI",
      "outputs": [
        {
          "internalType": "string",
          "name": "",
          "type": "string"
        }
      ],
      "stateMutability": "view",
      "type": "function"
    },
    {
      "inputs": [
        {
          "internalType": "uint256",
          "name": "",
          "type": "uint256"
        }
      ],
      "name": "getApproved",
      "outputs": [
        {
          "internalType": "address",
          "name": "",
          "type": "address"
        }
      ],
      "stateMutability": "view",
      "type": "function"
    },
    {
      "inputs": [
        {
          "internalType": "uint256",
          "name": "cardId",
          "type": "uint256"
        }
      ],
      "name": "getCard",
      "outputs": [
        {
          "components": [
            {
              "internalType": "uint256",
              "name": "card",
              "type": "uint256"
            },
            {
              "internalType": "address",
              "name": "tokenContract",
              "type": "address"
            },
            {
              "internalType": "uint256",
              "name": "token",
              "type": "uint256"
            },
            {
              "internalType": "uint256",
              "name": "artwork",
              "type": "uint256"
            },
            {
              "internalType": "uint256",
              "name": "template",
              "type": "uint256"
            },
            {
              "internalType": "string",
              "name": "message",
              "type": "string"
            },
            {
              "internalType": "address",
              "name": "sender",
              "type": "address"
            },
            {
              "internalType": "address",
              "name": "recipient",
              "type": "address"
            }
          ],
          "internalType": "struct WizzmasCard.Card",
          "name": "",
          "type": "tuple"
        }
      ],
      "stateMutability": "view",
      "type": "function"
    },
    {
      "inputs": [
        {
          "internalType": "address",
          "name": "recipient",
          "type": "address"
        }
      ],
      "name": "getRecipientCardIds",
      "outputs": [
        {
          "internalType": "uint256[]",
          "name": "",
          "type": "uint256[]"
        }
      ],
      "stateMutability": "view",
      "type": "function"
    },
    {
      "inputs": [
        {
          "internalType": "address",
          "name": "sender",
          "type": "address"
        }
      ],
      "name": "getSenderCardIds",
      "outputs": [
        {
          "internalType": "uint256[]",
          "name": "",
          "type": "uint256[]"
        }
      ],
      "stateMutability": "view",
      "type": "function"
    },
    {
      "inputs": [
        {
          "internalType": "address",
          "name": "",
          "type": "address"
        },
        {
          "internalType": "address",
          "name": "",
          "type": "address"
        }
      ],
      "name": "isApprovedForAll",
      "outputs": [
        {
          "internalType": "bool",
          "name": "",
          "type": "bool"
        }
      ],
      "stateMutability": "view",
      "type": "function"
    },
    {
      "inputs": [
        {
          "internalType": "uint256",
          "name": "",
          "type": "uint256"
        }
      ],
      "name": "messages",
      "outputs": [
        {
          "internalType": "string",
          "name": "",
          "type": "string"
        }
      ],
      "stateMutability": "view",
      "type": "function"
    },
    {
      "inputs": [
        {
          "internalType": "address",
          "name": "_tokenContract",
          "type": "address"
        },
        {
          "internalType": "uint256",
          "name": "_tokenId",
          "type": "uint256"
        },
        {
          "internalType": "uint256",
          "name": "_artworkId",
          "type": "uint256"
        },
        {
          "internalType": "uint256",
          "name": "_templateId",
          "type": "uint256"
        },
        {
          "internalType": "string",
          "name": "_message",
          "type": "string"
        },
        {
          "internalType": "address",
          "name": "_recipient",
          "type": "address"
        }
      ],
      "name": "mint",
      "outputs": [],
      "stateMutability": "nonpayable",
      "type": "function"
    },
    {
      "inputs": [],
      "name": "mintEnabled",
      "outputs": [
        {
          "internalType": "bool",
          "name": "",
          "type": "bool"
        }
      ],
      "stateMutability": "view",
      "type": "function"
    },
    {
      "inputs": [],
      "name": "name",
      "outputs": [
        {
          "internalType": "string",
          "name": "",
          "type": "string"
        }
      ],
      "stateMutability": "view",
      "type": "function"
    },
    {
      "inputs": [],
      "name": "numTemplates",
      "outputs": [
        {
          "internalType": "uint256",
          "name": "",
          "type": "uint256"
        }
      ],
      "stateMutability": "view",
      "type": "function"
    },
    {
      "inputs": [],
      "name": "owner",
      "outputs": [
        {
          "internalType": "address",
          "name": "",
          "type": "address"
        }
      ],
      "stateMutability": "view",
      "type": "function"
    },
    {
      "inputs": [
        {
          "internalType": "uint256",
          "name": "id",
          "type": "uint256"
        }
      ],
      "name": "ownerOf",
      "outputs": [
        {
          "internalType": "address",
          "name": "owner",
          "type": "address"
        }
      ],
      "stateMutability": "view",
      "type": "function"
    },
    {
      "inputs": [
        {
          "internalType": "address",
          "name": "",
          "type": "address"
        },
        {
          "internalType": "uint256",
          "name": "",
          "type": "uint256"
        }
      ],
      "name": "recipientCards",
      "outputs": [
        {
          "internalType": "uint256",
          "name": "",
          "type": "uint256"
        }
      ],
      "stateMutability": "view",
      "type": "function"
    },
    {
      "inputs": [
        {
          "internalType": "uint256",
          "name": "index",
          "type": "uint256"
        }
      ],
      "name": "removeMessage",
      "outputs": [],
      "stateMutability": "nonpayable",
      "type": "function"
    },
    {
      "inputs": [
        {
          "internalType": "address",
          "name": "from",
          "type": "address"
        },
        {
          "internalType": "address",
          "name": "to",
          "type": "address"
        },
        {
          "internalType": "uint256",
          "name": "id",
          "type": "uint256"
        }
      ],
      "name": "safeTransferFrom",
      "outputs": [],
      "stateMutability": "nonpayable",
      "type": "function"
    },
    {
      "inputs": [
        {
          "internalType": "address",
          "name": "from",
          "type": "address"
        },
        {
          "internalType": "address",
          "name": "to",
          "type": "address"
        },
        {
          "internalType": "uint256",
          "name": "id",
          "type": "uint256"
        },
        {
          "internalType": "bytes",
          "name": "data",
          "type": "bytes"
        }
      ],
      "name": "safeTransferFrom",
      "outputs": [],
      "stateMutability": "nonpayable",
      "type": "function"
    },
    {
      "inputs": [
        {
          "internalType": "address",
          "name": "",
          "type": "address"
        },
        {
          "internalType": "uint256",
          "name": "",
          "type": "uint256"
        }
      ],
      "name": "senderCards",
      "outputs": [
        {
          "internalType": "uint256",
          "name": "",
          "type": "uint256"
        }
      ],
      "stateMutability": "view",
      "type": "function"
    },
    {
      "inputs": [
        {
          "internalType": "address",
          "name": "operator",
          "type": "address"
        },
        {
          "internalType": "bool",
          "name": "approved",
          "type": "bool"
        }
      ],
      "name": "setApprovalForAll",
      "outputs": [],
      "stateMutability": "nonpayable",
      "type": "function"
    },
    {
      "inputs": [
        {
          "internalType": "address",
          "name": "_address",
          "type": "address"
        }
      ],
      "name": "setArtworkAddress",
      "outputs": [],
      "stateMutability": "nonpayable",
      "type": "function"
    },
    {
      "inputs": [
        {
          "internalType": "string",
          "name": "_newBaseURI",
          "type": "string"
        }
      ],
      "name": "setBaseURI",
      "outputs": [],
      "stateMutability": "nonpayable",
      "type": "function"
    },
    {
      "inputs": [
        {
          "internalType": "bool",
          "name": "_newMintEnabled",
          "type": "bool"
        }
      ],
      "name": "setMintEnabled",
      "outputs": [],
      "stateMutability": "nonpayable",
      "type": "function"
    },
    {
      "inputs": [
        {
          "internalType": "uint256",
          "name": "_numTemplates",
          "type": "uint256"
        }
      ],
      "name": "setNumTemplates",
      "outputs": [],
      "stateMutability": "nonpayable",
      "type": "function"
    },
    {
      "inputs": [
        {
          "internalType": "address",
          "name": "_address",
          "type": "address"
        },
        {
          "internalType": "bool",
          "name": "supported",
          "type": "bool"
        }
      ],
      "name": "setSupportedTokenContract",
      "outputs": [],
      "stateMutability": "nonpayable",
      "type": "function"
    },
    {
      "inputs": [
        {
          "internalType": "address",
          "name": "",
          "type": "address"
        }
      ],
      "name": "supportedTokenContracts",
      "outputs": [
        {
          "internalType": "bool",
          "name": "",
          "type": "bool"
        }
      ],
      "stateMutability": "view",
      "type": "function"
    },
    {
      "inputs": [
        {
          "internalType": "bytes4",
          "name": "interfaceId",
          "type": "bytes4"
        }
      ],
      "name": "supportsInterface",
      "outputs": [
        {
          "internalType": "bool",
          "name": "",
          "type": "bool"
        }
      ],
      "stateMutability": "view",
      "type": "function"
    },
    {
      "inputs": [],
      "name": "symbol",
      "outputs": [
        {
          "internalType": "string",
          "name": "",
          "type": "string"
        }
      ],
      "stateMutability": "view",
      "type": "function"
    },
    {
      "inputs": [
        {
          "internalType": "uint256",
          "name": "id",
          "type": "uint256"
        }
      ],
      "name": "tokenURI",
      "outputs": [
        {
          "internalType": "string",
          "name": "",
          "type": "string"
        }
      ],
      "stateMutability": "view",
      "type": "function"
    },
    {
      "inputs": [
        {
          "internalType": "address",
          "name": "from",
          "type": "address"
        },
        {
          "internalType": "address",
          "name": "to",
          "type": "address"
        },
        {
          "internalType": "uint256",
          "name": "id",
          "type": "uint256"
        }
      ],
      "name": "transferFrom",
      "outputs": [],
      "stateMutability": "nonpayable",
      "type": "function"
    },
    {
      "inputs": [
        {
          "internalType": "address",
          "name": "newOwner",
          "type": "address"
        }
      ],
      "name": "transferOwnership",
      "outputs": [],
      "stateMutability": "nonpayable",
      "type": "function"
    },
    {
      "inputs": [],
      "name": "withdraw",
      "outputs": [],
      "stateMutability": "nonpayable",
      "type": "function"
    }
  ],
  "bytecode": {
    "object": "0x600160075560006009819055600a55600e805460ff19169055601a6101009081527f4861766520612076657279204d657272792057697a7a6d6173210000000000006101205260809081526101a0604052602361014081815260a09162002d756101603981526020016040518060400160405280601681526020017f486f486f486f21204d657272792057697a7a6d6173210000000000000000000081525081526020016040518060600160405280602b815260200162002d4a602b91399052620000cf90600f906004620002ad565b50348015620000dd57600080fd5b5060405162002d9838038062002d98833981016040819052620001009162000477565b604080518082018252600b8082526a15da5e9e9b585cd0d85c9960aa1b60208084018290528451808601909552918452908301523391600062000144838262000605565b50600162000153828262000605565b5050600680546001600160a01b0319166001600160a01b0384169081179091556040519091506000907f8be0079c531659141344cd1fd0a4f28419497f9722a3daafe3b4186f6b6457e0908290a350600b80546001600160a01b0319166001600160a01b03861617905560005b83518160ff16101562000232576001600c6000868460ff1681518110620001eb57620001eb620006d1565b6020908102919091018101516001600160a01b03168252810191909152604001600020805460ff1916911515919091179055806200022981620006e7565b915050620001c0565b50600982905562000243816200024d565b5050505062000715565b6006546001600160a01b031633146200029b5760405162461bcd60e51b815260206004820152600c60248201526b15539055551213d49256915160a21b604482015260640160405180910390fd5b600d620002a9828262000605565b5050565b828054828255906000526020600020908101928215620002f8579160200282015b82811115620002f85782518290620002e7908262000605565b5091602001919060010190620002ce565b50620003069291506200030a565b5090565b80821115620003065760006200032182826200032b565b506001016200030a565b508054620003399062000576565b6000825580601f106200034a575050565b601f0160209004906000526020600020908101906200036a91906200036d565b50565b5b808211156200030657600081556001016200036e565b80516001600160a01b03811681146200039c57600080fd5b919050565b634e487b7160e01b600052604160045260246000fd5b604051601f8201601f191681016001600160401b0381118282101715620003e257620003e2620003a1565b604052919050565b600082601f830112620003fc57600080fd5b81516001600160401b03811115620004185762000418620003a1565b60206200042e601f8301601f19168201620003b7565b82815285828487010111156200044357600080fd5b60005b838110156200046357858101830151828201840152820162000446565b506000928101909101919091529392505050565b600080600080608085870312156200048e57600080fd5b620004998562000384565b602086810151919550906001600160401b0380821115620004b957600080fd5b818801915088601f830112620004ce57600080fd5b815181811115620004e357620004e3620003a1565b8060051b620004f4858201620003b7565b918252838101850191858101908c8411156200050f57600080fd5b948601945b838610156200053857620005288662000384565b8252948601949086019062000514565b60408c015160608d0151919a5098509550505050808311156200055a57600080fd5b50506200056a87828801620003ea565b91505092959194509250565b600181811c908216806200058b57607f821691505b602082108103620005ac57634e487b7160e01b600052602260045260246000fd5b50919050565b601f8211156200060057600081815260208120601f850160051c81016020861015620005db5750805b601f850160051c820191505b81811015620005fc57828155600101620005e7565b5050505b505050565b81516001600160401b03811115620006215762000621620003a1565b620006398162000632845462000576565b84620005b2565b602080601f831160018114620006715760008415620006585750858301515b600019600386901b1c1916600185901b178555620005fc565b600085815260208120601f198616915b82811015620006a25788860151825594840194600190910190840162000681565b5085821015620006c15787850151600019600388901b60f8161c191681555b5050505050600190811b01905550565b634e487b7160e01b600052603260045260246000fd5b600060ff821660ff81036200070c57634e487b7160e01b600052601160045260246000fd5b60010192915050565b61262580620007256000396000f3fe608060405234801561001057600080fd5b50600436106102275760003560e01c80636a226a4911610130578063b88d4fde116100b8578063ec8e1e131161007c578063ec8e1e13146104f7578063f2fde38b1461050a578063f46a04eb1461051d578063fa6c9cb314610530578063fdc49a2e1461054357600080fd5b8063b88d4fde14610483578063c87b56dd14610496578063d1239730146104a9578063e38806df146104b6578063e985e9c5146104c957600080fd5b80638f7dd48b116100ff5780638f7dd48b146104225780639188d3121461043557806395d89b4114610455578063a22cb4651461045d578063a4bc00661461047057600080fd5b80636a226a49146103e15780636c0360eb146103f457806370a08231146103fc5780638da5cb5b1461040f57600080fd5b8063283e9a95116101b357806341c3b3481161018257806341c3b3481461037557806342842e0e146103955780634c2ade1e146103a857806355f804b3146103bb5780636352211e146103ce57600080fd5b8063283e9a95146103205780632de263d7146103435780632faceae2146103565780633ccfd60b1461036d57600080fd5b80630d80fefd116101fa5780630d80fefd146102bf5780631324111b146102d25780631a62a517146102e75780631b1862be146102fa57806323b872dd1461030d57600080fd5b806301ffc9a71461022c57806306fdde0314610254578063081812fc14610269578063095ea7b3146102aa575b600080fd5b61023f61023a366004611ae4565b610556565b60405190151581526020015b60405180910390f35b61025c6105a8565b60405161024b9190611b58565b610292610277366004611b6b565b6004602052600090815260409020546001600160a01b031681565b6040516001600160a01b03909116815260200161024b565b6102bd6102b8366004611b99565b610636565b005b61025c6102cd366004611b6b565b61071d565b6102da610748565b60405161024b9190611bc5565b6102bd6102f5366004611cde565b610821565b6102bd610308366004611d5e565b610c8e565b6102bd61031b366004611e21565b610d18565b61023f61032e366004611e62565b600c6020526000908152604090205460ff1681565b6102bd610351366004611b6b565b610edf565b61035f60095481565b60405190815260200161024b565b6102bd610ffe565b610388610383366004611e62565b611057565b60405161024b9190611e7f565b6102bd6103a3366004611e21565b6110c3565b6102bd6103b6366004611b6b565b611198565b6102bd6103c9366004611ec3565b6111c7565b6102926103dc366004611b6b565b6111fd565b6102bd6103ef366004611ec3565b611254565b61025c6112ba565b61035f61040a366004611e62565b6112c7565b600654610292906001600160a01b031681565b6102bd610430366004611f10565b61132a565b610448610443366004611b6b565b61137f565b60405161024b9190611f45565b61025c61153d565b6102bd61046b366004611f10565b61154a565b61035f61047e366004611b99565b6115b6565b6102bd610491366004611fd5565b6115e7565b61025c6104a4366004611b6b565b6116ac565b600e5461023f9060ff1681565b6103886104c4366004611e62565b6116e0565b61023f6104d7366004612074565b600560209081526000928352604080842090915290825290205460ff1681565b6102bd610505366004611e62565b61174a565b6102bd610518366004611e62565b611796565b6102bd61052b3660046120ad565b61180c565b600b54610292906001600160a01b031681565b61035f610551366004611b99565b611849565b60006301ffc9a760e01b6001600160e01b03198316148061058757506380ac58cd60e01b6001600160e01b03198316145b806105a25750635b5e139f60e01b6001600160e01b03198316145b92915050565b600080546105b5906120c8565b80601f01602080910402602001604051908101604052809291908181526020018280546105e1906120c8565b801561062e5780601f106106035761010080835404028352916020019161062e565b820191906000526020600020905b81548152906001019060200180831161061157829003601f168201915b505050505081565b6000818152600260205260409020546001600160a01b03163381148061067f57506001600160a01b038116600090815260056020908152604080832033845290915290205460ff165b6106c15760405162461bcd60e51b815260206004820152600e60248201526d1393d517d055551213d49256915160921b60448201526064015b60405180910390fd5b60008281526004602052604080822080546001600160a01b0319166001600160a01b0387811691821790925591518593918516917f8c5be1e5ebec7d5bd14f71427d1e84f3dd0314c0f7b2291e5b200ac8c7c3b92591a4505050565b600f818154811061072d57600080fd5b9060005260206000200160009150905080546105b5906120c8565b6060600f805480602002602001604051908101604052809291908181526020016000905b8282101561081857838290600052602060002001805461078b906120c8565b80601f01602080910402602001604051908101604052809291908181526020018280546107b7906120c8565b80156108045780601f106107d957610100808354040283529160200191610804565b820191906000526020600020905b8154815290600101906020018083116107e757829003601f168201915b50505050508152602001906001019061076c565b50505050905090565b6007546001146108605760405162461bcd60e51b815260206004820152600a6024820152695245454e5452414e435960b01b60448201526064016106b8565b6002600755600e5460ff166108a55760405162461bcd60e51b815260206004820152600b60248201526a1352539517d0d313d4d15160aa1b60448201526064016106b8565b60095483106108e95760405162461bcd60e51b815260206004820152601060248201526f494e56414c49445f54454d504c41544560801b60448201526064016106b8565b6001600160a01b0386166000908152600c602052604090205460ff1615156001146109625760405162461bcd60e51b815260206004820152602360248201527f556e737570706f7274656420746f6b656e20636f6e747261637420666f72206d6044820152621a5b9d60ea1b60648201526084016106b8565b60408251106109a65760405162461bcd60e51b815260206004820152601060248201526f4d65737361676520746f6f206c6f6e6760801b60448201526064016106b8565b6040516331a9108f60e11b81526004810186905233906001600160a01b03881690636352211e90602401602060405180830381865afa1580156109ed573d6000803e3d6000fd5b505050506040513d601f19601f82011682018060405250810190610a119190612102565b6001600160a01b031614610a535760405162461bcd60e51b81526020600482015260096024820152682727aa2fa7aba722a960b91b60448201526064016106b8565b600b54604051627eeac760e11b8152336004820152602481018690526000916001600160a01b03169062fdd58e90604401602060405180830381865afa158015610aa1573d6000803e3d6000fd5b505050506040513d601f19601f82011682018060405250810190610ac5919061211f565b11610aff5760405162461bcd60e51b815260206004820152600a6024820152694e4f5f415254574f524b60b01b60448201526064016106b8565b600a54610b0c8282611865565b600a60008154610b1b9061214e565b9091555060408051610100810182528281526001600160a01b0389811660208084019182528385018b8152606085018b8152608086018b815260a087018b81523360c08901528a871660e089015260008a81526008909552979093208651815593516001850180546001600160a01b0319169190961617909455516002830155915160038201559051600482015591519091906005820190610bbd90826121b5565b5060c08201516006820180546001600160a01b03199081166001600160a01b039384161790915560e0909301516007909201805490931691811691909117909155336000908152601060209081526040808320805460018181018355918552838520018690559386168352601182528083208054948501815583528183209093018490558382526008905281902090517f303249d8bcbf5f19a46d4f4dd0229ea5444b0dc9b4804f9373cc35da7617aca491610c78916122f2565b60405180910390a1505060016007555050505050565b6006546001600160a01b03163314610cb85760405162461bcd60e51b81526004016106b890612382565b60005b8151811015610d1457600f828281518110610cd857610cd86123a8565b60209081029190910181015182546001810184556000938452919092200190610d0190826121b5565b5080610d0c8161214e565b915050610cbb565b5050565b6000818152600260205260409020546001600160a01b03848116911614610d6e5760405162461bcd60e51b815260206004820152600a60248201526957524f4e475f46524f4d60b01b60448201526064016106b8565b6001600160a01b038216610db85760405162461bcd60e51b81526020600482015260116024820152701253959053125117d49150d25412515395607a1b60448201526064016106b8565b336001600160a01b0384161480610df257506001600160a01b038316600090815260056020908152604080832033845290915290205460ff165b80610e1357506000818152600460205260409020546001600160a01b031633145b610e505760405162461bcd60e51b815260206004820152600e60248201526d1393d517d055551213d49256915160921b60448201526064016106b8565b6001600160a01b0380841660008181526003602090815260408083208054600019019055938616808352848320805460010190558583526002825284832080546001600160a01b03199081168317909155600490925284832080549092169091559251849392917fddf252ad1be2c89b69c2b068fc378daa952ba7f163c4a11628f55a4df523b3ef91a4505050565b6006546001600160a01b03163314610f095760405162461bcd60e51b81526004016106b890612382565b600f548110610f505760405162461bcd60e51b8152602060048201526013602482015272494e4445585f4f55545f4f465f424f554e445360681b60448201526064016106b8565b805b600f54610f61906001906123be565b811015610fcb57600f610f758260016123d1565b81548110610f8557610f856123a8565b90600052602060002001600f8281548110610fa257610fa26123a8565b906000526020600020019081610fb891906123e4565b5080610fc38161214e565b915050610f52565b50600f805480610fdd57610fdd6124b7565b600190038181906000526020600020016000610ff99190611a80565b905550565b6006546001600160a01b031633146110285760405162461bcd60e51b81526004016106b890612382565b60405133904780156108fc02916000818181858888f19350505050158015611054573d6000803e3d6000fd5b50565b6001600160a01b0381166000908152601060209081526040918290208054835181840281018401909452808452606093928301828280156110b757602002820191906000526020600020905b8154815260200190600101908083116110a3575b50505050509050919050565b6110ce838383610d18565b6001600160a01b0382163b15806111775750604051630a85bd0160e11b8082523360048301526001600160a01b03858116602484015260448301849052608060648401526000608484015290919084169063150b7a029060a4016020604051808303816000875af1158015611147573d6000803e3d6000fd5b505050506040513d601f19601f8201168201806040525081019061116b91906124cd565b6001600160e01b031916145b6111935760405162461bcd60e51b81526004016106b8906124ea565b505050565b6006546001600160a01b031633146111c25760405162461bcd60e51b81526004016106b890612382565b600955565b6006546001600160a01b031633146111f15760405162461bcd60e51b81526004016106b890612382565b600d610d1482826121b5565b6000818152600260205260409020546001600160a01b03168061124f5760405162461bcd60e51b815260206004820152600a6024820152691393d517d3525395115160b21b60448201526064016106b8565b919050565b6006546001600160a01b0316331461127e5760405162461bcd60e51b81526004016106b890612382565b600f80546001810182556000919091527f8d1108e10bcb7c27dddfc02ed9d693a074039d026cf4ea4240b40f7d581ac80201610d1482826121b5565b600d80546105b5906120c8565b60006001600160a01b03821661130e5760405162461bcd60e51b815260206004820152600c60248201526b5a45524f5f4144445245535360a01b60448201526064016106b8565b506001600160a01b031660009081526003602052604090205490565b6006546001600160a01b031633146113545760405162461bcd60e51b81526004016106b890612382565b6001600160a01b03919091166000908152600c60205260409020805460ff1916911515919091179055565b6113e26040518061010001604052806000815260200160006001600160a01b031681526020016000815260200160008152602001600081526020016060815260200160006001600160a01b0316815260200160006001600160a01b031681525090565b81600a541115611503576000828152600860209081526040918290208251610100810184528154815260018201546001600160a01b031692810192909252600281015492820192909252600382015460608201526004820154608082015260058201805491929160a084019190611458906120c8565b80601f0160208091040260200160405190810160405280929190818152602001828054611484906120c8565b80156114d15780601f106114a6576101008083540402835291602001916114d1565b820191906000526020600020905b8154815290600101906020018083116114b457829003601f168201915b505050918352505060068201546001600160a01b03908116602083015260079092015490911660409091015292915050565b60405162461bcd60e51b815260206004820152600f60248201526e10d0549117d393d517d35253951151608a1b60448201526064016106b8565b600180546105b5906120c8565b3360008181526005602090815260408083206001600160a01b03871680855290835292819020805460ff191686151590811790915590519081529192917f17307eab39ab6107e8899845ad3d59bd9653f200f220920489ca2b5937696c31910160405180910390a35050565b601160205281600052604060002081815481106115d257600080fd5b90600052602060002001600091509150505481565b6115f2858585610d18565b6001600160a01b0384163b15806116895750604051630a85bd0160e11b808252906001600160a01b0386169063150b7a029061163a9033908a90899089908990600401612514565b6020604051808303816000875af1158015611659573d6000803e3d6000fd5b505050506040513d601f19601f8201168201806040525081019061167d91906124cd565b6001600160e01b031916145b6116a55760405162461bcd60e51b81526004016106b8906124ea565b5050505050565b6060600d6116b983611931565b6040516020016116ca929190612568565b6040516020818303038152906040529050919050565b6001600160a01b0381166000908152601160209081526040918290208054835181840281018401909452808452606093928301828280156110b757602002820191906000526020600020908154815260200190600101908083116110a35750505050509050919050565b6006546001600160a01b031633146117745760405162461bcd60e51b81526004016106b890612382565b600b80546001600160a01b0319166001600160a01b0392909216919091179055565b6006546001600160a01b031633146117c05760405162461bcd60e51b81526004016106b890612382565b600680546001600160a01b0319166001600160a01b03831690811790915560405133907f8be0079c531659141344cd1fd0a4f28419497f9722a3daafe3b4186f6b6457e090600090a350565b6006546001600160a01b031633146118365760405162461bcd60e51b81526004016106b890612382565b600e805460ff1916911515919091179055565b601060205281600052604060002081815481106115d257600080fd5b61186f8282611975565b6001600160a01b0382163b15806119155750604051630a85bd0160e11b80825233600483015260006024830181905260448301849052608060648401526084830152906001600160a01b0384169063150b7a029060a4016020604051808303816000875af11580156118e5573d6000803e3d6000fd5b505050506040513d601f19601f8201168201806040525081019061190991906124cd565b6001600160e01b031916145b610d145760405162461bcd60e51b81526004016106b8906124ea565b606060a06040510180604052602081039150506000815280825b600183039250600a81066030018353600a90048061194b5750819003601f19909101908152919050565b6001600160a01b0382166119bf5760405162461bcd60e51b81526020600482015260116024820152701253959053125117d49150d25412515395607a1b60448201526064016106b8565b6000818152600260205260409020546001600160a01b031615611a155760405162461bcd60e51b815260206004820152600e60248201526d1053149150511657d3525395115160921b60448201526064016106b8565b6001600160a01b038216600081815260036020908152604080832080546001019055848352600290915280822080546001600160a01b0319168417905551839291907fddf252ad1be2c89b69c2b068fc378daa952ba7f163c4a11628f55a4df523b3ef908290a45050565b508054611a8c906120c8565b6000825580601f10611a9c575050565b601f01602090049060005260206000209081019061105491905b80821115611aca5760008155600101611ab6565b5090565b6001600160e01b03198116811461105457600080fd5b600060208284031215611af657600080fd5b8135611b0181611ace565b9392505050565b60005b83811015611b23578181015183820152602001611b0b565b50506000910152565b60008151808452611b44816020860160208601611b08565b601f01601f19169290920160200192915050565b602081526000611b016020830184611b2c565b600060208284031215611b7d57600080fd5b5035919050565b6001600160a01b038116811461105457600080fd5b60008060408385031215611bac57600080fd5b8235611bb781611b84565b946020939093013593505050565b6000602080830181845280855180835260408601915060408160051b870101925083870160005b82811015611c1a57603f19888603018452611c08858351611b2c565b94509285019290850190600101611bec565b5092979650505050505050565b634e487b7160e01b600052604160045260246000fd5b604051601f8201601f1916810167ffffffffffffffff81118282101715611c6657611c66611c27565b604052919050565b600082601f830112611c7f57600080fd5b813567ffffffffffffffff811115611c9957611c99611c27565b611cac601f8201601f1916602001611c3d565b818152846020838601011115611cc157600080fd5b816020850160208301376000918101602001919091529392505050565b60008060008060008060c08789031215611cf757600080fd5b8635611d0281611b84565b9550602087013594506040870135935060608701359250608087013567ffffffffffffffff811115611d3357600080fd5b611d3f89828a01611c6e565b92505060a0870135611d5081611b84565b809150509295509295509295565b60006020808385031215611d7157600080fd5b823567ffffffffffffffff80821115611d8957600080fd5b818501915085601f830112611d9d57600080fd5b813581811115611daf57611daf611c27565b8060051b611dbe858201611c3d565b9182528381018501918581019089841115611dd857600080fd5b86860192505b83831015611e1457823585811115611df65760008081fd5b611e048b89838a0101611c6e565b8352509186019190860190611dde565b9998505050505050505050565b600080600060608486031215611e3657600080fd5b8335611e4181611b84565b92506020840135611e5181611b84565b929592945050506040919091013590565b600060208284031215611e7457600080fd5b8135611b0181611b84565b6020808252825182820181905260009190848201906040850190845b81811015611eb757835183529284019291840191600101611e9b565b50909695505050505050565b600060208284031215611ed557600080fd5b813567ffffffffffffffff811115611eec57600080fd5b611ef884828501611c6e565b949350505050565b8035801515811461124f57600080fd5b60008060408385031215611f2357600080fd5b8235611f2e81611b84565b9150611f3c60208401611f00565b90509250929050565b60208152815160208201526000602083015160018060a01b0380821660408501526040850151606085015260608501516080850152608085015160a085015260a085015191506101008060c0860152611fa2610120860184611b2c565b92508160c08701511660e086015260e08601519150611fcb818601836001600160a01b03169052565b5090949350505050565b600080600080600060808688031215611fed57600080fd5b8535611ff881611b84565b9450602086013561200881611b84565b935060408601359250606086013567ffffffffffffffff8082111561202c57600080fd5b818801915088601f83011261204057600080fd5b81358181111561204f57600080fd5b89602082850101111561206157600080fd5b9699959850939650602001949392505050565b6000806040838503121561208757600080fd5b823561209281611b84565b915060208301356120a281611b84565b809150509250929050565b6000602082840312156120bf57600080fd5b611b0182611f00565b600181811c908216806120dc57607f821691505b6020821081036120fc57634e487b7160e01b600052602260045260246000fd5b50919050565b60006020828403121561211457600080fd5b8151611b0181611b84565b60006020828403121561213157600080fd5b5051919050565b634e487b7160e01b600052601160045260246000fd5b60006001820161216057612160612138565b5060010190565b601f82111561119357600081815260208120601f850160051c8101602086101561218e5750805b601f850160051c820191505b818110156121ad5782815560010161219a565b505050505050565b815167ffffffffffffffff8111156121cf576121cf611c27565b6121e3816121dd84546120c8565b84612167565b602080601f83116001811461221857600084156122005750858301515b600019600386901b1c1916600185901b1785556121ad565b600085815260208120601f198616915b8281101561224757888601518255948401946001909101908401612228565b50858210156122655787850151600019600388901b60f8161c191681555b5050505050600190811b01905550565b60008154612282816120c8565b80855260206001838116801561229f57600181146122b9576122e7565b60ff1985168884015283151560051b8801830195506122e7565b866000528260002060005b858110156122df5781548a82018601529083019084016122c4565b890184019650505b505050505092915050565b6020815281546020820152600061231360018401546001600160a01b031690565b6001600160a01b031660408301526002830154606083015260038301546080830152600483015460a083015261010060c0830181905261235a610120840160058601612275565b60068501546001600160a01b0390811660e08601526007909501549094169201919091525090565b6020808252600c908201526b15539055551213d49256915160a21b604082015260600190565b634e487b7160e01b600052603260045260246000fd5b818103818111156105a2576105a2612138565b808201808211156105a2576105a2612138565b8181036123ef575050565b6123f982546120c8565b67ffffffffffffffff81111561241157612411611c27565b61241f816121dd84546120c8565b6000601f821160018114612453576000831561243b5750848201545b600019600385901b1c1916600184901b1784556116a5565b600085815260209020601f19841690600086815260209020845b8381101561248d578286015482556001958601959091019060200161246d565b50858310156122655793015460001960f8600387901b161c19169092555050600190811b01905550565b634e487b7160e01b600052603160045260246000fd5b6000602082840312156124df57600080fd5b8151611b0181611ace565b60208082526010908201526f155394d0519157d49150d2541251539560821b604082015260600190565b6001600160a01b038681168252851660208201526040810184905260806060820181905281018290526000828460a0840137600060a0848401015260a0601f19601f85011683010190509695505050505050565b6000808454612576816120c8565b6001828116801561258e57600181146125a3576125d2565b60ff19841687528215158302870194506125d2565b8860005260208060002060005b858110156125c95781548a8201529084019082016125b0565b50505082870194505b5050505083516125e6818360208801611b08565b0194935050505056fea2646970667358221220b7ed72f088e6d2acb14b1c677571bee07f5d7b918c4d78cdf9f8611405f3bc3064736f6c63430008100033486170707920486f6c6964617973212045617420706c656e7479206f66204a656c6c7920446f6e757473214d617920796f757220486f6c69646179732062652066756c6c206f6620216d61676963",
    "linkReferences": {}
  },
  "methodIdentifiers": {
    "addMessage(string)": "6a226a49",
    "addMessages(string[])": "1b1862be",
    "approve(address,uint256)": "095ea7b3",
    "artworkAddress()": "fa6c9cb3",
    "availableMessages()": "1324111b",
    "balanceOf(address)": "70a08231",
    "baseURI()": "6c0360eb",
    "getApproved(uint256)": "081812fc",
    "getCard(uint256)": "9188d312",
    "getRecipientCardIds(address)": "e38806df",
    "getSenderCardIds(address)": "41c3b348",
    "isApprovedForAll(address,address)": "e985e9c5",
    "messages(uint256)": "0d80fefd",
    "mint(address,uint256,uint256,uint256,string,address)": "1a62a517",
    "mintEnabled()": "d1239730",
    "name()": "06fdde03",
    "numTemplates()": "2faceae2",
    "owner()": "8da5cb5b",
    "ownerOf(uint256)": "6352211e",
    "recipientCards(address,uint256)": "a4bc0066",
    "removeMessage(uint256)": "2de263d7",
    "safeTransferFrom(address,address,uint256)": "42842e0e",
    "safeTransferFrom(address,address,uint256,bytes)": "b88d4fde",
    "senderCards(address,uint256)": "fdc49a2e",
    "setApprovalForAll(address,bool)": "a22cb465",
    "setArtworkAddress(address)": "ec8e1e13",
    "setBaseURI(string)": "55f804b3",
    "setMintEnabled(bool)": "f46a04eb",
    "setNumTemplates(uint256)": "4c2ade1e",
    "setSupportedTokenContract(address,bool)": "8f7dd48b",
    "supportedTokenContracts(address)": "283e9a95",
    "supportsInterface(bytes4)": "01ffc9a7",
    "symbol()": "95d89b41",
    "tokenURI(uint256)": "c87b56dd",
    "transferFrom(address,address,uint256)": "23b872dd",
    "transferOwnership(address)": "f2fde38b",
    "withdraw()": "3ccfd60b"
  },
  "id": 23
}