{
  "abi": [
    {
      "inputs": [
        {
          "internalType": "address",
          "name": "_artworkAddress",
          "type": "address"
        },
        {
          "internalType": "address[]",
          "name": "_tokenContracts",
          "type": "address[]"
        },
        {
          "internalType": "uint256",
          "name": "_numTemplates",
          "type": "uint256"
        },
        {
          "internalType": "string",
          "name": "_initialBaseURI",
          "type": "string"
        }
      ],
      "stateMutability": "nonpayable",
      "type": "constructor"
    },
    {
      "anonymous": false,
      "inputs": [
        {
          "indexed": true,
          "internalType": "address",
          "name": "owner",
          "type": "address"
        },
        {
          "indexed": true,
          "internalType": "address",
          "name": "spender",
          "type": "address"
        },
        {
          "indexed": true,
          "internalType": "uint256",
          "name": "id",
          "type": "uint256"
        }
      ],
      "name": "Approval",
      "type": "event"
    },
    {
      "anonymous": false,
      "inputs": [
        {
          "indexed": true,
          "internalType": "address",
          "name": "owner",
          "type": "address"
        },
        {
          "indexed": true,
          "internalType": "address",
          "name": "operator",
          "type": "address"
        },
        {
          "indexed": false,
          "internalType": "bool",
          "name": "approved",
          "type": "bool"
        }
      ],
      "name": "ApprovalForAll",
      "type": "event"
    },
    {
      "anonymous": false,
      "inputs": [
        {
          "indexed": true,
          "internalType": "address",
          "name": "user",
          "type": "address"
        },
        {
          "indexed": true,
          "internalType": "address",
          "name": "newOwner",
          "type": "address"
        }
      ],
      "name": "OwnershipTransferred",
      "type": "event"
    },
    {
      "anonymous": false,
      "inputs": [
        {
          "indexed": true,
          "internalType": "address",
          "name": "from",
          "type": "address"
        },
        {
          "indexed": true,
          "internalType": "address",
          "name": "to",
          "type": "address"
        },
        {
          "indexed": true,
          "internalType": "uint256",
          "name": "id",
          "type": "uint256"
        }
      ],
      "name": "Transfer",
      "type": "event"
    },
    {
      "anonymous": false,
      "inputs": [
        {
          "components": [
            {
              "internalType": "uint256",
              "name": "card",
              "type": "uint256"
            },
            {
              "internalType": "address",
              "name": "tokenContract",
              "type": "address"
            },
            {
              "internalType": "uint256",
              "name": "token",
              "type": "uint256"
            },
            {
              "internalType": "uint256",
              "name": "artwork",
              "type": "uint256"
            },
            {
              "internalType": "uint256",
              "name": "template",
              "type": "uint256"
            },
            {
              "internalType": "string",
              "name": "message",
              "type": "string"
            },
            {
              "internalType": "address",
              "name": "sender",
              "type": "address"
            },
            {
              "internalType": "address",
              "name": "recipient",
              "type": "address"
            }
          ],
          "indexed": false,
          "internalType": "struct WizzmasCard.Card",
          "name": "data",
          "type": "tuple"
        }
      ],
      "name": "WizzmasCardMinted",
      "type": "event"
    },
    {
      "inputs": [
        {
          "internalType": "string",
          "name": "_message",
          "type": "string"
        }
      ],
      "name": "addMessage",
      "outputs": [],
      "stateMutability": "nonpayable",
      "type": "function"
    },
    {
      "inputs": [
        {
          "internalType": "string[]",
          "name": "_messages",
          "type": "string[]"
        }
      ],
      "name": "addMessages",
      "outputs": [],
      "stateMutability": "nonpayable",
      "type": "function"
    },
    {
      "inputs": [
        {
          "internalType": "address",
          "name": "spender",
          "type": "address"
        },
        {
          "internalType": "uint256",
          "name": "id",
          "type": "uint256"
        }
      ],
      "name": "approve",
      "outputs": [],
      "stateMutability": "nonpayable",
      "type": "function"
    },
    {
      "inputs": [],
      "name": "artworkAddress",
      "outputs": [
        {
          "internalType": "address",
          "name": "",
          "type": "address"
        }
      ],
      "stateMutability": "view",
      "type": "function"
    },
    {
      "inputs": [],
      "name": "availableMessages",
      "outputs": [
        {
          "internalType": "string[]",
          "name": "",
          "type": "string[]"
        }
      ],
      "stateMutability": "view",
      "type": "function"
    },
    {
      "inputs": [
        {
          "internalType": "address",
          "name": "owner",
          "type": "address"
        }
      ],
      "name": "balanceOf",
      "outputs": [
        {
          "internalType": "uint256",
          "name": "",
          "type": "uint256"
        }
      ],
      "stateMutability": "view",
      "type": "function"
    },
    {
      "inputs": [],
      "name": "baseURI",
      "outputs": [
        {
          "internalType": "string",
          "name": "",
          "type": "string"
        }
      ],
      "stateMutability": "view",
      "type": "function"
    },
    {
      "inputs": [
        {
          "internalType": "uint256",
          "name": "",
          "type": "uint256"
        }
      ],
      "name": "getApproved",
      "outputs": [
        {
          "internalType": "address",
          "name": "",
          "type": "address"
        }
      ],
      "stateMutability": "view",
      "type": "function"
    },
    {
      "inputs": [
        {
          "internalType": "uint256",
          "name": "cardId",
          "type": "uint256"
        }
      ],
      "name": "getCard",
      "outputs": [
        {
          "components": [
            {
              "internalType": "uint256",
              "name": "card",
              "type": "uint256"
            },
            {
              "internalType": "address",
              "name": "tokenContract",
              "type": "address"
            },
            {
              "internalType": "uint256",
              "name": "token",
              "type": "uint256"
            },
            {
              "internalType": "uint256",
              "name": "artwork",
              "type": "uint256"
            },
            {
              "internalType": "uint256",
              "name": "template",
              "type": "uint256"
            },
            {
              "internalType": "string",
              "name": "message",
              "type": "string"
            },
            {
              "internalType": "address",
              "name": "sender",
              "type": "address"
            },
            {
              "internalType": "address",
              "name": "recipient",
              "type": "address"
            }
          ],
          "internalType": "struct WizzmasCard.Card",
          "name": "",
          "type": "tuple"
        }
      ],
      "stateMutability": "view",
      "type": "function"
    },
    {
      "inputs": [
        {
          "internalType": "address",
          "name": "recipient",
          "type": "address"
        }
      ],
      "name": "getRecipientCardIds",
      "outputs": [
        {
          "internalType": "uint256[]",
          "name": "",
          "type": "uint256[]"
        }
      ],
      "stateMutability": "view",
      "type": "function"
    },
    {
      "inputs": [
        {
          "internalType": "address",
          "name": "sender",
          "type": "address"
        }
      ],
      "name": "getSenderCardIds",
      "outputs": [
        {
          "internalType": "uint256[]",
          "name": "",
          "type": "uint256[]"
        }
      ],
      "stateMutability": "view",
      "type": "function"
    },
    {
      "inputs": [
        {
          "internalType": "address",
          "name": "",
          "type": "address"
        },
        {
          "internalType": "address",
          "name": "",
          "type": "address"
        }
      ],
      "name": "isApprovedForAll",
      "outputs": [
        {
          "internalType": "bool",
          "name": "",
          "type": "bool"
        }
      ],
      "stateMutability": "view",
      "type": "function"
    },
    {
      "inputs": [
        {
          "internalType": "uint256",
          "name": "",
          "type": "uint256"
        }
      ],
      "name": "messages",
      "outputs": [
        {
          "internalType": "string",
          "name": "",
          "type": "string"
        }
      ],
      "stateMutability": "view",
      "type": "function"
    },
    {
      "inputs": [
        {
          "internalType": "address",
          "name": "_tokenContract",
          "type": "address"
        },
        {
          "internalType": "uint256",
          "name": "_tokenId",
          "type": "uint256"
        },
        {
          "internalType": "uint256",
          "name": "_artworkId",
          "type": "uint256"
        },
        {
          "internalType": "uint256",
          "name": "_templateId",
          "type": "uint256"
        },
        {
          "internalType": "uint256",
          "name": "_messageId",
          "type": "uint256"
        },
        {
          "internalType": "address",
          "name": "_recipient",
          "type": "address"
        }
      ],
      "name": "mint",
      "outputs": [],
      "stateMutability": "nonpayable",
      "type": "function"
    },
    {
      "inputs": [],
      "name": "mintEnabled",
      "outputs": [
        {
          "internalType": "bool",
          "name": "",
          "type": "bool"
        }
      ],
      "stateMutability": "view",
      "type": "function"
    },
    {
      "inputs": [],
      "name": "name",
      "outputs": [
        {
          "internalType": "string",
          "name": "",
          "type": "string"
        }
      ],
      "stateMutability": "view",
      "type": "function"
    },
    {
      "inputs": [],
      "name": "numTemplates",
      "outputs": [
        {
          "internalType": "uint256",
          "name": "",
          "type": "uint256"
        }
      ],
      "stateMutability": "view",
      "type": "function"
    },
    {
      "inputs": [],
      "name": "owner",
      "outputs": [
        {
          "internalType": "address",
          "name": "",
          "type": "address"
        }
      ],
      "stateMutability": "view",
      "type": "function"
    },
    {
      "inputs": [
        {
          "internalType": "uint256",
          "name": "id",
          "type": "uint256"
        }
      ],
      "name": "ownerOf",
      "outputs": [
        {
          "internalType": "address",
          "name": "owner",
          "type": "address"
        }
      ],
      "stateMutability": "view",
      "type": "function"
    },
    {
      "inputs": [
        {
          "internalType": "address",
          "name": "",
          "type": "address"
        },
        {
          "internalType": "uint256",
          "name": "",
          "type": "uint256"
        }
      ],
      "name": "recipientCards",
      "outputs": [
        {
          "internalType": "uint256",
          "name": "",
          "type": "uint256"
        }
      ],
      "stateMutability": "view",
      "type": "function"
    },
    {
      "inputs": [
        {
          "internalType": "uint256",
          "name": "index",
          "type": "uint256"
        }
      ],
      "name": "removeMessage",
      "outputs": [],
      "stateMutability": "nonpayable",
      "type": "function"
    },
    {
      "inputs": [
        {
          "internalType": "address",
          "name": "from",
          "type": "address"
        },
        {
          "internalType": "address",
          "name": "to",
          "type": "address"
        },
        {
          "internalType": "uint256",
          "name": "id",
          "type": "uint256"
        }
      ],
      "name": "safeTransferFrom",
      "outputs": [],
      "stateMutability": "nonpayable",
      "type": "function"
    },
    {
      "inputs": [
        {
          "internalType": "address",
          "name": "from",
          "type": "address"
        },
        {
          "internalType": "address",
          "name": "to",
          "type": "address"
        },
        {
          "internalType": "uint256",
          "name": "id",
          "type": "uint256"
        },
        {
          "internalType": "bytes",
          "name": "data",
          "type": "bytes"
        }
      ],
      "name": "safeTransferFrom",
      "outputs": [],
      "stateMutability": "nonpayable",
      "type": "function"
    },
    {
      "inputs": [
        {
          "internalType": "address",
          "name": "",
          "type": "address"
        },
        {
          "internalType": "uint256",
          "name": "",
          "type": "uint256"
        }
      ],
      "name": "senderCards",
      "outputs": [
        {
          "internalType": "uint256",
          "name": "",
          "type": "uint256"
        }
      ],
      "stateMutability": "view",
      "type": "function"
    },
    {
      "inputs": [
        {
          "internalType": "address",
          "name": "operator",
          "type": "address"
        },
        {
          "internalType": "bool",
          "name": "approved",
          "type": "bool"
        }
      ],
      "name": "setApprovalForAll",
      "outputs": [],
      "stateMutability": "nonpayable",
      "type": "function"
    },
    {
      "inputs": [
        {
          "internalType": "address",
          "name": "_address",
          "type": "address"
        }
      ],
      "name": "setArtworkAddress",
      "outputs": [],
      "stateMutability": "nonpayable",
      "type": "function"
    },
    {
      "inputs": [
        {
          "internalType": "string",
          "name": "_newBaseURI",
          "type": "string"
        }
      ],
      "name": "setBaseURI",
      "outputs": [],
      "stateMutability": "nonpayable",
      "type": "function"
    },
    {
      "inputs": [
        {
          "internalType": "bool",
          "name": "_newMintEnabled",
          "type": "bool"
        }
      ],
      "name": "setMintEnabled",
      "outputs": [],
      "stateMutability": "nonpayable",
      "type": "function"
    },
    {
      "inputs": [
        {
          "internalType": "uint256",
          "name": "_numTemplates",
          "type": "uint256"
        }
      ],
      "name": "setNumTemplates",
      "outputs": [],
      "stateMutability": "nonpayable",
      "type": "function"
    },
    {
      "inputs": [
        {
          "internalType": "address",
          "name": "_address",
          "type": "address"
        },
        {
          "internalType": "bool",
          "name": "supported",
          "type": "bool"
        }
      ],
      "name": "setSupportedTokenContract",
      "outputs": [],
      "stateMutability": "nonpayable",
      "type": "function"
    },
    {
      "inputs": [
        {
          "internalType": "address",
          "name": "",
          "type": "address"
        }
      ],
      "name": "supportedTokenContracts",
      "outputs": [
        {
          "internalType": "bool",
          "name": "",
          "type": "bool"
        }
      ],
      "stateMutability": "view",
      "type": "function"
    },
    {
      "inputs": [
        {
          "internalType": "bytes4",
          "name": "interfaceId",
          "type": "bytes4"
        }
      ],
      "name": "supportsInterface",
      "outputs": [
        {
          "internalType": "bool",
          "name": "",
          "type": "bool"
        }
      ],
      "stateMutability": "view",
      "type": "function"
    },
    {
      "inputs": [],
      "name": "symbol",
      "outputs": [
        {
          "internalType": "string",
          "name": "",
          "type": "string"
        }
      ],
      "stateMutability": "view",
      "type": "function"
    },
    {
      "inputs": [
        {
          "internalType": "uint256",
          "name": "id",
          "type": "uint256"
        }
      ],
      "name": "tokenURI",
      "outputs": [
        {
          "internalType": "string",
          "name": "",
          "type": "string"
        }
      ],
      "stateMutability": "view",
      "type": "function"
    },
    {
      "inputs": [
        {
          "internalType": "address",
          "name": "from",
          "type": "address"
        },
        {
          "internalType": "address",
          "name": "to",
          "type": "address"
        },
        {
          "internalType": "uint256",
          "name": "id",
          "type": "uint256"
        }
      ],
      "name": "transferFrom",
      "outputs": [],
      "stateMutability": "nonpayable",
      "type": "function"
    },
    {
      "inputs": [
        {
          "internalType": "address",
          "name": "newOwner",
          "type": "address"
        }
      ],
      "name": "transferOwnership",
      "outputs": [],
      "stateMutability": "nonpayable",
      "type": "function"
    },
    {
      "inputs": [],
      "name": "withdraw",
      "outputs": [],
      "stateMutability": "nonpayable",
      "type": "function"
    }
  ],
  "bytecode": {
    "object": "0x600160075560006009819055600a55600e805460ff19169055601a6101009081527f4861766520612076657279204d657272792057697a7a6d6173210000000000006101205260809081526101a0604052602361014081815260a09162002ea86101603981526020016040518060400160405280601681526020017f486f486f486f21204d657272792057697a7a6d6173210000000000000000000081525081526020016040518060600160405280602b815260200162002e7d602b91399052620000cf90600f90600462000304565b50348015620000dd57600080fd5b5060405162002ecb38038062002ecb8339810160408190526200010091620004ce565b604080518082018252600b8082526a15da5e9e9b585cd0d85c9960aa1b6020808401829052845180860190955291845290830152339160006200014483826200065c565b5060016200015382826200065c565b5050600680546001600160a01b0319166001600160a01b0384169081179091556040519091506000907f8be0079c531659141344cd1fd0a4f28419497f9722a3daafe3b4186f6b6457e0908290a350600b80546001600160a01b0319166001600160a01b03861617905560005b83518160ff16101562000232576001600c6000868460ff1681518110620001eb57620001eb62000728565b6020908102919091018101516001600160a01b03168252810191909152604001600020805460ff19169115159190911790558062000229816200073e565b915050620001c0565b506200023e8262000253565b6200024981620002a7565b505050506200076c565b6006546001600160a01b03163314620002a25760405162461bcd60e51b815260206004820152600c60248201526b15539055551213d49256915160a21b60448201526064015b60405180910390fd5b600955565b6006546001600160a01b03163314620002f25760405162461bcd60e51b815260206004820152600c60248201526b15539055551213d49256915160a21b604482015260640162000299565b600d6200030082826200065c565b5050565b8280548282559060005260206000209081019282156200034f579160200282015b828111156200034f57825182906200033e90826200065c565b509160200191906001019062000325565b506200035d92915062000361565b5090565b808211156200035d57600062000378828262000382565b5060010162000361565b5080546200039090620005cd565b6000825580601f10620003a1575050565b601f016020900490600052602060002090810190620003c19190620003c4565b50565b5b808211156200035d5760008155600101620003c5565b80516001600160a01b0381168114620003f357600080fd5b919050565b634e487b7160e01b600052604160045260246000fd5b604051601f8201601f191681016001600160401b0381118282101715620004395762000439620003f8565b604052919050565b600082601f8301126200045357600080fd5b81516001600160401b038111156200046f576200046f620003f8565b602062000485601f8301601f191682016200040e565b82815285828487010111156200049a57600080fd5b60005b83811015620004ba5785810183015182820184015282016200049d565b506000928101909101919091529392505050565b60008060008060808587031215620004e557600080fd5b620004f085620003db565b602086810151919550906001600160401b03808211156200051057600080fd5b818801915088601f8301126200052557600080fd5b8151818111156200053a576200053a620003f8565b8060051b6200054b8582016200040e565b918252838101850191858101908c8411156200056657600080fd5b948601945b838610156200058f576200057f86620003db565b825294860194908601906200056b565b60408c015160608d0151919a509850955050505080831115620005b157600080fd5b5050620005c18782880162000441565b91505092959194509250565b600181811c90821680620005e257607f821691505b6020821081036200060357634e487b7160e01b600052602260045260246000fd5b50919050565b601f8211156200065757600081815260208120601f850160051c81016020861015620006325750805b601f850160051c820191505b8181101562000653578281556001016200063e565b5050505b505050565b81516001600160401b03811115620006785762000678620003f8565b6200069081620006898454620005cd565b8462000609565b602080601f831160018114620006c85760008415620006af5750858301515b600019600386901b1c1916600185901b17855562000653565b600085815260208120601f198616915b82811015620006f957888601518255948401946001909101908401620006d8565b5085821015620007185787850151600019600388901b60f8161c191681555b5050505050600190811b01905550565b634e487b7160e01b600052603260045260246000fd5b600060ff821660ff81036200076357634e487b7160e01b600052601160045260246000fd5b60010192915050565b612701806200077c6000396000f3fe608060405234801561001057600080fd5b50600436106102275760003560e01c80636c0360eb11610130578063c87b56dd116100b8578063ec8e1e131161007c578063ec8e1e13146104f7578063f2fde38b1461050a578063f46a04eb1461051d578063fa6c9cb314610530578063fdc49a2e1461054357600080fd5b8063c87b56dd14610483578063d123973014610496578063d99e0f0a146104a3578063e38806df146104b6578063e985e9c5146104c957600080fd5b80639188d312116100ff5780639188d3121461042257806395d89b4114610442578063a22cb4651461044a578063a4bc00661461045d578063b88d4fde1461047057600080fd5b80636c0360eb146103e157806370a08231146103e95780638da5cb5b146103fc5780638f7dd48b1461040f57600080fd5b80632de263d7116101b357806342842e0e1161018257806342842e0e146103825780634c2ade1e1461039557806355f804b3146103a85780636352211e146103bb5780636a226a49146103ce57600080fd5b80632de263d7146103305780632faceae2146103435780633ccfd60b1461035a57806341c3b3481461036257600080fd5b80630d80fefd116101fa5780630d80fefd146102bf5780631324111b146102d25780631b1862be146102e757806323b872dd146102fa578063283e9a951461030d57600080fd5b806301ffc9a71461022c57806306fdde0314610254578063081812fc14610269578063095ea7b3146102aa575b600080fd5b61023f61023a366004611be2565b610556565b60405190151581526020015b60405180910390f35b61025c6105a8565b60405161024b9190611c56565b610292610277366004611c69565b6004602052600090815260409020546001600160a01b031681565b6040516001600160a01b03909116815260200161024b565b6102bd6102b8366004611c97565b610636565b005b61025c6102cd366004611c69565b61071d565b6102da610748565b60405161024b9190611cc3565b6102bd6102f5366004611ddc565b610821565b6102bd610308366004611e9f565b6108ab565b61023f61031b366004611ee0565b600c6020526000908152604090205460ff1681565b6102bd61033e366004611c69565b610a72565b61034c60095481565b60405190815260200161024b565b6102bd610b91565b610375610370366004611ee0565b610bea565b60405161024b9190611efd565b6102bd610390366004611e9f565b610c56565b6102bd6103a3366004611c69565b610d2b565b6102bd6103b6366004611f41565b610d5a565b6102926103c9366004611c69565b610d90565b6102bd6103dc366004611f41565b610de7565b61025c610e4d565b61034c6103f7366004611ee0565b610e5a565b600654610292906001600160a01b031681565b6102bd61041d366004611f8e565b610ebd565b610435610430366004611c69565b610f12565b60405161024b9190611fc3565b61025c6110d0565b6102bd610458366004611f8e565b6110dd565b61034c61046b366004611c97565b611149565b6102bd61047e366004612053565b61117a565b61025c610491366004611c69565b61123f565b600e5461023f9060ff1681565b6102bd6104b13660046120f2565b611273565b6103756104c4366004611ee0565b6117de565b61023f6104d7366004612150565b600560209081526000928352604080842090915290825290205460ff1681565b6102bd610505366004611ee0565b611848565b6102bd610518366004611ee0565b611894565b6102bd61052b366004612189565b61190a565b600b54610292906001600160a01b031681565b61034c610551366004611c97565b611947565b60006301ffc9a760e01b6001600160e01b03198316148061058757506380ac58cd60e01b6001600160e01b03198316145b806105a25750635b5e139f60e01b6001600160e01b03198316145b92915050565b600080546105b5906121a4565b80601f01602080910402602001604051908101604052809291908181526020018280546105e1906121a4565b801561062e5780601f106106035761010080835404028352916020019161062e565b820191906000526020600020905b81548152906001019060200180831161061157829003601f168201915b505050505081565b6000818152600260205260409020546001600160a01b03163381148061067f57506001600160a01b038116600090815260056020908152604080832033845290915290205460ff165b6106c15760405162461bcd60e51b815260206004820152600e60248201526d1393d517d055551213d49256915160921b60448201526064015b60405180910390fd5b60008281526004602052604080822080546001600160a01b0319166001600160a01b0387811691821790925591518593918516917f8c5be1e5ebec7d5bd14f71427d1e84f3dd0314c0f7b2291e5b200ac8c7c3b92591a4505050565b600f818154811061072d57600080fd5b9060005260206000200160009150905080546105b5906121a4565b6060600f805480602002602001604051908101604052809291908181526020016000905b8282101561081857838290600052602060002001805461078b906121a4565b80601f01602080910402602001604051908101604052809291908181526020018280546107b7906121a4565b80156108045780601f106107d957610100808354040283529160200191610804565b820191906000526020600020905b8154815290600101906020018083116107e757829003601f168201915b50505050508152602001906001019061076c565b50505050905090565b6006546001600160a01b0316331461084b5760405162461bcd60e51b81526004016106b8906121de565b60005b81518110156108a757600f82828151811061086b5761086b612204565b602090810291909101810151825460018101845560009384529190922001906108949082612268565b508061089f8161233e565b91505061084e565b5050565b6000818152600260205260409020546001600160a01b038481169116146109015760405162461bcd60e51b815260206004820152600a60248201526957524f4e475f46524f4d60b01b60448201526064016106b8565b6001600160a01b03821661094b5760405162461bcd60e51b81526020600482015260116024820152701253959053125117d49150d25412515395607a1b60448201526064016106b8565b336001600160a01b038416148061098557506001600160a01b038316600090815260056020908152604080832033845290915290205460ff165b806109a657506000818152600460205260409020546001600160a01b031633145b6109e35760405162461bcd60e51b815260206004820152600e60248201526d1393d517d055551213d49256915160921b60448201526064016106b8565b6001600160a01b0380841660008181526003602090815260408083208054600019019055938616808352848320805460010190558583526002825284832080546001600160a01b03199081168317909155600490925284832080549092169091559251849392917fddf252ad1be2c89b69c2b068fc378daa952ba7f163c4a11628f55a4df523b3ef91a4505050565b6006546001600160a01b03163314610a9c5760405162461bcd60e51b81526004016106b8906121de565b600f548110610ae35760405162461bcd60e51b8152602060048201526013602482015272494e4445585f4f55545f4f465f424f554e445360681b60448201526064016106b8565b805b600f54610af490600190612357565b811015610b5e57600f610b0882600161236a565b81548110610b1857610b18612204565b90600052602060002001600f8281548110610b3557610b35612204565b906000526020600020019081610b4b919061237d565b5080610b568161233e565b915050610ae5565b50600f805480610b7057610b70612450565b600190038181906000526020600020016000610b8c9190611b7e565b905550565b6006546001600160a01b03163314610bbb5760405162461bcd60e51b81526004016106b8906121de565b60405133904780156108fc02916000818181858888f19350505050158015610be7573d6000803e3d6000fd5b50565b6001600160a01b038116600090815260106020908152604091829020805483518184028101840190945280845260609392830182828015610c4a57602002820191906000526020600020905b815481526020019060010190808311610c36575b50505050509050919050565b610c618383836108ab565b6001600160a01b0382163b1580610d0a5750604051630a85bd0160e11b8082523360048301526001600160a01b03858116602484015260448301849052608060648401526000608484015290919084169063150b7a029060a4016020604051808303816000875af1158015610cda573d6000803e3d6000fd5b505050506040513d601f19601f82011682018060405250810190610cfe9190612466565b6001600160e01b031916145b610d265760405162461bcd60e51b81526004016106b890612483565b505050565b6006546001600160a01b03163314610d555760405162461bcd60e51b81526004016106b8906121de565b600955565b6006546001600160a01b03163314610d845760405162461bcd60e51b81526004016106b8906121de565b600d6108a78282612268565b6000818152600260205260409020546001600160a01b031680610de25760405162461bcd60e51b815260206004820152600a6024820152691393d517d3525395115160b21b60448201526064016106b8565b919050565b6006546001600160a01b03163314610e115760405162461bcd60e51b81526004016106b8906121de565b600f80546001810182556000919091527f8d1108e10bcb7c27dddfc02ed9d693a074039d026cf4ea4240b40f7d581ac802016108a78282612268565b600d80546105b5906121a4565b60006001600160a01b038216610ea15760405162461bcd60e51b815260206004820152600c60248201526b5a45524f5f4144445245535360a01b60448201526064016106b8565b506001600160a01b031660009081526003602052604090205490565b6006546001600160a01b03163314610ee75760405162461bcd60e51b81526004016106b8906121de565b6001600160a01b03919091166000908152600c60205260409020805460ff1916911515919091179055565b610f756040518061010001604052806000815260200160006001600160a01b031681526020016000815260200160008152602001600081526020016060815260200160006001600160a01b0316815260200160006001600160a01b031681525090565b81600a541115611096576000828152600860209081526040918290208251610100810184528154815260018201546001600160a01b031692810192909252600281015492820192909252600382015460608201526004820154608082015260058201805491929160a084019190610feb906121a4565b80601f0160208091040260200160405190810160405280929190818152602001828054611017906121a4565b80156110645780601f1061103957610100808354040283529160200191611064565b820191906000526020600020905b81548152906001019060200180831161104757829003601f168201915b505050918352505060068201546001600160a01b03908116602083015260079092015490911660409091015292915050565b60405162461bcd60e51b815260206004820152600f60248201526e10d0549117d393d517d35253951151608a1b60448201526064016106b8565b600180546105b5906121a4565b3360008181526005602090815260408083206001600160a01b03871680855290835292819020805460ff191686151590811790915590519081529192917f17307eab39ab6107e8899845ad3d59bd9653f200f220920489ca2b5937696c31910160405180910390a35050565b6011602052816000526040600020818154811061116557600080fd5b90600052602060002001600091509150505481565b6111858585856108ab565b6001600160a01b0384163b158061121c5750604051630a85bd0160e11b808252906001600160a01b0386169063150b7a02906111cd9033908a908990899089906004016124ad565b6020604051808303816000875af11580156111ec573d6000803e3d6000fd5b505050506040513d601f19601f820116820180604052508101906112109190612466565b6001600160e01b031916145b6112385760405162461bcd60e51b81526004016106b890612483565b5050505050565b6060600d61124c83611963565b60405160200161125d929190612501565b6040516020818303038152906040529050919050565b6007546001146112b25760405162461bcd60e51b815260206004820152600a6024820152695245454e5452414e435960b01b60448201526064016106b8565b6002600755600e5460ff166112f75760405162461bcd60e51b815260206004820152600b60248201526a1352539517d0d313d4d15160aa1b60448201526064016106b8565b600f54821061133a5760405162461bcd60e51b815260206004820152600f60248201526e494e56414c49445f4d45535341474560881b60448201526064016106b8565b600954831061137e5760405162461bcd60e51b815260206004820152601060248201526f494e56414c49445f54454d504c41544560801b60448201526064016106b8565b6001600160a01b03811633036113c55760405162461bcd60e51b815260206004820152600c60248201526b29a2a7222faa27afa9a2a62360a11b60448201526064016106b8565b6001600160a01b0386166000908152600c602052604090205460ff16151560011461143e5760405162461bcd60e51b815260206004820152602360248201527f556e737570706f7274656420746f6b656e20636f6e747261637420666f72206d6044820152621a5b9d60ea1b60648201526084016106b8565b6040516331a9108f60e11b81526004810186905233906001600160a01b03881690636352211e90602401602060405180830381865afa158015611485573d6000803e3d6000fd5b505050506040513d601f19601f820116820180604052508101906114a99190612588565b6001600160a01b0316146114eb5760405162461bcd60e51b81526020600482015260096024820152682727aa2fa7aba722a960b91b60448201526064016106b8565b600b54604051627eeac760e11b8152336004820152602481018690526000916001600160a01b03169062fdd58e90604401602060405180830381865afa158015611539573d6000803e3d6000fd5b505050506040513d601f19601f8201168201806040525081019061155d91906125a5565b116115975760405162461bcd60e51b815260206004820152600a6024820152694e4f5f415254574f524b60b01b60448201526064016106b8565b600a546115a482826119a7565b600a600081546115b39061233e565b91905081905550604051806101000160405280828152602001886001600160a01b03168152602001878152602001868152602001858152602001600f858154811061160057611600612204565b906000526020600020018054611615906121a4565b80601f0160208091040260200160405190810160405280929190818152602001828054611641906121a4565b801561168e5780601f106116635761010080835404028352916020019161168e565b820191906000526020600020905b81548152906001019060200180831161167157829003601f168201915b5050509183525050336020808301919091526001600160a01b0385811660409384015260008581526008835283902084518155918401516001830180546001600160a01b03191691909216179055908201516002820155606082015160038201556080820151600482015560a0820151600582019061170d9082612268565b5060c08201516006820180546001600160a01b03199081166001600160a01b039384161790915560e0909301516007909201805490931691811691909117909155336000908152601060209081526040808320805460018181018355918552838520018690559386168352601182528083208054948501815583528183209093018490558382526008905281902090517f303249d8bcbf5f19a46d4f4dd0229ea5444b0dc9b4804f9373cc35da7617aca4916117c89161263b565b60405180910390a1505060016007555050505050565b6001600160a01b038116600090815260116020908152604091829020805483518184028101840190945280845260609392830182828015610c4a5760200282019190600052602060002090815481526020019060010190808311610c365750505050509050919050565b6006546001600160a01b031633146118725760405162461bcd60e51b81526004016106b8906121de565b600b80546001600160a01b0319166001600160a01b0392909216919091179055565b6006546001600160a01b031633146118be5760405162461bcd60e51b81526004016106b8906121de565b600680546001600160a01b0319166001600160a01b03831690811790915560405133907f8be0079c531659141344cd1fd0a4f28419497f9722a3daafe3b4186f6b6457e090600090a350565b6006546001600160a01b031633146119345760405162461bcd60e51b81526004016106b8906121de565b600e805460ff1916911515919091179055565b6010602052816000526040600020818154811061116557600080fd5b606060a06040510180604052602081039150506000815280825b600183039250600a81066030018353600a90048061197d5750819003601f19909101908152919050565b6119b18282611a73565b6001600160a01b0382163b1580611a575750604051630a85bd0160e11b80825233600483015260006024830181905260448301849052608060648401526084830152906001600160a01b0384169063150b7a029060a4016020604051808303816000875af1158015611a27573d6000803e3d6000fd5b505050506040513d601f19601f82011682018060405250810190611a4b9190612466565b6001600160e01b031916145b6108a75760405162461bcd60e51b81526004016106b890612483565b6001600160a01b038216611abd5760405162461bcd60e51b81526020600482015260116024820152701253959053125117d49150d25412515395607a1b60448201526064016106b8565b6000818152600260205260409020546001600160a01b031615611b135760405162461bcd60e51b815260206004820152600e60248201526d1053149150511657d3525395115160921b60448201526064016106b8565b6001600160a01b038216600081815260036020908152604080832080546001019055848352600290915280822080546001600160a01b0319168417905551839291907fddf252ad1be2c89b69c2b068fc378daa952ba7f163c4a11628f55a4df523b3ef908290a45050565b508054611b8a906121a4565b6000825580601f10611b9a575050565b601f016020900490600052602060002090810190610be791905b80821115611bc85760008155600101611bb4565b5090565b6001600160e01b031981168114610be757600080fd5b600060208284031215611bf457600080fd5b8135611bff81611bcc565b9392505050565b60005b83811015611c21578181015183820152602001611c09565b50506000910152565b60008151808452611c42816020860160208601611c06565b601f01601f19169290920160200192915050565b602081526000611bff6020830184611c2a565b600060208284031215611c7b57600080fd5b5035919050565b6001600160a01b0381168114610be757600080fd5b60008060408385031215611caa57600080fd5b8235611cb581611c82565b946020939093013593505050565b6000602080830181845280855180835260408601915060408160051b870101925083870160005b82811015611d1857603f19888603018452611d06858351611c2a565b94509285019290850190600101611cea565b5092979650505050505050565b634e487b7160e01b600052604160045260246000fd5b604051601f8201601f1916810167ffffffffffffffff81118282101715611d6457611d64611d25565b604052919050565b600082601f830112611d7d57600080fd5b813567ffffffffffffffff811115611d9757611d97611d25565b611daa601f8201601f1916602001611d3b565b818152846020838601011115611dbf57600080fd5b816020850160208301376000918101602001919091529392505050565b60006020808385031215611def57600080fd5b823567ffffffffffffffff80821115611e0757600080fd5b818501915085601f830112611e1b57600080fd5b813581811115611e2d57611e2d611d25565b8060051b611e3c858201611d3b565b9182528381018501918581019089841115611e5657600080fd5b86860192505b83831015611e9257823585811115611e745760008081fd5b611e828b89838a0101611d6c565b8352509186019190860190611e5c565b9998505050505050505050565b600080600060608486031215611eb457600080fd5b8335611ebf81611c82565b92506020840135611ecf81611c82565b929592945050506040919091013590565b600060208284031215611ef257600080fd5b8135611bff81611c82565b6020808252825182820181905260009190848201906040850190845b81811015611f3557835183529284019291840191600101611f19565b50909695505050505050565b600060208284031215611f5357600080fd5b813567ffffffffffffffff811115611f6a57600080fd5b611f7684828501611d6c565b949350505050565b80358015158114610de257600080fd5b60008060408385031215611fa157600080fd5b8235611fac81611c82565b9150611fba60208401611f7e565b90509250929050565b60208152815160208201526000602083015160018060a01b0380821660408501526040850151606085015260608501516080850152608085015160a085015260a085015191506101008060c0860152612020610120860184611c2a565b92508160c08701511660e086015260e08601519150612049818601836001600160a01b03169052565b5090949350505050565b60008060008060006080868803121561206b57600080fd5b853561207681611c82565b9450602086013561208681611c82565b935060408601359250606086013567ffffffffffffffff808211156120aa57600080fd5b818801915088601f8301126120be57600080fd5b8135818111156120cd57600080fd5b8960208285010111156120df57600080fd5b9699959850939650602001949392505050565b60008060008060008060c0878903121561210b57600080fd5b863561211681611c82565b95506020870135945060408701359350606087013592506080870135915060a087013561214281611c82565b809150509295509295509295565b6000806040838503121561216357600080fd5b823561216e81611c82565b9150602083013561217e81611c82565b809150509250929050565b60006020828403121561219b57600080fd5b611bff82611f7e565b600181811c908216806121b857607f821691505b6020821081036121d857634e487b7160e01b600052602260045260246000fd5b50919050565b6020808252600c908201526b15539055551213d49256915160a21b604082015260600190565b634e487b7160e01b600052603260045260246000fd5b601f821115610d2657600081815260208120601f850160051c810160208610156122415750805b601f850160051c820191505b818110156122605782815560010161224d565b505050505050565b815167ffffffffffffffff81111561228257612282611d25565b6122968161229084546121a4565b8461221a565b602080601f8311600181146122cb57600084156122b35750858301515b600019600386901b1c1916600185901b178555612260565b600085815260208120601f198616915b828110156122fa578886015182559484019460019091019084016122db565b50858210156123185787850151600019600388901b60f8161c191681555b5050505050600190811b01905550565b634e487b7160e01b600052601160045260246000fd5b60006001820161235057612350612328565b5060010190565b818103818111156105a2576105a2612328565b808201808211156105a2576105a2612328565b818103612388575050565b61239282546121a4565b67ffffffffffffffff8111156123aa576123aa611d25565b6123b88161229084546121a4565b6000601f8211600181146123ec57600083156123d45750848201545b600019600385901b1c1916600184901b178455611238565b600085815260209020601f19841690600086815260209020845b838110156124265782860154825560019586019590910190602001612406565b50858310156123185793015460001960f8600387901b161c19169092555050600190811b01905550565b634e487b7160e01b600052603160045260246000fd5b60006020828403121561247857600080fd5b8151611bff81611bcc565b60208082526010908201526f155394d0519157d49150d2541251539560821b604082015260600190565b6001600160a01b038681168252851660208201526040810184905260806060820181905281018290526000828460a0840137600060a0848401015260a0601f19601f85011683010190509695505050505050565b600080845461250f816121a4565b60018281168015612527576001811461253c5761256b565b60ff198416875282151583028701945061256b565b8860005260208060002060005b858110156125625781548a820152908401908201612549565b50505082870194505b50505050835161257f818360208801611c06565b01949350505050565b60006020828403121561259a57600080fd5b8151611bff81611c82565b6000602082840312156125b757600080fd5b5051919050565b600081546125cb816121a4565b8085526020600183811680156125e8576001811461260257612630565b60ff1985168884015283151560051b880183019550612630565b866000528260002060005b858110156126285781548a820186015290830190840161260d565b890184019650505b505050505092915050565b6020815281546020820152600061265c60018401546001600160a01b031690565b6001600160a01b031660408301526002830154606083015260038301546080830152600483015460a083015261010060c083018190526126a36101208401600586016125be565b60068501546001600160a01b0390811660e0860152600790950154909416920191909152509056fea26469706673582212202824731782ac6ccf4d51b224bf6fa32505c9a88ee9039b7d8ec4c7160d926dfc64736f6c63430008100033486170707920486f6c6964617973212045617420706c656e7479206f66204a656c6c7920446f6e757473214d617920796f757220486f6c69646179732062652066756c6c206f6620216d61676963",
    "linkReferences": {}
  },
  "methodIdentifiers": {
    "addMessage(string)": "6a226a49",
    "addMessages(string[])": "1b1862be",
    "approve(address,uint256)": "095ea7b3",
    "artworkAddress()": "fa6c9cb3",
    "availableMessages()": "1324111b",
    "balanceOf(address)": "70a08231",
    "baseURI()": "6c0360eb",
    "getApproved(uint256)": "081812fc",
    "getCard(uint256)": "9188d312",
    "getRecipientCardIds(address)": "e38806df",
    "getSenderCardIds(address)": "41c3b348",
    "isApprovedForAll(address,address)": "e985e9c5",
    "messages(uint256)": "0d80fefd",
    "mint(address,uint256,uint256,uint256,uint256,address)": "d99e0f0a",
    "mintEnabled()": "d1239730",
    "name()": "06fdde03",
    "numTemplates()": "2faceae2",
    "owner()": "8da5cb5b",
    "ownerOf(uint256)": "6352211e",
    "recipientCards(address,uint256)": "a4bc0066",
    "removeMessage(uint256)": "2de263d7",
    "safeTransferFrom(address,address,uint256)": "42842e0e",
    "safeTransferFrom(address,address,uint256,bytes)": "b88d4fde",
    "senderCards(address,uint256)": "fdc49a2e",
    "setApprovalForAll(address,bool)": "a22cb465",
    "setArtworkAddress(address)": "ec8e1e13",
    "setBaseURI(string)": "55f804b3",
    "setMintEnabled(bool)": "f46a04eb",
    "setNumTemplates(uint256)": "4c2ade1e",
    "setSupportedTokenContract(address,bool)": "8f7dd48b",
    "supportedTokenContracts(address)": "283e9a95",
    "supportsInterface(bytes4)": "01ffc9a7",
    "symbol()": "95d89b41",
    "tokenURI(uint256)": "c87b56dd",
    "transferFrom(address,address,uint256)": "23b872dd",
    "transferOwnership(address)": "f2fde38b",
    "withdraw()": "3ccfd60b"
  },
  "id": 23
}