{
  "abi": [
    {
      "inputs": [
        {
          "internalType": "address",
          "name": "_artworkAddress",
          "type": "address"
        },
        {
          "internalType": "uint256",
          "name": "_numArtworkTypes",
          "type": "uint256"
        },
        {
          "internalType": "address",
          "name": "_owner",
          "type": "address"
        }
      ],
      "stateMutability": "nonpayable",
      "type": "constructor"
    },
    {
      "anonymous": false,
      "inputs": [
        {
          "indexed": true,
          "internalType": "address",
          "name": "user",
          "type": "address"
        },
        {
          "indexed": true,
          "internalType": "address",
          "name": "newOwner",
          "type": "address"
        }
      ],
      "name": "OwnershipTransferred",
      "type": "event"
    },
    {
      "anonymous": false,
      "inputs": [
        {
          "indexed": false,
          "internalType": "address",
          "name": "claimer",
          "type": "address"
        },
        {
          "indexed": false,
          "internalType": "uint256",
          "name": "artworkType",
          "type": "uint256"
        }
      ],
      "name": "WizzmasArtworkClaimed",
      "type": "event"
    },
    {
      "anonymous": false,
      "inputs": [
        {
          "indexed": false,
          "internalType": "address",
          "name": "minter",
          "type": "address"
        },
        {
          "indexed": false,
          "internalType": "uint256",
          "name": "artworkType",
          "type": "uint256"
        }
      ],
      "name": "WizzmasArtworkMinted",
      "type": "event"
    },
    {
      "inputs": [],
      "name": "MAX_SUPPLY",
      "outputs": [
        {
          "internalType": "uint256",
          "name": "",
          "type": "uint256"
        }
      ],
      "stateMutability": "view",
      "type": "function"
    },
    {
      "inputs": [
        {
          "internalType": "address",
          "name": "claimer",
          "type": "address"
        }
      ],
      "name": "canClaim",
      "outputs": [
        {
          "internalType": "bool",
          "name": "",
          "type": "bool"
        }
      ],
      "stateMutability": "view",
      "type": "function"
    },
    {
      "inputs": [
        {
          "internalType": "uint256",
          "name": "artworkType",
          "type": "uint256"
        }
      ],
      "name": "claim",
      "outputs": [],
      "stateMutability": "nonpayable",
      "type": "function"
    },
    {
      "inputs": [],
      "name": "freeMintsPerAddress",
      "outputs": [
        {
          "internalType": "uint256",
          "name": "",
          "type": "uint256"
        }
      ],
      "stateMutability": "view",
      "type": "function"
    },
    {
      "inputs": [
        {
          "internalType": "uint256",
          "name": "_tokenId",
          "type": "uint256"
        }
      ],
      "name": "freezeToken",
      "outputs": [],
      "stateMutability": "nonpayable",
      "type": "function"
    },
    {
      "inputs": [
        {
          "internalType": "uint256",
          "name": "artworkType",
          "type": "uint256"
        }
      ],
      "name": "mint",
      "outputs": [],
      "stateMutability": "payable",
      "type": "function"
    },
    {
      "inputs": [],
      "name": "mintEnabled",
      "outputs": [
        {
          "internalType": "bool",
          "name": "",
          "type": "bool"
        }
      ],
      "stateMutability": "view",
      "type": "function"
    },
    {
      "inputs": [],
      "name": "mintPrice",
      "outputs": [
        {
          "internalType": "uint256",
          "name": "",
          "type": "uint256"
        }
      ],
      "stateMutability": "view",
      "type": "function"
    },
    {
      "inputs": [
        {
          "internalType": "address",
          "name": "",
          "type": "address"
        }
      ],
      "name": "minted",
      "outputs": [
        {
          "internalType": "uint256",
          "name": "",
          "type": "uint256"
        }
      ],
      "stateMutability": "view",
      "type": "function"
    },
    {
      "inputs": [],
      "name": "numArtworkTypes",
      "outputs": [
        {
          "internalType": "uint256",
          "name": "",
          "type": "uint256"
        }
      ],
      "stateMutability": "view",
      "type": "function"
    },
    {
      "inputs": [],
      "name": "owner",
      "outputs": [
        {
          "internalType": "address",
          "name": "",
          "type": "address"
        }
      ],
      "stateMutability": "view",
      "type": "function"
    },
    {
      "inputs": [
        {
          "internalType": "uint256",
          "name": "_numMints",
          "type": "uint256"
        }
      ],
      "name": "setFreeMintsPerAddress",
      "outputs": [],
      "stateMutability": "nonpayable",
      "type": "function"
    },
    {
      "inputs": [
        {
          "internalType": "bool",
          "name": "_newMintEnabled",
          "type": "bool"
        }
      ],
      "name": "setMintEnabled",
      "outputs": [],
      "stateMutability": "nonpayable",
      "type": "function"
    },
    {
      "inputs": [
        {
          "internalType": "uint256",
          "name": "_newMintPrice",
          "type": "uint256"
        }
      ],
      "name": "setMintPrice",
      "outputs": [],
      "stateMutability": "nonpayable",
      "type": "function"
    },
    {
      "inputs": [
        {
          "internalType": "uint256",
          "name": "_artworkTypeMax",
          "type": "uint256"
        }
      ],
      "name": "setNumArtworkTypes",
      "outputs": [],
      "stateMutability": "nonpayable",
      "type": "function"
    },
    {
      "inputs": [
        {
          "internalType": "uint256",
          "name": "",
          "type": "uint256"
        }
      ],
      "name": "tokenFrozen",
      "outputs": [
        {
          "internalType": "bool",
          "name": "",
          "type": "bool"
        }
      ],
      "stateMutability": "view",
      "type": "function"
    },
    {
      "inputs": [
        {
          "internalType": "address",
          "name": "newOwner",
          "type": "address"
        }
      ],
      "name": "transferOwnership",
      "outputs": [],
      "stateMutability": "nonpayable",
      "type": "function"
    },
    {
      "inputs": [],
      "name": "withdraw",
      "outputs": [],
      "stateMutability": "nonpayable",
      "type": "function"
    },
    {
      "inputs": [],
      "name": "wizzmasArtworkAddress",
      "outputs": [
        {
          "internalType": "address",
          "name": "",
          "type": "address"
        }
      ],
      "stateMutability": "view",
      "type": "function"
    }
  ],
  "bytecode": {
    "object": "0x608060405260018080556004805460ff19169055662386f26fc1000060055560065534801561002d57600080fd5b50604051610daa380380610daa83398101604081905261004c916100db565b600080546001600160a01b0319166001600160a01b03831690811782556040518392907f8be0079c531659141344cd1fd0a4f28419497f9722a3daafe3b4186f6b6457e0908290a35050600280546001600160a01b0319166001600160a01b039390931692909217909155600355610117565b80516001600160a01b03811681146100d657600080fd5b919050565b6000806000606084860312156100f057600080fd5b6100f9846100bf565b92506020840151915061010e604085016100bf565b90509250925092565b610c84806101266000396000f3fe6080604052600436106101145760003560e01c80636817c76c116100a0578063bf3506c111610064578063bf3506c1146102f3578063d12397301461032f578063f2fde38b14610349578063f46a04eb14610369578063f4a0a5281461038957600080fd5b80636817c76c146102745780638da5cb5b1461028a5780639d27861b146102aa578063a0712d68146102c0578063b6854f96146102d357600080fd5b80633ccfd60b116100e75780633ccfd60b146101c9578063513f99e7146101de5780635972bab11461021e5780635fe8b91c1461023e57806361b5218e1461025e57600080fd5b80631e7269c51461011957806332cb6b0c14610159578063379607f51461016f5780633b94730d14610191575b600080fd5b34801561012557600080fd5b50610146610134366004610b7d565b60076020526000908152604090205481565b6040519081526020015b60405180910390f35b34801561016557600080fd5b506101466103e881565b34801561017b57600080fd5b5061018f61018a366004610bad565b6103a9565b005b34801561019d57600080fd5b506002546101b1906001600160a01b031681565b6040516001600160a01b039091168152602001610150565b3480156101d557600080fd5b5061018f6106b3565b3480156101ea57600080fd5b5061020e6101f9366004610bad565b60086020526000908152604090205460ff1681565b6040519015158152602001610150565b34801561022a57600080fd5b5061018f610239366004610bad565b61070c565b34801561024a57600080fd5b5061018f610259366004610bad565b61073b565b34801561026a57600080fd5b5061014660065481565b34801561028057600080fd5b5061014660055481565b34801561029657600080fd5b506000546101b1906001600160a01b031681565b3480156102b657600080fd5b5061014660035481565b61018f6102ce366004610bad565b61076a565b3480156102df57600080fd5b5061018f6102ee366004610bad565b610a57565b3480156102ff57600080fd5b5061020e61030e366004610b7d565b6006546001600160a01b039091166000908152600760205260409020541090565b34801561033b57600080fd5b5060045461020e9060ff1681565b34801561035557600080fd5b5061018f610364366004610b7d565b610a9c565b34801561037557600080fd5b5061018f610384366004610bc6565b610b11565b34801561039557600080fd5b5061018f6103a4366004610bad565b610b4e565b6001546001146103ed5760405162461bcd60e51b815260206004820152600a6024820152695245454e5452414e435960b01b60448201526064015b60405180910390fd5b600260015560045460ff166104325760405162461bcd60e51b815260206004820152600b60248201526a1352539517d0d313d4d15160aa1b60448201526064016103e4565b60008181526008602052604090205460ff16156104805760405162461bcd60e51b815260206004820152600c60248201526b2a27a5a2a72fa32927ad22a760a11b60448201526064016103e4565b60065433600090815260076020526040902054106104d35760405162461bcd60e51b815260206004820152601060248201526f1194915157d0d310525354d7d554d15160821b60448201526064016103e4565b600254604051631349f5f960e11b8152600481018390526001600160a01b03909116906103e8908290632693ebf2906024016020604051808303816000875af1158015610524573d6000803e3d6000fd5b505050506040513d601f19601f820116820180604052508101906105489190610be8565b610553906001610c01565b111561058c5760405162461bcd60e51b815260206004820152600860248201526714d3d31117d3d55560c21b60448201526064016103e4565b60035482106105d65760405162461bcd60e51b8152602060048201526016602482015275494e434f52524543545f415254574f524b5f5459504560501b60448201526064016103e4565b60405163731133e960e01b8152336004820152602481018390526001604482015260806064820152600060848201526001600160a01b0382169063731133e99060a401600060405180830381600087803b15801561063357600080fd5b505af1158015610647573d6000803e3d6000fd5b505033600090815260076020526040812080546001945090925061066c908490610c01565b909155505060408051338152602081018490527f6e1f7426fbb906621866b66fbee7e14bfa15d1ae2ae21519b4583b897c34cdd091015b60405180910390a1505060018055565b6000546001600160a01b031633146106dd5760405162461bcd60e51b81526004016103e490610c28565b60405133904780156108fc02916000818181858888f19350505050158015610709573d6000803e3d6000fd5b50565b6000546001600160a01b031633146107365760405162461bcd60e51b81526004016103e490610c28565b600355565b6000546001600160a01b031633146107655760405162461bcd60e51b81526004016103e490610c28565b600655565b6001546001146107a95760405162461bcd60e51b815260206004820152600a6024820152695245454e5452414e435960b01b60448201526064016103e4565b600260015560045460ff166107ee5760405162461bcd60e51b815260206004820152600b60248201526a1352539517d0d313d4d15160aa1b60448201526064016103e4565b60008181526008602052604090205460ff161561083c5760405162461bcd60e51b815260206004820152600c60248201526b2a27a5a2a72fa32927ad22a760a11b60448201526064016103e4565b60055434146108835760405162461bcd60e51b8152602060048201526013602482015272494e434f52524543545f4554485f56414c554560681b60448201526064016103e4565b600254604051631349f5f960e11b8152600481018390526001600160a01b03909116906103e8908290632693ebf2906024016020604051808303816000875af11580156108d4573d6000803e3d6000fd5b505050506040513d601f19601f820116820180604052508101906108f89190610be8565b610903906001610c01565b111561093c5760405162461bcd60e51b815260206004820152600860248201526714d3d31117d3d55560c21b60448201526064016103e4565b60035482106109865760405162461bcd60e51b8152602060048201526016602482015275494e434f52524543545f415254574f524b5f5459504560501b60448201526064016103e4565b60405163731133e960e01b8152336004820152602481018390526001604482015260806064820152600060848201526001600160a01b0382169063731133e99060a401600060405180830381600087803b1580156109e357600080fd5b505af11580156109f7573d6000803e3d6000fd5b5050336000908152600760205260408120805460019450909250610a1c908490610c01565b909155505060408051338152602081018490527fe3fc181133e3520fce038f5b45b0ea755afc3fa25d39af25879fb14dbdb74b7f91016106a3565b6000546001600160a01b03163314610a815760405162461bcd60e51b81526004016103e490610c28565b6000908152600860205260409020805460ff19166001179055565b6000546001600160a01b03163314610ac65760405162461bcd60e51b81526004016103e490610c28565b600080546001600160a01b0319166001600160a01b0383169081178255604051909133917f8be0079c531659141344cd1fd0a4f28419497f9722a3daafe3b4186f6b6457e09190a350565b6000546001600160a01b03163314610b3b5760405162461bcd60e51b81526004016103e490610c28565b6004805460ff1916911515919091179055565b6000546001600160a01b03163314610b785760405162461bcd60e51b81526004016103e490610c28565b600555565b600060208284031215610b8f57600080fd5b81356001600160a01b0381168114610ba657600080fd5b9392505050565b600060208284031215610bbf57600080fd5b5035919050565b600060208284031215610bd857600080fd5b81358015158114610ba657600080fd5b600060208284031215610bfa57600080fd5b5051919050565b80820180821115610c2257634e487b7160e01b600052601160045260246000fd5b92915050565b6020808252600c908201526b15539055551213d49256915160a21b60408201526060019056fea2646970667358221220e82dc9f9754529b415919f3259fbebc84e99ae28ec14e197c1178d3ec70d999564736f6c63430008100033",
    "linkReferences": {}
  },
  "methodIdentifiers": {
    "MAX_SUPPLY()": "32cb6b0c",
    "canClaim(address)": "bf3506c1",
    "claim(uint256)": "379607f5",
    "freeMintsPerAddress()": "61b5218e",
    "freezeToken(uint256)": "b6854f96",
    "mint(uint256)": "a0712d68",
    "mintEnabled()": "d1239730",
    "mintPrice()": "6817c76c",
    "minted(address)": "1e7269c5",
    "numArtworkTypes()": "9d27861b",
    "owner()": "8da5cb5b",
    "setFreeMintsPerAddress(uint256)": "5fe8b91c",
    "setMintEnabled(bool)": "f46a04eb",
    "setMintPrice(uint256)": "f4a0a528",
    "setNumArtworkTypes(uint256)": "5972bab1",
    "tokenFrozen(uint256)": "513f99e7",
    "transferOwnership(address)": "f2fde38b",
    "withdraw()": "3ccfd60b",
    "wizzmasArtworkAddress()": "3b94730d"
  },
  "id": 23
}