{
    "abi": [
        {
            "inputs": [],
            "stateMutability": "nonpayable",
            "type": "constructor"
        },
        {
            "anonymous": false,
            "inputs": [
                {
                    "indexed": true,
                    "internalType": "address",
                    "name": "account",
                    "type": "address"
                },
                {
                    "indexed": true,
                    "internalType": "address",
                    "name": "operator",
                    "type": "address"
                },
                {
                    "indexed": false,
                    "internalType": "bool",
                    "name": "approved",
                    "type": "bool"
                }
            ],
            "name": "ApprovalForAll",
            "type": "event"
        },
        {
            "anonymous": false,
            "inputs": [
                {
                    "indexed": true,
                    "internalType": "address",
                    "name": "previousOwner",
                    "type": "address"
                },
                {
                    "indexed": true,
                    "internalType": "address",
                    "name": "newOwner",
                    "type": "address"
                }
            ],
            "name": "OwnershipTransferred",
            "type": "event"
        },
        {
            "anonymous": false,
            "inputs": [
                {
                    "indexed": true,
                    "internalType": "address",
                    "name": "operator",
                    "type": "address"
                },
                {
                    "indexed": true,
                    "internalType": "address",
                    "name": "from",
                    "type": "address"
                },
                {
                    "indexed": true,
                    "internalType": "address",
                    "name": "to",
                    "type": "address"
                },
                {
                    "indexed": false,
                    "internalType": "uint256[]",
                    "name": "ids",
                    "type": "uint256[]"
                },
                {
                    "indexed": false,
                    "internalType": "uint256[]",
                    "name": "values",
                    "type": "uint256[]"
                }
            ],
            "name": "TransferBatch",
            "type": "event"
        },
        {
            "anonymous": false,
            "inputs": [
                {
                    "indexed": true,
                    "internalType": "address",
                    "name": "operator",
                    "type": "address"
                },
                {
                    "indexed": true,
                    "internalType": "address",
                    "name": "from",
                    "type": "address"
                },
                {
                    "indexed": true,
                    "internalType": "address",
                    "name": "to",
                    "type": "address"
                },
                {
                    "indexed": false,
                    "internalType": "uint256",
                    "name": "id",
                    "type": "uint256"
                },
                {
                    "indexed": false,
                    "internalType": "uint256",
                    "name": "value",
                    "type": "uint256"
                }
            ],
            "name": "TransferSingle",
            "type": "event"
        },
        {
            "anonymous": false,
            "inputs": [
                {
                    "indexed": false,
                    "internalType": "string",
                    "name": "value",
                    "type": "string"
                },
                {
                    "indexed": true,
                    "internalType": "uint256",
                    "name": "id",
                    "type": "uint256"
                }
            ],
            "name": "URI",
            "type": "event"
        },
        {
            "inputs": [
                {
                    "internalType": "address",
                    "name": "minter",
                    "type": "address"
                }
            ],
            "name": "addMinter",
            "outputs": [],
            "stateMutability": "nonpayable",
            "type": "function"
        },
        {
            "inputs": [
                {
                    "internalType": "address",
                    "name": "account",
                    "type": "address"
                },
                {
                    "internalType": "uint256",
                    "name": "id",
                    "type": "uint256"
                }
            ],
            "name": "balanceOf",
            "outputs": [
                {
                    "internalType": "uint256",
                    "name": "",
                    "type": "uint256"
                }
            ],
            "stateMutability": "view",
            "type": "function"
        },
        {
            "inputs": [
                {
                    "internalType": "address[]",
                    "name": "accounts",
                    "type": "address[]"
                },
                {
                    "internalType": "uint256[]",
                    "name": "ids",
                    "type": "uint256[]"
                }
            ],
            "name": "balanceOfBatch",
            "outputs": [
                {
                    "internalType": "uint256[]",
                    "name": "",
                    "type": "uint256[]"
                }
            ],
            "stateMutability": "view",
            "type": "function"
        },
        {
            "inputs": [
                {
                    "internalType": "address",
                    "name": "account",
                    "type": "address"
                },
                {
                    "internalType": "uint256",
                    "name": "id",
                    "type": "uint256"
                },
                {
                    "internalType": "uint256",
                    "name": "value",
                    "type": "uint256"
                }
            ],
            "name": "burn",
            "outputs": [],
            "stateMutability": "nonpayable",
            "type": "function"
        },
        {
            "inputs": [
                {
                    "internalType": "address",
                    "name": "account",
                    "type": "address"
                },
                {
                    "internalType": "uint256[]",
                    "name": "ids",
                    "type": "uint256[]"
                },
                {
                    "internalType": "uint256[]",
                    "name": "values",
                    "type": "uint256[]"
                }
            ],
            "name": "burnBatch",
            "outputs": [],
            "stateMutability": "nonpayable",
            "type": "function"
        },
        {
            "inputs": [
                {
                    "internalType": "address",
                    "name": "account",
                    "type": "address"
                },
                {
                    "internalType": "address",
                    "name": "operator",
                    "type": "address"
                }
            ],
            "name": "isApprovedForAll",
            "outputs": [
                {
                    "internalType": "bool",
                    "name": "",
                    "type": "bool"
                }
            ],
            "stateMutability": "view",
            "type": "function"
        },
        {
            "inputs": [
                {
                    "internalType": "address",
                    "name": "initialOwner",
                    "type": "address"
                },
                {
                    "internalType": "uint256",
                    "name": "tokenId",
                    "type": "uint256"
                },
                {
                    "internalType": "uint256",
                    "name": "amount",
                    "type": "uint256"
                },
                {
                    "internalType": "bytes",
                    "name": "data",
                    "type": "bytes"
                }
            ],
            "name": "mint",
            "outputs": [],
            "stateMutability": "nonpayable",
            "type": "function"
        },
        {
            "inputs": [
                {
                    "internalType": "address",
                    "name": "",
                    "type": "address"
                }
            ],
            "name": "minters",
            "outputs": [
                {
                    "internalType": "bool",
                    "name": "",
                    "type": "bool"
                }
            ],
            "stateMutability": "view",
            "type": "function"
        },
        {
            "inputs": [],
            "name": "owner",
            "outputs": [
                {
                    "internalType": "address",
                    "name": "",
                    "type": "address"
                }
            ],
            "stateMutability": "view",
            "type": "function"
        },
        {
            "inputs": [],
            "name": "renounceOwnership",
            "outputs": [],
            "stateMutability": "nonpayable",
            "type": "function"
        },
        {
            "inputs": [
                {
                    "internalType": "address",
                    "name": "from",
                    "type": "address"
                },
                {
                    "internalType": "address",
                    "name": "to",
                    "type": "address"
                },
                {
                    "internalType": "uint256[]",
                    "name": "ids",
                    "type": "uint256[]"
                },
                {
                    "internalType": "uint256[]",
                    "name": "amounts",
                    "type": "uint256[]"
                },
                {
                    "internalType": "bytes",
                    "name": "data",
                    "type": "bytes"
                }
            ],
            "name": "safeBatchTransferFrom",
            "outputs": [],
            "stateMutability": "nonpayable",
            "type": "function"
        },
        {
            "inputs": [
                {
                    "internalType": "address",
                    "name": "from",
                    "type": "address"
                },
                {
                    "internalType": "address",
                    "name": "to",
                    "type": "address"
                },
                {
                    "internalType": "uint256",
                    "name": "id",
                    "type": "uint256"
                },
                {
                    "internalType": "uint256",
                    "name": "amount",
                    "type": "uint256"
                },
                {
                    "internalType": "bytes",
                    "name": "data",
                    "type": "bytes"
                }
            ],
            "name": "safeTransferFrom",
            "outputs": [],
            "stateMutability": "nonpayable",
            "type": "function"
        },
        {
            "inputs": [
                {
                    "internalType": "address",
                    "name": "operator",
                    "type": "address"
                },
                {
                    "internalType": "bool",
                    "name": "approved",
                    "type": "bool"
                }
            ],
            "name": "setApprovalForAll",
            "outputs": [],
            "stateMutability": "nonpayable",
            "type": "function"
        },
        {
            "inputs": [
                {
                    "internalType": "uint256",
                    "name": "tokenId",
                    "type": "uint256"
                },
                {
                    "internalType": "string",
                    "name": "tokenUri",
                    "type": "string"
                }
            ],
            "name": "setTokenURI",
            "outputs": [],
            "stateMutability": "nonpayable",
            "type": "function"
        },
        {
            "inputs": [
                {
                    "internalType": "bytes4",
                    "name": "interfaceId",
                    "type": "bytes4"
                }
            ],
            "name": "supportsInterface",
            "outputs": [
                {
                    "internalType": "bool",
                    "name": "",
                    "type": "bool"
                }
            ],
            "stateMutability": "view",
            "type": "function"
        },
        {
            "inputs": [
                {
                    "internalType": "uint256",
                    "name": "",
                    "type": "uint256"
                }
            ],
            "name": "tokenSupply",
            "outputs": [
                {
                    "internalType": "uint256",
                    "name": "",
                    "type": "uint256"
                }
            ],
            "stateMutability": "view",
            "type": "function"
        },
        {
            "inputs": [
                {
                    "internalType": "uint256",
                    "name": "",
                    "type": "uint256"
                }
            ],
            "name": "tokenURIs",
            "outputs": [
                {
                    "internalType": "string",
                    "name": "",
                    "type": "string"
                }
            ],
            "stateMutability": "view",
            "type": "function"
        },
        {
            "inputs": [
                {
                    "internalType": "address",
                    "name": "newOwner",
                    "type": "address"
                }
            ],
            "name": "transferOwnership",
            "outputs": [],
            "stateMutability": "nonpayable",
            "type": "function"
        },
        {
            "inputs": [
                {
                    "internalType": "uint256",
                    "name": "id",
                    "type": "uint256"
                }
            ],
            "name": "uri",
            "outputs": [
                {
                    "internalType": "string",
                    "name": "",
                    "type": "string"
                }
            ],
            "stateMutability": "view",
            "type": "function"
        },
        {
            "inputs": [],
            "name": "withdraw",
            "outputs": [],
            "stateMutability": "nonpayable",
            "type": "function"
        }
    ],
    "bytecode": {
        "object": "0x60806040523480156200001157600080fd5b506040805160208101909152600081526200002c816200003e565b50620000383362000050565b62000213565b60026200004c828262000147565b5050565b600380546001600160a01b038381166001600160a01b0319831681179093556040519116919082907f8be0079c531659141344cd1fd0a4f28419497f9722a3daafe3b4186f6b6457e090600090a35050565b634e487b7160e01b600052604160045260246000fd5b600181811c90821680620000cd57607f821691505b602082108103620000ee57634e487b7160e01b600052602260045260246000fd5b50919050565b601f8211156200014257600081815260208120601f850160051c810160208610156200011d5750805b601f850160051c820191505b818110156200013e5782815560010162000129565b5050505b505050565b81516001600160401b03811115620001635762000163620000a2565b6200017b81620001748454620000b8565b84620000f4565b602080601f831160018114620001b357600084156200019a5750858301515b600019600386901b1c1916600185901b1785556200013e565b600085815260208120601f198616915b82811015620001e457888601518255948401946001909101908401620001c3565b5085821015620002035787850151600019600388901b60f8161c191681555b5050505050600190811b01905550565b6120e180620002236000396000f3fe608060405234801561001057600080fd5b506004361061012b5760003560e01c8063715018a6116100ad578063e985e9c511610071578063e985e9c51461028b578063f242432a146102c7578063f2fde38b146102da578063f46eccc4146102ed578063f5298aca1461031057600080fd5b8063715018a61461022f578063731133e9146102375780638da5cb5b1461024a578063983b2d5614610265578063a22cb4651461027857600080fd5b80632eb2c2d6116100f45780632eb2c2d6146101ce5780633ccfd60b146101e15780634e1273f4146101e95780636b20c454146102095780636c8b703f1461021c57600080fd5b8062fdd58e1461013057806301ffc9a7146101565780630e89341c14610179578063162094c4146101995780632693ebf2146101ae575b600080fd5b61014361013e3660046114f0565b610323565b6040519081526020015b60405180910390f35b610169610164366004611530565b6103bc565b604051901515815260200161014d565b61018c610187366004611554565b61040c565b60405161014d91906115b3565b6101ac6101a736600461160e565b610507565b005b6101436101bc366004611554565b60056020526000908152604090205481565b6101ac6101dc3660046117a2565b610568565b6101ac6105b4565b6101fc6101f736600461184b565b6105eb565b60405161014d9190611950565b6101ac610217366004611963565b610714565b61018c61022a366004611554565b61075c565b6101ac6107f6565b6101ac6102453660046119d6565b61080a565b6003546040516001600160a01b03909116815260200161014d565b6101ac610273366004611a3d565b610946565b6101ac610286366004611a58565b610972565b610169610299366004611a94565b6001600160a01b03918216600090815260016020908152604080832093909416825291909152205460ff1690565b6101ac6102d5366004611ac7565b610981565b6101ac6102e8366004611a3d565b6109c6565b6101696102fb366004611a3d565b60066020526000908152604090205460ff1681565b6101ac61031e366004611b2b565b610a3c565b60006001600160a01b0383166103935760405162461bcd60e51b815260206004820152602a60248201527f455243313135353a2061646472657373207a65726f206973206e6f742061207660448201526930b634b21037bbb732b960b11b60648201526084015b60405180910390fd5b506000818152602081815260408083206001600160a01b03861684529091529020545b92915050565b60006001600160e01b03198216636cdb3d1360e11b14806103ed57506001600160e01b031982166303a24d0760e21b145b806103b657506301ffc9a760e01b6001600160e01b03198316146103b6565b60008181526004602052604081208054606092919061042a90611b5e565b9050116104695760405162461bcd60e51b815260206004820152600d60248201526c26a4a9a9a4a723afaa27a5a2a760991b604482015260640161038a565b6000828152600460205260409020805461048290611b5e565b80601f01602080910402602001604051908101604052809291908181526020018280546104ae90611b5e565b80156104fb5780601f106104d0576101008083540402835291602001916104fb565b820191906000526020600020905b8154815290600101906020018083116104de57829003601f168201915b50505050509050919050565b61050f610a7f565b827f6bb7ff708619ba0610cba295a58592e0451dee2622938c8755667688daf3529b8383604051610541929190611b98565b60405180910390a26000838152600460205260409020610562828483611c0d565b50505050565b6001600160a01b03851633148061058457506105848533610299565b6105a05760405162461bcd60e51b815260040161038a90611ccc565b6105ad8585858585610ad9565b5050505050565b6105bc610a7f565b60405133904780156108fc02916000818181858888f193505050501580156105e8573d6000803e3d6000fd5b50565b606081518351146106505760405162461bcd60e51b815260206004820152602960248201527f455243313135353a206163636f756e747320616e6420696473206c656e677468604482015268040dad2e6dac2e8c6d60bb1b606482015260840161038a565b600083516001600160401b0381111561066b5761066b611659565b604051908082528060200260200182016040528015610694578160200160208202803683370190505b50905060005b845181101561070c576106df8582815181106106b8576106b8611d1a565b60200260200101518583815181106106d2576106d2611d1a565b6020026020010151610323565b8282815181106106f1576106f1611d1a565b602090810291909101015261070581611d46565b905061069a565b509392505050565b6001600160a01b03831633148061073057506107308333610299565b61074c5760405162461bcd60e51b815260040161038a90611ccc565b610757838383610c75565b505050565b6004602052600090815260409020805461077590611b5e565b80601f01602080910402602001604051908101604052809291908181526020018280546107a190611b5e565b80156107ee5780601f106107c3576101008083540402835291602001916107ee565b820191906000526020600020905b8154815290600101906020018083116107d157829003601f168201915b505050505081565b6107fe610a7f565b6108086000610dff565b565b3360009081526006602052604090205460ff168061083257506003546001600160a01b031633145b6108925760405162461bcd60e51b815260206004820152602b60248201527f6f6e6c79206d696e746572206f72206f776e65722063616e2063616c6c20746860448201526a34b990333ab731ba34b7b760a91b606482015260840161038a565b600083116108d35760405162461bcd60e51b815260206004820152600e60248201526d1253959053125117d05353d5539560921b604482015260640161038a565b6000848152600560205260409020546108ed908490611d5f565b60056000868152602001908152602001600020819055506105ad85858585858080601f016020809104026020016040519081016040528093929190818152602001838380828437600092019190915250610e5192505050565b61094e610a7f565b6001600160a01b03166000908152600660205260409020805460ff19166001179055565b61097d338383610f65565b5050565b6001600160a01b03851633148061099d575061099d8533610299565b6109b95760405162461bcd60e51b815260040161038a90611ccc565b6105ad8585858585611045565b6109ce610a7f565b6001600160a01b038116610a335760405162461bcd60e51b815260206004820152602660248201527f4f776e61626c653a206e6577206f776e657220697320746865207a65726f206160448201526564647265737360d01b606482015260840161038a565b6105e881610dff565b6001600160a01b038316331480610a585750610a588333610299565b610a745760405162461bcd60e51b815260040161038a90611ccc565b61075783838361116f565b6003546001600160a01b031633146108085760405162461bcd60e51b815260206004820181905260248201527f4f776e61626c653a2063616c6c6572206973206e6f7420746865206f776e6572604482015260640161038a565b8151835114610afa5760405162461bcd60e51b815260040161038a90611d72565b6001600160a01b038416610b205760405162461bcd60e51b815260040161038a90611dba565b3360005b8451811015610c07576000858281518110610b4157610b41611d1a565b602002602001015190506000858381518110610b5f57610b5f611d1a565b602090810291909101810151600084815280835260408082206001600160a01b038e168352909352919091205490915081811015610baf5760405162461bcd60e51b815260040161038a90611dff565b6000838152602081815260408083206001600160a01b038e8116855292528083208585039055908b16825281208054849290610bec908490611d5f565b9250508190555050505080610c0090611d46565b9050610b24565b50846001600160a01b0316866001600160a01b0316826001600160a01b03167f4a39dc06d4c0dbc64b70af90fd698a233a518aa5d07e595d983b8c0526c8f7fb8787604051610c57929190611e49565b60405180910390a4610c6d818787878787611273565b505050505050565b6001600160a01b038316610c9b5760405162461bcd60e51b815260040161038a90611e77565b8051825114610cbc5760405162461bcd60e51b815260040161038a90611d72565b604080516020810190915260009081905233905b8351811015610d92576000848281518110610ced57610ced611d1a565b602002602001015190506000848381518110610d0b57610d0b611d1a565b602090810291909101810151600084815280835260408082206001600160a01b038c168352909352919091205490915081811015610d5b5760405162461bcd60e51b815260040161038a90611eba565b6000928352602083815260408085206001600160a01b038b1686529091529092209103905580610d8a81611d46565b915050610cd0565b5060006001600160a01b0316846001600160a01b0316826001600160a01b03167f4a39dc06d4c0dbc64b70af90fd698a233a518aa5d07e595d983b8c0526c8f7fb8686604051610de3929190611e49565b60405180910390a4604080516020810190915260009052610562565b600380546001600160a01b038381166001600160a01b0319831681179093556040519116919082907f8be0079c531659141344cd1fd0a4f28419497f9722a3daafe3b4186f6b6457e090600090a35050565b6001600160a01b038416610eb15760405162461bcd60e51b815260206004820152602160248201527f455243313135353a206d696e7420746f20746865207a65726f206164647265736044820152607360f81b606482015260840161038a565b336000610ebd856113ce565b90506000610eca856113ce565b90506000868152602081815260408083206001600160a01b038b16845290915281208054879290610efc908490611d5f565b909155505060408051878152602081018790526001600160a01b03808a1692600092918716917fc3d58168c5ae7397731d063d5bbf3d657854427343f4c083240f7aacaa2d0f62910160405180910390a4610f5c83600089898989611419565b50505050505050565b816001600160a01b0316836001600160a01b031603610fd85760405162461bcd60e51b815260206004820152602960248201527f455243313135353a2073657474696e6720617070726f76616c20737461747573604482015268103337b91039b2b63360b91b606482015260840161038a565b6001600160a01b03838116600081815260016020908152604080832094871680845294825291829020805460ff191686151590811790915591519182527f17307eab39ab6107e8899845ad3d59bd9653f200f220920489ca2b5937696c31910160405180910390a3505050565b6001600160a01b03841661106b5760405162461bcd60e51b815260040161038a90611dba565b336000611077856113ce565b90506000611084856113ce565b90506000868152602081815260408083206001600160a01b038c168452909152902054858110156110c75760405162461bcd60e51b815260040161038a90611dff565b6000878152602081815260408083206001600160a01b038d8116855292528083208985039055908a16825281208054889290611104908490611d5f565b909155505060408051888152602081018890526001600160a01b03808b16928c821692918816917fc3d58168c5ae7397731d063d5bbf3d657854427343f4c083240f7aacaa2d0f62910160405180910390a4611164848a8a8a8a8a611419565b505050505050505050565b6001600160a01b0383166111955760405162461bcd60e51b815260040161038a90611e77565b3360006111a1846113ce565b905060006111ae846113ce565b60408051602080820183526000918290528882528181528282206001600160a01b038b16835290522054909150848110156111fb5760405162461bcd60e51b815260040161038a90611eba565b6000868152602081815260408083206001600160a01b038b81168086529184528285208a8703905582518b81529384018a90529092908816917fc3d58168c5ae7397731d063d5bbf3d657854427343f4c083240f7aacaa2d0f62910160405180910390a4604080516020810190915260009052610f5c565b6001600160a01b0384163b15610c6d5760405163bc197c8160e01b81526001600160a01b0385169063bc197c81906112b79089908990889088908890600401611efe565b6020604051808303816000875af19250505080156112f2575060408051601f3d908101601f191682019092526112ef91810190611f5c565b60015b61139e576112fe611f79565b806308c379a0036113375750611312611f95565b8061131d5750611339565b8060405162461bcd60e51b815260040161038a91906115b3565b505b60405162461bcd60e51b815260206004820152603460248201527f455243313135353a207472616e7366657220746f206e6f6e2d455243313135356044820152732932b1b2b4bb32b91034b6b83632b6b2b73a32b960611b606482015260840161038a565b6001600160e01b0319811663bc197c8160e01b14610f5c5760405162461bcd60e51b815260040161038a9061201e565b6040805160018082528183019092526060916000919060208083019080368337019050509050828160008151811061140857611408611d1a565b602090810291909101015292915050565b6001600160a01b0384163b15610c6d5760405163f23a6e6160e01b81526001600160a01b0385169063f23a6e619061145d9089908990889088908890600401612066565b6020604051808303816000875af1925050508015611498575060408051601f3d908101601f1916820190925261149591810190611f5c565b60015b6114a4576112fe611f79565b6001600160e01b0319811663f23a6e6160e01b14610f5c5760405162461bcd60e51b815260040161038a9061201e565b80356001600160a01b03811681146114eb57600080fd5b919050565b6000806040838503121561150357600080fd5b61150c836114d4565b946020939093013593505050565b6001600160e01b0319811681146105e857600080fd5b60006020828403121561154257600080fd5b813561154d8161151a565b9392505050565b60006020828403121561156657600080fd5b5035919050565b6000815180845260005b8181101561159357602081850181015186830182015201611577565b506000602082860101526020601f19601f83011685010191505092915050565b60208152600061154d602083018461156d565b60008083601f8401126115d857600080fd5b5081356001600160401b038111156115ef57600080fd5b60208301915083602082850101111561160757600080fd5b9250929050565b60008060006040848603121561162357600080fd5b8335925060208401356001600160401b0381111561164057600080fd5b61164c868287016115c6565b9497909650939450505050565b634e487b7160e01b600052604160045260246000fd5b601f8201601f191681016001600160401b038111828210171561169457611694611659565b6040525050565b60006001600160401b038211156116b4576116b4611659565b5060051b60200190565b600082601f8301126116cf57600080fd5b813560206116dc8261169b565b6040516116e9828261166f565b83815260059390931b850182019282810191508684111561170957600080fd5b8286015b84811015611724578035835291830191830161170d565b509695505050505050565b600082601f83011261174057600080fd5b81356001600160401b0381111561175957611759611659565b604051611770601f8301601f19166020018261166f565b81815284602083860101111561178557600080fd5b816020850160208301376000918101602001919091529392505050565b600080600080600060a086880312156117ba57600080fd5b6117c3866114d4565b94506117d1602087016114d4565b935060408601356001600160401b03808211156117ed57600080fd5b6117f989838a016116be565b9450606088013591508082111561180f57600080fd5b61181b89838a016116be565b9350608088013591508082111561183157600080fd5b5061183e8882890161172f565b9150509295509295909350565b6000806040838503121561185e57600080fd5b82356001600160401b038082111561187557600080fd5b818501915085601f83011261188957600080fd5b813560206118968261169b565b6040516118a3828261166f565b83815260059390931b85018201928281019150898411156118c357600080fd5b948201945b838610156118e8576118d9866114d4565b825294820194908201906118c8565b965050860135925050808211156118fe57600080fd5b5061190b858286016116be565b9150509250929050565b600081518084526020808501945080840160005b8381101561194557815187529582019590820190600101611929565b509495945050505050565b60208152600061154d6020830184611915565b60008060006060848603121561197857600080fd5b611981846114d4565b925060208401356001600160401b038082111561199d57600080fd5b6119a9878388016116be565b935060408601359150808211156119bf57600080fd5b506119cc868287016116be565b9150509250925092565b6000806000806000608086880312156119ee57600080fd5b6119f7866114d4565b9450602086013593506040860135925060608601356001600160401b03811115611a2057600080fd5b611a2c888289016115c6565b969995985093965092949392505050565b600060208284031215611a4f57600080fd5b61154d826114d4565b60008060408385031215611a6b57600080fd5b611a74836114d4565b915060208301358015158114611a8957600080fd5b809150509250929050565b60008060408385031215611aa757600080fd5b611ab0836114d4565b9150611abe602084016114d4565b90509250929050565b600080600080600060a08688031215611adf57600080fd5b611ae8866114d4565b9450611af6602087016114d4565b9350604086013592506060860135915060808601356001600160401b03811115611b1f57600080fd5b61183e8882890161172f565b600080600060608486031215611b4057600080fd5b611b49846114d4565b95602085013595506040909401359392505050565b600181811c90821680611b7257607f821691505b602082108103611b9257634e487b7160e01b600052602260045260246000fd5b50919050565b60208152816020820152818360408301376000818301604090810191909152601f909201601f19160101919050565b601f82111561075757600081815260208120601f850160051c81016020861015611bee5750805b601f850160051c820191505b81811015610c6d57828155600101611bfa565b6001600160401b03831115611c2457611c24611659565b611c3883611c328354611b5e565b83611bc7565b6000601f841160018114611c6c5760008515611c545750838201355b600019600387901b1c1916600186901b1783556105ad565b600083815260209020601f19861690835b82811015611c9d5786850135825560209485019460019092019101611c7d565b5086821015611cba5760001960f88860031b161c19848701351681555b505060018560011b0183555050505050565b6020808252602e908201527f455243313135353a2063616c6c6572206973206e6f7420746f6b656e206f776e60408201526d195c881bdc88185c1c1c9bdd995960921b606082015260800190565b634e487b7160e01b600052603260045260246000fd5b634e487b7160e01b600052601160045260246000fd5b600060018201611d5857611d58611d30565b5060010190565b808201808211156103b6576103b6611d30565b60208082526028908201527f455243313135353a2069647320616e6420616d6f756e7473206c656e677468206040820152670dad2e6dac2e8c6d60c31b606082015260800190565b60208082526025908201527f455243313135353a207472616e7366657220746f20746865207a65726f206164604082015264647265737360d81b606082015260800190565b6020808252602a908201527f455243313135353a20696e73756666696369656e742062616c616e636520666f60408201526939103a3930b739b332b960b11b606082015260800190565b604081526000611e5c6040830185611915565b8281036020840152611e6e8185611915565b95945050505050565b60208082526023908201527f455243313135353a206275726e2066726f6d20746865207a65726f206164647260408201526265737360e81b606082015260800190565b60208082526024908201527f455243313135353a206275726e20616d6f756e7420657863656564732062616c604082015263616e636560e01b606082015260800190565b6001600160a01b0386811682528516602082015260a060408201819052600090611f2a90830186611915565b8281036060840152611f3c8186611915565b90508281036080840152611f50818561156d565b98975050505050505050565b600060208284031215611f6e57600080fd5b815161154d8161151a565b600060033d1115611f925760046000803e5060005160e01c5b90565b600060443d1015611fa35790565b6040516003193d81016004833e81513d6001600160401b038160248401118184111715611fd257505050505090565b8285019150815181811115611fea5750505050505090565b843d87010160208285010111156120045750505050505090565b6120136020828601018761166f565b509095945050505050565b60208082526028908201527f455243313135353a204552433131353552656365697665722072656a656374656040820152676420746f6b656e7360c01b606082015260800190565b6001600160a01b03868116825285166020820152604081018490526060810183905260a0608082018190526000906120a09083018461156d565b97965050505050505056fea2646970667358221220a2e435d8ea324c5c59209be4068e1d6a2b1911b0fb32e0b252e994f4ea8b508364736f6c63430008110033",
        "linkReferences": {}
    },
    "methodIdentifiers": {
        "addMinter(address)": "983b2d56",
        "balanceOf(address,uint256)": "00fdd58e",
        "balanceOfBatch(address[],uint256[])": "4e1273f4",
        "burn(address,uint256,uint256)": "f5298aca",
        "burnBatch(address,uint256[],uint256[])": "6b20c454",
        "isApprovedForAll(address,address)": "e985e9c5",
        "mint(address,uint256,uint256,bytes)": "731133e9",
        "minters(address)": "f46eccc4",
        "owner()": "8da5cb5b",
        "renounceOwnership()": "715018a6",
        "safeBatchTransferFrom(address,address,uint256[],uint256[],bytes)": "2eb2c2d6",
        "safeTransferFrom(address,address,uint256,uint256,bytes)": "f242432a",
        "setApprovalForAll(address,bool)": "a22cb465",
        "setTokenURI(uint256,string)": "162094c4",
        "supportsInterface(bytes4)": "01ffc9a7",
        "tokenSupply(uint256)": "2693ebf2",
        "tokenURIs(uint256)": "6c8b703f",
        "transferOwnership(address)": "f2fde38b",
        "uri(uint256)": "0e89341c",
        "withdraw()": "3ccfd60b"
    },
    "id": 36
}