{
  "abi": [
    {
      "inputs": [
        {
          "internalType": "address",
          "name": "_artworkAddress",
          "type": "address"
        },
        {
          "internalType": "address",
          "name": "_wizardsAddres",
          "type": "address"
        },
        {
          "internalType": "address",
          "name": "_soulsAddress",
          "type": "address"
        },
        {
          "internalType": "address",
          "name": "_warriorsAddress",
          "type": "address"
        },
        {
          "internalType": "address",
          "name": "_poniesAddress",
          "type": "address"
        },
        {
          "internalType": "address",
          "name": "_beastsAddress",
          "type": "address"
        },
        {
          "internalType": "address",
          "name": "_spawnAddress",
          "type": "address"
        },
        {
          "internalType": "uint256",
          "name": "_numTemplates",
          "type": "uint256"
        },
        {
          "internalType": "string",
          "name": "_initialBaseURI",
          "type": "string"
        }
      ],
      "stateMutability": "nonpayable",
      "type": "constructor"
    },
    {
      "anonymous": false,
      "inputs": [
        {
          "indexed": true,
          "internalType": "address",
          "name": "owner",
          "type": "address"
        },
        {
          "indexed": true,
          "internalType": "address",
          "name": "approved",
          "type": "address"
        },
        {
          "indexed": true,
          "internalType": "uint256",
          "name": "tokenId",
          "type": "uint256"
        }
      ],
      "name": "Approval",
      "type": "event"
    },
    {
      "anonymous": false,
      "inputs": [
        {
          "indexed": true,
          "internalType": "address",
          "name": "owner",
          "type": "address"
        },
        {
          "indexed": true,
          "internalType": "address",
          "name": "operator",
          "type": "address"
        },
        {
          "indexed": false,
          "internalType": "bool",
          "name": "approved",
          "type": "bool"
        }
      ],
      "name": "ApprovalForAll",
      "type": "event"
    },
    {
      "anonymous": false,
      "inputs": [
        {
          "indexed": true,
          "internalType": "address",
          "name": "previousOwner",
          "type": "address"
        },
        {
          "indexed": true,
          "internalType": "address",
          "name": "newOwner",
          "type": "address"
        }
      ],
      "name": "OwnershipTransferred",
      "type": "event"
    },
    {
      "anonymous": false,
      "inputs": [
        {
          "indexed": true,
          "internalType": "address",
          "name": "from",
          "type": "address"
        },
        {
          "indexed": true,
          "internalType": "address",
          "name": "to",
          "type": "address"
        },
        {
          "indexed": true,
          "internalType": "uint256",
          "name": "tokenId",
          "type": "uint256"
        }
      ],
      "name": "Transfer",
      "type": "event"
    },
    {
      "anonymous": false,
      "inputs": [
        {
          "components": [
            {
              "internalType": "uint256",
              "name": "card",
              "type": "uint256"
            },
            {
              "internalType": "address",
              "name": "tokenContract",
              "type": "address"
            },
            {
              "internalType": "uint256",
              "name": "token",
              "type": "uint256"
            },
            {
              "internalType": "uint256",
              "name": "artwork",
              "type": "uint256"
            },
            {
              "internalType": "uint256",
              "name": "template",
              "type": "uint256"
            },
            {
              "internalType": "string",
              "name": "message",
              "type": "string"
            },
            {
              "internalType": "address",
              "name": "sender",
              "type": "address"
            },
            {
              "internalType": "address",
              "name": "recipient",
              "type": "address"
            }
          ],
          "indexed": false,
          "internalType": "struct WizzmasCard.Card",
          "name": "data",
          "type": "tuple"
        }
      ],
      "name": "WizzmasCardMinted",
      "type": "event"
    },
    {
      "inputs": [
        {
          "internalType": "string",
          "name": "_message",
          "type": "string"
        }
      ],
      "name": "addMessage",
      "outputs": [],
      "stateMutability": "nonpayable",
      "type": "function"
    },
    {
      "inputs": [
        {
          "internalType": "string[]",
          "name": "_messages",
          "type": "string[]"
        }
      ],
      "name": "addMessages",
      "outputs": [],
      "stateMutability": "nonpayable",
      "type": "function"
    },
    {
      "inputs": [
        {
          "internalType": "address",
          "name": "to",
          "type": "address"
        },
        {
          "internalType": "uint256",
          "name": "tokenId",
          "type": "uint256"
        }
      ],
      "name": "approve",
      "outputs": [],
      "stateMutability": "nonpayable",
      "type": "function"
    },
    {
      "inputs": [],
      "name": "artworkAddress",
      "outputs": [
        {
          "internalType": "address",
          "name": "",
          "type": "address"
        }
      ],
      "stateMutability": "view",
      "type": "function"
    },
    {
      "inputs": [],
      "name": "availableMessages",
      "outputs": [
        {
          "internalType": "string[]",
          "name": "",
          "type": "string[]"
        }
      ],
      "stateMutability": "view",
      "type": "function"
    },
    {
      "inputs": [
        {
          "internalType": "address",
          "name": "owner",
          "type": "address"
        }
      ],
      "name": "balanceOf",
      "outputs": [
        {
          "internalType": "uint256",
          "name": "",
          "type": "uint256"
        }
      ],
      "stateMutability": "view",
      "type": "function"
    },
    {
      "inputs": [],
      "name": "baseURI",
      "outputs": [
        {
          "internalType": "string",
          "name": "",
          "type": "string"
        }
      ],
      "stateMutability": "view",
      "type": "function"
    },
    {
      "inputs": [],
      "name": "beastsAddress",
      "outputs": [
        {
          "internalType": "address",
          "name": "",
          "type": "address"
        }
      ],
      "stateMutability": "view",
      "type": "function"
    },
    {
      "inputs": [
        {
          "internalType": "uint256",
          "name": "tokenId",
          "type": "uint256"
        }
      ],
      "name": "burn",
      "outputs": [],
      "stateMutability": "nonpayable",
      "type": "function"
    },
    {
      "inputs": [
        {
          "internalType": "uint256",
          "name": "tokenId",
          "type": "uint256"
        }
      ],
      "name": "getApproved",
      "outputs": [
        {
          "internalType": "address",
          "name": "",
          "type": "address"
        }
      ],
      "stateMutability": "view",
      "type": "function"
    },
    {
      "inputs": [
        {
          "internalType": "uint256",
          "name": "cardId",
          "type": "uint256"
        }
      ],
      "name": "getCard",
      "outputs": [
        {
          "components": [
            {
              "internalType": "uint256",
              "name": "card",
              "type": "uint256"
            },
            {
              "internalType": "address",
              "name": "tokenContract",
              "type": "address"
            },
            {
              "internalType": "uint256",
              "name": "token",
              "type": "uint256"
            },
            {
              "internalType": "uint256",
              "name": "artwork",
              "type": "uint256"
            },
            {
              "internalType": "uint256",
              "name": "template",
              "type": "uint256"
            },
            {
              "internalType": "string",
              "name": "message",
              "type": "string"
            },
            {
              "internalType": "address",
              "name": "sender",
              "type": "address"
            },
            {
              "internalType": "address",
              "name": "recipient",
              "type": "address"
            }
          ],
          "internalType": "struct WizzmasCard.Card",
          "name": "",
          "type": "tuple"
        }
      ],
      "stateMutability": "view",
      "type": "function"
    },
    {
      "inputs": [
        {
          "internalType": "address",
          "name": "recipient",
          "type": "address"
        }
      ],
      "name": "getRecipientCardIds",
      "outputs": [
        {
          "internalType": "uint256[]",
          "name": "",
          "type": "uint256[]"
        }
      ],
      "stateMutability": "view",
      "type": "function"
    },
    {
      "inputs": [
        {
          "internalType": "address",
          "name": "sender",
          "type": "address"
        }
      ],
      "name": "getSenderCardIds",
      "outputs": [
        {
          "internalType": "uint256[]",
          "name": "",
          "type": "uint256[]"
        }
      ],
      "stateMutability": "view",
      "type": "function"
    },
    {
      "inputs": [
        {
          "internalType": "address",
          "name": "owner",
          "type": "address"
        },
        {
          "internalType": "address",
          "name": "operator",
          "type": "address"
        }
      ],
      "name": "isApprovedForAll",
      "outputs": [
        {
          "internalType": "bool",
          "name": "",
          "type": "bool"
        }
      ],
      "stateMutability": "view",
      "type": "function"
    },
    {
      "inputs": [
        {
          "internalType": "uint256",
          "name": "",
          "type": "uint256"
        }
      ],
      "name": "messages",
      "outputs": [
        {
          "internalType": "string",
          "name": "",
          "type": "string"
        }
      ],
      "stateMutability": "view",
      "type": "function"
    },
    {
      "inputs": [
        {
          "internalType": "address",
          "name": "_tokenContract",
          "type": "address"
        },
        {
          "internalType": "uint256",
          "name": "_tokenId",
          "type": "uint256"
        },
        {
          "internalType": "uint256",
          "name": "_artworkId",
          "type": "uint256"
        },
        {
          "internalType": "uint256",
          "name": "_templateId",
          "type": "uint256"
        },
        {
          "internalType": "uint256",
          "name": "_messageId",
          "type": "uint256"
        },
        {
          "internalType": "address",
          "name": "_recipient",
          "type": "address"
        }
      ],
      "name": "mint",
      "outputs": [],
      "stateMutability": "nonpayable",
      "type": "function"
    },
    {
      "inputs": [],
      "name": "mintEnabled",
      "outputs": [
        {
          "internalType": "bool",
          "name": "",
          "type": "bool"
        }
      ],
      "stateMutability": "view",
      "type": "function"
    },
    {
      "inputs": [],
      "name": "name",
      "outputs": [
        {
          "internalType": "string",
          "name": "",
          "type": "string"
        }
      ],
      "stateMutability": "view",
      "type": "function"
    },
    {
      "inputs": [],
      "name": "numTemplates",
      "outputs": [
        {
          "internalType": "uint256",
          "name": "",
          "type": "uint256"
        }
      ],
      "stateMutability": "view",
      "type": "function"
    },
    {
      "inputs": [],
      "name": "owner",
      "outputs": [
        {
          "internalType": "address",
          "name": "",
          "type": "address"
        }
      ],
      "stateMutability": "view",
      "type": "function"
    },
    {
      "inputs": [
        {
          "internalType": "uint256",
          "name": "tokenId",
          "type": "uint256"
        }
      ],
      "name": "ownerOf",
      "outputs": [
        {
          "internalType": "address",
          "name": "",
          "type": "address"
        }
      ],
      "stateMutability": "view",
      "type": "function"
    },
    {
      "inputs": [],
      "name": "poniesAddress",
      "outputs": [
        {
          "internalType": "address",
          "name": "",
          "type": "address"
        }
      ],
      "stateMutability": "view",
      "type": "function"
    },
    {
      "inputs": [
        {
          "internalType": "uint256",
          "name": "index",
          "type": "uint256"
        }
      ],
      "name": "removeMessage",
      "outputs": [],
      "stateMutability": "nonpayable",
      "type": "function"
    },
    {
      "inputs": [],
      "name": "renounceOwnership",
      "outputs": [],
      "stateMutability": "nonpayable",
      "type": "function"
    },
    {
      "inputs": [
        {
          "internalType": "address",
          "name": "from",
          "type": "address"
        },
        {
          "internalType": "address",
          "name": "to",
          "type": "address"
        },
        {
          "internalType": "uint256",
          "name": "tokenId",
          "type": "uint256"
        }
      ],
      "name": "safeTransferFrom",
      "outputs": [],
      "stateMutability": "nonpayable",
      "type": "function"
    },
    {
      "inputs": [
        {
          "internalType": "address",
          "name": "from",
          "type": "address"
        },
        {
          "internalType": "address",
          "name": "to",
          "type": "address"
        },
        {
          "internalType": "uint256",
          "name": "tokenId",
          "type": "uint256"
        },
        {
          "internalType": "bytes",
          "name": "data",
          "type": "bytes"
        }
      ],
      "name": "safeTransferFrom",
      "outputs": [],
      "stateMutability": "nonpayable",
      "type": "function"
    },
    {
      "inputs": [
        {
          "internalType": "address",
          "name": "operator",
          "type": "address"
        },
        {
          "internalType": "bool",
          "name": "approved",
          "type": "bool"
        }
      ],
      "name": "setApprovalForAll",
      "outputs": [],
      "stateMutability": "nonpayable",
      "type": "function"
    },
    {
      "inputs": [
        {
          "internalType": "address",
          "name": "_address",
          "type": "address"
        }
      ],
      "name": "setArtworkAddress",
      "outputs": [],
      "stateMutability": "nonpayable",
      "type": "function"
    },
    {
      "inputs": [
        {
          "internalType": "string",
          "name": "_newBaseURI",
          "type": "string"
        }
      ],
      "name": "setBaseURI",
      "outputs": [],
      "stateMutability": "nonpayable",
      "type": "function"
    },
    {
      "inputs": [
        {
          "internalType": "address",
          "name": "_address",
          "type": "address"
        }
      ],
      "name": "setBeastsAddress",
      "outputs": [],
      "stateMutability": "nonpayable",
      "type": "function"
    },
    {
      "inputs": [
        {
          "internalType": "bool",
          "name": "_newMintEnabled",
          "type": "bool"
        }
      ],
      "name": "setMintEnabled",
      "outputs": [],
      "stateMutability": "nonpayable",
      "type": "function"
    },
    {
      "inputs": [
        {
          "internalType": "uint256",
          "name": "_numTemplates",
          "type": "uint256"
        }
      ],
      "name": "setNumTemplates",
      "outputs": [],
      "stateMutability": "nonpayable",
      "type": "function"
    },
    {
      "inputs": [
        {
          "internalType": "address",
          "name": "_address",
          "type": "address"
        }
      ],
      "name": "setPoniesAddress",
      "outputs": [],
      "stateMutability": "nonpayable",
      "type": "function"
    },
    {
      "inputs": [
        {
          "internalType": "address",
          "name": "_address",
          "type": "address"
        }
      ],
      "name": "setSoulsAddress",
      "outputs": [],
      "stateMutability": "nonpayable",
      "type": "function"
    },
    {
      "inputs": [
        {
          "internalType": "address",
          "name": "_address",
          "type": "address"
        }
      ],
      "name": "setSpawnAddress",
      "outputs": [],
      "stateMutability": "nonpayable",
      "type": "function"
    },
    {
      "inputs": [
        {
          "internalType": "address",
          "name": "_address",
          "type": "address"
        }
      ],
      "name": "setWarriorsAddress",
      "outputs": [],
      "stateMutability": "nonpayable",
      "type": "function"
    },
    {
      "inputs": [
        {
          "internalType": "address",
          "name": "_address",
          "type": "address"
        }
      ],
      "name": "setWizardsAddress",
      "outputs": [],
      "stateMutability": "nonpayable",
      "type": "function"
    },
    {
      "inputs": [],
      "name": "soulsAddress",
      "outputs": [
        {
          "internalType": "address",
          "name": "",
          "type": "address"
        }
      ],
      "stateMutability": "view",
      "type": "function"
    },
    {
      "inputs": [],
      "name": "spawnAddress",
      "outputs": [
        {
          "internalType": "address",
          "name": "",
          "type": "address"
        }
      ],
      "stateMutability": "view",
      "type": "function"
    },
    {
      "inputs": [],
      "name": "supportedContracts",
      "outputs": [
        {
          "internalType": "address[]",
          "name": "",
          "type": "address[]"
        }
      ],
      "stateMutability": "view",
      "type": "function"
    },
    {
      "inputs": [
        {
          "internalType": "bytes4",
          "name": "interfaceId",
          "type": "bytes4"
        }
      ],
      "name": "supportsInterface",
      "outputs": [
        {
          "internalType": "bool",
          "name": "",
          "type": "bool"
        }
      ],
      "stateMutability": "view",
      "type": "function"
    },
    {
      "inputs": [],
      "name": "symbol",
      "outputs": [
        {
          "internalType": "string",
          "name": "",
          "type": "string"
        }
      ],
      "stateMutability": "view",
      "type": "function"
    },
    {
      "inputs": [
        {
          "internalType": "uint256",
          "name": "tokenId",
          "type": "uint256"
        }
      ],
      "name": "tokenURI",
      "outputs": [
        {
          "internalType": "string",
          "name": "",
          "type": "string"
        }
      ],
      "stateMutability": "view",
      "type": "function"
    },
    {
      "inputs": [
        {
          "internalType": "address",
          "name": "from",
          "type": "address"
        },
        {
          "internalType": "address",
          "name": "to",
          "type": "address"
        },
        {
          "internalType": "uint256",
          "name": "tokenId",
          "type": "uint256"
        }
      ],
      "name": "transferFrom",
      "outputs": [],
      "stateMutability": "nonpayable",
      "type": "function"
    },
    {
      "inputs": [
        {
          "internalType": "address",
          "name": "newOwner",
          "type": "address"
        }
      ],
      "name": "transferOwnership",
      "outputs": [],
      "stateMutability": "nonpayable",
      "type": "function"
    },
    {
      "inputs": [],
      "name": "warriorsAddress",
      "outputs": [
        {
          "internalType": "address",
          "name": "",
          "type": "address"
        }
      ],
      "stateMutability": "view",
      "type": "function"
    },
    {
      "inputs": [],
      "name": "withdraw",
      "outputs": [],
      "stateMutability": "nonpayable",
      "type": "function"
    },
    {
      "inputs": [],
      "name": "wizardsAddress",
      "outputs": [
        {
          "internalType": "address",
          "name": "",
          "type": "address"
        }
      ],
      "stateMutability": "view",
      "type": "function"
    }
  ],
  "bytecode": {
    "object": "0x60006009556014805460ff19169055601a6101009081527f4861766520612076657279204d657272792057697a7a6d6173210000000000006101205260809081526101a0604052602361014081815260a091620036486101603981526020016040518060400160405280601681526020017f486f486f486f21204d657272792057697a7a6d6173210000000000000000000081525081526020016040518060600160405280602b81526020016200361d602b91399052620000c59060159060046200032a565b50348015620000d357600080fd5b506040516200366b3803806200366b833981016040819052620000f6916200049a565b604080518082018252600b8082526a15da5e9e9b585cd0d85c9960aa1b60208084018290528451808601909552918452908301529060006200013983826200068f565b5060016200014882826200068f565b505050620001656200015f6200024860201b60201c565b6200024c565b6001600755600b80546001600160a01b03808c166001600160a01b031992831617909255600c80548b84169083168117909155600d80548b85169084168117909155600e80548b86169085168117909155600f80548b87169086168117909155601080548b8816908716811790915560118054978b169790961687179095556040805160c0810182529485526020850193909352918301526060820152608081019190915260a08101919091526200022290601290600662000387565b506200022e826200029e565b6200023981620002ad565b5050505050505050506200075b565b3390565b600680546001600160a01b038381166001600160a01b0319831681179093556040519116919082907f8be0079c531659141344cd1fd0a4f28419497f9722a3daafe3b4186f6b6457e090600090a35050565b620002a8620002c9565b600955565b620002b7620002c9565b6013620002c582826200068f565b5050565b6006546001600160a01b03163314620003285760405162461bcd60e51b815260206004820181905260248201527f4f776e61626c653a2063616c6c6572206973206e6f7420746865206f776e6572604482015260640160405180910390fd5b565b82805482825590600052602060002090810192821562000375579160200282015b828111156200037557825182906200036490826200068f565b50916020019190600101906200034b565b5062000383929150620003ed565b5090565b828054828255906000526020600020908101928215620003df579160200282015b82811115620003df57825182546001600160a01b0319166001600160a01b03909116178255602090920191600190910190620003a8565b50620003839291506200040e565b808211156200038357600062000404828262000425565b50600101620003ed565b5b808211156200038357600081556001016200040f565b508054620004339062000600565b6000825580601f1062000444575050565b601f0160209004906000526020600020908101906200046491906200040e565b50565b80516001600160a01b03811681146200047f57600080fd5b919050565b634e487b7160e01b600052604160045260246000fd5b60008060008060008060008060006101208a8c031215620004ba57600080fd5b620004c58a62000467565b9850620004d560208b0162000467565b9750620004e560408b0162000467565b9650620004f560608b0162000467565b95506200050560808b0162000467565b94506200051560a08b0162000467565b93506200052560c08b0162000467565b60e08b01516101008c015191945092506001600160401b03808211156200054b57600080fd5b818c0191508c601f8301126200056057600080fd5b81518181111562000575576200057562000484565b604051601f8201601f19908116603f01168101908382118183101715620005a057620005a062000484565b816040528281528f6020848701011115620005ba57600080fd5b600093505b82841015620005e2576020848601015160208583010152602084019350620005bf565b60006020848301015280955050505050509295985092959850929598565b600181811c908216806200061557607f821691505b6020821081036200063657634e487b7160e01b600052602260045260246000fd5b50919050565b601f8211156200068a57600081815260208120601f850160051c81016020861015620006655750805b601f850160051c820191505b81811015620006865782815560010162000671565b5050505b505050565b81516001600160401b03811115620006ab57620006ab62000484565b620006c381620006bc845462000600565b846200063c565b602080601f831160018114620006fb5760008415620006e25750858301515b600019600386901b1c1916600185901b17855562000686565b600085815260208120601f198616915b828110156200072c578886015182559484019460019091019084016200070b565b50858210156200074b5787850151600019600388901b60f8161c191681555b5050505050600190811b01905550565b612eb2806200076b6000396000f3fe608060405234801561001057600080fd5b50600436106102a05760003560e01c806370a0823111610167578063c87b56dd116100ce578063e985e9c511610087578063e985e9c5146105e2578063ec8e1e13146105f5578063f2fde38b14610608578063f46a04eb1461061b578063fa6c9cb31461062e578063fc6b0bc81461064157600080fd5b8063c87b56dd14610576578063d123973014610589578063d281d63d14610596578063d99e0f0a146105a9578063df86078a146105bc578063e38806df146105cf57600080fd5b806395d89b411161012057806395d89b411461050f57806399af4f1e14610517578063a22cb4651461052a578063aa5f37a31461053d578063b88d4fde14610550578063c10c32b21461056357600080fd5b806370a082311461049b578063715018a6146104ae5780638bb4db27146104b65780638da5cb5b146104cb5780638de87e4d146104dc5780639188d312146104ef57600080fd5b80632de263d71161020b5780634c2ade1e116101c45780634c2ade1e1461043457806355f804b31461044757806360e06b1d1461045a5780636352211e1461046d5780636a226a49146104805780636c0360eb1461049357600080fd5b80632de263d7146103bc5780632faceae2146103cf5780633ccfd60b146103e657806341c3b348146103ee57806342842e0e1461040e57806342966c681461042157600080fd5b80630d80fefd1161025d5780630d80fefd1461034857806310de90621461035b5780631324111b1461036e5780631b1862be1461038357806323b872dd146103965780632a0f9d34146103a957600080fd5b80630113c93a146102a557806301b87a12146102d557806301ffc9a7146102ea57806306fdde031461030d578063081812fc14610322578063095ea7b314610335575b600080fd5b6010546102b8906001600160a01b031681565b6040516001600160a01b0390911681526020015b60405180910390f35b6102e86102e336600461234d565b610654565b005b6102fd6102f8366004612380565b61067e565b60405190151581526020016102cc565b6103156106d0565b6040516102cc91906123ed565b6102b8610330366004612400565b610762565b6102e8610343366004612419565b610789565b610315610356366004612400565b6108a3565b600c546102b8906001600160a01b031681565b61037661094f565b6040516102cc9190612445565b6102e8610391366004612566565b610a28565b6102e86103a4366004612629565b610a90565b6102e86103b736600461234d565b610ac2565b6102e86103ca366004612400565b610aec565b6103d860095481565b6040519081526020016102cc565b6102e8610be9565b6104016103fc36600461234d565b610c20565b6040516102cc919061266a565b6102e861041c366004612629565b610c8c565b6102e861042f366004612400565b610ca7565b6102e8610442366004612400565b610cd5565b6102e86104553660046126ae565b610ce2565b600e546102b8906001600160a01b031681565b6102b861047b366004612400565b610cf6565b6102e861048e3660046126ae565b610d56565b610315610d9a565b6103d86104a936600461234d565b610da7565b6102e8610e2d565b6104be610e41565b6040516102cc91906126e3565b6006546001600160a01b03166102b8565b600f546102b8906001600160a01b031681565b6105026104fd366004612400565b610ea2565b6040516102cc9190612724565b610315611066565b6102e861052536600461234d565b611075565b6102e86105383660046127c9565b61109f565b6102e861054b36600461234d565b6110aa565b6102e861055e3660046127fe565b6110d4565b6011546102b8906001600160a01b031681565b610315610584366004612400565b61110c565b6014546102fd9060ff1681565b600d546102b8906001600160a01b031681565b6102e86105b736600461287e565b611173565b6102e86105ca36600461234d565b611714565b6104016105dd36600461234d565b61173e565b6102fd6105f03660046128dc565b6117a8565b6102e861060336600461234d565b6117d6565b6102e861061636600461234d565b611800565b6102e8610629366004612915565b611876565b600b546102b8906001600160a01b031681565b6102e861064f36600461234d565b611891565b61065c6118bb565b600e80546001600160a01b0319166001600160a01b0392909216919091179055565b60006001600160e01b031982166380ac58cd60e01b14806106af57506001600160e01b03198216635b5e139f60e01b145b806106ca57506301ffc9a760e01b6001600160e01b03198316145b92915050565b6060600080546106df90612930565b80601f016020809104026020016040519081016040528092919081815260200182805461070b90612930565b80156107585780601f1061072d57610100808354040283529160200191610758565b820191906000526020600020905b81548152906001019060200180831161073b57829003601f168201915b5050505050905090565b600061076d82611915565b506000908152600460205260409020546001600160a01b031690565b600061079482610cf6565b9050806001600160a01b0316836001600160a01b0316036108065760405162461bcd60e51b815260206004820152602160248201527f4552433732313a20617070726f76616c20746f2063757272656e74206f776e656044820152603960f91b60648201526084015b60405180910390fd5b336001600160a01b0382161480610822575061082281336117a8565b6108945760405162461bcd60e51b815260206004820152603d60248201527f4552433732313a20617070726f76652063616c6c6572206973206e6f7420746f60448201527f6b656e206f776e6572206f7220617070726f76656420666f7220616c6c00000060648201526084016107fd565b61089e8383611974565b505050565b601581815481106108b357600080fd5b9060005260206000200160009150905080546108ce90612930565b80601f01602080910402602001604051908101604052809291908181526020018280546108fa90612930565b80156109475780601f1061091c57610100808354040283529160200191610947565b820191906000526020600020905b81548152906001019060200180831161092a57829003601f168201915b505050505081565b60606015805480602002602001604051908101604052809291908181526020016000905b82821015610a1f57838290600052602060002001805461099290612930565b80601f01602080910402602001604051908101604052809291908181526020018280546109be90612930565b8015610a0b5780601f106109e057610100808354040283529160200191610a0b565b820191906000526020600020905b8154815290600101906020018083116109ee57829003601f168201915b505050505081526020019060010190610973565b50505050905090565b610a306118bb565b60005b8151811015610a8c576015828281518110610a5057610a5061296a565b60209081029190910181015182546001810184556000938452919092200190610a7990826129c6565b5080610a8481612a9c565b915050610a33565b5050565b610a9b335b826119e2565b610ab75760405162461bcd60e51b81526004016107fd90612ab5565b61089e838383611a41565b610aca6118bb565b600d80546001600160a01b0319166001600160a01b0392909216919091179055565b610af46118bb565b6015548110610b3b5760405162461bcd60e51b8152602060048201526013602482015272494e4445585f4f55545f4f465f424f554e445360681b60448201526064016107fd565b805b601554610b4c90600190612b02565b811015610bb6576015610b60826001612b15565b81548110610b7057610b7061296a565b9060005260206000200160158281548110610b8d57610b8d61296a565b906000526020600020019081610ba39190612b28565b5080610bae81612a9c565b915050610b3d565b506015805480610bc857610bc8612c03565b600190038181906000526020600020016000610be491906122ea565b905550565b610bf16118bb565b60405133904780156108fc02916000818181858888f19350505050158015610c1d573d6000803e3d6000fd5b50565b6001600160a01b038116600090815260166020908152604091829020805483518184028101840190945280845260609392830182828015610c8057602002820191906000526020600020905b815481526020019060010190808311610c6c575b50505050509050919050565b61089e838383604051806020016040528060008152506110d4565b610cb033610a95565b610ccc5760405162461bcd60e51b81526004016107fd90612ab5565b610c1d81611bb2565b610cdd6118bb565b600955565b610cea6118bb565b6013610a8c82826129c6565b6000818152600260205260408120546001600160a01b0316806106ca5760405162461bcd60e51b8152602060048201526018602482015277115490cdcc8c4e881a5b9d985b1a59081d1bdad95b88125160421b60448201526064016107fd565b610d5e6118bb565b601580546001810182556000919091527f55f448fdea98c4d29eb340757ef0a66cd03dbb9538908a6a81d96026b71ec47501610a8c82826129c6565b601380546108ce90612930565b60006001600160a01b038216610e115760405162461bcd60e51b815260206004820152602960248201527f4552433732313a2061646472657373207a65726f206973206e6f7420612076616044820152683634b21037bbb732b960b91b60648201526084016107fd565b506001600160a01b031660009081526003602052604090205490565b610e356118bb565b610e3f6000611c55565b565b6060601280548060200260200160405190810160405280929190818152602001828054801561075857602002820191906000526020600020905b81546001600160a01b03168152600190910190602001808311610e7b575050505050905090565b610f056040518061010001604052806000815260200160006001600160a01b031681526020016000815260200160008152602001600081526020016060815260200160006001600160a01b0316815260200160006001600160a01b031681525090565b81610f0f600a5490565b111561102c576000828152600860209081526040918290208251610100810184528154815260018201546001600160a01b031692810192909252600281015492820192909252600382015460608201526004820154608082015260058201805491929160a084019190610f8190612930565b80601f0160208091040260200160405190810160405280929190818152602001828054610fad90612930565b8015610ffa5780601f10610fcf57610100808354040283529160200191610ffa565b820191906000526020600020905b815481529060010190602001808311610fdd57829003601f168201915b505050918352505060068201546001600160a01b03908116602083015260079092015490911660409091015292915050565b60405162461bcd60e51b815260206004820152600f60248201526e10d0549117d393d517d35253951151608a1b60448201526064016107fd565b6060600180546106df90612930565b61107d6118bb565b601080546001600160a01b0319166001600160a01b0392909216919091179055565b610a8c338383611ca7565b6110b26118bb565b600f80546001600160a01b0319166001600160a01b0392909216919091179055565b6110de33836119e2565b6110fa5760405162461bcd60e51b81526004016107fd90612ab5565b61110684848484611d75565b50505050565b606061111782611915565b6000611121611da8565b90506000815111611141576040518060200160405280600081525061116c565b8061114b84611db7565b60405160200161115c929190612c19565b6040516020818303038152906040525b9392505050565b61117b611e4a565b60145460ff166111bb5760405162461bcd60e51b815260206004820152600b60248201526a1352539517d0d313d4d15160aa1b60448201526064016107fd565b60155482106111fe5760405162461bcd60e51b815260206004820152600f60248201526e494e56414c49445f4d45535341474560881b60448201526064016107fd565b60095483106112425760405162461bcd60e51b815260206004820152601060248201526f494e56414c49445f54454d504c41544560801b60448201526064016107fd565b6001600160a01b03811633036112895760405162461bcd60e51b815260206004820152600c60248201526b29a2a7222faa27afa9a2a62360a11b60448201526064016107fd565b600c546001600160a01b03878116911614806112b25750600d546001600160a01b038781169116145b806112ca5750600e546001600160a01b038781169116145b806112e25750600f546001600160a01b038781169116145b806112fa57506010546001600160a01b038781169116145b8061131257506011546001600160a01b038781169116145b6113525760405162461bcd60e51b81526020600482015260116024820152702aa729aaa82827a92a22a22faa27a5a2a760791b60448201526064016107fd565b336040516331a9108f60e11b8152600481018790526001600160a01b0391821691881690636352211e90602401602060405180830381865afa15801561139c573d6000803e3d6000fd5b505050506040513d601f19601f820116820180604052508101906113c09190612c48565b6001600160a01b0316146114025760405162461bcd60e51b81526020600482015260096024820152682727aa2fa7aba722a960b91b60448201526064016107fd565b600b546000906001600160a01b031662fdd58e336040516001600160e01b031960e084901b1681526001600160a01b03909116600482015260248101889052604401602060405180830381865afa158015611461573d6000803e3d6000fd5b505050506040513d601f19601f820116820180604052508101906114859190612c65565b116114bf5760405162461bcd60e51b815260206004820152600a6024820152694e4f5f415254574f524b60b01b60448201526064016107fd565b60006114ca600a5490565b90506114d68282611ea3565b6114e4600a80546001019055565b604051806101000160405280828152602001886001600160a01b031681526020018781526020018681526020018581526020016015858154811061152a5761152a61296a565b90600052602060002001805461153f90612930565b80601f016020809104026020016040519081016040528092919081815260200182805461156b90612930565b80156115b85780601f1061158d576101008083540402835291602001916115b8565b820191906000526020600020905b81548152906001019060200180831161159b57829003601f168201915b505050505081526020016115c93390565b6001600160a01b03908116825284811660209283015260008481526008835260409081902084518155928401516001840180546001600160a01b03191691909316179091558201516002820155606082015160038201556080820151600482015560a0820151600582019061163e90826129c6565b5060c08201516006820180546001600160a01b03199081166001600160a01b039384161790915560e0909301516007909201805490931691811691909117909155336000908152601660209081526040808320805460018181018355918552838520018690559386168352601782528083208054948501815583528183209093018490558382526008905281902090517f303249d8bcbf5f19a46d4f4dd0229ea5444b0dc9b4804f9373cc35da7617aca4916116f991612cfb565b60405180910390a15061170c6001600755565b505050505050565b61171c6118bb565b601180546001600160a01b0319166001600160a01b0392909216919091179055565b6001600160a01b038116600090815260176020908152604091829020805483518184028101840190945280845260609392830182828015610c805760200282019190600052602060002090815481526020019060010190808311610c6c5750505050509050919050565b6001600160a01b03918216600090815260056020908152604080832093909416825291909152205460ff1690565b6117de6118bb565b600b80546001600160a01b0319166001600160a01b0392909216919091179055565b6118086118bb565b6001600160a01b03811661186d5760405162461bcd60e51b815260206004820152602660248201527f4f776e61626c653a206e6577206f776e657220697320746865207a65726f206160448201526564647265737360d01b60648201526084016107fd565b610c1d81611c55565b61187e6118bb565b6014805460ff1916911515919091179055565b6118996118bb565b600c80546001600160a01b0319166001600160a01b0392909216919091179055565b6006546001600160a01b03163314610e3f5760405162461bcd60e51b815260206004820181905260248201527f4f776e61626c653a2063616c6c6572206973206e6f7420746865206f776e657260448201526064016107fd565b6000818152600260205260409020546001600160a01b0316610c1d5760405162461bcd60e51b8152602060048201526018602482015277115490cdcc8c4e881a5b9d985b1a59081d1bdad95b88125160421b60448201526064016107fd565b600081815260046020526040902080546001600160a01b0319166001600160a01b03841690811790915581906119a982610cf6565b6001600160a01b03167f8c5be1e5ebec7d5bd14f71427d1e84f3dd0314c0f7b2291e5b200ac8c7c3b92560405160405180910390a45050565b6000806119ee83610cf6565b9050806001600160a01b0316846001600160a01b03161480611a155750611a1581856117a8565b80611a395750836001600160a01b0316611a2e84610762565b6001600160a01b0316145b949350505050565b826001600160a01b0316611a5482610cf6565b6001600160a01b031614611a7a5760405162461bcd60e51b81526004016107fd90612d8b565b6001600160a01b038216611adc5760405162461bcd60e51b8152602060048201526024808201527f4552433732313a207472616e7366657220746f20746865207a65726f206164646044820152637265737360e01b60648201526084016107fd565b611ae98383836001611ebd565b826001600160a01b0316611afc82610cf6565b6001600160a01b031614611b225760405162461bcd60e51b81526004016107fd90612d8b565b600081815260046020908152604080832080546001600160a01b03199081169091556001600160a01b0387811680865260038552838620805460001901905590871680865283862080546001019055868652600290945282852080549092168417909155905184937fddf252ad1be2c89b69c2b068fc378daa952ba7f163c4a11628f55a4df523b3ef91a4505050565b6000611bbd82610cf6565b9050611bcd816000846001611ebd565b611bd682610cf6565b600083815260046020908152604080832080546001600160a01b03199081169091556001600160a01b0385168085526003845282852080546000190190558785526002909352818420805490911690555192935084927fddf252ad1be2c89b69c2b068fc378daa952ba7f163c4a11628f55a4df523b3ef908390a45050565b600680546001600160a01b038381166001600160a01b0319831681179093556040519116919082907f8be0079c531659141344cd1fd0a4f28419497f9722a3daafe3b4186f6b6457e090600090a35050565b816001600160a01b0316836001600160a01b031603611d085760405162461bcd60e51b815260206004820152601960248201527f4552433732313a20617070726f766520746f2063616c6c65720000000000000060448201526064016107fd565b6001600160a01b03838116600081815260056020908152604080832094871680845294825291829020805460ff191686151590811790915591519182527f17307eab39ab6107e8899845ad3d59bd9653f200f220920489ca2b5937696c31910160405180910390a3505050565b611d80848484611a41565b611d8c84848484611f45565b6111065760405162461bcd60e51b81526004016107fd90612dd0565b6060601380546106df90612930565b60606000611dc483612046565b600101905060008167ffffffffffffffff811115611de457611de46124a7565b6040519080825280601f01601f191660200182016040528015611e0e576020820181803683370190505b5090508181016020015b600019016f181899199a1a9b1b9c1cb0b131b232b360811b600a86061a8153600a8504945084611e1857509392505050565b600260075403611e9c5760405162461bcd60e51b815260206004820152601f60248201527f5265656e7472616e637947756172643a207265656e7472616e742063616c6c0060448201526064016107fd565b6002600755565b610a8c82826040518060200160405280600081525061211e565b6001811115611106576001600160a01b03841615611f03576001600160a01b03841660009081526003602052604081208054839290611efd908490612b02565b90915550505b6001600160a01b03831615611106576001600160a01b03831660009081526003602052604081208054839290611f3a908490612b15565b909155505050505050565b60006001600160a01b0384163b1561203b57604051630a85bd0160e11b81526001600160a01b0385169063150b7a0290611f89903390899088908890600401612e22565b6020604051808303816000875af1925050508015611fc4575060408051601f3d908101601f19168201909252611fc191810190612e5f565b60015b612021573d808015611ff2576040519150601f19603f3d011682016040523d82523d6000602084013e611ff7565b606091505b5080516000036120195760405162461bcd60e51b81526004016107fd90612dd0565b805181602001fd5b6001600160e01b031916630a85bd0160e11b149050611a39565b506001949350505050565b60008072184f03e93ff9f4daa797ed6e38ed64bf6a1f0160401b83106120855772184f03e93ff9f4daa797ed6e38ed64bf6a1f0160401b830492506040015b6d04ee2d6d415b85acef810000000083106120b1576d04ee2d6d415b85acef8100000000830492506020015b662386f26fc1000083106120cf57662386f26fc10000830492506010015b6305f5e10083106120e7576305f5e100830492506008015b61271083106120fb57612710830492506004015b6064831061210d576064830492506002015b600a83106106ca5760010192915050565b6121288383612151565b6121356000848484611f45565b61089e5760405162461bcd60e51b81526004016107fd90612dd0565b6001600160a01b0382166121a75760405162461bcd60e51b815260206004820181905260248201527f4552433732313a206d696e7420746f20746865207a65726f206164647265737360448201526064016107fd565b6000818152600260205260409020546001600160a01b03161561220c5760405162461bcd60e51b815260206004820152601c60248201527f4552433732313a20746f6b656e20616c7265616479206d696e7465640000000060448201526064016107fd565b61221a600083836001611ebd565b6000818152600260205260409020546001600160a01b03161561227f5760405162461bcd60e51b815260206004820152601c60248201527f4552433732313a20746f6b656e20616c7265616479206d696e7465640000000060448201526064016107fd565b6001600160a01b038216600081815260036020908152604080832080546001019055848352600290915280822080546001600160a01b0319168417905551839291907fddf252ad1be2c89b69c2b068fc378daa952ba7f163c4a11628f55a4df523b3ef908290a45050565b5080546122f690612930565b6000825580601f10612306575050565b601f016020900490600052602060002090810190610c1d91905b808211156123345760008155600101612320565b5090565b6001600160a01b0381168114610c1d57600080fd5b60006020828403121561235f57600080fd5b813561116c81612338565b6001600160e01b031981168114610c1d57600080fd5b60006020828403121561239257600080fd5b813561116c8161236a565b60005b838110156123b85781810151838201526020016123a0565b50506000910152565b600081518084526123d981602086016020860161239d565b601f01601f19169290920160200192915050565b60208152600061116c60208301846123c1565b60006020828403121561241257600080fd5b5035919050565b6000806040838503121561242c57600080fd5b823561243781612338565b946020939093013593505050565b6000602080830181845280855180835260408601915060408160051b870101925083870160005b8281101561249a57603f198886030184526124888583516123c1565b9450928501929085019060010161246c565b5092979650505050505050565b634e487b7160e01b600052604160045260246000fd5b604051601f8201601f1916810167ffffffffffffffff811182821017156124e6576124e66124a7565b604052919050565b600067ffffffffffffffff831115612508576125086124a7565b61251b601f8401601f19166020016124bd565b905082815283838301111561252f57600080fd5b828260208301376000602084830101529392505050565b600082601f83011261255757600080fd5b61116c838335602085016124ee565b6000602080838503121561257957600080fd5b823567ffffffffffffffff8082111561259157600080fd5b818501915085601f8301126125a557600080fd5b8135818111156125b7576125b76124a7565b8060051b6125c68582016124bd565b91825283810185019185810190898411156125e057600080fd5b86860192505b8383101561261c578235858111156125fe5760008081fd5b61260c8b89838a0101612546565b83525091860191908601906125e6565b9998505050505050505050565b60008060006060848603121561263e57600080fd5b833561264981612338565b9250602084013561265981612338565b929592945050506040919091013590565b6020808252825182820181905260009190848201906040850190845b818110156126a257835183529284019291840191600101612686565b50909695505050505050565b6000602082840312156126c057600080fd5b813567ffffffffffffffff8111156126d757600080fd5b611a3984828501612546565b6020808252825182820181905260009190848201906040850190845b818110156126a25783516001600160a01b0316835292840192918401916001016126ff565b60208152815160208201526000602083015160018060a01b0380821660408501526040850151606085015260608501516080850152608085015160a085015260a085015191506101008060c08601526127816101208601846123c1565b92508160c08701511660e086015260e086015191506127aa818601836001600160a01b03169052565b5090949350505050565b803580151581146127c457600080fd5b919050565b600080604083850312156127dc57600080fd5b82356127e781612338565b91506127f5602084016127b4565b90509250929050565b6000806000806080858703121561281457600080fd5b843561281f81612338565b9350602085013561282f81612338565b925060408501359150606085013567ffffffffffffffff81111561285257600080fd5b8501601f8101871361286357600080fd5b612872878235602084016124ee565b91505092959194509250565b60008060008060008060c0878903121561289757600080fd5b86356128a281612338565b95506020870135945060408701359350606087013592506080870135915060a08701356128ce81612338565b809150509295509295509295565b600080604083850312156128ef57600080fd5b82356128fa81612338565b9150602083013561290a81612338565b809150509250929050565b60006020828403121561292757600080fd5b61116c826127b4565b600181811c9082168061294457607f821691505b60208210810361296457634e487b7160e01b600052602260045260246000fd5b50919050565b634e487b7160e01b600052603260045260246000fd5b601f82111561089e57600081815260208120601f850160051c810160208610156129a75750805b601f850160051c820191505b8181101561170c578281556001016129b3565b815167ffffffffffffffff8111156129e0576129e06124a7565b6129f4816129ee8454612930565b84612980565b602080601f831160018114612a295760008415612a115750858301515b600019600386901b1c1916600185901b17855561170c565b600085815260208120601f198616915b82811015612a5857888601518255948401946001909101908401612a39565b5085821015612a765787850151600019600388901b60f8161c191681555b5050505050600190811b01905550565b634e487b7160e01b600052601160045260246000fd5b600060018201612aae57612aae612a86565b5060010190565b6020808252602d908201527f4552433732313a2063616c6c6572206973206e6f7420746f6b656e206f776e6560408201526c1c881bdc88185c1c1c9bdd9959609a1b606082015260800190565b818103818111156106ca576106ca612a86565b808201808211156106ca576106ca612a86565b818103612b33575050565b612b3d8254612930565b67ffffffffffffffff811115612b5557612b556124a7565b612b63816129ee8454612930565b6000601f821160018114612b975760008315612b7f5750848201545b600019600385901b1c1916600184901b178455612bfc565b600085815260209020601f19841690600086815260209020845b83811015612bd15782860154825560019586019590910190602001612bb1565b5085831015612bef5781850154600019600388901b60f8161c191681555b50505060018360011b0184555b5050505050565b634e487b7160e01b600052603160045260246000fd5b60008351612c2b81846020880161239d565b835190830190612c3f81836020880161239d565b01949350505050565b600060208284031215612c5a57600080fd5b815161116c81612338565b600060208284031215612c7757600080fd5b5051919050565b60008154612c8b81612930565b808552602060018381168015612ca85760018114612cc257612cf0565b60ff1985168884015283151560051b880183019550612cf0565b866000528260002060005b85811015612ce85781548a8201860152908301908401612ccd565b890184019650505b505050505092915050565b60208152815460208201526000612d1c60018401546001600160a01b031690565b6001600160a01b031660408301526002830154606083015260038301546080830152600483015460a083015261010060c08301819052612d63610120840160058601612c7e565b60068501546001600160a01b0390811660e08601526007909501549094169201919091525090565b60208082526025908201527f4552433732313a207472616e736665722066726f6d20696e636f72726563742060408201526437bbb732b960d91b606082015260800190565b60208082526032908201527f4552433732313a207472616e7366657220746f206e6f6e20455243373231526560408201527131b2b4bb32b91034b6b83632b6b2b73a32b960711b606082015260800190565b6001600160a01b0385811682528416602082015260408101839052608060608201819052600090612e55908301846123c1565b9695505050505050565b600060208284031215612e7157600080fd5b815161116c8161236a56fea26469706673582212209fd32f32aaeb09df0e7ee6b70f1ad1648ef62e7ec8532e67fbb4a4fb359283c964736f6c63430008100033486170707920486f6c6964617973212045617420706c656e7479206f66204a656c6c7920446f6e757473214d617920796f757220486f6c69646179732062652066756c6c206f6620216d61676963",
    "linkReferences": {}
  },
  "methodIdentifiers": {
    "addMessage(string)": "6a226a49",
    "addMessages(string[])": "1b1862be",
    "approve(address,uint256)": "095ea7b3",
    "artworkAddress()": "fa6c9cb3",
    "availableMessages()": "1324111b",
    "balanceOf(address)": "70a08231",
    "baseURI()": "6c0360eb",
    "beastsAddress()": "0113c93a",
    "burn(uint256)": "42966c68",
    "getApproved(uint256)": "081812fc",
    "getCard(uint256)": "9188d312",
    "getRecipientCardIds(address)": "e38806df",
    "getSenderCardIds(address)": "41c3b348",
    "isApprovedForAll(address,address)": "e985e9c5",
    "messages(uint256)": "0d80fefd",
    "mint(address,uint256,uint256,uint256,uint256,address)": "d99e0f0a",
    "mintEnabled()": "d1239730",
    "name()": "06fdde03",
    "numTemplates()": "2faceae2",
    "owner()": "8da5cb5b",
    "ownerOf(uint256)": "6352211e",
    "poniesAddress()": "8de87e4d",
    "removeMessage(uint256)": "2de263d7",
    "renounceOwnership()": "715018a6",
    "safeTransferFrom(address,address,uint256)": "42842e0e",
    "safeTransferFrom(address,address,uint256,bytes)": "b88d4fde",
    "setApprovalForAll(address,bool)": "a22cb465",
    "setArtworkAddress(address)": "ec8e1e13",
    "setBaseURI(string)": "55f804b3",
    "setBeastsAddress(address)": "99af4f1e",
    "setMintEnabled(bool)": "f46a04eb",
    "setNumTemplates(uint256)": "4c2ade1e",
    "setPoniesAddress(address)": "aa5f37a3",
    "setSoulsAddress(address)": "2a0f9d34",
    "setSpawnAddress(address)": "df86078a",
    "setWarriorsAddress(address)": "01b87a12",
    "setWizardsAddress(address)": "fc6b0bc8",
    "soulsAddress()": "d281d63d",
    "spawnAddress()": "c10c32b2",
    "supportedContracts()": "8bb4db27",
    "supportsInterface(bytes4)": "01ffc9a7",
    "symbol()": "95d89b41",
    "tokenURI(uint256)": "c87b56dd",
    "transferFrom(address,address,uint256)": "23b872dd",
    "transferOwnership(address)": "f2fde38b",
    "warriorsAddress()": "60e06b1d",
    "withdraw()": "3ccfd60b",
    "wizardsAddress()": "10de9062"
  },
  "id": 37
}