{
  "abi": [
    {
      "inputs": [
        {
          "internalType": "address",
          "name": "_artworkAddress",
          "type": "address"
        },
        {
          "internalType": "address",
          "name": "_wizardsAddres",
          "type": "address"
        },
        {
          "internalType": "address",
          "name": "_soulsAddress",
          "type": "address"
        },
        {
          "internalType": "address",
          "name": "_warriorsAddress",
          "type": "address"
        },
        {
          "internalType": "address",
          "name": "_poniesAddress",
          "type": "address"
        },
        {
          "internalType": "address",
          "name": "_beastsAddress",
          "type": "address"
        },
        {
          "internalType": "address",
          "name": "_spawnAddress",
          "type": "address"
        },
        {
          "internalType": "uint256",
          "name": "_numTemplates",
          "type": "uint256"
        },
        {
          "internalType": "string",
          "name": "_initialBaseURI",
          "type": "string"
        }
      ],
      "stateMutability": "nonpayable",
      "type": "constructor"
    },
    {
      "anonymous": false,
      "inputs": [
        {
          "indexed": true,
          "internalType": "address",
          "name": "owner",
          "type": "address"
        },
        {
          "indexed": true,
          "internalType": "address",
          "name": "approved",
          "type": "address"
        },
        {
          "indexed": true,
          "internalType": "uint256",
          "name": "tokenId",
          "type": "uint256"
        }
      ],
      "name": "Approval",
      "type": "event"
    },
    {
      "anonymous": false,
      "inputs": [
        {
          "indexed": true,
          "internalType": "address",
          "name": "owner",
          "type": "address"
        },
        {
          "indexed": true,
          "internalType": "address",
          "name": "operator",
          "type": "address"
        },
        {
          "indexed": false,
          "internalType": "bool",
          "name": "approved",
          "type": "bool"
        }
      ],
      "name": "ApprovalForAll",
      "type": "event"
    },
    {
      "anonymous": false,
      "inputs": [
        {
          "indexed": true,
          "internalType": "address",
          "name": "previousOwner",
          "type": "address"
        },
        {
          "indexed": true,
          "internalType": "address",
          "name": "newOwner",
          "type": "address"
        }
      ],
      "name": "OwnershipTransferred",
      "type": "event"
    },
    {
      "anonymous": false,
      "inputs": [
        {
          "indexed": true,
          "internalType": "address",
          "name": "from",
          "type": "address"
        },
        {
          "indexed": true,
          "internalType": "address",
          "name": "to",
          "type": "address"
        },
        {
          "indexed": true,
          "internalType": "uint256",
          "name": "tokenId",
          "type": "uint256"
        }
      ],
      "name": "Transfer",
      "type": "event"
    },
    {
      "anonymous": false,
      "inputs": [
        {
          "components": [
            {
              "internalType": "uint256",
              "name": "card",
              "type": "uint256"
            },
            {
              "internalType": "address",
              "name": "tokenContract",
              "type": "address"
            },
            {
              "internalType": "uint256",
              "name": "token",
              "type": "uint256"
            },
            {
              "internalType": "uint256",
              "name": "artwork",
              "type": "uint256"
            },
            {
              "internalType": "uint256",
              "name": "template",
              "type": "uint256"
            },
            {
              "internalType": "string",
              "name": "message",
              "type": "string"
            },
            {
              "internalType": "address",
              "name": "sender",
              "type": "address"
            },
            {
              "internalType": "address",
              "name": "recipient",
              "type": "address"
            }
          ],
          "indexed": false,
          "internalType": "struct WizzmasCard.Card",
          "name": "data",
          "type": "tuple"
        }
      ],
      "name": "WizzmasCardMinted",
      "type": "event"
    },
    {
      "inputs": [
        {
          "internalType": "string",
          "name": "_message",
          "type": "string"
        }
      ],
      "name": "addMessage",
      "outputs": [],
      "stateMutability": "nonpayable",
      "type": "function"
    },
    {
      "inputs": [
        {
          "internalType": "string[]",
          "name": "_messages",
          "type": "string[]"
        }
      ],
      "name": "addMessages",
      "outputs": [],
      "stateMutability": "nonpayable",
      "type": "function"
    },
    {
      "inputs": [
        {
          "internalType": "address",
          "name": "to",
          "type": "address"
        },
        {
          "internalType": "uint256",
          "name": "tokenId",
          "type": "uint256"
        }
      ],
      "name": "approve",
      "outputs": [],
      "stateMutability": "nonpayable",
      "type": "function"
    },
    {
      "inputs": [],
      "name": "artworkAddress",
      "outputs": [
        {
          "internalType": "address",
          "name": "",
          "type": "address"
        }
      ],
      "stateMutability": "view",
      "type": "function"
    },
    {
      "inputs": [],
      "name": "availableMessages",
      "outputs": [
        {
          "internalType": "string[]",
          "name": "",
          "type": "string[]"
        }
      ],
      "stateMutability": "view",
      "type": "function"
    },
    {
      "inputs": [
        {
          "internalType": "address",
          "name": "owner",
          "type": "address"
        }
      ],
      "name": "balanceOf",
      "outputs": [
        {
          "internalType": "uint256",
          "name": "",
          "type": "uint256"
        }
      ],
      "stateMutability": "view",
      "type": "function"
    },
    {
      "inputs": [],
      "name": "baseURI",
      "outputs": [
        {
          "internalType": "string",
          "name": "",
          "type": "string"
        }
      ],
      "stateMutability": "view",
      "type": "function"
    },
    {
      "inputs": [],
      "name": "beastsAddress",
      "outputs": [
        {
          "internalType": "address",
          "name": "",
          "type": "address"
        }
      ],
      "stateMutability": "view",
      "type": "function"
    },
    {
      "inputs": [
        {
          "internalType": "uint256",
          "name": "tokenId",
          "type": "uint256"
        }
      ],
      "name": "burn",
      "outputs": [],
      "stateMutability": "nonpayable",
      "type": "function"
    },
    {
      "inputs": [
        {
          "internalType": "uint256",
          "name": "tokenId",
          "type": "uint256"
        }
      ],
      "name": "getApproved",
      "outputs": [
        {
          "internalType": "address",
          "name": "",
          "type": "address"
        }
      ],
      "stateMutability": "view",
      "type": "function"
    },
    {
      "inputs": [
        {
          "internalType": "uint256",
          "name": "cardId",
          "type": "uint256"
        }
      ],
      "name": "getCard",
      "outputs": [
        {
          "components": [
            {
              "internalType": "uint256",
              "name": "card",
              "type": "uint256"
            },
            {
              "internalType": "address",
              "name": "tokenContract",
              "type": "address"
            },
            {
              "internalType": "uint256",
              "name": "token",
              "type": "uint256"
            },
            {
              "internalType": "uint256",
              "name": "artwork",
              "type": "uint256"
            },
            {
              "internalType": "uint256",
              "name": "template",
              "type": "uint256"
            },
            {
              "internalType": "string",
              "name": "message",
              "type": "string"
            },
            {
              "internalType": "address",
              "name": "sender",
              "type": "address"
            },
            {
              "internalType": "address",
              "name": "recipient",
              "type": "address"
            }
          ],
          "internalType": "struct WizzmasCard.Card",
          "name": "",
          "type": "tuple"
        }
      ],
      "stateMutability": "view",
      "type": "function"
    },
    {
      "inputs": [
        {
          "internalType": "address",
          "name": "owner",
          "type": "address"
        },
        {
          "internalType": "address",
          "name": "operator",
          "type": "address"
        }
      ],
      "name": "isApprovedForAll",
      "outputs": [
        {
          "internalType": "bool",
          "name": "",
          "type": "bool"
        }
      ],
      "stateMutability": "view",
      "type": "function"
    },
    {
      "inputs": [
        {
          "internalType": "uint256",
          "name": "",
          "type": "uint256"
        }
      ],
      "name": "messages",
      "outputs": [
        {
          "internalType": "string",
          "name": "",
          "type": "string"
        }
      ],
      "stateMutability": "view",
      "type": "function"
    },
    {
      "inputs": [
        {
          "internalType": "address",
          "name": "_tokenContract",
          "type": "address"
        },
        {
          "internalType": "uint256",
          "name": "_tokenId",
          "type": "uint256"
        },
        {
          "internalType": "uint256",
          "name": "_artworkId",
          "type": "uint256"
        },
        {
          "internalType": "uint256",
          "name": "_templateId",
          "type": "uint256"
        },
        {
          "internalType": "uint256",
          "name": "_messageId",
          "type": "uint256"
        },
        {
          "internalType": "address",
          "name": "_recipient",
          "type": "address"
        }
      ],
      "name": "mint",
      "outputs": [],
      "stateMutability": "nonpayable",
      "type": "function"
    },
    {
      "inputs": [],
      "name": "mintEnabled",
      "outputs": [
        {
          "internalType": "bool",
          "name": "",
          "type": "bool"
        }
      ],
      "stateMutability": "view",
      "type": "function"
    },
    {
      "inputs": [],
      "name": "name",
      "outputs": [
        {
          "internalType": "string",
          "name": "",
          "type": "string"
        }
      ],
      "stateMutability": "view",
      "type": "function"
    },
    {
      "inputs": [],
      "name": "numTemplates",
      "outputs": [
        {
          "internalType": "uint256",
          "name": "",
          "type": "uint256"
        }
      ],
      "stateMutability": "view",
      "type": "function"
    },
    {
      "inputs": [],
      "name": "owner",
      "outputs": [
        {
          "internalType": "address",
          "name": "",
          "type": "address"
        }
      ],
      "stateMutability": "view",
      "type": "function"
    },
    {
      "inputs": [
        {
          "internalType": "uint256",
          "name": "tokenId",
          "type": "uint256"
        }
      ],
      "name": "ownerOf",
      "outputs": [
        {
          "internalType": "address",
          "name": "",
          "type": "address"
        }
      ],
      "stateMutability": "view",
      "type": "function"
    },
    {
      "inputs": [],
      "name": "poniesAddress",
      "outputs": [
        {
          "internalType": "address",
          "name": "",
          "type": "address"
        }
      ],
      "stateMutability": "view",
      "type": "function"
    },
    {
      "inputs": [
        {
          "internalType": "uint256",
          "name": "index",
          "type": "uint256"
        }
      ],
      "name": "removeMessage",
      "outputs": [],
      "stateMutability": "nonpayable",
      "type": "function"
    },
    {
      "inputs": [],
      "name": "renounceOwnership",
      "outputs": [],
      "stateMutability": "nonpayable",
      "type": "function"
    },
    {
      "inputs": [
        {
          "internalType": "address",
          "name": "from",
          "type": "address"
        },
        {
          "internalType": "address",
          "name": "to",
          "type": "address"
        },
        {
          "internalType": "uint256",
          "name": "tokenId",
          "type": "uint256"
        }
      ],
      "name": "safeTransferFrom",
      "outputs": [],
      "stateMutability": "nonpayable",
      "type": "function"
    },
    {
      "inputs": [
        {
          "internalType": "address",
          "name": "from",
          "type": "address"
        },
        {
          "internalType": "address",
          "name": "to",
          "type": "address"
        },
        {
          "internalType": "uint256",
          "name": "tokenId",
          "type": "uint256"
        },
        {
          "internalType": "bytes",
          "name": "data",
          "type": "bytes"
        }
      ],
      "name": "safeTransferFrom",
      "outputs": [],
      "stateMutability": "nonpayable",
      "type": "function"
    },
    {
      "inputs": [
        {
          "internalType": "address",
          "name": "operator",
          "type": "address"
        },
        {
          "internalType": "bool",
          "name": "approved",
          "type": "bool"
        }
      ],
      "name": "setApprovalForAll",
      "outputs": [],
      "stateMutability": "nonpayable",
      "type": "function"
    },
    {
      "inputs": [
        {
          "internalType": "address",
          "name": "_address",
          "type": "address"
        }
      ],
      "name": "setArtworkAddress",
      "outputs": [],
      "stateMutability": "nonpayable",
      "type": "function"
    },
    {
      "inputs": [
        {
          "internalType": "string",
          "name": "_newBaseURI",
          "type": "string"
        }
      ],
      "name": "setBaseURI",
      "outputs": [],
      "stateMutability": "nonpayable",
      "type": "function"
    },
    {
      "inputs": [
        {
          "internalType": "address",
          "name": "_address",
          "type": "address"
        }
      ],
      "name": "setBeastsAddress",
      "outputs": [],
      "stateMutability": "nonpayable",
      "type": "function"
    },
    {
      "inputs": [
        {
          "internalType": "bool",
          "name": "_newMintEnabled",
          "type": "bool"
        }
      ],
      "name": "setMintEnabled",
      "outputs": [],
      "stateMutability": "nonpayable",
      "type": "function"
    },
    {
      "inputs": [
        {
          "internalType": "uint256",
          "name": "_numTemplates",
          "type": "uint256"
        }
      ],
      "name": "setNumTemplates",
      "outputs": [],
      "stateMutability": "nonpayable",
      "type": "function"
    },
    {
      "inputs": [
        {
          "internalType": "address",
          "name": "_address",
          "type": "address"
        }
      ],
      "name": "setPoniesAddress",
      "outputs": [],
      "stateMutability": "nonpayable",
      "type": "function"
    },
    {
      "inputs": [
        {
          "internalType": "address",
          "name": "_address",
          "type": "address"
        }
      ],
      "name": "setSoulsAddress",
      "outputs": [],
      "stateMutability": "nonpayable",
      "type": "function"
    },
    {
      "inputs": [
        {
          "internalType": "address",
          "name": "_address",
          "type": "address"
        }
      ],
      "name": "setSpawnAddress",
      "outputs": [],
      "stateMutability": "nonpayable",
      "type": "function"
    },
    {
      "inputs": [
        {
          "internalType": "address",
          "name": "_address",
          "type": "address"
        }
      ],
      "name": "setWarriorsAddress",
      "outputs": [],
      "stateMutability": "nonpayable",
      "type": "function"
    },
    {
      "inputs": [
        {
          "internalType": "address",
          "name": "_address",
          "type": "address"
        }
      ],
      "name": "setWizardsAddress",
      "outputs": [],
      "stateMutability": "nonpayable",
      "type": "function"
    },
    {
      "inputs": [],
      "name": "soulsAddress",
      "outputs": [
        {
          "internalType": "address",
          "name": "",
          "type": "address"
        }
      ],
      "stateMutability": "view",
      "type": "function"
    },
    {
      "inputs": [],
      "name": "spawnAddress",
      "outputs": [
        {
          "internalType": "address",
          "name": "",
          "type": "address"
        }
      ],
      "stateMutability": "view",
      "type": "function"
    },
    {
      "inputs": [],
      "name": "supportedContracts",
      "outputs": [
        {
          "internalType": "address[]",
          "name": "",
          "type": "address[]"
        }
      ],
      "stateMutability": "view",
      "type": "function"
    },
    {
      "inputs": [
        {
          "internalType": "bytes4",
          "name": "interfaceId",
          "type": "bytes4"
        }
      ],
      "name": "supportsInterface",
      "outputs": [
        {
          "internalType": "bool",
          "name": "",
          "type": "bool"
        }
      ],
      "stateMutability": "view",
      "type": "function"
    },
    {
      "inputs": [],
      "name": "symbol",
      "outputs": [
        {
          "internalType": "string",
          "name": "",
          "type": "string"
        }
      ],
      "stateMutability": "view",
      "type": "function"
    },
    {
      "inputs": [
        {
          "internalType": "uint256",
          "name": "tokenId",
          "type": "uint256"
        }
      ],
      "name": "tokenURI",
      "outputs": [
        {
          "internalType": "string",
          "name": "",
          "type": "string"
        }
      ],
      "stateMutability": "view",
      "type": "function"
    },
    {
      "inputs": [
        {
          "internalType": "address",
          "name": "from",
          "type": "address"
        },
        {
          "internalType": "address",
          "name": "to",
          "type": "address"
        },
        {
          "internalType": "uint256",
          "name": "tokenId",
          "type": "uint256"
        }
      ],
      "name": "transferFrom",
      "outputs": [],
      "stateMutability": "nonpayable",
      "type": "function"
    },
    {
      "inputs": [
        {
          "internalType": "address",
          "name": "newOwner",
          "type": "address"
        }
      ],
      "name": "transferOwnership",
      "outputs": [],
      "stateMutability": "nonpayable",
      "type": "function"
    },
    {
      "inputs": [],
      "name": "warriorsAddress",
      "outputs": [
        {
          "internalType": "address",
          "name": "",
          "type": "address"
        }
      ],
      "stateMutability": "view",
      "type": "function"
    },
    {
      "inputs": [],
      "name": "withdraw",
      "outputs": [],
      "stateMutability": "nonpayable",
      "type": "function"
    },
    {
      "inputs": [],
      "name": "wizardsAddress",
      "outputs": [
        {
          "internalType": "address",
          "name": "",
          "type": "address"
        }
      ],
      "stateMutability": "view",
      "type": "function"
    }
  ],
  "bytecode": {
    "object": "0x60006009556014805460ff19169055601a6101009081527f4861766520612076657279204d657272792057697a7a6d6173210000000000006101205260809081526101a0604052602361014081815260a091620034af6101603981526020016040518060400160405280601681526020017f486f486f486f21204d657272792057697a7a6d6173210000000000000000000081525081526020016040518060600160405280602b815260200162003484602b91399052620000c59060159060046200032a565b50348015620000d357600080fd5b50604051620034d2380380620034d2833981016040819052620000f6916200049a565b604080518082018252600b8082526a15da5e9e9b585cd0d85c9960aa1b60208084018290528451808601909552918452908301529060006200013983826200068f565b5060016200014882826200068f565b505050620001656200015f6200024860201b60201c565b6200024c565b6001600755600b80546001600160a01b03808c166001600160a01b031992831617909255600c80548b84169083168117909155600d80548b85169084168117909155600e80548b86169085168117909155600f80548b87169086168117909155601080548b8816908716811790915560118054978b169790961687179095556040805160c0810182529485526020850193909352918301526060820152608081019190915260a08101919091526200022290601290600662000387565b506200022e826200029e565b6200023981620002ad565b5050505050505050506200075b565b3390565b600680546001600160a01b038381166001600160a01b0319831681179093556040519116919082907f8be0079c531659141344cd1fd0a4f28419497f9722a3daafe3b4186f6b6457e090600090a35050565b620002a8620002c9565b600955565b620002b7620002c9565b6013620002c582826200068f565b5050565b6006546001600160a01b03163314620003285760405162461bcd60e51b815260206004820181905260248201527f4f776e61626c653a2063616c6c6572206973206e6f7420746865206f776e6572604482015260640160405180910390fd5b565b82805482825590600052602060002090810192821562000375579160200282015b828111156200037557825182906200036490826200068f565b50916020019190600101906200034b565b5062000383929150620003ed565b5090565b828054828255906000526020600020908101928215620003df579160200282015b82811115620003df57825182546001600160a01b0319166001600160a01b03909116178255602090920191600190910190620003a8565b50620003839291506200040e565b808211156200038357600062000404828262000425565b50600101620003ed565b5b808211156200038357600081556001016200040f565b508054620004339062000600565b6000825580601f1062000444575050565b601f0160209004906000526020600020908101906200046491906200040e565b50565b80516001600160a01b03811681146200047f57600080fd5b919050565b634e487b7160e01b600052604160045260246000fd5b60008060008060008060008060006101208a8c031215620004ba57600080fd5b620004c58a62000467565b9850620004d560208b0162000467565b9750620004e560408b0162000467565b9650620004f560608b0162000467565b95506200050560808b0162000467565b94506200051560a08b0162000467565b93506200052560c08b0162000467565b60e08b01516101008c015191945092506001600160401b03808211156200054b57600080fd5b818c0191508c601f8301126200056057600080fd5b81518181111562000575576200057562000484565b604051601f8201601f19908116603f01168101908382118183101715620005a057620005a062000484565b816040528281528f6020848701011115620005ba57600080fd5b600093505b82841015620005e2576020848601015160208583010152602084019350620005bf565b60006020848301015280955050505050509295985092959850929598565b600181811c908216806200061557607f821691505b6020821081036200063657634e487b7160e01b600052602260045260246000fd5b50919050565b601f8211156200068a57600081815260208120601f850160051c81016020861015620006655750805b601f850160051c820191505b81811015620006865782815560010162000671565b5050505b505050565b81516001600160401b03811115620006ab57620006ab62000484565b620006c381620006bc845462000600565b846200063c565b602080601f831160018114620006fb5760008415620006e25750858301515b600019600386901b1c1916600185901b17855562000686565b600085815260208120601f198616915b828110156200072c578886015182559484019460019091019084016200070b565b50858210156200074b5787850151600019600388901b60f8161c191681555b5050505050600190811b01905550565b612d19806200076b6000396000f3fe608060405234801561001057600080fd5b506004361061028a5760003560e01c806370a082311161015c578063c10c32b2116100ce578063e985e9c511610087578063e985e9c514610599578063ec8e1e13146105ac578063f2fde38b146105bf578063f46a04eb146105d2578063fa6c9cb3146105e5578063fc6b0bc8146105f857600080fd5b8063c10c32b21461052d578063c87b56dd14610540578063d123973014610553578063d281d63d14610560578063d99e0f0a14610573578063df86078a1461058657600080fd5b80639188d312116101205780639188d312146104b957806395d89b41146104d957806399af4f1e146104e1578063a22cb465146104f4578063aa5f37a314610507578063b88d4fde1461051a57600080fd5b806370a0823114610465578063715018a6146104785780638bb4db27146104805780638da5cb5b146104955780638de87e4d146104a657600080fd5b80632a0f9d34116102005780634c2ade1e116101b95780634c2ade1e146103fe57806355f804b31461041157806360e06b1d146104245780636352211e146104375780636a226a491461044a5780636c0360eb1461045d57600080fd5b80632a0f9d34146103935780632de263d7146103a65780632faceae2146103b95780633ccfd60b146103d057806342842e0e146103d857806342966c68146103eb57600080fd5b8063095ea7b311610252578063095ea7b31461031f5780630d80fefd1461033257806310de9062146103455780631324111b146103585780631b1862be1461036d57806323b872dd1461038057600080fd5b80630113c93a1461028f57806301b87a12146102bf57806301ffc9a7146102d457806306fdde03146102f7578063081812fc1461030c575b600080fd5b6010546102a2906001600160a01b031681565b6040516001600160a01b0390911681526020015b60405180910390f35b6102d26102cd3660046121ec565b61060b565b005b6102e76102e236600461221f565b610635565b60405190151581526020016102b6565b6102ff610687565b6040516102b6919061228c565b6102a261031a36600461229f565b610719565b6102d261032d3660046122b8565b610740565b6102ff61034036600461229f565b61085a565b600c546102a2906001600160a01b031681565b610360610906565b6040516102b691906122e4565b6102d261037b366004612405565b6109df565b6102d261038e3660046124c8565b610a47565b6102d26103a13660046121ec565b610a79565b6102d26103b436600461229f565b610aa3565b6103c260095481565b6040519081526020016102b6565b6102d2610ba0565b6102d26103e63660046124c8565b610bd7565b6102d26103f936600461229f565b610bf2565b6102d261040c36600461229f565b610c20565b6102d261041f366004612509565b610c2d565b600e546102a2906001600160a01b031681565b6102a261044536600461229f565b610c41565b6102d2610458366004612509565b610ca1565b6102ff610ce5565b6103c26104733660046121ec565b610cf2565b6102d2610d78565b610488610d8c565b6040516102b6919061253e565b6006546001600160a01b03166102a2565b600f546102a2906001600160a01b031681565b6104cc6104c736600461229f565b610ded565b6040516102b6919061258b565b6102ff610fb1565b6102d26104ef3660046121ec565b610fc0565b6102d2610502366004612630565b610fea565b6102d26105153660046121ec565b610ff5565b6102d2610528366004612665565b61101f565b6011546102a2906001600160a01b031681565b6102ff61054e36600461229f565b611057565b6014546102e79060ff1681565b600d546102a2906001600160a01b031681565b6102d26105813660046126e5565b6110be565b6102d26105943660046121ec565b61161d565b6102e76105a7366004612743565b611647565b6102d26105ba3660046121ec565b611675565b6102d26105cd3660046121ec565b61169f565b6102d26105e036600461277c565b611715565b600b546102a2906001600160a01b031681565b6102d26106063660046121ec565b611730565b61061361175a565b600e80546001600160a01b0319166001600160a01b0392909216919091179055565b60006001600160e01b031982166380ac58cd60e01b148061066657506001600160e01b03198216635b5e139f60e01b145b8061068157506301ffc9a760e01b6001600160e01b03198316145b92915050565b60606000805461069690612797565b80601f01602080910402602001604051908101604052809291908181526020018280546106c290612797565b801561070f5780601f106106e45761010080835404028352916020019161070f565b820191906000526020600020905b8154815290600101906020018083116106f257829003601f168201915b5050505050905090565b6000610724826117b4565b506000908152600460205260409020546001600160a01b031690565b600061074b82610c41565b9050806001600160a01b0316836001600160a01b0316036107bd5760405162461bcd60e51b815260206004820152602160248201527f4552433732313a20617070726f76616c20746f2063757272656e74206f776e656044820152603960f91b60648201526084015b60405180910390fd5b336001600160a01b03821614806107d957506107d98133611647565b61084b5760405162461bcd60e51b815260206004820152603d60248201527f4552433732313a20617070726f76652063616c6c6572206973206e6f7420746f60448201527f6b656e206f776e6572206f7220617070726f76656420666f7220616c6c00000060648201526084016107b4565b6108558383611813565b505050565b6015818154811061086a57600080fd5b90600052602060002001600091509050805461088590612797565b80601f01602080910402602001604051908101604052809291908181526020018280546108b190612797565b80156108fe5780601f106108d3576101008083540402835291602001916108fe565b820191906000526020600020905b8154815290600101906020018083116108e157829003601f168201915b505050505081565b60606015805480602002602001604051908101604052809291908181526020016000905b828210156109d657838290600052602060002001805461094990612797565b80601f016020809104026020016040519081016040528092919081815260200182805461097590612797565b80156109c25780601f10610997576101008083540402835291602001916109c2565b820191906000526020600020905b8154815290600101906020018083116109a557829003601f168201915b50505050508152602001906001019061092a565b50505050905090565b6109e761175a565b60005b8151811015610a43576015828281518110610a0757610a076127d1565b60209081029190910181015182546001810184556000938452919092200190610a30908261282d565b5080610a3b81612903565b9150506109ea565b5050565b610a52335b82611881565b610a6e5760405162461bcd60e51b81526004016107b49061291c565b6108558383836118e0565b610a8161175a565b600d80546001600160a01b0319166001600160a01b0392909216919091179055565b610aab61175a565b6015548110610af25760405162461bcd60e51b8152602060048201526013602482015272494e4445585f4f55545f4f465f424f554e445360681b60448201526064016107b4565b805b601554610b0390600190612969565b811015610b6d576015610b1782600161297c565b81548110610b2757610b276127d1565b9060005260206000200160158281548110610b4457610b446127d1565b906000526020600020019081610b5a919061298f565b5080610b6581612903565b915050610af4565b506015805480610b7f57610b7f612a6a565b600190038181906000526020600020016000610b9b9190612189565b905550565b610ba861175a565b60405133904780156108fc02916000818181858888f19350505050158015610bd4573d6000803e3d6000fd5b50565b6108558383836040518060200160405280600081525061101f565b610bfb33610a4c565b610c175760405162461bcd60e51b81526004016107b49061291c565b610bd481611a51565b610c2861175a565b600955565b610c3561175a565b6013610a43828261282d565b6000818152600260205260408120546001600160a01b0316806106815760405162461bcd60e51b8152602060048201526018602482015277115490cdcc8c4e881a5b9d985b1a59081d1bdad95b88125160421b60448201526064016107b4565b610ca961175a565b601580546001810182556000919091527f55f448fdea98c4d29eb340757ef0a66cd03dbb9538908a6a81d96026b71ec47501610a43828261282d565b6013805461088590612797565b60006001600160a01b038216610d5c5760405162461bcd60e51b815260206004820152602960248201527f4552433732313a2061646472657373207a65726f206973206e6f7420612076616044820152683634b21037bbb732b960b91b60648201526084016107b4565b506001600160a01b031660009081526003602052604090205490565b610d8061175a565b610d8a6000611af4565b565b6060601280548060200260200160405190810160405280929190818152602001828054801561070f57602002820191906000526020600020905b81546001600160a01b03168152600190910190602001808311610dc6575050505050905090565b610e506040518061010001604052806000815260200160006001600160a01b031681526020016000815260200160008152602001600081526020016060815260200160006001600160a01b0316815260200160006001600160a01b031681525090565b81610e5a600a5490565b1115610f77576000828152600860209081526040918290208251610100810184528154815260018201546001600160a01b031692810192909252600281015492820192909252600382015460608201526004820154608082015260058201805491929160a084019190610ecc90612797565b80601f0160208091040260200160405190810160405280929190818152602001828054610ef890612797565b8015610f455780601f10610f1a57610100808354040283529160200191610f45565b820191906000526020600020905b815481529060010190602001808311610f2857829003601f168201915b505050918352505060068201546001600160a01b03908116602083015260079092015490911660409091015292915050565b60405162461bcd60e51b815260206004820152600f60248201526e10d0549117d393d517d35253951151608a1b60448201526064016107b4565b60606001805461069690612797565b610fc861175a565b601080546001600160a01b0319166001600160a01b0392909216919091179055565b610a43338383611b46565b610ffd61175a565b600f80546001600160a01b0319166001600160a01b0392909216919091179055565b6110293383611881565b6110455760405162461bcd60e51b81526004016107b49061291c565b61105184848484611c14565b50505050565b6060611062826117b4565b600061106c611c47565b9050600081511161108c57604051806020016040528060008152506110b7565b8061109684611c56565b6040516020016110a7929190612a80565b6040516020818303038152906040525b9392505050565b6110c6611ce9565b60145460ff166111065760405162461bcd60e51b815260206004820152600b60248201526a1352539517d0d313d4d15160aa1b60448201526064016107b4565b60155482106111495760405162461bcd60e51b815260206004820152600f60248201526e494e56414c49445f4d45535341474560881b60448201526064016107b4565b600954831061118d5760405162461bcd60e51b815260206004820152601060248201526f494e56414c49445f54454d504c41544560801b60448201526064016107b4565b6001600160a01b03811633036111d45760405162461bcd60e51b815260206004820152600c60248201526b29a2a7222faa27afa9a2a62360a11b60448201526064016107b4565b600c546001600160a01b03878116911614806111fd5750600d546001600160a01b038781169116145b806112155750600e546001600160a01b038781169116145b8061122d5750600f546001600160a01b038781169116145b8061124557506010546001600160a01b038781169116145b8061125d57506011546001600160a01b038781169116145b61129d5760405162461bcd60e51b81526020600482015260116024820152702aa729aaa82827a92a22a22faa27a5a2a760791b60448201526064016107b4565b336040516331a9108f60e11b8152600481018790526001600160a01b0391821691881690636352211e90602401602060405180830381865afa1580156112e7573d6000803e3d6000fd5b505050506040513d601f19601f8201168201806040525081019061130b9190612aaf565b6001600160a01b03161461134d5760405162461bcd60e51b81526020600482015260096024820152682727aa2fa7aba722a960b91b60448201526064016107b4565b600b546000906001600160a01b031662fdd58e336040516001600160e01b031960e084901b1681526001600160a01b03909116600482015260248101889052604401602060405180830381865afa1580156113ac573d6000803e3d6000fd5b505050506040513d601f19601f820116820180604052508101906113d09190612acc565b1161140a5760405162461bcd60e51b815260206004820152600a6024820152694e4f5f415254574f524b60b01b60448201526064016107b4565b6000611415600a5490565b90506114218282611d42565b61142f600a80546001019055565b604051806101000160405280828152602001886001600160a01b0316815260200187815260200186815260200185815260200160158581548110611475576114756127d1565b90600052602060002001805461148a90612797565b80601f01602080910402602001604051908101604052809291908181526020018280546114b690612797565b80156115035780601f106114d857610100808354040283529160200191611503565b820191906000526020600020905b8154815290600101906020018083116114e657829003601f168201915b505050505081526020016115143390565b6001600160a01b03908116825284811660209283015260008481526008835260409081902084518155928401516001840180546001600160a01b03191691909316179091558201516002820155606082015160038201556080820151600482015560a08201516005820190611589908261282d565b5060c08201516006820180546001600160a01b03199081166001600160a01b039384161790915560e0909301516007909201805490931691161790556000818152600860205260409081902090517f303249d8bcbf5f19a46d4f4dd0229ea5444b0dc9b4804f9373cc35da7617aca49161160291612b62565b60405180910390a1506116156001600755565b505050505050565b61162561175a565b601180546001600160a01b0319166001600160a01b0392909216919091179055565b6001600160a01b03918216600090815260056020908152604080832093909416825291909152205460ff1690565b61167d61175a565b600b80546001600160a01b0319166001600160a01b0392909216919091179055565b6116a761175a565b6001600160a01b03811661170c5760405162461bcd60e51b815260206004820152602660248201527f4f776e61626c653a206e6577206f776e657220697320746865207a65726f206160448201526564647265737360d01b60648201526084016107b4565b610bd481611af4565b61171d61175a565b6014805460ff1916911515919091179055565b61173861175a565b600c80546001600160a01b0319166001600160a01b0392909216919091179055565b6006546001600160a01b03163314610d8a5760405162461bcd60e51b815260206004820181905260248201527f4f776e61626c653a2063616c6c6572206973206e6f7420746865206f776e657260448201526064016107b4565b6000818152600260205260409020546001600160a01b0316610bd45760405162461bcd60e51b8152602060048201526018602482015277115490cdcc8c4e881a5b9d985b1a59081d1bdad95b88125160421b60448201526064016107b4565b600081815260046020526040902080546001600160a01b0319166001600160a01b038416908117909155819061184882610c41565b6001600160a01b03167f8c5be1e5ebec7d5bd14f71427d1e84f3dd0314c0f7b2291e5b200ac8c7c3b92560405160405180910390a45050565b60008061188d83610c41565b9050806001600160a01b0316846001600160a01b031614806118b457506118b48185611647565b806118d85750836001600160a01b03166118cd84610719565b6001600160a01b0316145b949350505050565b826001600160a01b03166118f382610c41565b6001600160a01b0316146119195760405162461bcd60e51b81526004016107b490612bf2565b6001600160a01b03821661197b5760405162461bcd60e51b8152602060048201526024808201527f4552433732313a207472616e7366657220746f20746865207a65726f206164646044820152637265737360e01b60648201526084016107b4565b6119888383836001611d5c565b826001600160a01b031661199b82610c41565b6001600160a01b0316146119c15760405162461bcd60e51b81526004016107b490612bf2565b600081815260046020908152604080832080546001600160a01b03199081169091556001600160a01b0387811680865260038552838620805460001901905590871680865283862080546001019055868652600290945282852080549092168417909155905184937fddf252ad1be2c89b69c2b068fc378daa952ba7f163c4a11628f55a4df523b3ef91a4505050565b6000611a5c82610c41565b9050611a6c816000846001611d5c565b611a7582610c41565b600083815260046020908152604080832080546001600160a01b03199081169091556001600160a01b0385168085526003845282852080546000190190558785526002909352818420805490911690555192935084927fddf252ad1be2c89b69c2b068fc378daa952ba7f163c4a11628f55a4df523b3ef908390a45050565b600680546001600160a01b038381166001600160a01b0319831681179093556040519116919082907f8be0079c531659141344cd1fd0a4f28419497f9722a3daafe3b4186f6b6457e090600090a35050565b816001600160a01b0316836001600160a01b031603611ba75760405162461bcd60e51b815260206004820152601960248201527f4552433732313a20617070726f766520746f2063616c6c65720000000000000060448201526064016107b4565b6001600160a01b03838116600081815260056020908152604080832094871680845294825291829020805460ff191686151590811790915591519182527f17307eab39ab6107e8899845ad3d59bd9653f200f220920489ca2b5937696c31910160405180910390a3505050565b611c1f8484846118e0565b611c2b84848484611de4565b6110515760405162461bcd60e51b81526004016107b490612c37565b60606013805461069690612797565b60606000611c6383611ee5565b600101905060008167ffffffffffffffff811115611c8357611c83612346565b6040519080825280601f01601f191660200182016040528015611cad576020820181803683370190505b5090508181016020015b600019016f181899199a1a9b1b9c1cb0b131b232b360811b600a86061a8153600a8504945084611cb757509392505050565b600260075403611d3b5760405162461bcd60e51b815260206004820152601f60248201527f5265656e7472616e637947756172643a207265656e7472616e742063616c6c0060448201526064016107b4565b6002600755565b610a43828260405180602001604052806000815250611fbd565b6001811115611051576001600160a01b03841615611da2576001600160a01b03841660009081526003602052604081208054839290611d9c908490612969565b90915550505b6001600160a01b03831615611051576001600160a01b03831660009081526003602052604081208054839290611dd990849061297c565b909155505050505050565b60006001600160a01b0384163b15611eda57604051630a85bd0160e11b81526001600160a01b0385169063150b7a0290611e28903390899088908890600401612c89565b6020604051808303816000875af1925050508015611e63575060408051601f3d908101601f19168201909252611e6091810190612cc6565b60015b611ec0573d808015611e91576040519150601f19603f3d011682016040523d82523d6000602084013e611e96565b606091505b508051600003611eb85760405162461bcd60e51b81526004016107b490612c37565b805181602001fd5b6001600160e01b031916630a85bd0160e11b1490506118d8565b506001949350505050565b60008072184f03e93ff9f4daa797ed6e38ed64bf6a1f0160401b8310611f245772184f03e93ff9f4daa797ed6e38ed64bf6a1f0160401b830492506040015b6d04ee2d6d415b85acef81000000008310611f50576d04ee2d6d415b85acef8100000000830492506020015b662386f26fc100008310611f6e57662386f26fc10000830492506010015b6305f5e1008310611f86576305f5e100830492506008015b6127108310611f9a57612710830492506004015b60648310611fac576064830492506002015b600a83106106815760010192915050565b611fc78383611ff0565b611fd46000848484611de4565b6108555760405162461bcd60e51b81526004016107b490612c37565b6001600160a01b0382166120465760405162461bcd60e51b815260206004820181905260248201527f4552433732313a206d696e7420746f20746865207a65726f206164647265737360448201526064016107b4565b6000818152600260205260409020546001600160a01b0316156120ab5760405162461bcd60e51b815260206004820152601c60248201527f4552433732313a20746f6b656e20616c7265616479206d696e7465640000000060448201526064016107b4565b6120b9600083836001611d5c565b6000818152600260205260409020546001600160a01b03161561211e5760405162461bcd60e51b815260206004820152601c60248201527f4552433732313a20746f6b656e20616c7265616479206d696e7465640000000060448201526064016107b4565b6001600160a01b038216600081815260036020908152604080832080546001019055848352600290915280822080546001600160a01b0319168417905551839291907fddf252ad1be2c89b69c2b068fc378daa952ba7f163c4a11628f55a4df523b3ef908290a45050565b50805461219590612797565b6000825580601f106121a5575050565b601f016020900490600052602060002090810190610bd491905b808211156121d357600081556001016121bf565b5090565b6001600160a01b0381168114610bd457600080fd5b6000602082840312156121fe57600080fd5b81356110b7816121d7565b6001600160e01b031981168114610bd457600080fd5b60006020828403121561223157600080fd5b81356110b781612209565b60005b8381101561225757818101518382015260200161223f565b50506000910152565b6000815180845261227881602086016020860161223c565b601f01601f19169290920160200192915050565b6020815260006110b76020830184612260565b6000602082840312156122b157600080fd5b5035919050565b600080604083850312156122cb57600080fd5b82356122d6816121d7565b946020939093013593505050565b6000602080830181845280855180835260408601915060408160051b870101925083870160005b8281101561233957603f19888603018452612327858351612260565b9450928501929085019060010161230b565b5092979650505050505050565b634e487b7160e01b600052604160045260246000fd5b604051601f8201601f1916810167ffffffffffffffff8111828210171561238557612385612346565b604052919050565b600067ffffffffffffffff8311156123a7576123a7612346565b6123ba601f8401601f191660200161235c565b90508281528383830111156123ce57600080fd5b828260208301376000602084830101529392505050565b600082601f8301126123f657600080fd5b6110b78383356020850161238d565b6000602080838503121561241857600080fd5b823567ffffffffffffffff8082111561243057600080fd5b818501915085601f83011261244457600080fd5b81358181111561245657612456612346565b8060051b61246585820161235c565b918252838101850191858101908984111561247f57600080fd5b86860192505b838310156124bb5782358581111561249d5760008081fd5b6124ab8b89838a01016123e5565b8352509186019190860190612485565b9998505050505050505050565b6000806000606084860312156124dd57600080fd5b83356124e8816121d7565b925060208401356124f8816121d7565b929592945050506040919091013590565b60006020828403121561251b57600080fd5b813567ffffffffffffffff81111561253257600080fd5b6118d8848285016123e5565b6020808252825182820181905260009190848201906040850190845b8181101561257f5783516001600160a01b03168352928401929184019160010161255a565b50909695505050505050565b60208152815160208201526000602083015160018060a01b0380821660408501526040850151606085015260608501516080850152608085015160a085015260a085015191506101008060c08601526125e8610120860184612260565b92508160c08701511660e086015260e08601519150612611818601836001600160a01b03169052565b5090949350505050565b8035801515811461262b57600080fd5b919050565b6000806040838503121561264357600080fd5b823561264e816121d7565b915061265c6020840161261b565b90509250929050565b6000806000806080858703121561267b57600080fd5b8435612686816121d7565b93506020850135612696816121d7565b925060408501359150606085013567ffffffffffffffff8111156126b957600080fd5b8501601f810187136126ca57600080fd5b6126d98782356020840161238d565b91505092959194509250565b60008060008060008060c087890312156126fe57600080fd5b8635612709816121d7565b95506020870135945060408701359350606087013592506080870135915060a0870135612735816121d7565b809150509295509295509295565b6000806040838503121561275657600080fd5b8235612761816121d7565b91506020830135612771816121d7565b809150509250929050565b60006020828403121561278e57600080fd5b6110b78261261b565b600181811c908216806127ab57607f821691505b6020821081036127cb57634e487b7160e01b600052602260045260246000fd5b50919050565b634e487b7160e01b600052603260045260246000fd5b601f82111561085557600081815260208120601f850160051c8101602086101561280e5750805b601f850160051c820191505b818110156116155782815560010161281a565b815167ffffffffffffffff81111561284757612847612346565b61285b816128558454612797565b846127e7565b602080601f83116001811461289057600084156128785750858301515b600019600386901b1c1916600185901b178555611615565b600085815260208120601f198616915b828110156128bf578886015182559484019460019091019084016128a0565b50858210156128dd5787850151600019600388901b60f8161c191681555b5050505050600190811b01905550565b634e487b7160e01b600052601160045260246000fd5b600060018201612915576129156128ed565b5060010190565b6020808252602d908201527f4552433732313a2063616c6c6572206973206e6f7420746f6b656e206f776e6560408201526c1c881bdc88185c1c1c9bdd9959609a1b606082015260800190565b81810381811115610681576106816128ed565b80820180821115610681576106816128ed565b81810361299a575050565b6129a48254612797565b67ffffffffffffffff8111156129bc576129bc612346565b6129ca816128558454612797565b6000601f8211600181146129fe57600083156129e65750848201545b600019600385901b1c1916600184901b178455612a63565b600085815260209020601f19841690600086815260209020845b83811015612a385782860154825560019586019590910190602001612a18565b5085831015612a565781850154600019600388901b60f8161c191681555b50505060018360011b0184555b5050505050565b634e487b7160e01b600052603160045260246000fd5b60008351612a9281846020880161223c565b835190830190612aa681836020880161223c565b01949350505050565b600060208284031215612ac157600080fd5b81516110b7816121d7565b600060208284031215612ade57600080fd5b5051919050565b60008154612af281612797565b808552602060018381168015612b0f5760018114612b2957612b57565b60ff1985168884015283151560051b880183019550612b57565b866000528260002060005b85811015612b4f5781548a8201860152908301908401612b34565b890184019650505b505050505092915050565b60208152815460208201526000612b8360018401546001600160a01b031690565b6001600160a01b031660408301526002830154606083015260038301546080830152600483015460a083015261010060c08301819052612bca610120840160058601612ae5565b60068501546001600160a01b0390811660e08601526007909501549094169201919091525090565b60208082526025908201527f4552433732313a207472616e736665722066726f6d20696e636f72726563742060408201526437bbb732b960d91b606082015260800190565b60208082526032908201527f4552433732313a207472616e7366657220746f206e6f6e20455243373231526560408201527131b2b4bb32b91034b6b83632b6b2b73a32b960711b606082015260800190565b6001600160a01b0385811682528416602082015260408101839052608060608201819052600090612cbc90830184612260565b9695505050505050565b600060208284031215612cd857600080fd5b81516110b78161220956fea264697066735822122092713158728d0b13951026f9001751c8f92f463fa75a9f60369aa538299cdd3764736f6c63430008110033486170707920486f6c6964617973212045617420706c656e7479206f66204a656c6c7920446f6e757473214d617920796f757220486f6c69646179732062652066756c6c206f6620216d61676963",
    "linkReferences": {}
  },
  "methodIdentifiers": {
    "addMessage(string)": "6a226a49",
    "addMessages(string[])": "1b1862be",
    "approve(address,uint256)": "095ea7b3",
    "artworkAddress()": "fa6c9cb3",
    "availableMessages()": "1324111b",
    "balanceOf(address)": "70a08231",
    "baseURI()": "6c0360eb",
    "beastsAddress()": "0113c93a",
    "burn(uint256)": "42966c68",
    "getApproved(uint256)": "081812fc",
    "getCard(uint256)": "9188d312",
    "isApprovedForAll(address,address)": "e985e9c5",
    "messages(uint256)": "0d80fefd",
    "mint(address,uint256,uint256,uint256,uint256,address)": "d99e0f0a",
    "mintEnabled()": "d1239730",
    "name()": "06fdde03",
    "numTemplates()": "2faceae2",
    "owner()": "8da5cb5b",
    "ownerOf(uint256)": "6352211e",
    "poniesAddress()": "8de87e4d",
    "removeMessage(uint256)": "2de263d7",
    "renounceOwnership()": "715018a6",
    "safeTransferFrom(address,address,uint256)": "42842e0e",
    "safeTransferFrom(address,address,uint256,bytes)": "b88d4fde",
    "setApprovalForAll(address,bool)": "a22cb465",
    "setArtworkAddress(address)": "ec8e1e13",
    "setBaseURI(string)": "55f804b3",
    "setBeastsAddress(address)": "99af4f1e",
    "setMintEnabled(bool)": "f46a04eb",
    "setNumTemplates(uint256)": "4c2ade1e",
    "setPoniesAddress(address)": "aa5f37a3",
    "setSoulsAddress(address)": "2a0f9d34",
    "setSpawnAddress(address)": "df86078a",
    "setWarriorsAddress(address)": "01b87a12",
    "setWizardsAddress(address)": "fc6b0bc8",
    "soulsAddress()": "d281d63d",
    "spawnAddress()": "c10c32b2",
    "supportedContracts()": "8bb4db27",
    "supportsInterface(bytes4)": "01ffc9a7",
    "symbol()": "95d89b41",
    "tokenURI(uint256)": "c87b56dd",
    "transferFrom(address,address,uint256)": "23b872dd",
    "transferOwnership(address)": "f2fde38b",
    "warriorsAddress()": "60e06b1d",
    "withdraw()": "3ccfd60b",
    "wizardsAddress()": "10de9062"
  },
  "id": 37
}