{
  "abi": [
    {
      "inputs": [
        {
          "internalType": "address",
          "name": "_artworkAddress",
          "type": "address"
        },
        {
          "internalType": "address",
          "name": "_wizardsAddres",
          "type": "address"
        },
        {
          "internalType": "address",
          "name": "_soulsAddress",
          "type": "address"
        },
        {
          "internalType": "address",
          "name": "_warriorsAddress",
          "type": "address"
        },
        {
          "internalType": "address",
          "name": "_poniesAddress",
          "type": "address"
        },
        {
          "internalType": "address",
          "name": "_beastsAddress",
          "type": "address"
        },
        {
          "internalType": "address",
          "name": "_spawnAddress",
          "type": "address"
        },
        {
          "internalType": "string",
          "name": "_initialBaseURI",
          "type": "string"
        }
      ],
      "stateMutability": "nonpayable",
      "type": "constructor"
    },
    {
      "anonymous": false,
      "inputs": [
        {
          "indexed": true,
          "internalType": "address",
          "name": "owner",
          "type": "address"
        },
        {
          "indexed": true,
          "internalType": "address",
          "name": "approved",
          "type": "address"
        },
        {
          "indexed": true,
          "internalType": "uint256",
          "name": "tokenId",
          "type": "uint256"
        }
      ],
      "name": "Approval",
      "type": "event"
    },
    {
      "anonymous": false,
      "inputs": [
        {
          "indexed": true,
          "internalType": "address",
          "name": "owner",
          "type": "address"
        },
        {
          "indexed": true,
          "internalType": "address",
          "name": "operator",
          "type": "address"
        },
        {
          "indexed": false,
          "internalType": "bool",
          "name": "approved",
          "type": "bool"
        }
      ],
      "name": "ApprovalForAll",
      "type": "event"
    },
    {
      "anonymous": false,
      "inputs": [
        {
          "indexed": true,
          "internalType": "address",
          "name": "previousOwner",
          "type": "address"
        },
        {
          "indexed": true,
          "internalType": "address",
          "name": "newOwner",
          "type": "address"
        }
      ],
      "name": "OwnershipTransferred",
      "type": "event"
    },
    {
      "anonymous": false,
      "inputs": [
        {
          "indexed": true,
          "internalType": "address",
          "name": "from",
          "type": "address"
        },
        {
          "indexed": true,
          "internalType": "address",
          "name": "to",
          "type": "address"
        },
        {
          "indexed": true,
          "internalType": "uint256",
          "name": "tokenId",
          "type": "uint256"
        }
      ],
      "name": "Transfer",
      "type": "event"
    },
    {
      "anonymous": false,
      "inputs": [
        {
          "components": [
            {
              "internalType": "address",
              "name": "tokenContract",
              "type": "address"
            },
            {
              "internalType": "uint256",
              "name": "token",
              "type": "uint256"
            },
            {
              "internalType": "uint256",
              "name": "artwork",
              "type": "uint256"
            },
            {
              "internalType": "string",
              "name": "message",
              "type": "string"
            },
            {
              "internalType": "address",
              "name": "sender",
              "type": "address"
            },
            {
              "internalType": "address",
              "name": "recipient",
              "type": "address"
            }
          ],
          "indexed": false,
          "internalType": "struct WizzmasCard.Card",
          "name": "data",
          "type": "tuple"
        }
      ],
      "name": "WizzmasCardMinted",
      "type": "event"
    },
    {
      "inputs": [
        {
          "internalType": "address",
          "name": "to",
          "type": "address"
        },
        {
          "internalType": "uint256",
          "name": "tokenId",
          "type": "uint256"
        }
      ],
      "name": "approve",
      "outputs": [],
      "stateMutability": "nonpayable",
      "type": "function"
    },
    {
      "inputs": [],
      "name": "artworkAddress",
      "outputs": [
        {
          "internalType": "address",
          "name": "",
          "type": "address"
        }
      ],
      "stateMutability": "view",
      "type": "function"
    },
    {
      "inputs": [],
      "name": "availableMessages",
      "outputs": [
        {
          "internalType": "string[]",
          "name": "",
          "type": "string[]"
        }
      ],
      "stateMutability": "view",
      "type": "function"
    },
    {
      "inputs": [
        {
          "internalType": "address",
          "name": "owner",
          "type": "address"
        }
      ],
      "name": "balanceOf",
      "outputs": [
        {
          "internalType": "uint256",
          "name": "",
          "type": "uint256"
        }
      ],
      "stateMutability": "view",
      "type": "function"
    },
    {
      "inputs": [],
      "name": "baseURI",
      "outputs": [
        {
          "internalType": "string",
          "name": "",
          "type": "string"
        }
      ],
      "stateMutability": "view",
      "type": "function"
    },
    {
      "inputs": [],
      "name": "beastsAddress",
      "outputs": [
        {
          "internalType": "address",
          "name": "",
          "type": "address"
        }
      ],
      "stateMutability": "view",
      "type": "function"
    },
    {
      "inputs": [
        {
          "internalType": "uint256",
          "name": "tokenId",
          "type": "uint256"
        }
      ],
      "name": "burn",
      "outputs": [],
      "stateMutability": "nonpayable",
      "type": "function"
    },
    {
      "inputs": [
        {
          "internalType": "uint256",
          "name": "",
          "type": "uint256"
        }
      ],
      "name": "cards",
      "outputs": [
        {
          "internalType": "address",
          "name": "tokenContract",
          "type": "address"
        },
        {
          "internalType": "uint256",
          "name": "token",
          "type": "uint256"
        },
        {
          "internalType": "uint256",
          "name": "artwork",
          "type": "uint256"
        },
        {
          "internalType": "string",
          "name": "message",
          "type": "string"
        },
        {
          "internalType": "address",
          "name": "sender",
          "type": "address"
        },
        {
          "internalType": "address",
          "name": "recipient",
          "type": "address"
        }
      ],
      "stateMutability": "view",
      "type": "function"
    },
    {
      "inputs": [
        {
          "internalType": "uint256",
          "name": "tokenId",
          "type": "uint256"
        }
      ],
      "name": "getApproved",
      "outputs": [
        {
          "internalType": "address",
          "name": "",
          "type": "address"
        }
      ],
      "stateMutability": "view",
      "type": "function"
    },
    {
      "inputs": [
        {
          "internalType": "address",
          "name": "owner",
          "type": "address"
        },
        {
          "internalType": "address",
          "name": "operator",
          "type": "address"
        }
      ],
      "name": "isApprovedForAll",
      "outputs": [
        {
          "internalType": "bool",
          "name": "",
          "type": "bool"
        }
      ],
      "stateMutability": "view",
      "type": "function"
    },
    {
      "inputs": [
        {
          "internalType": "uint256",
          "name": "",
          "type": "uint256"
        }
      ],
      "name": "messages",
      "outputs": [
        {
          "internalType": "string",
          "name": "",
          "type": "string"
        }
      ],
      "stateMutability": "view",
      "type": "function"
    },
    {
      "inputs": [
        {
          "internalType": "address",
          "name": "_tokenContract",
          "type": "address"
        },
        {
          "internalType": "uint256",
          "name": "_tokenId",
          "type": "uint256"
        },
        {
          "internalType": "uint256",
          "name": "_artworkId",
          "type": "uint256"
        },
        {
          "internalType": "uint256",
          "name": "_messageId",
          "type": "uint256"
        },
        {
          "internalType": "address",
          "name": "_recipient",
          "type": "address"
        }
      ],
      "name": "mint",
      "outputs": [],
      "stateMutability": "nonpayable",
      "type": "function"
    },
    {
      "inputs": [],
      "name": "mintEnabled",
      "outputs": [
        {
          "internalType": "bool",
          "name": "",
          "type": "bool"
        }
      ],
      "stateMutability": "view",
      "type": "function"
    },
    {
      "inputs": [],
      "name": "name",
      "outputs": [
        {
          "internalType": "string",
          "name": "",
          "type": "string"
        }
      ],
      "stateMutability": "view",
      "type": "function"
    },
    {
      "inputs": [],
      "name": "owner",
      "outputs": [
        {
          "internalType": "address",
          "name": "",
          "type": "address"
        }
      ],
      "stateMutability": "view",
      "type": "function"
    },
    {
      "inputs": [
        {
          "internalType": "uint256",
          "name": "tokenId",
          "type": "uint256"
        }
      ],
      "name": "ownerOf",
      "outputs": [
        {
          "internalType": "address",
          "name": "",
          "type": "address"
        }
      ],
      "stateMutability": "view",
      "type": "function"
    },
    {
      "inputs": [],
      "name": "poniesAddress",
      "outputs": [
        {
          "internalType": "address",
          "name": "",
          "type": "address"
        }
      ],
      "stateMutability": "view",
      "type": "function"
    },
    {
      "inputs": [],
      "name": "renounceOwnership",
      "outputs": [],
      "stateMutability": "nonpayable",
      "type": "function"
    },
    {
      "inputs": [
        {
          "internalType": "address",
          "name": "from",
          "type": "address"
        },
        {
          "internalType": "address",
          "name": "to",
          "type": "address"
        },
        {
          "internalType": "uint256",
          "name": "tokenId",
          "type": "uint256"
        }
      ],
      "name": "safeTransferFrom",
      "outputs": [],
      "stateMutability": "nonpayable",
      "type": "function"
    },
    {
      "inputs": [
        {
          "internalType": "address",
          "name": "from",
          "type": "address"
        },
        {
          "internalType": "address",
          "name": "to",
          "type": "address"
        },
        {
          "internalType": "uint256",
          "name": "tokenId",
          "type": "uint256"
        },
        {
          "internalType": "bytes",
          "name": "data",
          "type": "bytes"
        }
      ],
      "name": "safeTransferFrom",
      "outputs": [],
      "stateMutability": "nonpayable",
      "type": "function"
    },
    {
      "inputs": [
        {
          "internalType": "address",
          "name": "operator",
          "type": "address"
        },
        {
          "internalType": "bool",
          "name": "approved",
          "type": "bool"
        }
      ],
      "name": "setApprovalForAll",
      "outputs": [],
      "stateMutability": "nonpayable",
      "type": "function"
    },
    {
      "inputs": [
        {
          "internalType": "address",
          "name": "_address",
          "type": "address"
        }
      ],
      "name": "setArtworkAddress",
      "outputs": [],
      "stateMutability": "nonpayable",
      "type": "function"
    },
    {
      "inputs": [
        {
          "internalType": "string",
          "name": "_newBaseURI",
          "type": "string"
        }
      ],
      "name": "setBaseURI",
      "outputs": [],
      "stateMutability": "nonpayable",
      "type": "function"
    },
    {
      "inputs": [
        {
          "internalType": "address",
          "name": "_address",
          "type": "address"
        }
      ],
      "name": "setBeastsAddress",
      "outputs": [],
      "stateMutability": "nonpayable",
      "type": "function"
    },
    {
      "inputs": [
        {
          "internalType": "bool",
          "name": "_newMintEnabled",
          "type": "bool"
        }
      ],
      "name": "setMintEnabled",
      "outputs": [],
      "stateMutability": "nonpayable",
      "type": "function"
    },
    {
      "inputs": [
        {
          "internalType": "address",
          "name": "_address",
          "type": "address"
        }
      ],
      "name": "setPoniesAddress",
      "outputs": [],
      "stateMutability": "nonpayable",
      "type": "function"
    },
    {
      "inputs": [
        {
          "internalType": "address",
          "name": "_address",
          "type": "address"
        }
      ],
      "name": "setSoulsAddress",
      "outputs": [],
      "stateMutability": "nonpayable",
      "type": "function"
    },
    {
      "inputs": [
        {
          "internalType": "address",
          "name": "_address",
          "type": "address"
        }
      ],
      "name": "setSpawnAddress",
      "outputs": [],
      "stateMutability": "nonpayable",
      "type": "function"
    },
    {
      "inputs": [
        {
          "internalType": "address",
          "name": "_address",
          "type": "address"
        }
      ],
      "name": "setWarriorsAddress",
      "outputs": [],
      "stateMutability": "nonpayable",
      "type": "function"
    },
    {
      "inputs": [
        {
          "internalType": "address",
          "name": "_address",
          "type": "address"
        }
      ],
      "name": "setWizardsAddress",
      "outputs": [],
      "stateMutability": "nonpayable",
      "type": "function"
    },
    {
      "inputs": [],
      "name": "soulsAddress",
      "outputs": [
        {
          "internalType": "address",
          "name": "",
          "type": "address"
        }
      ],
      "stateMutability": "view",
      "type": "function"
    },
    {
      "inputs": [],
      "name": "spawnAddress",
      "outputs": [
        {
          "internalType": "address",
          "name": "",
          "type": "address"
        }
      ],
      "stateMutability": "view",
      "type": "function"
    },
    {
      "inputs": [],
      "name": "supportedContracts",
      "outputs": [
        {
          "internalType": "address[]",
          "name": "",
          "type": "address[]"
        }
      ],
      "stateMutability": "view",
      "type": "function"
    },
    {
      "inputs": [
        {
          "internalType": "bytes4",
          "name": "interfaceId",
          "type": "bytes4"
        }
      ],
      "name": "supportsInterface",
      "outputs": [
        {
          "internalType": "bool",
          "name": "",
          "type": "bool"
        }
      ],
      "stateMutability": "view",
      "type": "function"
    },
    {
      "inputs": [],
      "name": "symbol",
      "outputs": [
        {
          "internalType": "string",
          "name": "",
          "type": "string"
        }
      ],
      "stateMutability": "view",
      "type": "function"
    },
    {
      "inputs": [
        {
          "internalType": "uint256",
          "name": "index",
          "type": "uint256"
        }
      ],
      "name": "tokenByIndex",
      "outputs": [
        {
          "internalType": "uint256",
          "name": "",
          "type": "uint256"
        }
      ],
      "stateMutability": "view",
      "type": "function"
    },
    {
      "inputs": [
        {
          "internalType": "address",
          "name": "owner",
          "type": "address"
        },
        {
          "internalType": "uint256",
          "name": "index",
          "type": "uint256"
        }
      ],
      "name": "tokenOfOwnerByIndex",
      "outputs": [
        {
          "internalType": "uint256",
          "name": "",
          "type": "uint256"
        }
      ],
      "stateMutability": "view",
      "type": "function"
    },
    {
      "inputs": [
        {
          "internalType": "uint256",
          "name": "tokenId",
          "type": "uint256"
        }
      ],
      "name": "tokenURI",
      "outputs": [
        {
          "internalType": "string",
          "name": "",
          "type": "string"
        }
      ],
      "stateMutability": "view",
      "type": "function"
    },
    {
      "inputs": [
        {
          "internalType": "address",
          "name": "_owner",
          "type": "address"
        }
      ],
      "name": "tokensOfOwner",
      "outputs": [
        {
          "internalType": "uint256[]",
          "name": "",
          "type": "uint256[]"
        }
      ],
      "stateMutability": "view",
      "type": "function"
    },
    {
      "inputs": [],
      "name": "totalSupply",
      "outputs": [
        {
          "internalType": "uint256",
          "name": "",
          "type": "uint256"
        }
      ],
      "stateMutability": "view",
      "type": "function"
    },
    {
      "inputs": [
        {
          "internalType": "address",
          "name": "from",
          "type": "address"
        },
        {
          "internalType": "address",
          "name": "to",
          "type": "address"
        },
        {
          "internalType": "uint256",
          "name": "tokenId",
          "type": "uint256"
        }
      ],
      "name": "transferFrom",
      "outputs": [],
      "stateMutability": "nonpayable",
      "type": "function"
    },
    {
      "inputs": [
        {
          "internalType": "address",
          "name": "newOwner",
          "type": "address"
        }
      ],
      "name": "transferOwnership",
      "outputs": [],
      "stateMutability": "nonpayable",
      "type": "function"
    },
    {
      "inputs": [],
      "name": "warriorsAddress",
      "outputs": [
        {
          "internalType": "address",
          "name": "",
          "type": "address"
        }
      ],
      "stateMutability": "view",
      "type": "function"
    },
    {
      "inputs": [],
      "name": "withdraw",
      "outputs": [],
      "stateMutability": "nonpayable",
      "type": "function"
    },
    {
      "inputs": [],
      "name": "wizardsAddress",
      "outputs": [
        {
          "internalType": "address",
          "name": "",
          "type": "address"
        }
      ],
      "stateMutability": "view",
      "type": "function"
    }
  ],
  "bytecode": {
    "object": "0x6015805460ff19169055601a6101009081527f4861766520612076657279204d657272792057697a7a6d6173210000000000006101205260809081526101a0604052602361014081815260a091620034106101603981526020016040518060400160405280601681526020017f486f486f486f21204d657272792057697a7a6d6173210000000000000000000081525081526020016040518060600160405280602b8152602001620033e5602b91399052620000c09060179060046200030a565b50348015620000ce57600080fd5b506040516200343338038062003433833981016040819052620000f1916200047a565b604080518082018252600b8082526a15da5e9e9b585cd0d85c9960aa1b602080840182905284518086019095529184529083015290600062000134838262000661565b50600162000143828262000661565b505050620001606200015a6200023760201b60201c565b6200023b565b6001600b55600c80546001600160a01b03808b166001600160a01b031992831617909255600d80548a84169083168117909155600e80548a85169084168117909155600f80548a86169085168117909155601080548a87169086168117909155601180548a8816908716811790915560128054978a169790961687179095556040805160c0810182529485526020850193909352918301526060820152608081019190915260a08101919091526200021d90601390600662000367565b5062000229816200028d565b50505050505050506200072d565b3390565b600a80546001600160a01b038381166001600160a01b0319831681179093556040519116919082907f8be0079c531659141344cd1fd0a4f28419497f9722a3daafe3b4186f6b6457e090600090a35050565b62000297620002a9565b6014620002a5828262000661565b5050565b600a546001600160a01b03163314620003085760405162461bcd60e51b815260206004820181905260248201527f4f776e61626c653a2063616c6c6572206973206e6f7420746865206f776e6572604482015260640160405180910390fd5b565b82805482825590600052602060002090810192821562000355579160200282015b8281111562000355578251829062000344908262000661565b50916020019190600101906200032b565b5062000363929150620003cd565b5090565b828054828255906000526020600020908101928215620003bf579160200282015b82811115620003bf57825182546001600160a01b0319166001600160a01b0390911617825560209092019160019091019062000388565b5062000363929150620003ee565b8082111562000363576000620003e4828262000405565b50600101620003cd565b5b80821115620003635760008155600101620003ef565b5080546200041390620005d2565b6000825580601f1062000424575050565b601f016020900490600052602060002090810190620004449190620003ee565b50565b80516001600160a01b03811681146200045f57600080fd5b919050565b634e487b7160e01b600052604160045260246000fd5b600080600080600080600080610100898b0312156200049857600080fd5b620004a38962000447565b97506020620004b4818b0162000447565b9750620004c460408b0162000447565b9650620004d460608b0162000447565b9550620004e460808b0162000447565b9450620004f460a08b0162000447565b93506200050460c08b0162000447565b60e08b01519093506001600160401b03808211156200052257600080fd5b818c0191508c601f8301126200053757600080fd5b8151818111156200054c576200054c62000464565b604051601f8201601f19908116603f0116810190838211818310171562000577576200057762000464565b816040528281528f868487010111156200059057600080fd5b600093505b82841015620005b4578484018601518185018701529285019262000595565b60008684830101528096505050505050509295985092959890939650565b600181811c90821680620005e757607f821691505b6020821081036200060857634e487b7160e01b600052602260045260246000fd5b50919050565b601f8211156200065c57600081815260208120601f850160051c81016020861015620006375750805b601f850160051c820191505b81811015620006585782815560010162000643565b5050505b505050565b81516001600160401b038111156200067d576200067d62000464565b62000695816200068e8454620005d2565b846200060e565b602080601f831160018114620006cd5760008415620006b45750858301515b600019600386901b1c1916600185901b17855562000658565b600085815260208120601f198616915b82811015620006fe57888601518255948401946001909101908401620006dd565b50858210156200071d5787850151600019600388901b60f8161c191681555b5050505050600190811b01905550565b612ca8806200073d6000396000f3fe608060405234801561001057600080fd5b506004361061027f5760003560e01c8063715018a61161015c578063b88d4fde116100ce578063e985e9c511610087578063e985e9c514610588578063ec8e1e13146105c4578063f2fde38b146105d7578063f46a04eb146105ea578063fa6c9cb3146105fd578063fc6b0bc81461061057600080fd5b8063b88d4fde1461051c578063c10c32b21461052f578063c87b56dd14610542578063d123973014610555578063d281d63d14610562578063df86078a1461057557600080fd5b80638dc10768116101205780638dc10768146104a35780638de87e4d146104c857806395d89b41146104db57806399af4f1e146104e3578063a22cb465146104f6578063aa5f37a31461050957600080fd5b8063715018a6146104425780638462151c1461044a5780638bb4db271461046a5780638cb75cad1461047f5780638da5cb5b1461049257600080fd5b80632a0f9d34116101f55780634f6ccce7116101b95780634f6ccce7146103db57806355f804b3146103ee57806360e06b1d146104015780636352211e146104145780636c0360eb1461042757806370a082311461042f57600080fd5b80632a0f9d34146103875780632f745c591461039a5780633ccfd60b146103ad57806342842e0e146103b557806342966c68146103c857600080fd5b8063095ea7b311610247578063095ea7b3146103145780630d80fefd1461032757806310de90621461033a5780631324111b1461034d57806318160ddd1461036257806323b872dd1461037457600080fd5b80630113c93a1461028457806301b87a12146102b457806301ffc9a7146102c957806306fdde03146102ec578063081812fc14610301575b600080fd5b601154610297906001600160a01b031681565b6040516001600160a01b0390911681526020015b60405180910390f35b6102c76102c2366004612386565b610623565b005b6102dc6102d73660046123b9565b61064d565b60405190151581526020016102ab565b6102f461065e565b6040516102ab9190612426565b61029761030f366004612439565b6106f0565b6102c7610322366004612452565b610717565b6102f4610335366004612439565b610831565b600d54610297906001600160a01b031681565b6103556108dd565b6040516102ab919061247e565b6008545b6040519081526020016102ab565b6102c76103823660046124e0565b6109b6565b6102c7610395366004612386565b6109e8565b6103666103a8366004612452565b610a12565b6102c7610aa8565b6102c76103c33660046124e0565b610adf565b6102c76103d6366004612439565b610afa565b6103666103e9366004612439565b610b28565b6102c76103fc3660046125ad565b610bbb565b600f54610297906001600160a01b031681565b610297610422366004612439565b610bd3565b6102f4610c33565b61036661043d366004612386565b610c40565b6102c7610cc6565b61045d610458366004612386565b610cda565b6040516102ab91906125f6565b610472610d9c565b6040516102ab919061263a565b6102c761048d36600461267b565b610dfd565b600a546001600160a01b0316610297565b6104b66104b1366004612439565b6112e8565b6040516102ab969594939291906126d1565b601054610297906001600160a01b031681565b6102f46113be565b6102c76104f1366004612386565b6113cd565b6102c761050436600461272f565b6113f7565b6102c7610517366004612386565b611402565b6102c761052a366004612764565b61142c565b601254610297906001600160a01b031681565b6102f4610550366004612439565b611464565b6015546102dc9060ff1681565b600e54610297906001600160a01b031681565b6102c7610583366004612386565b6114cb565b6102dc6105963660046127e4565b6001600160a01b03918216600090815260056020908152604080832093909416825291909152205460ff1690565b6102c76105d2366004612386565b6114f5565b6102c76105e5366004612386565b61151f565b6102c76105f836600461281d565b611595565b600c54610297906001600160a01b031681565b6102c761061e366004612386565b6115b0565b61062b6115da565b600f80546001600160a01b0319166001600160a01b0392909216919091179055565b600061065882611634565b92915050565b60606000805461066d90612838565b80601f016020809104026020016040519081016040528092919081815260200182805461069990612838565b80156106e65780601f106106bb576101008083540402835291602001916106e6565b820191906000526020600020905b8154815290600101906020018083116106c957829003601f168201915b5050505050905090565b60006106fb82611659565b506000908152600460205260409020546001600160a01b031690565b600061072282610bd3565b9050806001600160a01b0316836001600160a01b0316036107945760405162461bcd60e51b815260206004820152602160248201527f4552433732313a20617070726f76616c20746f2063757272656e74206f776e656044820152603960f91b60648201526084015b60405180910390fd5b336001600160a01b03821614806107b057506107b08133610596565b6108225760405162461bcd60e51b815260206004820152603d60248201527f4552433732313a20617070726f76652063616c6c6572206973206e6f7420746f60448201527f6b656e206f776e6572206f7220617070726f76656420666f7220616c6c000000606482015260840161078b565b61082c83836116b8565b505050565b6017818154811061084157600080fd5b90600052602060002001600091509050805461085c90612838565b80601f016020809104026020016040519081016040528092919081815260200182805461088890612838565b80156108d55780601f106108aa576101008083540402835291602001916108d5565b820191906000526020600020905b8154815290600101906020018083116108b857829003601f168201915b505050505081565b60606017805480602002602001604051908101604052809291908181526020016000905b828210156109ad57838290600052602060002001805461092090612838565b80601f016020809104026020016040519081016040528092919081815260200182805461094c90612838565b80156109995780601f1061096e57610100808354040283529160200191610999565b820191906000526020600020905b81548152906001019060200180831161097c57829003601f168201915b505050505081526020019060010190610901565b50505050905090565b6109c1335b82611726565b6109dd5760405162461bcd60e51b815260040161078b9061286c565b61082c8383836117a5565b6109f06115da565b600e80546001600160a01b0319166001600160a01b0392909216919091179055565b6000610a1d83610c40565b8210610a7f5760405162461bcd60e51b815260206004820152602b60248201527f455243373231456e756d657261626c653a206f776e657220696e646578206f7560448201526a74206f6620626f756e647360a81b606482015260840161078b565b506001600160a01b03919091166000908152600660209081526040808320938352929052205490565b610ab06115da565b60405133904780156108fc02916000818181858888f19350505050158015610adc573d6000803e3d6000fd5b50565b61082c8383836040518060200160405280600081525061142c565b610b03336109bb565b610b1f5760405162461bcd60e51b815260040161078b9061286c565b610adc81611916565b6000610b3360085490565b8210610b965760405162461bcd60e51b815260206004820152602c60248201527f455243373231456e756d657261626c653a20676c6f62616c20696e646578206f60448201526b7574206f6620626f756e647360a01b606482015260840161078b565b60088281548110610ba957610ba96128b9565b90600052602060002001549050919050565b610bc36115da565b6014610bcf828261291d565b5050565b6000818152600260205260408120546001600160a01b0316806106585760405162461bcd60e51b8152602060048201526018602482015277115490cdcc8c4e881a5b9d985b1a59081d1bdad95b88125160421b604482015260640161078b565b6014805461085c90612838565b60006001600160a01b038216610caa5760405162461bcd60e51b815260206004820152602960248201527f4552433732313a2061646472657373207a65726f206973206e6f7420612076616044820152683634b21037bbb732b960b91b606482015260840161078b565b506001600160a01b031660009081526003602052604090205490565b610cce6115da565b610cd860006119b9565b565b60606000610ce783610c40565b905080600003610d0b5760408051600080825260208201909252905b509392505050565b60008167ffffffffffffffff811115610d2657610d26612521565b604051908082528060200260200182016040528015610d4f578160200160208202803683370190505b50905060005b82811015610d0357610d678582610a12565b828281518110610d7957610d796128b9565b602090810291909101015280610d8e816129f3565b915050610d55565b50919050565b606060138054806020026020016040519081016040528092919081815260200182805480156106e657602002820191906000526020600020905b81546001600160a01b03168152600190910190602001808311610dd6575050505050905090565b610e05611a0b565b60155460ff16610e455760405162461bcd60e51b815260206004820152600b60248201526a1352539517d0d313d4d15160aa1b604482015260640161078b565b6017548210610e885760405162461bcd60e51b815260206004820152600f60248201526e494e56414c49445f4d45535341474560881b604482015260640161078b565b6001600160a01b0381163303610ecf5760405162461bcd60e51b815260206004820152600c60248201526b29a2a7222faa27afa9a2a62360a11b604482015260640161078b565b600d546001600160a01b0386811691161480610ef85750600e546001600160a01b038681169116145b80610f105750600f546001600160a01b038681169116145b80610f2857506010546001600160a01b038681169116145b80610f4057506011546001600160a01b038681169116145b80610f5857506012546001600160a01b038681169116145b610f985760405162461bcd60e51b81526020600482015260116024820152702aa729aaa82827a92a22a22faa27a5a2a760791b604482015260640161078b565b336040516331a9108f60e11b8152600481018690526001600160a01b0391821691871690636352211e90602401602060405180830381865afa158015610fe2573d6000803e3d6000fd5b505050506040513d601f19601f820116820180604052508101906110069190612a0c565b6001600160a01b0316146110485760405162461bcd60e51b81526020600482015260096024820152682727aa2fa7aba722a960b91b604482015260640161078b565b600c546000906001600160a01b031662fdd58e336040516001600160e01b031960e084901b1681526001600160a01b03909116600482015260248101879052604401602060405180830381865afa1580156110a7573d6000803e3d6000fd5b505050506040513d601f19601f820116820180604052508101906110cb9190612a29565b116111055760405162461bcd60e51b815260206004820152600a6024820152694e4f5f415254574f524b60b01b604482015260640161078b565b600061111060085490565b905061111c8282611a64565b6040518060c00160405280876001600160a01b0316815260200186815260200185815260200160178581548110611155576111556128b9565b90600052602060002001805461116a90612838565b80601f016020809104026020016040519081016040528092919081815260200182805461119690612838565b80156111e35780601f106111b8576101008083540402835291602001916111e3565b820191906000526020600020905b8154815290600101906020018083116111c657829003601f168201915b505050505081526020016111f43390565b6001600160a01b039081168252848116602092830152600084815260168352604090819020845181546001600160a01b031916931692909217825591830151600182015590820151600282015560608201516003820190611255908261291d565b5060808201516004820180546001600160a01b03199081166001600160a01b039384161790915560a0909301516005909201805490931691161790556000818152601660205260409081902090517feee21c301f227d8b72b720f449f8732042457abbf8cbdecb4c5bca51b47ae6d9916112ce91612a42565b60405180910390a1506112e16001600b55565b5050505050565b60166020526000908152604090208054600182015460028301546003840180546001600160a01b0390941694929391929161132290612838565b80601f016020809104026020016040519081016040528092919081815260200182805461134e90612838565b801561139b5780601f106113705761010080835404028352916020019161139b565b820191906000526020600020905b81548152906001019060200180831161137e57829003601f168201915b50505050600483015460059093015491926001600160a01b039081169216905086565b60606001805461066d90612838565b6113d56115da565b601180546001600160a01b0319166001600160a01b0392909216919091179055565b610bcf338383611a7e565b61140a6115da565b601080546001600160a01b0319166001600160a01b0392909216919091179055565b6114363383611726565b6114525760405162461bcd60e51b815260040161078b9061286c565b61145e84848484611b4c565b50505050565b606061146f82611659565b6000611479611b7f565b9050600081511161149957604051806020016040528060008152506114c4565b806114a384611b8e565b6040516020016114b4929190612b20565b6040516020818303038152906040525b9392505050565b6114d36115da565b601280546001600160a01b0319166001600160a01b0392909216919091179055565b6114fd6115da565b600c80546001600160a01b0319166001600160a01b0392909216919091179055565b6115276115da565b6001600160a01b03811661158c5760405162461bcd60e51b815260206004820152602660248201527f4f776e61626c653a206e6577206f776e657220697320746865207a65726f206160448201526564647265737360d01b606482015260840161078b565b610adc816119b9565b61159d6115da565b6015805460ff1916911515919091179055565b6115b86115da565b600d80546001600160a01b0319166001600160a01b0392909216919091179055565b600a546001600160a01b03163314610cd85760405162461bcd60e51b815260206004820181905260248201527f4f776e61626c653a2063616c6c6572206973206e6f7420746865206f776e6572604482015260640161078b565b60006001600160e01b0319821663780e9d6360e01b1480610658575061065882611c1f565b6000818152600260205260409020546001600160a01b0316610adc5760405162461bcd60e51b8152602060048201526018602482015277115490cdcc8c4e881a5b9d985b1a59081d1bdad95b88125160421b604482015260640161078b565b600081815260046020526040902080546001600160a01b0319166001600160a01b03841690811790915581906116ed82610bd3565b6001600160a01b03167f8c5be1e5ebec7d5bd14f71427d1e84f3dd0314c0f7b2291e5b200ac8c7c3b92560405160405180910390a45050565b60008061173283610bd3565b9050806001600160a01b0316846001600160a01b0316148061177957506001600160a01b0380821660009081526005602090815260408083209388168352929052205460ff165b8061179d5750836001600160a01b0316611792846106f0565b6001600160a01b0316145b949350505050565b826001600160a01b03166117b882610bd3565b6001600160a01b0316146117de5760405162461bcd60e51b815260040161078b90612b4f565b6001600160a01b0382166118405760405162461bcd60e51b8152602060048201526024808201527f4552433732313a207472616e7366657220746f20746865207a65726f206164646044820152637265737360e01b606482015260840161078b565b61184d8383836001611c6f565b826001600160a01b031661186082610bd3565b6001600160a01b0316146118865760405162461bcd60e51b815260040161078b90612b4f565b600081815260046020908152604080832080546001600160a01b03199081169091556001600160a01b0387811680865260038552838620805460001901905590871680865283862080546001019055868652600290945282852080549092168417909155905184937fddf252ad1be2c89b69c2b068fc378daa952ba7f163c4a11628f55a4df523b3ef91a4505050565b600061192182610bd3565b9050611931816000846001611c6f565b61193a82610bd3565b600083815260046020908152604080832080546001600160a01b03199081169091556001600160a01b0385168085526003845282852080546000190190558785526002909352818420805490911690555192935084927fddf252ad1be2c89b69c2b068fc378daa952ba7f163c4a11628f55a4df523b3ef908390a45050565b600a80546001600160a01b038381166001600160a01b0319831681179093556040519116919082907f8be0079c531659141344cd1fd0a4f28419497f9722a3daafe3b4186f6b6457e090600090a35050565b6002600b5403611a5d5760405162461bcd60e51b815260206004820152601f60248201527f5265656e7472616e637947756172643a207265656e7472616e742063616c6c00604482015260640161078b565b6002600b55565b610bcf828260405180602001604052806000815250611c7b565b816001600160a01b0316836001600160a01b031603611adf5760405162461bcd60e51b815260206004820152601960248201527f4552433732313a20617070726f766520746f2063616c6c657200000000000000604482015260640161078b565b6001600160a01b03838116600081815260056020908152604080832094871680845294825291829020805460ff191686151590811790915591519182527f17307eab39ab6107e8899845ad3d59bd9653f200f220920489ca2b5937696c31910160405180910390a3505050565b611b578484846117a5565b611b6384848484611cae565b61145e5760405162461bcd60e51b815260040161078b90612b94565b60606014805461066d90612838565b60606000611b9b83611daf565b600101905060008167ffffffffffffffff811115611bbb57611bbb612521565b6040519080825280601f01601f191660200182016040528015611be5576020820181803683370190505b5090508181016020015b600019016f181899199a1a9b1b9c1cb0b131b232b360811b600a86061a8153600a850494508415610d0357611bef565b60006001600160e01b031982166380ac58cd60e01b1480611c5057506001600160e01b03198216635b5e139f60e01b145b8061065857506301ffc9a760e01b6001600160e01b0319831614610658565b61145e84848484611e87565b611c858383611fc0565b611c926000848484611cae565b61082c5760405162461bcd60e51b815260040161078b90612b94565b60006001600160a01b0384163b15611da457604051630a85bd0160e11b81526001600160a01b0385169063150b7a0290611cf2903390899088908890600401612be6565b6020604051808303816000875af1925050508015611d2d575060408051601f3d908101601f19168201909252611d2a91810190612c19565b60015b611d8a573d808015611d5b576040519150601f19603f3d011682016040523d82523d6000602084013e611d60565b606091505b508051600003611d825760405162461bcd60e51b815260040161078b90612b94565b805181602001fd5b6001600160e01b031916630a85bd0160e11b14905061179d565b506001949350505050565b60008072184f03e93ff9f4daa797ed6e38ed64bf6a1f0160401b8310611dee5772184f03e93ff9f4daa797ed6e38ed64bf6a1f0160401b830492506040015b6d04ee2d6d415b85acef81000000008310611e1a576d04ee2d6d415b85acef8100000000830492506020015b662386f26fc100008310611e3857662386f26fc10000830492506010015b6305f5e1008310611e50576305f5e100830492506008015b6127108310611e6457612710830492506004015b60648310611e76576064830492506002015b600a83106106585760010192915050565b611e9384848484612159565b6001811115611f025760405162461bcd60e51b815260206004820152603560248201527f455243373231456e756d657261626c653a20636f6e7365637574697665207472604482015274185b9cd9995c9cc81b9bdd081cdd5c1c1bdc9d1959605a1b606482015260840161078b565b816001600160a01b038516611f5e57611f5981600880546000838152600960205260408120829055600182018355919091527ff3f7a9fe364faab93b216da50a3214154f22a0a2b415b23a84c8169e8b636ee30155565b611f81565b836001600160a01b0316856001600160a01b031614611f8157611f8185826121e1565b6001600160a01b038416611f9d57611f988161227e565b6112e1565b846001600160a01b0316846001600160a01b0316146112e1576112e1848261232d565b6001600160a01b0382166120165760405162461bcd60e51b815260206004820181905260248201527f4552433732313a206d696e7420746f20746865207a65726f2061646472657373604482015260640161078b565b6000818152600260205260409020546001600160a01b03161561207b5760405162461bcd60e51b815260206004820152601c60248201527f4552433732313a20746f6b656e20616c7265616479206d696e74656400000000604482015260640161078b565b612089600083836001611c6f565b6000818152600260205260409020546001600160a01b0316156120ee5760405162461bcd60e51b815260206004820152601c60248201527f4552433732313a20746f6b656e20616c7265616479206d696e74656400000000604482015260640161078b565b6001600160a01b038216600081815260036020908152604080832080546001019055848352600290915280822080546001600160a01b0319168417905551839291907fddf252ad1be2c89b69c2b068fc378daa952ba7f163c4a11628f55a4df523b3ef908290a45050565b600181111561145e576001600160a01b0384161561219f576001600160a01b03841660009081526003602052604081208054839290612199908490612c36565b90915550505b6001600160a01b0383161561145e576001600160a01b038316600090815260036020526040812080548392906121d6908490612c49565b909155505050505050565b600060016121ee84610c40565b6121f89190612c36565b60008381526007602052604090205490915080821461224b576001600160a01b03841660009081526006602090815260408083208584528252808320548484528184208190558352600790915290208190555b5060009182526007602090815260408084208490556001600160a01b039094168352600681528383209183525290812055565b60085460009061229090600190612c36565b600083815260096020526040812054600880549394509092849081106122b8576122b86128b9565b9060005260206000200154905080600883815481106122d9576122d96128b9565b600091825260208083209091019290925582815260099091526040808220849055858252812055600880548061231157612311612c5c565b6001900381819060005260206000200160009055905550505050565b600061233883610c40565b6001600160a01b039093166000908152600660209081526040808320868452825280832085905593825260079052919091209190915550565b6001600160a01b0381168114610adc57600080fd5b60006020828403121561239857600080fd5b81356114c481612371565b6001600160e01b031981168114610adc57600080fd5b6000602082840312156123cb57600080fd5b81356114c4816123a3565b60005b838110156123f15781810151838201526020016123d9565b50506000910152565b600081518084526124128160208601602086016123d6565b601f01601f19169290920160200192915050565b6020815260006114c460208301846123fa565b60006020828403121561244b57600080fd5b5035919050565b6000806040838503121561246557600080fd5b823561247081612371565b946020939093013593505050565b6000602080830181845280855180835260408601915060408160051b870101925083870160005b828110156124d357603f198886030184526124c18583516123fa565b945092850192908501906001016124a5565b5092979650505050505050565b6000806000606084860312156124f557600080fd5b833561250081612371565b9250602084013561251081612371565b929592945050506040919091013590565b634e487b7160e01b600052604160045260246000fd5b600067ffffffffffffffff8084111561255257612552612521565b604051601f8501601f19908116603f0116810190828211818310171561257a5761257a612521565b8160405280935085815286868601111561259357600080fd5b858560208301376000602087830101525050509392505050565b6000602082840312156125bf57600080fd5b813567ffffffffffffffff8111156125d657600080fd5b8201601f810184136125e757600080fd5b61179d84823560208401612537565b6020808252825182820181905260009190848201906040850190845b8181101561262e57835183529284019291840191600101612612565b50909695505050505050565b6020808252825182820181905260009190848201906040850190845b8181101561262e5783516001600160a01b031683529284019291840191600101612656565b600080600080600060a0868803121561269357600080fd5b853561269e81612371565b945060208601359350604086013592506060860135915060808601356126c381612371565b809150509295509295909350565b600060018060a01b03808916835287602084015286604084015260c060608401526126ff60c08401876123fa565b94811660808401529290921660a09091015250949350505050565b8035801515811461272a57600080fd5b919050565b6000806040838503121561274257600080fd5b823561274d81612371565b915061275b6020840161271a565b90509250929050565b6000806000806080858703121561277a57600080fd5b843561278581612371565b9350602085013561279581612371565b925060408501359150606085013567ffffffffffffffff8111156127b857600080fd5b8501601f810187136127c957600080fd5b6127d887823560208401612537565b91505092959194509250565b600080604083850312156127f757600080fd5b823561280281612371565b9150602083013561281281612371565b809150509250929050565b60006020828403121561282f57600080fd5b6114c48261271a565b600181811c9082168061284c57607f821691505b602082108103610d9657634e487b7160e01b600052602260045260246000fd5b6020808252602d908201527f4552433732313a2063616c6c6572206973206e6f7420746f6b656e206f776e6560408201526c1c881bdc88185c1c1c9bdd9959609a1b606082015260800190565b634e487b7160e01b600052603260045260246000fd5b601f82111561082c57600081815260208120601f850160051c810160208610156128f65750805b601f850160051c820191505b8181101561291557828155600101612902565b505050505050565b815167ffffffffffffffff81111561293757612937612521565b61294b816129458454612838565b846128cf565b602080601f83116001811461298057600084156129685750858301515b600019600386901b1c1916600185901b178555612915565b600085815260208120601f198616915b828110156129af57888601518255948401946001909101908401612990565b50858210156129cd5787850151600019600388901b60f8161c191681555b5050505050600190811b01905550565b634e487b7160e01b600052601160045260246000fd5b600060018201612a0557612a056129dd565b5060010190565b600060208284031215612a1e57600080fd5b81516114c481612371565b600060208284031215612a3b57600080fd5b5051919050565b6000602080835260018060a01b03845416818401526001808501546040850152600285015460608501526003850160c0608086015260008154612a8481612838565b8060e089015261010085831660008114612aa55760018114612abf57612aed565b60ff1984168a83015282151560051b8a0182019450612aed565b856000528760002060005b84811015612ae55781548c8201850152908801908901612aca565b8b0183019550505b5050505060048701546001600160a01b0390811660a088015260058801541660c0870181905293505b9695505050505050565b60008351612b328184602088016123d6565b835190830190612b468183602088016123d6565b01949350505050565b60208082526025908201527f4552433732313a207472616e736665722066726f6d20696e636f72726563742060408201526437bbb732b960d91b606082015260800190565b60208082526032908201527f4552433732313a207472616e7366657220746f206e6f6e20455243373231526560408201527131b2b4bb32b91034b6b83632b6b2b73a32b960711b606082015260800190565b6001600160a01b0385811682528416602082015260408101839052608060608201819052600090612b16908301846123fa565b600060208284031215612c2b57600080fd5b81516114c4816123a3565b81810381811115610658576106586129dd565b80820180821115610658576106586129dd565b634e487b7160e01b600052603160045260246000fdfea2646970667358221220ebda4d758304965d516efbf0d2967c6d9f7143aea2d1f450d182d7415139396764736f6c63430008110033486170707920486f6c6964617973212045617420706c656e7479206f66204a656c6c7920446f6e757473214d617920796f757220486f6c69646179732062652066756c6c206f6620216d61676963",
    "linkReferences": {}
  },
  "methodIdentifiers": {
    "approve(address,uint256)": "095ea7b3",
    "artworkAddress()": "fa6c9cb3",
    "availableMessages()": "1324111b",
    "balanceOf(address)": "70a08231",
    "baseURI()": "6c0360eb",
    "beastsAddress()": "0113c93a",
    "burn(uint256)": "42966c68",
    "cards(uint256)": "8dc10768",
    "getApproved(uint256)": "081812fc",
    "isApprovedForAll(address,address)": "e985e9c5",
    "messages(uint256)": "0d80fefd",
    "mint(address,uint256,uint256,uint256,address)": "8cb75cad",
    "mintEnabled()": "d1239730",
    "name()": "06fdde03",
    "owner()": "8da5cb5b",
    "ownerOf(uint256)": "6352211e",
    "poniesAddress()": "8de87e4d",
    "renounceOwnership()": "715018a6",
    "safeTransferFrom(address,address,uint256)": "42842e0e",
    "safeTransferFrom(address,address,uint256,bytes)": "b88d4fde",
    "setApprovalForAll(address,bool)": "a22cb465",
    "setArtworkAddress(address)": "ec8e1e13",
    "setBaseURI(string)": "55f804b3",
    "setBeastsAddress(address)": "99af4f1e",
    "setMintEnabled(bool)": "f46a04eb",
    "setPoniesAddress(address)": "aa5f37a3",
    "setSoulsAddress(address)": "2a0f9d34",
    "setSpawnAddress(address)": "df86078a",
    "setWarriorsAddress(address)": "01b87a12",
    "setWizardsAddress(address)": "fc6b0bc8",
    "soulsAddress()": "d281d63d",
    "spawnAddress()": "c10c32b2",
    "supportedContracts()": "8bb4db27",
    "supportsInterface(bytes4)": "01ffc9a7",
    "symbol()": "95d89b41",
    "tokenByIndex(uint256)": "4f6ccce7",
    "tokenOfOwnerByIndex(address,uint256)": "2f745c59",
    "tokenURI(uint256)": "c87b56dd",
    "tokensOfOwner(address)": "8462151c",
    "totalSupply()": "18160ddd",
    "transferFrom(address,address,uint256)": "23b872dd",
    "transferOwnership(address)": "f2fde38b",
    "warriorsAddress()": "60e06b1d",
    "withdraw()": "3ccfd60b",
    "wizardsAddress()": "10de9062"
  },
  "id": 38
}