{
  "abi": [
    {
      "inputs": [
        {
          "internalType": "address",
          "name": "_artworkAddress",
          "type": "address"
        },
        {
          "internalType": "uint256",
          "name": "_numArtworkTypes",
          "type": "uint256"
        }
      ],
      "stateMutability": "nonpayable",
      "type": "constructor"
    },
    {
      "anonymous": false,
      "inputs": [
        {
          "indexed": true,
          "internalType": "address",
          "name": "previousOwner",
          "type": "address"
        },
        {
          "indexed": true,
          "internalType": "address",
          "name": "newOwner",
          "type": "address"
        }
      ],
      "name": "OwnershipTransferred",
      "type": "event"
    },
    {
      "anonymous": false,
      "inputs": [
        {
          "indexed": false,
          "internalType": "address",
          "name": "minter",
          "type": "address"
        },
        {
          "indexed": false,
          "internalType": "uint256",
          "name": "artworkType",
          "type": "uint256"
        }
      ],
      "name": "WizzmasArtworkMinted",
      "type": "event"
    },
    {
      "inputs": [],
      "name": "MAX_SUPPLY",
      "outputs": [
        {
          "internalType": "uint256",
          "name": "",
          "type": "uint256"
        }
      ],
      "stateMutability": "view",
      "type": "function"
    },
    {
      "inputs": [],
      "name": "freeMintsPerAddress",
      "outputs": [
        {
          "internalType": "uint256",
          "name": "",
          "type": "uint256"
        }
      ],
      "stateMutability": "view",
      "type": "function"
    },
    {
      "inputs": [
        {
          "internalType": "uint256",
          "name": "artworkType",
          "type": "uint256"
        }
      ],
      "name": "mint",
      "outputs": [],
      "stateMutability": "payable",
      "type": "function"
    },
    {
      "inputs": [],
      "name": "mintEnabled",
      "outputs": [
        {
          "internalType": "bool",
          "name": "",
          "type": "bool"
        }
      ],
      "stateMutability": "view",
      "type": "function"
    },
    {
      "inputs": [],
      "name": "mintPrice",
      "outputs": [
        {
          "internalType": "uint256",
          "name": "",
          "type": "uint256"
        }
      ],
      "stateMutability": "view",
      "type": "function"
    },
    {
      "inputs": [
        {
          "internalType": "address",
          "name": "",
          "type": "address"
        }
      ],
      "name": "minted",
      "outputs": [
        {
          "internalType": "uint256",
          "name": "",
          "type": "uint256"
        }
      ],
      "stateMutability": "view",
      "type": "function"
    },
    {
      "inputs": [],
      "name": "numArtworkTypes",
      "outputs": [
        {
          "internalType": "uint256",
          "name": "",
          "type": "uint256"
        }
      ],
      "stateMutability": "view",
      "type": "function"
    },
    {
      "inputs": [],
      "name": "owner",
      "outputs": [
        {
          "internalType": "address",
          "name": "",
          "type": "address"
        }
      ],
      "stateMutability": "view",
      "type": "function"
    },
    {
      "inputs": [],
      "name": "renounceOwnership",
      "outputs": [],
      "stateMutability": "nonpayable",
      "type": "function"
    },
    {
      "inputs": [
        {
          "internalType": "uint256",
          "name": "_numMints",
          "type": "uint256"
        }
      ],
      "name": "setFreeMintsPerAddress",
      "outputs": [],
      "stateMutability": "nonpayable",
      "type": "function"
    },
    {
      "inputs": [
        {
          "internalType": "bool",
          "name": "_newMintEnabled",
          "type": "bool"
        }
      ],
      "name": "setMintEnabled",
      "outputs": [],
      "stateMutability": "nonpayable",
      "type": "function"
    },
    {
      "inputs": [
        {
          "internalType": "uint256",
          "name": "_newMintPrice",
          "type": "uint256"
        }
      ],
      "name": "setMintPrice",
      "outputs": [],
      "stateMutability": "nonpayable",
      "type": "function"
    },
    {
      "inputs": [
        {
          "internalType": "uint256",
          "name": "_artworkTypeMax",
          "type": "uint256"
        }
      ],
      "name": "setNumArtworkTypes",
      "outputs": [],
      "stateMutability": "nonpayable",
      "type": "function"
    },
    {
      "inputs": [
        {
          "internalType": "address",
          "name": "newOwner",
          "type": "address"
        }
      ],
      "name": "transferOwnership",
      "outputs": [],
      "stateMutability": "nonpayable",
      "type": "function"
    },
    {
      "inputs": [],
      "name": "withdraw",
      "outputs": [],
      "stateMutability": "nonpayable",
      "type": "function"
    },
    {
      "inputs": [],
      "name": "wizzmasArtworkAddress",
      "outputs": [
        {
          "internalType": "address",
          "name": "",
          "type": "address"
        }
      ],
      "stateMutability": "view",
      "type": "function"
    }
  ],
  "bytecode": {
    "object": "0x60806040526002805460ff60a01b19169055662386f26fc10000600355600160045534801561002d57600080fd5b506040516109c03803806109c083398101604081905261004c916100d2565b61005533610082565b60018055600280546001600160a01b0319166001600160a01b03939093169290921790915560065561010c565b600080546001600160a01b038381166001600160a01b0319831681178455604051919092169283917f8be0079c531659141344cd1fd0a4f28419497f9722a3daafe3b4186f6b6457e09190a35050565b600080604083850312156100e557600080fd5b82516001600160a01b03811681146100fc57600080fd5b6020939093015192949293505050565b6108a58061011b6000396000f3fe6080604052600436106100f35760003560e01c8063715018a61161008a578063d123973011610059578063d123973014610265578063f2fde38b14610296578063f46a04eb146102b6578063f4a0a528146102d657600080fd5b8063715018a6146102095780638da5cb5b1461021e5780639d27861b1461023c578063a0712d681461025257600080fd5b80635972bab1116100c65780635972bab11461019d5780635fe8b91c146101bd57806361b5218e146101dd5780636817c76c146101f357600080fd5b80631e7269c5146100f857806332cb6b0c146101385780633b94730d1461014e5780633ccfd60b14610186575b600080fd5b34801561010457600080fd5b506101256101133660046107c4565b60056020526000908152604090205481565b6040519081526020015b60405180910390f35b34801561014457600080fd5b506101256103e881565b34801561015a57600080fd5b5060025461016e906001600160a01b031681565b6040516001600160a01b03909116815260200161012f565b34801561019257600080fd5b5061019b6102f6565b005b3480156101a957600080fd5b5061019b6101b83660046107f4565b61032d565b3480156101c957600080fd5b5061019b6101d83660046107f4565b61033a565b3480156101e957600080fd5b5061012560045481565b3480156101ff57600080fd5b5061012560035481565b34801561021557600080fd5b5061019b610347565b34801561022a57600080fd5b506000546001600160a01b031661016e565b34801561024857600080fd5b5061012560065481565b61019b6102603660046107f4565b61035b565b34801561027157600080fd5b5060025461028690600160a01b900460ff1681565b604051901515815260200161012f565b3480156102a257600080fd5b5061019b6102b13660046107c4565b610618565b3480156102c257600080fd5b5061019b6102d136600461080d565b61068e565b3480156102e257600080fd5b5061019b6102f13660046107f4565b6106b4565b6102fe6106c1565b60405133904780156108fc02916000818181858888f1935050505015801561032a573d6000803e3d6000fd5b50565b6103356106c1565b600655565b6103426106c1565b600455565b61034f6106c1565b610359600061071b565b565b61036361076b565b6002546006546001600160a01b039091169082106103c15760405162461bcd60e51b8152602060048201526016602482015275494e434f52524543545f415254574f524b5f5459504560501b60448201526064015b60405180910390fd5b600254600160a01b900460ff166104085760405162461bcd60e51b815260206004820152600b60248201526a1352539517d0d313d4d15160aa1b60448201526064016103b8565b604051631349f5f960e11b8152600481018390526103e8906001600160a01b03831690632693ebf2906024016020604051808303816000875af1158015610453573d6000803e3d6000fd5b505050506040513d601f19601f82011682018060405250810190610477919061082f565b610482906001610848565b11156104bb5760405162461bcd60e51b815260206004820152600860248201526714d3d31117d3d55560c21b60448201526064016103b8565b6003543414806104db575060045433600090815260056020526040902054105b61051d5760405162461bcd60e51b8152602060048201526013602482015272494e434f52524543545f4554485f56414c554560681b60448201526064016103b8565b60405163731133e960e01b8152336004820152602481018390526001604482015260806064820152600060848201526001600160a01b0382169063731133e99060a401600060405180830381600087803b15801561057a57600080fd5b505af115801561058e573d6000803e3d6000fd5b5050505060016005600061059f3390565b6001600160a01b03166001600160a01b0316815260200190815260200160002060008282546105ce9190610848565b9091555050604080513381526020810184905281517fe3fc181133e3520fce038f5b45b0ea755afc3fa25d39af25879fb14dbdb74b7f929181900390910190a15061032a60018055565b6106206106c1565b6001600160a01b0381166106855760405162461bcd60e51b815260206004820152602660248201527f4f776e61626c653a206e6577206f776e657220697320746865207a65726f206160448201526564647265737360d01b60648201526084016103b8565b61032a8161071b565b6106966106c1565b60028054911515600160a01b0260ff60a01b19909216919091179055565b6106bc6106c1565b600355565b6000546001600160a01b031633146103595760405162461bcd60e51b815260206004820181905260248201527f4f776e61626c653a2063616c6c6572206973206e6f7420746865206f776e657260448201526064016103b8565b600080546001600160a01b038381166001600160a01b0319831681178455604051919092169283917f8be0079c531659141344cd1fd0a4f28419497f9722a3daafe3b4186f6b6457e09190a35050565b6002600154036107bd5760405162461bcd60e51b815260206004820152601f60248201527f5265656e7472616e637947756172643a207265656e7472616e742063616c6c0060448201526064016103b8565b6002600155565b6000602082840312156107d657600080fd5b81356001600160a01b03811681146107ed57600080fd5b9392505050565b60006020828403121561080657600080fd5b5035919050565b60006020828403121561081f57600080fd5b813580151581146107ed57600080fd5b60006020828403121561084157600080fd5b5051919050565b8082018082111561086957634e487b7160e01b600052601160045260246000fd5b9291505056fea26469706673582212200c85a3ae78748ff889fc42ca1730ef236de57259d230a241d0f4115fb8bbe73864736f6c63430008110033",
    "linkReferences": {}
  },
  "methodIdentifiers": {
    "MAX_SUPPLY()": "32cb6b0c",
    "freeMintsPerAddress()": "61b5218e",
    "mint(uint256)": "a0712d68",
    "mintEnabled()": "d1239730",
    "mintPrice()": "6817c76c",
    "minted(address)": "1e7269c5",
    "numArtworkTypes()": "9d27861b",
    "owner()": "8da5cb5b",
    "renounceOwnership()": "715018a6",
    "setFreeMintsPerAddress(uint256)": "5fe8b91c",
    "setMintEnabled(bool)": "f46a04eb",
    "setMintPrice(uint256)": "f4a0a528",
    "setNumArtworkTypes(uint256)": "5972bab1",
    "transferOwnership(address)": "f2fde38b",
    "withdraw()": "3ccfd60b",
    "wizzmasArtworkAddress()": "3b94730d"
  },
  "id": 37
}