{
    "abi": [
        {
            "inputs": [
                {
                    "internalType": "address",
                    "name": "_artworkAddress",
                    "type": "address"
                },
                {
                    "internalType": "address",
                    "name": "_wizardsAddres",
                    "type": "address"
                },
                {
                    "internalType": "address",
                    "name": "_soulsAddress",
                    "type": "address"
                },
                {
                    "internalType": "address",
                    "name": "_warriorsAddress",
                    "type": "address"
                },
                {
                    "internalType": "address",
                    "name": "_poniesAddress",
                    "type": "address"
                },
                {
                    "internalType": "address",
                    "name": "_beastsAddress",
                    "type": "address"
                },
                {
                    "internalType": "address",
                    "name": "_spawnAddress",
                    "type": "address"
                },
                {
                    "internalType": "string",
                    "name": "_initialBaseURI",
                    "type": "string"
                }
            ],
            "stateMutability": "nonpayable",
            "type": "constructor"
        },
        {
            "anonymous": false,
            "inputs": [
                {
                    "indexed": true,
                    "internalType": "address",
                    "name": "owner",
                    "type": "address"
                },
                {
                    "indexed": true,
                    "internalType": "address",
                    "name": "approved",
                    "type": "address"
                },
                {
                    "indexed": true,
                    "internalType": "uint256",
                    "name": "tokenId",
                    "type": "uint256"
                }
            ],
            "name": "Approval",
            "type": "event"
        },
        {
            "anonymous": false,
            "inputs": [
                {
                    "indexed": true,
                    "internalType": "address",
                    "name": "owner",
                    "type": "address"
                },
                {
                    "indexed": true,
                    "internalType": "address",
                    "name": "operator",
                    "type": "address"
                },
                {
                    "indexed": false,
                    "internalType": "bool",
                    "name": "approved",
                    "type": "bool"
                }
            ],
            "name": "ApprovalForAll",
            "type": "event"
        },
        {
            "anonymous": false,
            "inputs": [
                {
                    "indexed": true,
                    "internalType": "address",
                    "name": "previousOwner",
                    "type": "address"
                },
                {
                    "indexed": true,
                    "internalType": "address",
                    "name": "newOwner",
                    "type": "address"
                }
            ],
            "name": "OwnershipTransferred",
            "type": "event"
        },
        {
            "anonymous": false,
            "inputs": [
                {
                    "indexed": true,
                    "internalType": "address",
                    "name": "from",
                    "type": "address"
                },
                {
                    "indexed": true,
                    "internalType": "address",
                    "name": "to",
                    "type": "address"
                },
                {
                    "indexed": true,
                    "internalType": "uint256",
                    "name": "tokenId",
                    "type": "uint256"
                }
            ],
            "name": "Transfer",
            "type": "event"
        },
        {
            "anonymous": false,
            "inputs": [
                {
                    "components": [
                        {
                            "internalType": "address",
                            "name": "tokenContract",
                            "type": "address"
                        },
                        {
                            "internalType": "uint256",
                            "name": "token",
                            "type": "uint256"
                        },
                        {
                            "internalType": "uint256",
                            "name": "artwork",
                            "type": "uint256"
                        },
                        {
                            "internalType": "string",
                            "name": "message",
                            "type": "string"
                        },
                        {
                            "internalType": "address",
                            "name": "sender",
                            "type": "address"
                        },
                        {
                            "internalType": "address",
                            "name": "recipient",
                            "type": "address"
                        }
                    ],
                    "indexed": false,
                    "internalType": "struct WizzmasCard.Card",
                    "name": "data",
                    "type": "tuple"
                }
            ],
            "name": "WizzmasCardMinted",
            "type": "event"
        },
        {
            "inputs": [
                {
                    "internalType": "address",
                    "name": "to",
                    "type": "address"
                },
                {
                    "internalType": "uint256",
                    "name": "tokenId",
                    "type": "uint256"
                }
            ],
            "name": "approve",
            "outputs": [],
            "stateMutability": "nonpayable",
            "type": "function"
        },
        {
            "inputs": [],
            "name": "artworkAddress",
            "outputs": [
                {
                    "internalType": "address",
                    "name": "",
                    "type": "address"
                }
            ],
            "stateMutability": "view",
            "type": "function"
        },
        {
            "inputs": [
                {
                    "internalType": "address",
                    "name": "owner",
                    "type": "address"
                }
            ],
            "name": "balanceOf",
            "outputs": [
                {
                    "internalType": "uint256",
                    "name": "",
                    "type": "uint256"
                }
            ],
            "stateMutability": "view",
            "type": "function"
        },
        {
            "inputs": [],
            "name": "baseURI",
            "outputs": [
                {
                    "internalType": "string",
                    "name": "",
                    "type": "string"
                }
            ],
            "stateMutability": "view",
            "type": "function"
        },
        {
            "inputs": [],
            "name": "beastsAddress",
            "outputs": [
                {
                    "internalType": "address",
                    "name": "",
                    "type": "address"
                }
            ],
            "stateMutability": "view",
            "type": "function"
        },
        {
            "inputs": [
                {
                    "internalType": "uint256",
                    "name": "tokenId",
                    "type": "uint256"
                }
            ],
            "name": "burn",
            "outputs": [],
            "stateMutability": "nonpayable",
            "type": "function"
        },
        {
            "inputs": [
                {
                    "internalType": "uint256",
                    "name": "",
                    "type": "uint256"
                }
            ],
            "name": "cards",
            "outputs": [
                {
                    "internalType": "address",
                    "name": "tokenContract",
                    "type": "address"
                },
                {
                    "internalType": "uint256",
                    "name": "token",
                    "type": "uint256"
                },
                {
                    "internalType": "uint256",
                    "name": "artwork",
                    "type": "uint256"
                },
                {
                    "internalType": "string",
                    "name": "message",
                    "type": "string"
                },
                {
                    "internalType": "address",
                    "name": "sender",
                    "type": "address"
                },
                {
                    "internalType": "address",
                    "name": "recipient",
                    "type": "address"
                }
            ],
            "stateMutability": "view",
            "type": "function"
        },
        {
            "inputs": [
                {
                    "internalType": "uint256",
                    "name": "tokenId",
                    "type": "uint256"
                }
            ],
            "name": "getApproved",
            "outputs": [
                {
                    "internalType": "address",
                    "name": "",
                    "type": "address"
                }
            ],
            "stateMutability": "view",
            "type": "function"
        },
        {
            "inputs": [
                {
                    "internalType": "address",
                    "name": "owner",
                    "type": "address"
                },
                {
                    "internalType": "address",
                    "name": "operator",
                    "type": "address"
                }
            ],
            "name": "isApprovedForAll",
            "outputs": [
                {
                    "internalType": "bool",
                    "name": "",
                    "type": "bool"
                }
            ],
            "stateMutability": "view",
            "type": "function"
        },
        {
            "inputs": [
                {
                    "internalType": "uint256",
                    "name": "",
                    "type": "uint256"
                }
            ],
            "name": "messages",
            "outputs": [
                {
                    "internalType": "string",
                    "name": "",
                    "type": "string"
                }
            ],
            "stateMutability": "view",
            "type": "function"
        },
        {
            "inputs": [
                {
                    "internalType": "address",
                    "name": "_tokenContract",
                    "type": "address"
                },
                {
                    "internalType": "uint256",
                    "name": "_tokenId",
                    "type": "uint256"
                },
                {
                    "internalType": "uint256",
                    "name": "_artworkId",
                    "type": "uint256"
                },
                {
                    "internalType": "uint256",
                    "name": "_messageId",
                    "type": "uint256"
                },
                {
                    "internalType": "address",
                    "name": "_recipient",
                    "type": "address"
                }
            ],
            "name": "mint",
            "outputs": [],
            "stateMutability": "nonpayable",
            "type": "function"
        },
        {
            "inputs": [],
            "name": "mintEnabled",
            "outputs": [
                {
                    "internalType": "bool",
                    "name": "",
                    "type": "bool"
                }
            ],
            "stateMutability": "view",
            "type": "function"
        },
        {
            "inputs": [],
            "name": "name",
            "outputs": [
                {
                    "internalType": "string",
                    "name": "",
                    "type": "string"
                }
            ],
            "stateMutability": "view",
            "type": "function"
        },
        {
            "inputs": [],
            "name": "owner",
            "outputs": [
                {
                    "internalType": "address",
                    "name": "",
                    "type": "address"
                }
            ],
            "stateMutability": "view",
            "type": "function"
        },
        {
            "inputs": [
                {
                    "internalType": "uint256",
                    "name": "tokenId",
                    "type": "uint256"
                }
            ],
            "name": "ownerOf",
            "outputs": [
                {
                    "internalType": "address",
                    "name": "",
                    "type": "address"
                }
            ],
            "stateMutability": "view",
            "type": "function"
        },
        {
            "inputs": [],
            "name": "poniesAddress",
            "outputs": [
                {
                    "internalType": "address",
                    "name": "",
                    "type": "address"
                }
            ],
            "stateMutability": "view",
            "type": "function"
        },
        {
            "inputs": [],
            "name": "renounceOwnership",
            "outputs": [],
            "stateMutability": "nonpayable",
            "type": "function"
        },
        {
            "inputs": [
                {
                    "internalType": "address",
                    "name": "from",
                    "type": "address"
                },
                {
                    "internalType": "address",
                    "name": "to",
                    "type": "address"
                },
                {
                    "internalType": "uint256",
                    "name": "tokenId",
                    "type": "uint256"
                }
            ],
            "name": "safeTransferFrom",
            "outputs": [],
            "stateMutability": "nonpayable",
            "type": "function"
        },
        {
            "inputs": [
                {
                    "internalType": "address",
                    "name": "from",
                    "type": "address"
                },
                {
                    "internalType": "address",
                    "name": "to",
                    "type": "address"
                },
                {
                    "internalType": "uint256",
                    "name": "tokenId",
                    "type": "uint256"
                },
                {
                    "internalType": "bytes",
                    "name": "data",
                    "type": "bytes"
                }
            ],
            "name": "safeTransferFrom",
            "outputs": [],
            "stateMutability": "nonpayable",
            "type": "function"
        },
        {
            "inputs": [
                {
                    "internalType": "address",
                    "name": "operator",
                    "type": "address"
                },
                {
                    "internalType": "bool",
                    "name": "approved",
                    "type": "bool"
                }
            ],
            "name": "setApprovalForAll",
            "outputs": [],
            "stateMutability": "nonpayable",
            "type": "function"
        },
        {
            "inputs": [
                {
                    "internalType": "address",
                    "name": "_address",
                    "type": "address"
                }
            ],
            "name": "setArtworkAddress",
            "outputs": [],
            "stateMutability": "nonpayable",
            "type": "function"
        },
        {
            "inputs": [
                {
                    "internalType": "string",
                    "name": "_newBaseURI",
                    "type": "string"
                }
            ],
            "name": "setBaseURI",
            "outputs": [],
            "stateMutability": "nonpayable",
            "type": "function"
        },
        {
            "inputs": [
                {
                    "internalType": "address",
                    "name": "_address",
                    "type": "address"
                }
            ],
            "name": "setBeastsAddress",
            "outputs": [],
            "stateMutability": "nonpayable",
            "type": "function"
        },
        {
            "inputs": [
                {
                    "internalType": "bool",
                    "name": "_newMintEnabled",
                    "type": "bool"
                }
            ],
            "name": "setMintEnabled",
            "outputs": [],
            "stateMutability": "nonpayable",
            "type": "function"
        },
        {
            "inputs": [
                {
                    "internalType": "address",
                    "name": "_address",
                    "type": "address"
                }
            ],
            "name": "setPoniesAddress",
            "outputs": [],
            "stateMutability": "nonpayable",
            "type": "function"
        },
        {
            "inputs": [
                {
                    "internalType": "address",
                    "name": "_address",
                    "type": "address"
                }
            ],
            "name": "setSoulsAddress",
            "outputs": [],
            "stateMutability": "nonpayable",
            "type": "function"
        },
        {
            "inputs": [
                {
                    "internalType": "address",
                    "name": "_address",
                    "type": "address"
                }
            ],
            "name": "setSpawnAddress",
            "outputs": [],
            "stateMutability": "nonpayable",
            "type": "function"
        },
        {
            "inputs": [
                {
                    "internalType": "address",
                    "name": "_address",
                    "type": "address"
                }
            ],
            "name": "setWarriorsAddress",
            "outputs": [],
            "stateMutability": "nonpayable",
            "type": "function"
        },
        {
            "inputs": [
                {
                    "internalType": "address",
                    "name": "_address",
                    "type": "address"
                }
            ],
            "name": "setWizardsAddress",
            "outputs": [],
            "stateMutability": "nonpayable",
            "type": "function"
        },
        {
            "inputs": [],
            "name": "soulsAddress",
            "outputs": [
                {
                    "internalType": "address",
                    "name": "",
                    "type": "address"
                }
            ],
            "stateMutability": "view",
            "type": "function"
        },
        {
            "inputs": [],
            "name": "spawnAddress",
            "outputs": [
                {
                    "internalType": "address",
                    "name": "",
                    "type": "address"
                }
            ],
            "stateMutability": "view",
            "type": "function"
        },
        {
            "inputs": [
                {
                    "internalType": "uint256",
                    "name": "",
                    "type": "uint256"
                }
            ],
            "name": "supportedContracts",
            "outputs": [
                {
                    "internalType": "address",
                    "name": "",
                    "type": "address"
                }
            ],
            "stateMutability": "view",
            "type": "function"
        },
        {
            "inputs": [
                {
                    "internalType": "bytes4",
                    "name": "interfaceId",
                    "type": "bytes4"
                }
            ],
            "name": "supportsInterface",
            "outputs": [
                {
                    "internalType": "bool",
                    "name": "",
                    "type": "bool"
                }
            ],
            "stateMutability": "view",
            "type": "function"
        },
        {
            "inputs": [],
            "name": "symbol",
            "outputs": [
                {
                    "internalType": "string",
                    "name": "",
                    "type": "string"
                }
            ],
            "stateMutability": "view",
            "type": "function"
        },
        {
            "inputs": [
                {
                    "internalType": "uint256",
                    "name": "index",
                    "type": "uint256"
                }
            ],
            "name": "tokenByIndex",
            "outputs": [
                {
                    "internalType": "uint256",
                    "name": "",
                    "type": "uint256"
                }
            ],
            "stateMutability": "view",
            "type": "function"
        },
        {
            "inputs": [
                {
                    "internalType": "address",
                    "name": "owner",
                    "type": "address"
                },
                {
                    "internalType": "uint256",
                    "name": "index",
                    "type": "uint256"
                }
            ],
            "name": "tokenOfOwnerByIndex",
            "outputs": [
                {
                    "internalType": "uint256",
                    "name": "",
                    "type": "uint256"
                }
            ],
            "stateMutability": "view",
            "type": "function"
        },
        {
            "inputs": [
                {
                    "internalType": "uint256",
                    "name": "tokenId",
                    "type": "uint256"
                }
            ],
            "name": "tokenURI",
            "outputs": [
                {
                    "internalType": "string",
                    "name": "",
                    "type": "string"
                }
            ],
            "stateMutability": "view",
            "type": "function"
        },
        {
            "inputs": [
                {
                    "internalType": "address",
                    "name": "_owner",
                    "type": "address"
                }
            ],
            "name": "tokensOfOwner",
            "outputs": [
                {
                    "internalType": "uint256[]",
                    "name": "",
                    "type": "uint256[]"
                }
            ],
            "stateMutability": "view",
            "type": "function"
        },
        {
            "inputs": [],
            "name": "totalSupply",
            "outputs": [
                {
                    "internalType": "uint256",
                    "name": "",
                    "type": "uint256"
                }
            ],
            "stateMutability": "view",
            "type": "function"
        },
        {
            "inputs": [
                {
                    "internalType": "address",
                    "name": "from",
                    "type": "address"
                },
                {
                    "internalType": "address",
                    "name": "to",
                    "type": "address"
                },
                {
                    "internalType": "uint256",
                    "name": "tokenId",
                    "type": "uint256"
                }
            ],
            "name": "transferFrom",
            "outputs": [],
            "stateMutability": "nonpayable",
            "type": "function"
        },
        {
            "inputs": [
                {
                    "internalType": "address",
                    "name": "newOwner",
                    "type": "address"
                }
            ],
            "name": "transferOwnership",
            "outputs": [],
            "stateMutability": "nonpayable",
            "type": "function"
        },
        {
            "inputs": [],
            "name": "warriorsAddress",
            "outputs": [
                {
                    "internalType": "address",
                    "name": "",
                    "type": "address"
                }
            ],
            "stateMutability": "view",
            "type": "function"
        },
        {
            "inputs": [],
            "name": "withdraw",
            "outputs": [],
            "stateMutability": "nonpayable",
            "type": "function"
        },
        {
            "inputs": [],
            "name": "wizardsAddress",
            "outputs": [
                {
                    "internalType": "address",
                    "name": "",
                    "type": "address"
                }
            ],
            "stateMutability": "view",
            "type": "function"
        }
    ],
    "bytecode": {
        "object": "0x610140604052600d546001600160a01b039081166080908152600e54821660a052600f54821660c052601054821660e052601154821661010052601254909116610120526200005390601390600662000323565b506015805460ff191690556040805160c081018252601a608082019081527f4861766520612076657279204d657272792057697a7a6d61732100000000000060a083015281528151606081019092526023808352909160208084019290620032249083013981526020016040518060400160405280601681526020017f486f486f486f21204d657272792057697a7a6d6173210000000000000000000081525081526020016040518060600160405280602b8152602001620031f9602b91399052620001249060179060046200038d565b503480156200013257600080fd5b506040516200324738038062003247833981016040819052620001559162000493565b604080518082018252600b8082526a15da5e9e9b585cd0d85c9960aa1b60208084018290528451808601909552918452908301529060006200019883826200067a565b506001620001a782826200067a565b505050620001c4620001be6200025060201b60201c565b62000254565b6001600b55600c80546001600160a01b03199081166001600160a01b038b811691909117909255600d805482168a8416179055600e80548216898416179055600f80548216888416179055601080548216878416179055601180548216868416179055601280549091169184169190911790556200024281620002a6565b505050505050505062000746565b3390565b600a80546001600160a01b038381166001600160a01b0319831681179093556040519116919082907f8be0079c531659141344cd1fd0a4f28419497f9722a3daafe3b4186f6b6457e090600090a35050565b620002b0620002c2565b6014620002be82826200067a565b5050565b600a546001600160a01b03163314620003215760405162461bcd60e51b815260206004820181905260248201527f4f776e61626c653a2063616c6c6572206973206e6f7420746865206f776e6572604482015260640160405180910390fd5b565b8280548282559060005260206000209081019282156200037b579160200282015b828111156200037b57825182546001600160a01b0319166001600160a01b0390911617825560209092019160019091019062000344565b5062000389929150620003e6565b5090565b828054828255906000526020600020908101928215620003d8579160200282015b82811115620003d85782518290620003c790826200067a565b5091602001919060010190620003ae565b5062000389929150620003fd565b5b80821115620003895760008155600101620003e7565b80821115620003895760006200041482826200041e565b50600101620003fd565b5080546200042c90620005eb565b6000825580601f106200043d575050565b601f0160209004906000526020600020908101906200045d9190620003e6565b50565b80516001600160a01b03811681146200047857600080fd5b919050565b634e487b7160e01b600052604160045260246000fd5b600080600080600080600080610100898b031215620004b157600080fd5b620004bc8962000460565b97506020620004cd818b0162000460565b9750620004dd60408b0162000460565b9650620004ed60608b0162000460565b9550620004fd60808b0162000460565b94506200050d60a08b0162000460565b93506200051d60c08b0162000460565b60e08b01519093506001600160401b03808211156200053b57600080fd5b818c0191508c601f8301126200055057600080fd5b8151818111156200056557620005656200047d565b604051601f8201601f19908116603f011681019083821181831017156200059057620005906200047d565b816040528281528f86848701011115620005a957600080fd5b600093505b82841015620005cd5784840186015181850187015292850192620005ae565b60008684830101528096505050505050509295985092959890939650565b600181811c908216806200060057607f821691505b6020821081036200062157634e487b7160e01b600052602260045260246000fd5b50919050565b601f8211156200067557600081815260208120601f850160051c81016020861015620006505750805b601f850160051c820191505b8181101562000671578281556001016200065c565b5050505b505050565b81516001600160401b038111156200069657620006966200047d565b620006ae81620006a78454620005eb565b8462000627565b602080601f831160018114620006e65760008415620006cd5750858301515b600019600386901b1c1916600185901b17855562000671565b600085815260208120601f198616915b828110156200071757888601518255948401946001909101908401620006f6565b5085821015620007365787850151600019600388901b60f8161c191681555b5050505050600190811b01905550565b612aa380620007566000396000f3fe608060405234801561001057600080fd5b50600436106102745760003560e01c8063715018a611610151578063c10c32b2116100c3578063e985e9c511610087578063e985e9c514610566578063ec8e1e13146105a2578063f2fde38b146105b5578063f46a04eb146105c8578063fa6c9cb3146105db578063fc6b0bc8146105ee57600080fd5b8063c10c32b21461050d578063c87b56dd14610520578063d123973014610533578063d281d63d14610540578063df86078a1461055357600080fd5b80638de87e4d116101155780638de87e4d146104a657806395d89b41146104b957806399af4f1e146104c1578063a22cb465146104d4578063aa5f37a3146104e7578063b88d4fde146104fa57600080fd5b8063715018a6146104355780638462151c1461043d5780638cb75cad1461045d5780638da5cb5b146104705780638dc107681461048157600080fd5b80632f745c59116101ea5780634f6ccce7116101ae5780634f6ccce7146103ce57806355f804b3146103e157806360e06b1d146103f45780636352211e146104075780636c0360eb1461041a57806370a082311461042257600080fd5b80632f745c591461037a578063308640281461038d5780633ccfd60b146103a057806342842e0e146103a857806342966c68146103bb57600080fd5b8063095ea7b31161023c578063095ea7b3146103095780630d80fefd1461031c57806310de90621461032f57806318160ddd1461034257806323b872dd146103545780632a0f9d341461036757600080fd5b80630113c93a1461027957806301b87a12146102a957806301ffc9a7146102be57806306fdde03146102e1578063081812fc146102f6575b600080fd5b60115461028c906001600160a01b031681565b6040516001600160a01b0390911681526020015b60405180910390f35b6102bc6102b7366004612224565b610601565b005b6102d16102cc366004612257565b61062b565b60405190151581526020016102a0565b6102e961063c565b6040516102a091906122c4565b61028c6103043660046122d7565b6106ce565b6102bc6103173660046122f0565b6106f5565b6102e961032a3660046122d7565b61080f565b600d5461028c906001600160a01b031681565b6008545b6040519081526020016102a0565b6102bc61036236600461231c565b6108bb565b6102bc610375366004612224565b6108ed565b6103466103883660046122f0565b610917565b61028c61039b3660046122d7565b6109ad565b6102bc6109d7565b6102bc6103b636600461231c565b610a0e565b6102bc6103c93660046122d7565b610a29565b6103466103dc3660046122d7565b610a57565b6102bc6103ef3660046123e9565b610aea565b600f5461028c906001600160a01b031681565b61028c6104153660046122d7565b610b02565b6102e9610b62565b610346610430366004612224565b610b6f565b6102bc610bf5565b61045061044b366004612224565b610c09565b6040516102a09190612432565b6102bc61046b366004612476565b610ccb565b600a546001600160a01b031661028c565b61049461048f3660046122d7565b611186565b6040516102a0969594939291906124cc565b60105461028c906001600160a01b031681565b6102e961125c565b6102bc6104cf366004612224565b61126b565b6102bc6104e236600461252a565b611295565b6102bc6104f5366004612224565b6112a0565b6102bc61050836600461255f565b6112ca565b60125461028c906001600160a01b031681565b6102e961052e3660046122d7565b611302565b6015546102d19060ff1681565b600e5461028c906001600160a01b031681565b6102bc610561366004612224565b611369565b6102d16105743660046125df565b6001600160a01b03918216600090815260056020908152604080832093909416825291909152205460ff1690565b6102bc6105b0366004612224565b611393565b6102bc6105c3366004612224565b6113bd565b6102bc6105d6366004612618565b611433565b600c5461028c906001600160a01b031681565b6102bc6105fc366004612224565b61144e565b610609611478565b600f80546001600160a01b0319166001600160a01b0392909216919091179055565b6000610636826114d2565b92915050565b60606000805461064b90612633565b80601f016020809104026020016040519081016040528092919081815260200182805461067790612633565b80156106c45780601f10610699576101008083540402835291602001916106c4565b820191906000526020600020905b8154815290600101906020018083116106a757829003601f168201915b5050505050905090565b60006106d9826114f7565b506000908152600460205260409020546001600160a01b031690565b600061070082610b02565b9050806001600160a01b0316836001600160a01b0316036107725760405162461bcd60e51b815260206004820152602160248201527f4552433732313a20617070726f76616c20746f2063757272656e74206f776e656044820152603960f91b60648201526084015b60405180910390fd5b336001600160a01b038216148061078e575061078e8133610574565b6108005760405162461bcd60e51b815260206004820152603d60248201527f4552433732313a20617070726f76652063616c6c6572206973206e6f7420746f60448201527f6b656e206f776e6572206f7220617070726f76656420666f7220616c6c0000006064820152608401610769565b61080a8383611556565b505050565b6017818154811061081f57600080fd5b90600052602060002001600091509050805461083a90612633565b80601f016020809104026020016040519081016040528092919081815260200182805461086690612633565b80156108b35780601f10610888576101008083540402835291602001916108b3565b820191906000526020600020905b81548152906001019060200180831161089657829003601f168201915b505050505081565b6108c6335b826115c4565b6108e25760405162461bcd60e51b815260040161076990612667565b61080a838383611643565b6108f5611478565b600e80546001600160a01b0319166001600160a01b0392909216919091179055565b600061092283610b6f565b82106109845760405162461bcd60e51b815260206004820152602b60248201527f455243373231456e756d657261626c653a206f776e657220696e646578206f7560448201526a74206f6620626f756e647360a81b6064820152608401610769565b506001600160a01b03919091166000908152600660209081526040808320938352929052205490565b601381815481106109bd57600080fd5b6000918252602090912001546001600160a01b0316905081565b6109df611478565b60405133904780156108fc02916000818181858888f19350505050158015610a0b573d6000803e3d6000fd5b50565b61080a838383604051806020016040528060008152506112ca565b610a32336108c0565b610a4e5760405162461bcd60e51b815260040161076990612667565b610a0b816117b4565b6000610a6260085490565b8210610ac55760405162461bcd60e51b815260206004820152602c60248201527f455243373231456e756d657261626c653a20676c6f62616c20696e646578206f60448201526b7574206f6620626f756e647360a01b6064820152608401610769565b60088281548110610ad857610ad86126b4565b90600052602060002001549050919050565b610af2611478565b6014610afe8282612718565b5050565b6000818152600260205260408120546001600160a01b0316806106365760405162461bcd60e51b8152602060048201526018602482015277115490cdcc8c4e881a5b9d985b1a59081d1bdad95b88125160421b6044820152606401610769565b6014805461083a90612633565b60006001600160a01b038216610bd95760405162461bcd60e51b815260206004820152602960248201527f4552433732313a2061646472657373207a65726f206973206e6f7420612076616044820152683634b21037bbb732b960b91b6064820152608401610769565b506001600160a01b031660009081526003602052604090205490565b610bfd611478565b610c076000611857565b565b60606000610c1683610b6f565b905080600003610c3a5760408051600080825260208201909252905b509392505050565b60008167ffffffffffffffff811115610c5557610c5561235d565b604051908082528060200260200182016040528015610c7e578160200160208202803683370190505b50905060005b82811015610c3257610c968582610917565b828281518110610ca857610ca86126b4565b602090810291909101015280610cbd816127ee565b915050610c84565b50919050565b610cd36118a9565b60155460ff16610d135760405162461bcd60e51b815260206004820152600b60248201526a1352539517d0d313d4d15160aa1b6044820152606401610769565b6017548210610d565760405162461bcd60e51b815260206004820152600f60248201526e494e56414c49445f4d45535341474560881b6044820152606401610769565b6001600160a01b0381163303610d9d5760405162461bcd60e51b815260206004820152600c60248201526b29a2a7222faa27afa9a2a62360a11b6044820152606401610769565b600d546001600160a01b0386811691161480610dc65750600e546001600160a01b038681169116145b80610dde5750600f546001600160a01b038681169116145b80610df657506010546001600160a01b038681169116145b610e365760405162461bcd60e51b81526020600482015260116024820152702aa729aaa82827a92a22a22faa27a5a2a760791b6044820152606401610769565b336040516331a9108f60e11b8152600481018690526001600160a01b0391821691871690636352211e90602401602060405180830381865afa158015610e80573d6000803e3d6000fd5b505050506040513d601f19601f82011682018060405250810190610ea49190612807565b6001600160a01b031614610ee65760405162461bcd60e51b81526020600482015260096024820152682727aa2fa7aba722a960b91b6044820152606401610769565b600c546000906001600160a01b031662fdd58e336040516001600160e01b031960e084901b1681526001600160a01b03909116600482015260248101879052604401602060405180830381865afa158015610f45573d6000803e3d6000fd5b505050506040513d601f19601f82011682018060405250810190610f699190612824565b11610fa35760405162461bcd60e51b815260206004820152600a6024820152694e4f5f415254574f524b60b01b6044820152606401610769565b6000610fae60085490565b9050610fba8282611902565b6040518060c00160405280876001600160a01b0316815260200186815260200185815260200160178581548110610ff357610ff36126b4565b90600052602060002001805461100890612633565b80601f016020809104026020016040519081016040528092919081815260200182805461103490612633565b80156110815780601f1061105657610100808354040283529160200191611081565b820191906000526020600020905b81548152906001019060200180831161106457829003601f168201915b505050505081526020016110923390565b6001600160a01b039081168252848116602092830152600084815260168352604090819020845181546001600160a01b0319169316929092178255918301516001820155908201516002820155606082015160038201906110f39082612718565b5060808201516004820180546001600160a01b03199081166001600160a01b039384161790915560a0909301516005909201805490931691161790556000818152601660205260409081902090517feee21c301f227d8b72b720f449f8732042457abbf8cbdecb4c5bca51b47ae6d99161116c9161283d565b60405180910390a15061117f6001600b55565b5050505050565b60166020526000908152604090208054600182015460028301546003840180546001600160a01b039094169492939192916111c090612633565b80601f01602080910402602001604051908101604052809291908181526020018280546111ec90612633565b80156112395780601f1061120e57610100808354040283529160200191611239565b820191906000526020600020905b81548152906001019060200180831161121c57829003601f168201915b50505050600483015460059093015491926001600160a01b039081169216905086565b60606001805461064b90612633565b611273611478565b601180546001600160a01b0319166001600160a01b0392909216919091179055565b610afe33838361191c565b6112a8611478565b601080546001600160a01b0319166001600160a01b0392909216919091179055565b6112d433836115c4565b6112f05760405162461bcd60e51b815260040161076990612667565b6112fc848484846119ea565b50505050565b606061130d826114f7565b6000611317611a1d565b905060008151116113375760405180602001604052806000815250611362565b8061134184611a2c565b60405160200161135292919061291b565b6040516020818303038152906040525b9392505050565b611371611478565b601280546001600160a01b0319166001600160a01b0392909216919091179055565b61139b611478565b600c80546001600160a01b0319166001600160a01b0392909216919091179055565b6113c5611478565b6001600160a01b03811661142a5760405162461bcd60e51b815260206004820152602660248201527f4f776e61626c653a206e6577206f776e657220697320746865207a65726f206160448201526564647265737360d01b6064820152608401610769565b610a0b81611857565b61143b611478565b6015805460ff1916911515919091179055565b611456611478565b600d80546001600160a01b0319166001600160a01b0392909216919091179055565b600a546001600160a01b03163314610c075760405162461bcd60e51b815260206004820181905260248201527f4f776e61626c653a2063616c6c6572206973206e6f7420746865206f776e65726044820152606401610769565b60006001600160e01b0319821663780e9d6360e01b1480610636575061063682611abd565b6000818152600260205260409020546001600160a01b0316610a0b5760405162461bcd60e51b8152602060048201526018602482015277115490cdcc8c4e881a5b9d985b1a59081d1bdad95b88125160421b6044820152606401610769565b600081815260046020526040902080546001600160a01b0319166001600160a01b038416908117909155819061158b82610b02565b6001600160a01b03167f8c5be1e5ebec7d5bd14f71427d1e84f3dd0314c0f7b2291e5b200ac8c7c3b92560405160405180910390a45050565b6000806115d083610b02565b9050806001600160a01b0316846001600160a01b0316148061161757506001600160a01b0380821660009081526005602090815260408083209388168352929052205460ff165b8061163b5750836001600160a01b0316611630846106ce565b6001600160a01b0316145b949350505050565b826001600160a01b031661165682610b02565b6001600160a01b03161461167c5760405162461bcd60e51b81526004016107699061294a565b6001600160a01b0382166116de5760405162461bcd60e51b8152602060048201526024808201527f4552433732313a207472616e7366657220746f20746865207a65726f206164646044820152637265737360e01b6064820152608401610769565b6116eb8383836001611b0d565b826001600160a01b03166116fe82610b02565b6001600160a01b0316146117245760405162461bcd60e51b81526004016107699061294a565b600081815260046020908152604080832080546001600160a01b03199081169091556001600160a01b0387811680865260038552838620805460001901905590871680865283862080546001019055868652600290945282852080549092168417909155905184937fddf252ad1be2c89b69c2b068fc378daa952ba7f163c4a11628f55a4df523b3ef91a4505050565b60006117bf82610b02565b90506117cf816000846001611b0d565b6117d882610b02565b600083815260046020908152604080832080546001600160a01b03199081169091556001600160a01b0385168085526003845282852080546000190190558785526002909352818420805490911690555192935084927fddf252ad1be2c89b69c2b068fc378daa952ba7f163c4a11628f55a4df523b3ef908390a45050565b600a80546001600160a01b038381166001600160a01b0319831681179093556040519116919082907f8be0079c531659141344cd1fd0a4f28419497f9722a3daafe3b4186f6b6457e090600090a35050565b6002600b54036118fb5760405162461bcd60e51b815260206004820152601f60248201527f5265656e7472616e637947756172643a207265656e7472616e742063616c6c006044820152606401610769565b6002600b55565b610afe828260405180602001604052806000815250611b19565b816001600160a01b0316836001600160a01b03160361197d5760405162461bcd60e51b815260206004820152601960248201527f4552433732313a20617070726f766520746f2063616c6c6572000000000000006044820152606401610769565b6001600160a01b03838116600081815260056020908152604080832094871680845294825291829020805460ff191686151590811790915591519182527f17307eab39ab6107e8899845ad3d59bd9653f200f220920489ca2b5937696c31910160405180910390a3505050565b6119f5848484611643565b611a0184848484611b4c565b6112fc5760405162461bcd60e51b81526004016107699061298f565b60606014805461064b90612633565b60606000611a3983611c4d565b600101905060008167ffffffffffffffff811115611a5957611a5961235d565b6040519080825280601f01601f191660200182016040528015611a83576020820181803683370190505b5090508181016020015b600019016f181899199a1a9b1b9c1cb0b131b232b360811b600a86061a8153600a850494508415610c3257611a8d565b60006001600160e01b031982166380ac58cd60e01b1480611aee57506001600160e01b03198216635b5e139f60e01b145b8061063657506301ffc9a760e01b6001600160e01b0319831614610636565b6112fc84848484611d25565b611b238383611e5e565b611b306000848484611b4c565b61080a5760405162461bcd60e51b81526004016107699061298f565b60006001600160a01b0384163b15611c4257604051630a85bd0160e11b81526001600160a01b0385169063150b7a0290611b909033908990889088906004016129e1565b6020604051808303816000875af1925050508015611bcb575060408051601f3d908101601f19168201909252611bc891810190612a14565b60015b611c28573d808015611bf9576040519150601f19603f3d011682016040523d82523d6000602084013e611bfe565b606091505b508051600003611c205760405162461bcd60e51b81526004016107699061298f565b805181602001fd5b6001600160e01b031916630a85bd0160e11b14905061163b565b506001949350505050565b60008072184f03e93ff9f4daa797ed6e38ed64bf6a1f0160401b8310611c8c5772184f03e93ff9f4daa797ed6e38ed64bf6a1f0160401b830492506040015b6d04ee2d6d415b85acef81000000008310611cb8576d04ee2d6d415b85acef8100000000830492506020015b662386f26fc100008310611cd657662386f26fc10000830492506010015b6305f5e1008310611cee576305f5e100830492506008015b6127108310611d0257612710830492506004015b60648310611d14576064830492506002015b600a83106106365760010192915050565b611d3184848484611ff7565b6001811115611da05760405162461bcd60e51b815260206004820152603560248201527f455243373231456e756d657261626c653a20636f6e7365637574697665207472604482015274185b9cd9995c9cc81b9bdd081cdd5c1c1bdc9d1959605a1b6064820152608401610769565b816001600160a01b038516611dfc57611df781600880546000838152600960205260408120829055600182018355919091527ff3f7a9fe364faab93b216da50a3214154f22a0a2b415b23a84c8169e8b636ee30155565b611e1f565b836001600160a01b0316856001600160a01b031614611e1f57611e1f858261207f565b6001600160a01b038416611e3b57611e368161211c565b61117f565b846001600160a01b0316846001600160a01b03161461117f5761117f84826121cb565b6001600160a01b038216611eb45760405162461bcd60e51b815260206004820181905260248201527f4552433732313a206d696e7420746f20746865207a65726f20616464726573736044820152606401610769565b6000818152600260205260409020546001600160a01b031615611f195760405162461bcd60e51b815260206004820152601c60248201527f4552433732313a20746f6b656e20616c7265616479206d696e746564000000006044820152606401610769565b611f27600083836001611b0d565b6000818152600260205260409020546001600160a01b031615611f8c5760405162461bcd60e51b815260206004820152601c60248201527f4552433732313a20746f6b656e20616c7265616479206d696e746564000000006044820152606401610769565b6001600160a01b038216600081815260036020908152604080832080546001019055848352600290915280822080546001600160a01b0319168417905551839291907fddf252ad1be2c89b69c2b068fc378daa952ba7f163c4a11628f55a4df523b3ef908290a45050565b60018111156112fc576001600160a01b0384161561203d576001600160a01b03841660009081526003602052604081208054839290612037908490612a31565b90915550505b6001600160a01b038316156112fc576001600160a01b03831660009081526003602052604081208054839290612074908490612a44565b909155505050505050565b6000600161208c84610b6f565b6120969190612a31565b6000838152600760205260409020549091508082146120e9576001600160a01b03841660009081526006602090815260408083208584528252808320548484528184208190558352600790915290208190555b5060009182526007602090815260408084208490556001600160a01b039094168352600681528383209183525290812055565b60085460009061212e90600190612a31565b60008381526009602052604081205460088054939450909284908110612156576121566126b4565b906000526020600020015490508060088381548110612177576121776126b4565b60009182526020808320909101929092558281526009909152604080822084905585825281205560088054806121af576121af612a57565b6001900381819060005260206000200160009055905550505050565b60006121d683610b6f565b6001600160a01b039093166000908152600660209081526040808320868452825280832085905593825260079052919091209190915550565b6001600160a01b0381168114610a0b57600080fd5b60006020828403121561223657600080fd5b81356113628161220f565b6001600160e01b031981168114610a0b57600080fd5b60006020828403121561226957600080fd5b813561136281612241565b60005b8381101561228f578181015183820152602001612277565b50506000910152565b600081518084526122b0816020860160208601612274565b601f01601f19169290920160200192915050565b6020815260006113626020830184612298565b6000602082840312156122e957600080fd5b5035919050565b6000806040838503121561230357600080fd5b823561230e8161220f565b946020939093013593505050565b60008060006060848603121561233157600080fd5b833561233c8161220f565b9250602084013561234c8161220f565b929592945050506040919091013590565b634e487b7160e01b600052604160045260246000fd5b600067ffffffffffffffff8084111561238e5761238e61235d565b604051601f8501601f19908116603f011681019082821181831017156123b6576123b661235d565b816040528093508581528686860111156123cf57600080fd5b858560208301376000602087830101525050509392505050565b6000602082840312156123fb57600080fd5b813567ffffffffffffffff81111561241257600080fd5b8201601f8101841361242357600080fd5b61163b84823560208401612373565b6020808252825182820181905260009190848201906040850190845b8181101561246a5783518352928401929184019160010161244e565b50909695505050505050565b600080600080600060a0868803121561248e57600080fd5b85356124998161220f565b945060208601359350604086013592506060860135915060808601356124be8161220f565b809150509295509295909350565b600060018060a01b03808916835287602084015286604084015260c060608401526124fa60c0840187612298565b94811660808401529290921660a09091015250949350505050565b8035801515811461252557600080fd5b919050565b6000806040838503121561253d57600080fd5b82356125488161220f565b915061255660208401612515565b90509250929050565b6000806000806080858703121561257557600080fd5b84356125808161220f565b935060208501356125908161220f565b925060408501359150606085013567ffffffffffffffff8111156125b357600080fd5b8501601f810187136125c457600080fd5b6125d387823560208401612373565b91505092959194509250565b600080604083850312156125f257600080fd5b82356125fd8161220f565b9150602083013561260d8161220f565b809150509250929050565b60006020828403121561262a57600080fd5b61136282612515565b600181811c9082168061264757607f821691505b602082108103610cc557634e487b7160e01b600052602260045260246000fd5b6020808252602d908201527f4552433732313a2063616c6c6572206973206e6f7420746f6b656e206f776e6560408201526c1c881bdc88185c1c1c9bdd9959609a1b606082015260800190565b634e487b7160e01b600052603260045260246000fd5b601f82111561080a57600081815260208120601f850160051c810160208610156126f15750805b601f850160051c820191505b81811015612710578281556001016126fd565b505050505050565b815167ffffffffffffffff8111156127325761273261235d565b612746816127408454612633565b846126ca565b602080601f83116001811461277b57600084156127635750858301515b600019600386901b1c1916600185901b178555612710565b600085815260208120601f198616915b828110156127aa5788860151825594840194600190910190840161278b565b50858210156127c85787850151600019600388901b60f8161c191681555b5050505050600190811b01905550565b634e487b7160e01b600052601160045260246000fd5b600060018201612800576128006127d8565b5060010190565b60006020828403121561281957600080fd5b81516113628161220f565b60006020828403121561283657600080fd5b5051919050565b6000602080835260018060a01b03845416818401526001808501546040850152600285015460608501526003850160c060808601526000815461287f81612633565b8060e0890152610100858316600081146128a057600181146128ba576128e8565b60ff1984168a83015282151560051b8a01820194506128e8565b856000528760002060005b848110156128e05781548c82018501529088019089016128c5565b8b0183019550505b5050505060048701546001600160a01b0390811660a088015260058801541660c0870181905293505b9695505050505050565b6000835161292d818460208801612274565b835190830190612941818360208801612274565b01949350505050565b60208082526025908201527f4552433732313a207472616e736665722066726f6d20696e636f72726563742060408201526437bbb732b960d91b606082015260800190565b60208082526032908201527f4552433732313a207472616e7366657220746f206e6f6e20455243373231526560408201527131b2b4bb32b91034b6b83632b6b2b73a32b960711b606082015260800190565b6001600160a01b038581168252841660208201526040810183905260806060820181905260009061291190830184612298565b600060208284031215612a2657600080fd5b815161136281612241565b81810381811115610636576106366127d8565b80820180821115610636576106366127d8565b634e487b7160e01b600052603160045260246000fdfea2646970667358221220f13b7f066f9696058bee79d384d446670bd52fa36f1516764d4282c49960683764736f6c63430008110033486170707920486f6c6964617973212045617420706c656e7479206f66204a656c6c7920446f6e757473214d617920796f757220486f6c69646179732062652066756c6c206f6620216d61676963",
        "linkReferences": {}
    },
    "methodIdentifiers": {
        "approve(address,uint256)": "095ea7b3",
        "artworkAddress()": "fa6c9cb3",
        "balanceOf(address)": "70a08231",
        "baseURI()": "6c0360eb",
        "beastsAddress()": "0113c93a",
        "burn(uint256)": "42966c68",
        "cards(uint256)": "8dc10768",
        "getApproved(uint256)": "081812fc",
        "isApprovedForAll(address,address)": "e985e9c5",
        "messages(uint256)": "0d80fefd",
        "mint(address,uint256,uint256,uint256,address)": "8cb75cad",
        "mintEnabled()": "d1239730",
        "name()": "06fdde03",
        "owner()": "8da5cb5b",
        "ownerOf(uint256)": "6352211e",
        "poniesAddress()": "8de87e4d",
        "renounceOwnership()": "715018a6",
        "safeTransferFrom(address,address,uint256)": "42842e0e",
        "safeTransferFrom(address,address,uint256,bytes)": "b88d4fde",
        "setApprovalForAll(address,bool)": "a22cb465",
        "setArtworkAddress(address)": "ec8e1e13",
        "setBaseURI(string)": "55f804b3",
        "setBeastsAddress(address)": "99af4f1e",
        "setMintEnabled(bool)": "f46a04eb",
        "setPoniesAddress(address)": "aa5f37a3",
        "setSoulsAddress(address)": "2a0f9d34",
        "setSpawnAddress(address)": "df86078a",
        "setWarriorsAddress(address)": "01b87a12",
        "setWizardsAddress(address)": "fc6b0bc8",
        "soulsAddress()": "d281d63d",
        "spawnAddress()": "c10c32b2",
        "supportedContracts(uint256)": "30864028",
        "supportsInterface(bytes4)": "01ffc9a7",
        "symbol()": "95d89b41",
        "tokenByIndex(uint256)": "4f6ccce7",
        "tokenOfOwnerByIndex(address,uint256)": "2f745c59",
        "tokenURI(uint256)": "c87b56dd",
        "tokensOfOwner(address)": "8462151c",
        "totalSupply()": "18160ddd",
        "transferFrom(address,address,uint256)": "23b872dd",
        "transferOwnership(address)": "f2fde38b",
        "warriorsAddress()": "60e06b1d",
        "withdraw()": "3ccfd60b",
        "wizardsAddress()": "10de9062"
    },
    "id": 38
}