{
  "abi": [
    {
      "inputs": [
        {
          "internalType": "address",
          "name": "_artworkAddress",
          "type": "address"
        },
        {
          "internalType": "uint256",
          "name": "_numArtworkTypes",
          "type": "uint256"
        }
      ],
      "stateMutability": "nonpayable",
      "type": "constructor"
    },
    {
      "anonymous": false,
      "inputs": [
        {
          "indexed": true,
          "internalType": "address",
          "name": "previousOwner",
          "type": "address"
        },
        {
          "indexed": true,
          "internalType": "address",
          "name": "newOwner",
          "type": "address"
        }
      ],
      "name": "OwnershipTransferred",
      "type": "event"
    },
    {
      "anonymous": false,
      "inputs": [
        {
          "indexed": false,
          "internalType": "address",
          "name": "claimer",
          "type": "address"
        },
        {
          "indexed": false,
          "internalType": "uint256",
          "name": "artworkType",
          "type": "uint256"
        }
      ],
      "name": "WizzmasArtworkClaimed",
      "type": "event"
    },
    {
      "anonymous": false,
      "inputs": [
        {
          "indexed": false,
          "internalType": "address",
          "name": "minter",
          "type": "address"
        },
        {
          "indexed": false,
          "internalType": "uint256",
          "name": "artworkType",
          "type": "uint256"
        }
      ],
      "name": "WizzmasArtworkMinted",
      "type": "event"
    },
    {
      "inputs": [],
      "name": "MAX_SUPPLY",
      "outputs": [
        {
          "internalType": "uint256",
          "name": "",
          "type": "uint256"
        }
      ],
      "stateMutability": "view",
      "type": "function"
    },
    {
      "inputs": [
        {
          "internalType": "address",
          "name": "claimer",
          "type": "address"
        }
      ],
      "name": "canClaim",
      "outputs": [
        {
          "internalType": "bool",
          "name": "",
          "type": "bool"
        }
      ],
      "stateMutability": "view",
      "type": "function"
    },
    {
      "inputs": [
        {
          "internalType": "uint256",
          "name": "artworkType",
          "type": "uint256"
        }
      ],
      "name": "claim",
      "outputs": [],
      "stateMutability": "nonpayable",
      "type": "function"
    },
    {
      "inputs": [],
      "name": "freeMintsPerAddress",
      "outputs": [
        {
          "internalType": "uint256",
          "name": "",
          "type": "uint256"
        }
      ],
      "stateMutability": "view",
      "type": "function"
    },
    {
      "inputs": [
        {
          "internalType": "uint256",
          "name": "_tokenId",
          "type": "uint256"
        }
      ],
      "name": "freezeToken",
      "outputs": [],
      "stateMutability": "nonpayable",
      "type": "function"
    },
    {
      "inputs": [
        {
          "internalType": "uint256",
          "name": "artworkType",
          "type": "uint256"
        }
      ],
      "name": "mint",
      "outputs": [],
      "stateMutability": "payable",
      "type": "function"
    },
    {
      "inputs": [],
      "name": "mintEnabled",
      "outputs": [
        {
          "internalType": "bool",
          "name": "",
          "type": "bool"
        }
      ],
      "stateMutability": "view",
      "type": "function"
    },
    {
      "inputs": [],
      "name": "mintPrice",
      "outputs": [
        {
          "internalType": "uint256",
          "name": "",
          "type": "uint256"
        }
      ],
      "stateMutability": "view",
      "type": "function"
    },
    {
      "inputs": [
        {
          "internalType": "address",
          "name": "",
          "type": "address"
        }
      ],
      "name": "minted",
      "outputs": [
        {
          "internalType": "uint256",
          "name": "",
          "type": "uint256"
        }
      ],
      "stateMutability": "view",
      "type": "function"
    },
    {
      "inputs": [],
      "name": "numArtworkTypes",
      "outputs": [
        {
          "internalType": "uint256",
          "name": "",
          "type": "uint256"
        }
      ],
      "stateMutability": "view",
      "type": "function"
    },
    {
      "inputs": [],
      "name": "owner",
      "outputs": [
        {
          "internalType": "address",
          "name": "",
          "type": "address"
        }
      ],
      "stateMutability": "view",
      "type": "function"
    },
    {
      "inputs": [],
      "name": "renounceOwnership",
      "outputs": [],
      "stateMutability": "nonpayable",
      "type": "function"
    },
    {
      "inputs": [
        {
          "internalType": "uint256",
          "name": "_numMints",
          "type": "uint256"
        }
      ],
      "name": "setFreeMintsPerAddress",
      "outputs": [],
      "stateMutability": "nonpayable",
      "type": "function"
    },
    {
      "inputs": [
        {
          "internalType": "bool",
          "name": "_newMintEnabled",
          "type": "bool"
        }
      ],
      "name": "setMintEnabled",
      "outputs": [],
      "stateMutability": "nonpayable",
      "type": "function"
    },
    {
      "inputs": [
        {
          "internalType": "uint256",
          "name": "_newMintPrice",
          "type": "uint256"
        }
      ],
      "name": "setMintPrice",
      "outputs": [],
      "stateMutability": "nonpayable",
      "type": "function"
    },
    {
      "inputs": [
        {
          "internalType": "uint256",
          "name": "_artworkTypeMax",
          "type": "uint256"
        }
      ],
      "name": "setNumArtworkTypes",
      "outputs": [],
      "stateMutability": "nonpayable",
      "type": "function"
    },
    {
      "inputs": [
        {
          "internalType": "uint256",
          "name": "",
          "type": "uint256"
        }
      ],
      "name": "tokenFrozen",
      "outputs": [
        {
          "internalType": "bool",
          "name": "",
          "type": "bool"
        }
      ],
      "stateMutability": "view",
      "type": "function"
    },
    {
      "inputs": [
        {
          "internalType": "address",
          "name": "newOwner",
          "type": "address"
        }
      ],
      "name": "transferOwnership",
      "outputs": [],
      "stateMutability": "nonpayable",
      "type": "function"
    },
    {
      "inputs": [],
      "name": "withdraw",
      "outputs": [],
      "stateMutability": "nonpayable",
      "type": "function"
    },
    {
      "inputs": [],
      "name": "wizzmasArtworkAddress",
      "outputs": [
        {
          "internalType": "address",
          "name": "",
          "type": "address"
        }
      ],
      "stateMutability": "view",
      "type": "function"
    }
  ],
  "bytecode": {
    "object": "0x60806040526004805460ff19169055662386f26fc10000600555600160065534801561002a57600080fd5b50604051610d92380380610d92833981016040819052610049916100cf565b6100523361007f565b60018055600280546001600160a01b0319166001600160a01b039390931692909217909155600355610109565b600080546001600160a01b038381166001600160a01b0319831681178455604051919092169283917f8be0079c531659141344cd1fd0a4f28419497f9722a3daafe3b4186f6b6457e09190a35050565b600080604083850312156100e257600080fd5b82516001600160a01b03811681146100f957600080fd5b6020939093015192949293505050565b610c7a806101186000396000f3fe60806040526004361061011f5760003560e01c8063715018a6116100a0578063bf3506c111610064578063bf3506c114610311578063d12397301461034d578063f2fde38b14610367578063f46a04eb14610387578063f4a0a528146103a757600080fd5b8063715018a6146102955780638da5cb5b146102aa5780639d27861b146102c8578063a0712d68146102de578063b6854f96146102f157600080fd5b8063513f99e7116100e7578063513f99e7146101e95780635972bab1146102295780635fe8b91c1461024957806361b5218e146102695780636817c76c1461027f57600080fd5b80631e7269c51461012457806332cb6b0c14610164578063379607f51461017a5780633b94730d1461019c5780633ccfd60b146101d4575b600080fd5b34801561013057600080fd5b5061015161013f366004610b99565b60076020526000908152604090205481565b6040519081526020015b60405180910390f35b34801561017057600080fd5b506101516103e881565b34801561018657600080fd5b5061019a610195366004610bc9565b6103c7565b005b3480156101a857600080fd5b506002546101bc906001600160a01b031681565b6040516001600160a01b03909116815260200161015b565b3480156101e057600080fd5b5061019a6106b5565b3480156101f557600080fd5b50610219610204366004610bc9565b60086020526000908152604090205460ff1681565b604051901515815260200161015b565b34801561023557600080fd5b5061019a610244366004610bc9565b6106e9565b34801561025557600080fd5b5061019a610264366004610bc9565b6106f6565b34801561027557600080fd5b5061015160065481565b34801561028b57600080fd5b5061015160055481565b3480156102a157600080fd5b5061019a610703565b3480156102b657600080fd5b506000546001600160a01b03166101bc565b3480156102d457600080fd5b5061015160035481565b61019a6102ec366004610bc9565b610717565b3480156102fd57600080fd5b5061019a61030c366004610bc9565b6109d5565b34801561031d57600080fd5b5061021961032c366004610b99565b6006546001600160a01b039091166000908152600760205260409020541090565b34801561035957600080fd5b506004546102199060ff1681565b34801561037357600080fd5b5061019a610382366004610b99565b6109f8565b34801561039357600080fd5b5061019a6103a2366004610be2565b610a6e565b3480156103b357600080fd5b5061019a6103c2366004610bc9565b610a89565b6103cf610a96565b60045460ff166104145760405162461bcd60e51b815260206004820152600b60248201526a1352539517d0d313d4d15160aa1b60448201526064015b60405180910390fd5b60008181526008602052604090205460ff16156104625760405162461bcd60e51b815260206004820152600c60248201526b2a27a5a2a72fa32927ad22a760a11b604482015260640161040b565b61046b3361032c565b6104aa5760405162461bcd60e51b815260206004820152601060248201526f1194915157d0d310525354d7d554d15160821b604482015260640161040b565b600254604051631349f5f960e11b8152600481018390526001600160a01b03909116906103e8908290632693ebf2906024016020604051808303816000875af11580156104fb573d6000803e3d6000fd5b505050506040513d601f19601f8201168201806040525081019061051f9190610c04565b61052a906001610c1d565b11156105635760405162461bcd60e51b815260206004820152600860248201526714d3d31117d3d55560c21b604482015260640161040b565b60035482106105ad5760405162461bcd60e51b8152602060048201526016602482015275494e434f52524543545f415254574f524b5f5459504560501b604482015260640161040b565b60405163731133e960e01b8152336004820152602481018390526001604482015260806064820152600060848201526001600160a01b0382169063731133e99060a401600060405180830381600087803b15801561060a57600080fd5b505af115801561061e573d6000803e3d6000fd5b5050505060016007600061062f3390565b6001600160a01b03166001600160a01b03168152602001908152602001600020600082825461065e9190610c1d565b909155507f6e1f7426fbb906621866b66fbee7e14bfa15d1ae2ae21519b4583b897c34cdd09050335b604080516001600160a01b039092168252602082018590520160405180910390a1506106b260018055565b50565b6106bd610aef565b60405133904780156108fc02916000818181858888f193505050501580156106b2573d6000803e3d6000fd5b6106f1610aef565b600355565b6106fe610aef565b600655565b61070b610aef565b6107156000610b49565b565b61071f610a96565b60045460ff1661075f5760405162461bcd60e51b815260206004820152600b60248201526a1352539517d0d313d4d15160aa1b604482015260640161040b565b60008181526008602052604090205460ff16156107ad5760405162461bcd60e51b815260206004820152600c60248201526b2a27a5a2a72fa32927ad22a760a11b604482015260640161040b565b60055434146107f45760405162461bcd60e51b8152602060048201526013602482015272494e434f52524543545f4554485f56414c554560681b604482015260640161040b565b600254604051631349f5f960e11b8152600481018390526001600160a01b03909116906103e8908290632693ebf2906024016020604051808303816000875af1158015610845573d6000803e3d6000fd5b505050506040513d601f19601f820116820180604052508101906108699190610c04565b610874906001610c1d565b11156108ad5760405162461bcd60e51b815260206004820152600860248201526714d3d31117d3d55560c21b604482015260640161040b565b60035482106108f75760405162461bcd60e51b8152602060048201526016602482015275494e434f52524543545f415254574f524b5f5459504560501b604482015260640161040b565b60405163731133e960e01b8152336004820152602481018390526001604482015260806064820152600060848201526001600160a01b0382169063731133e99060a401600060405180830381600087803b15801561095457600080fd5b505af1158015610968573d6000803e3d6000fd5b505050506001600760006109793390565b6001600160a01b03166001600160a01b0316815260200190815260200160002060008282546109a89190610c1d565b909155507fe3fc181133e3520fce038f5b45b0ea755afc3fa25d39af25879fb14dbdb74b7f905033610687565b6109dd610aef565b6000908152600860205260409020805460ff19166001179055565b610a00610aef565b6001600160a01b038116610a655760405162461bcd60e51b815260206004820152602660248201527f4f776e61626c653a206e6577206f776e657220697320746865207a65726f206160448201526564647265737360d01b606482015260840161040b565b6106b281610b49565b610a76610aef565b6004805460ff1916911515919091179055565b610a91610aef565b600555565b600260015403610ae85760405162461bcd60e51b815260206004820152601f60248201527f5265656e7472616e637947756172643a207265656e7472616e742063616c6c00604482015260640161040b565b6002600155565b6000546001600160a01b031633146107155760405162461bcd60e51b815260206004820181905260248201527f4f776e61626c653a2063616c6c6572206973206e6f7420746865206f776e6572604482015260640161040b565b600080546001600160a01b038381166001600160a01b0319831681178455604051919092169283917f8be0079c531659141344cd1fd0a4f28419497f9722a3daafe3b4186f6b6457e09190a35050565b600060208284031215610bab57600080fd5b81356001600160a01b0381168114610bc257600080fd5b9392505050565b600060208284031215610bdb57600080fd5b5035919050565b600060208284031215610bf457600080fd5b81358015158114610bc257600080fd5b600060208284031215610c1657600080fd5b5051919050565b80820180821115610c3e57634e487b7160e01b600052601160045260246000fd5b9291505056fea26469706673582212202e049b00b2c8ebff279735b33aece35ad62895e4d3651706b4abf6792c85daf964736f6c63430008110033",
    "linkReferences": {}
  },
  "methodIdentifiers": {
    "MAX_SUPPLY()": "32cb6b0c",
    "canClaim(address)": "bf3506c1",
    "claim(uint256)": "379607f5",
    "freeMintsPerAddress()": "61b5218e",
    "freezeToken(uint256)": "b6854f96",
    "mint(uint256)": "a0712d68",
    "mintEnabled()": "d1239730",
    "mintPrice()": "6817c76c",
    "minted(address)": "1e7269c5",
    "numArtworkTypes()": "9d27861b",
    "owner()": "8da5cb5b",
    "renounceOwnership()": "715018a6",
    "setFreeMintsPerAddress(uint256)": "5fe8b91c",
    "setMintEnabled(bool)": "f46a04eb",
    "setMintPrice(uint256)": "f4a0a528",
    "setNumArtworkTypes(uint256)": "5972bab1",
    "tokenFrozen(uint256)": "513f99e7",
    "transferOwnership(address)": "f2fde38b",
    "withdraw()": "3ccfd60b",
    "wizzmasArtworkAddress()": "3b94730d"
  },
  "id": 37
}