{
  "abi": [
    {
      "inputs": [
        {
          "internalType": "address",
          "name": "_artworkAddress",
          "type": "address"
        },
        {
          "internalType": "address",
          "name": "_wizardsAddres",
          "type": "address"
        },
        {
          "internalType": "address",
          "name": "_soulsAddress",
          "type": "address"
        },
        {
          "internalType": "address",
          "name": "_warriorsAddress",
          "type": "address"
        },
        {
          "internalType": "address",
          "name": "_poniesAddress",
          "type": "address"
        },
        {
          "internalType": "address",
          "name": "_beastsAddress",
          "type": "address"
        },
        {
          "internalType": "address",
          "name": "_spawnAddress",
          "type": "address"
        },
        {
          "internalType": "string",
          "name": "_initialBaseURI",
          "type": "string"
        }
      ],
      "stateMutability": "nonpayable",
      "type": "constructor"
    },
    {
      "anonymous": false,
      "inputs": [
        {
          "indexed": true,
          "internalType": "address",
          "name": "owner",
          "type": "address"
        },
        {
          "indexed": true,
          "internalType": "address",
          "name": "approved",
          "type": "address"
        },
        {
          "indexed": true,
          "internalType": "uint256",
          "name": "tokenId",
          "type": "uint256"
        }
      ],
      "name": "Approval",
      "type": "event"
    },
    {
      "anonymous": false,
      "inputs": [
        {
          "indexed": true,
          "internalType": "address",
          "name": "owner",
          "type": "address"
        },
        {
          "indexed": true,
          "internalType": "address",
          "name": "operator",
          "type": "address"
        },
        {
          "indexed": false,
          "internalType": "bool",
          "name": "approved",
          "type": "bool"
        }
      ],
      "name": "ApprovalForAll",
      "type": "event"
    },
    {
      "anonymous": false,
      "inputs": [
        {
          "indexed": true,
          "internalType": "address",
          "name": "previousOwner",
          "type": "address"
        },
        {
          "indexed": true,
          "internalType": "address",
          "name": "newOwner",
          "type": "address"
        }
      ],
      "name": "OwnershipTransferred",
      "type": "event"
    },
    {
      "anonymous": false,
      "inputs": [
        {
          "indexed": true,
          "internalType": "address",
          "name": "from",
          "type": "address"
        },
        {
          "indexed": true,
          "internalType": "address",
          "name": "to",
          "type": "address"
        },
        {
          "indexed": true,
          "internalType": "uint256",
          "name": "tokenId",
          "type": "uint256"
        }
      ],
      "name": "Transfer",
      "type": "event"
    },
    {
      "anonymous": false,
      "inputs": [
        {
          "components": [
            {
              "internalType": "address",
              "name": "tokenContract",
              "type": "address"
            },
            {
              "internalType": "uint256",
              "name": "token",
              "type": "uint256"
            },
            {
              "internalType": "uint256",
              "name": "artwork",
              "type": "uint256"
            },
            {
              "internalType": "string",
              "name": "message",
              "type": "string"
            },
            {
              "internalType": "address",
              "name": "sender",
              "type": "address"
            },
            {
              "internalType": "address",
              "name": "recipient",
              "type": "address"
            }
          ],
          "indexed": false,
          "internalType": "struct WizzmasCard.Card",
          "name": "data",
          "type": "tuple"
        }
      ],
      "name": "WizzmasCardMinted",
      "type": "event"
    },
    {
      "inputs": [
        {
          "internalType": "address",
          "name": "to",
          "type": "address"
        },
        {
          "internalType": "uint256",
          "name": "tokenId",
          "type": "uint256"
        }
      ],
      "name": "approve",
      "outputs": [],
      "stateMutability": "nonpayable",
      "type": "function"
    },
    {
      "inputs": [],
      "name": "artworkAddress",
      "outputs": [
        {
          "internalType": "address",
          "name": "",
          "type": "address"
        }
      ],
      "stateMutability": "view",
      "type": "function"
    },
    {
      "inputs": [],
      "name": "availableMessages",
      "outputs": [
        {
          "internalType": "string[]",
          "name": "",
          "type": "string[]"
        }
      ],
      "stateMutability": "view",
      "type": "function"
    },
    {
      "inputs": [
        {
          "internalType": "address",
          "name": "owner",
          "type": "address"
        }
      ],
      "name": "balanceOf",
      "outputs": [
        {
          "internalType": "uint256",
          "name": "",
          "type": "uint256"
        }
      ],
      "stateMutability": "view",
      "type": "function"
    },
    {
      "inputs": [],
      "name": "baseURI",
      "outputs": [
        {
          "internalType": "string",
          "name": "",
          "type": "string"
        }
      ],
      "stateMutability": "view",
      "type": "function"
    },
    {
      "inputs": [],
      "name": "beastsAddress",
      "outputs": [
        {
          "internalType": "address",
          "name": "",
          "type": "address"
        }
      ],
      "stateMutability": "view",
      "type": "function"
    },
    {
      "inputs": [
        {
          "internalType": "uint256",
          "name": "tokenId",
          "type": "uint256"
        }
      ],
      "name": "burn",
      "outputs": [],
      "stateMutability": "nonpayable",
      "type": "function"
    },
    {
      "inputs": [
        {
          "internalType": "uint256",
          "name": "tokenId",
          "type": "uint256"
        }
      ],
      "name": "getApproved",
      "outputs": [
        {
          "internalType": "address",
          "name": "",
          "type": "address"
        }
      ],
      "stateMutability": "view",
      "type": "function"
    },
    {
      "inputs": [
        {
          "internalType": "uint256",
          "name": "cardId",
          "type": "uint256"
        }
      ],
      "name": "getCard",
      "outputs": [
        {
          "components": [
            {
              "internalType": "address",
              "name": "tokenContract",
              "type": "address"
            },
            {
              "internalType": "uint256",
              "name": "token",
              "type": "uint256"
            },
            {
              "internalType": "uint256",
              "name": "artwork",
              "type": "uint256"
            },
            {
              "internalType": "string",
              "name": "message",
              "type": "string"
            },
            {
              "internalType": "address",
              "name": "sender",
              "type": "address"
            },
            {
              "internalType": "address",
              "name": "recipient",
              "type": "address"
            }
          ],
          "internalType": "struct WizzmasCard.Card",
          "name": "",
          "type": "tuple"
        }
      ],
      "stateMutability": "view",
      "type": "function"
    },
    {
      "inputs": [
        {
          "internalType": "address",
          "name": "owner",
          "type": "address"
        },
        {
          "internalType": "address",
          "name": "operator",
          "type": "address"
        }
      ],
      "name": "isApprovedForAll",
      "outputs": [
        {
          "internalType": "bool",
          "name": "",
          "type": "bool"
        }
      ],
      "stateMutability": "view",
      "type": "function"
    },
    {
      "inputs": [
        {
          "internalType": "uint256",
          "name": "",
          "type": "uint256"
        }
      ],
      "name": "messages",
      "outputs": [
        {
          "internalType": "string",
          "name": "",
          "type": "string"
        }
      ],
      "stateMutability": "view",
      "type": "function"
    },
    {
      "inputs": [
        {
          "internalType": "address",
          "name": "_tokenContract",
          "type": "address"
        },
        {
          "internalType": "uint256",
          "name": "_tokenId",
          "type": "uint256"
        },
        {
          "internalType": "uint256",
          "name": "_artworkId",
          "type": "uint256"
        },
        {
          "internalType": "uint256",
          "name": "_messageId",
          "type": "uint256"
        },
        {
          "internalType": "address",
          "name": "_recipient",
          "type": "address"
        }
      ],
      "name": "mint",
      "outputs": [],
      "stateMutability": "nonpayable",
      "type": "function"
    },
    {
      "inputs": [],
      "name": "mintEnabled",
      "outputs": [
        {
          "internalType": "bool",
          "name": "",
          "type": "bool"
        }
      ],
      "stateMutability": "view",
      "type": "function"
    },
    {
      "inputs": [],
      "name": "name",
      "outputs": [
        {
          "internalType": "string",
          "name": "",
          "type": "string"
        }
      ],
      "stateMutability": "view",
      "type": "function"
    },
    {
      "inputs": [],
      "name": "owner",
      "outputs": [
        {
          "internalType": "address",
          "name": "",
          "type": "address"
        }
      ],
      "stateMutability": "view",
      "type": "function"
    },
    {
      "inputs": [
        {
          "internalType": "uint256",
          "name": "tokenId",
          "type": "uint256"
        }
      ],
      "name": "ownerOf",
      "outputs": [
        {
          "internalType": "address",
          "name": "",
          "type": "address"
        }
      ],
      "stateMutability": "view",
      "type": "function"
    },
    {
      "inputs": [],
      "name": "poniesAddress",
      "outputs": [
        {
          "internalType": "address",
          "name": "",
          "type": "address"
        }
      ],
      "stateMutability": "view",
      "type": "function"
    },
    {
      "inputs": [],
      "name": "renounceOwnership",
      "outputs": [],
      "stateMutability": "nonpayable",
      "type": "function"
    },
    {
      "inputs": [
        {
          "internalType": "address",
          "name": "from",
          "type": "address"
        },
        {
          "internalType": "address",
          "name": "to",
          "type": "address"
        },
        {
          "internalType": "uint256",
          "name": "tokenId",
          "type": "uint256"
        }
      ],
      "name": "safeTransferFrom",
      "outputs": [],
      "stateMutability": "nonpayable",
      "type": "function"
    },
    {
      "inputs": [
        {
          "internalType": "address",
          "name": "from",
          "type": "address"
        },
        {
          "internalType": "address",
          "name": "to",
          "type": "address"
        },
        {
          "internalType": "uint256",
          "name": "tokenId",
          "type": "uint256"
        },
        {
          "internalType": "bytes",
          "name": "data",
          "type": "bytes"
        }
      ],
      "name": "safeTransferFrom",
      "outputs": [],
      "stateMutability": "nonpayable",
      "type": "function"
    },
    {
      "inputs": [
        {
          "internalType": "address",
          "name": "operator",
          "type": "address"
        },
        {
          "internalType": "bool",
          "name": "approved",
          "type": "bool"
        }
      ],
      "name": "setApprovalForAll",
      "outputs": [],
      "stateMutability": "nonpayable",
      "type": "function"
    },
    {
      "inputs": [
        {
          "internalType": "address",
          "name": "_address",
          "type": "address"
        }
      ],
      "name": "setArtworkAddress",
      "outputs": [],
      "stateMutability": "nonpayable",
      "type": "function"
    },
    {
      "inputs": [
        {
          "internalType": "string",
          "name": "_newBaseURI",
          "type": "string"
        }
      ],
      "name": "setBaseURI",
      "outputs": [],
      "stateMutability": "nonpayable",
      "type": "function"
    },
    {
      "inputs": [
        {
          "internalType": "address",
          "name": "_address",
          "type": "address"
        }
      ],
      "name": "setBeastsAddress",
      "outputs": [],
      "stateMutability": "nonpayable",
      "type": "function"
    },
    {
      "inputs": [
        {
          "internalType": "bool",
          "name": "_newMintEnabled",
          "type": "bool"
        }
      ],
      "name": "setMintEnabled",
      "outputs": [],
      "stateMutability": "nonpayable",
      "type": "function"
    },
    {
      "inputs": [
        {
          "internalType": "address",
          "name": "_address",
          "type": "address"
        }
      ],
      "name": "setPoniesAddress",
      "outputs": [],
      "stateMutability": "nonpayable",
      "type": "function"
    },
    {
      "inputs": [
        {
          "internalType": "address",
          "name": "_address",
          "type": "address"
        }
      ],
      "name": "setSoulsAddress",
      "outputs": [],
      "stateMutability": "nonpayable",
      "type": "function"
    },
    {
      "inputs": [
        {
          "internalType": "address",
          "name": "_address",
          "type": "address"
        }
      ],
      "name": "setSpawnAddress",
      "outputs": [],
      "stateMutability": "nonpayable",
      "type": "function"
    },
    {
      "inputs": [
        {
          "internalType": "address",
          "name": "_address",
          "type": "address"
        }
      ],
      "name": "setWarriorsAddress",
      "outputs": [],
      "stateMutability": "nonpayable",
      "type": "function"
    },
    {
      "inputs": [
        {
          "internalType": "address",
          "name": "_address",
          "type": "address"
        }
      ],
      "name": "setWizardsAddress",
      "outputs": [],
      "stateMutability": "nonpayable",
      "type": "function"
    },
    {
      "inputs": [],
      "name": "soulsAddress",
      "outputs": [
        {
          "internalType": "address",
          "name": "",
          "type": "address"
        }
      ],
      "stateMutability": "view",
      "type": "function"
    },
    {
      "inputs": [],
      "name": "spawnAddress",
      "outputs": [
        {
          "internalType": "address",
          "name": "",
          "type": "address"
        }
      ],
      "stateMutability": "view",
      "type": "function"
    },
    {
      "inputs": [],
      "name": "supportedContracts",
      "outputs": [
        {
          "internalType": "address[]",
          "name": "",
          "type": "address[]"
        }
      ],
      "stateMutability": "view",
      "type": "function"
    },
    {
      "inputs": [
        {
          "internalType": "bytes4",
          "name": "interfaceId",
          "type": "bytes4"
        }
      ],
      "name": "supportsInterface",
      "outputs": [
        {
          "internalType": "bool",
          "name": "",
          "type": "bool"
        }
      ],
      "stateMutability": "view",
      "type": "function"
    },
    {
      "inputs": [],
      "name": "symbol",
      "outputs": [
        {
          "internalType": "string",
          "name": "",
          "type": "string"
        }
      ],
      "stateMutability": "view",
      "type": "function"
    },
    {
      "inputs": [
        {
          "internalType": "uint256",
          "name": "index",
          "type": "uint256"
        }
      ],
      "name": "tokenByIndex",
      "outputs": [
        {
          "internalType": "uint256",
          "name": "",
          "type": "uint256"
        }
      ],
      "stateMutability": "view",
      "type": "function"
    },
    {
      "inputs": [
        {
          "internalType": "address",
          "name": "owner",
          "type": "address"
        },
        {
          "internalType": "uint256",
          "name": "index",
          "type": "uint256"
        }
      ],
      "name": "tokenOfOwnerByIndex",
      "outputs": [
        {
          "internalType": "uint256",
          "name": "",
          "type": "uint256"
        }
      ],
      "stateMutability": "view",
      "type": "function"
    },
    {
      "inputs": [
        {
          "internalType": "uint256",
          "name": "tokenId",
          "type": "uint256"
        }
      ],
      "name": "tokenURI",
      "outputs": [
        {
          "internalType": "string",
          "name": "",
          "type": "string"
        }
      ],
      "stateMutability": "view",
      "type": "function"
    },
    {
      "inputs": [
        {
          "internalType": "address",
          "name": "_owner",
          "type": "address"
        }
      ],
      "name": "tokensOfOwner",
      "outputs": [
        {
          "internalType": "uint256[]",
          "name": "",
          "type": "uint256[]"
        }
      ],
      "stateMutability": "view",
      "type": "function"
    },
    {
      "inputs": [],
      "name": "totalSupply",
      "outputs": [
        {
          "internalType": "uint256",
          "name": "",
          "type": "uint256"
        }
      ],
      "stateMutability": "view",
      "type": "function"
    },
    {
      "inputs": [
        {
          "internalType": "address",
          "name": "from",
          "type": "address"
        },
        {
          "internalType": "address",
          "name": "to",
          "type": "address"
        },
        {
          "internalType": "uint256",
          "name": "tokenId",
          "type": "uint256"
        }
      ],
      "name": "transferFrom",
      "outputs": [],
      "stateMutability": "nonpayable",
      "type": "function"
    },
    {
      "inputs": [
        {
          "internalType": "address",
          "name": "newOwner",
          "type": "address"
        }
      ],
      "name": "transferOwnership",
      "outputs": [],
      "stateMutability": "nonpayable",
      "type": "function"
    },
    {
      "inputs": [],
      "name": "warriorsAddress",
      "outputs": [
        {
          "internalType": "address",
          "name": "",
          "type": "address"
        }
      ],
      "stateMutability": "view",
      "type": "function"
    },
    {
      "inputs": [],
      "name": "withdraw",
      "outputs": [],
      "stateMutability": "nonpayable",
      "type": "function"
    },
    {
      "inputs": [],
      "name": "wizardsAddress",
      "outputs": [
        {
          "internalType": "address",
          "name": "",
          "type": "address"
        }
      ],
      "stateMutability": "view",
      "type": "function"
    }
  ],
  "bytecode": {
    "object": "0x6016805460ff19169055601a6101009081527f4861766520612076657279204d657272792057697a7a6d6173210000000000006101205260809081526101a0604052602361014081815260a091620034d16101603981526020016040518060400160405280601681526020017f486f486f486f21204d657272792057697a7a6d6173210000000000000000000081525081526020016040518060600160405280602b8152602001620034a6602b91399052620000c09060179060046200030a565b50348015620000ce57600080fd5b50604051620034f4380380620034f4833981016040819052620000f1916200047a565b604080518082018252600b8082526a15da5e9e9b585cd0d85c9960aa1b602080840182905284518086019095529184529083015290600062000134838262000661565b50600162000143828262000661565b505050620001606200015a6200023760201b60201c565b6200023b565b6001600b55600d80546001600160a01b03808b166001600160a01b031992831617909255600e80548a84169083168117909155600f80548a85169084168117909155601080548a86169085168117909155601180548a87169086168117909155601280548a8816908716811790915560138054978a169790961687179095556040805160c0810182529485526020850193909352918301526060820152608081019190915260a08101919091526200021d90601490600662000367565b5062000229816200028d565b50505050505050506200072d565b3390565b600a80546001600160a01b038381166001600160a01b0319831681179093556040519116919082907f8be0079c531659141344cd1fd0a4f28419497f9722a3daafe3b4186f6b6457e090600090a35050565b62000297620002a9565b6015620002a5828262000661565b5050565b600a546001600160a01b03163314620003085760405162461bcd60e51b815260206004820181905260248201527f4f776e61626c653a2063616c6c6572206973206e6f7420746865206f776e6572604482015260640160405180910390fd5b565b82805482825590600052602060002090810192821562000355579160200282015b8281111562000355578251829062000344908262000661565b50916020019190600101906200032b565b5062000363929150620003cd565b5090565b828054828255906000526020600020908101928215620003bf579160200282015b82811115620003bf57825182546001600160a01b0319166001600160a01b0390911617825560209092019160019091019062000388565b5062000363929150620003ee565b8082111562000363576000620003e4828262000405565b50600101620003cd565b5b80821115620003635760008155600101620003ef565b5080546200041390620005d2565b6000825580601f1062000424575050565b601f016020900490600052602060002090810190620004449190620003ee565b50565b80516001600160a01b03811681146200045f57600080fd5b919050565b634e487b7160e01b600052604160045260246000fd5b600080600080600080600080610100898b0312156200049857600080fd5b620004a38962000447565b97506020620004b4818b0162000447565b9750620004c460408b0162000447565b9650620004d460608b0162000447565b9550620004e460808b0162000447565b9450620004f460a08b0162000447565b93506200050460c08b0162000447565b60e08b01519093506001600160401b03808211156200052257600080fd5b818c0191508c601f8301126200053757600080fd5b8151818111156200054c576200054c62000464565b604051601f8201601f19908116603f0116810190838211818310171562000577576200057762000464565b816040528281528f868487010111156200059057600080fd5b600093505b82841015620005b4578484018601518185018701529285019262000595565b60008684830101528096505050505050509295985092959890939650565b600181811c90821680620005e757607f821691505b6020821081036200060857634e487b7160e01b600052602260045260246000fd5b50919050565b601f8211156200065c57600081815260208120601f850160051c81016020861015620006375750805b601f850160051c820191505b81811015620006585782815560010162000643565b5050505b505050565b81516001600160401b038111156200067d576200067d62000464565b62000695816200068e8454620005d2565b846200060e565b602080601f831160018114620006cd5760008415620006b45750858301515b600019600386901b1c1916600185901b17855562000658565b600085815260208120601f198616915b82811015620006fe57888601518255948401946001909101908401620006dd565b50858210156200071d5787850151600019600388901b60f8161c191681555b5050505050600190811b01905550565b612d69806200073d6000396000f3fe608060405234801561001057600080fd5b506004361061027f5760003560e01c8063715018a61161015c578063b88d4fde116100ce578063e985e9c511610087578063e985e9c514610583578063ec8e1e13146105bf578063f2fde38b146105d2578063f46a04eb146105e5578063fa6c9cb3146105f8578063fc6b0bc81461060b57600080fd5b8063b88d4fde14610517578063c10c32b21461052a578063c87b56dd1461053d578063d123973014610550578063d281d63d1461055d578063df86078a1461057057600080fd5b80638de87e4d116101205780638de87e4d146104a35780639188d312146104b657806395d89b41146104d657806399af4f1e146104de578063a22cb465146104f1578063aa5f37a31461050457600080fd5b8063715018a6146104425780638462151c1461044a5780638bb4db271461046a5780638cb75cad1461047f5780638da5cb5b1461049257600080fd5b80632a0f9d34116101f55780634f6ccce7116101b95780634f6ccce7146103db57806355f804b3146103ee57806360e06b1d146104015780636352211e146104145780636c0360eb1461042757806370a082311461042f57600080fd5b80632a0f9d34146103875780632f745c591461039a5780633ccfd60b146103ad57806342842e0e146103b557806342966c68146103c857600080fd5b8063095ea7b311610247578063095ea7b3146103145780630d80fefd1461032757806310de90621461033a5780631324111b1461034d57806318160ddd1461036257806323b872dd1461037457600080fd5b80630113c93a1461028457806301b87a12146102b457806301ffc9a7146102c957806306fdde03146102ec578063081812fc14610301575b600080fd5b601254610297906001600160a01b031681565b6040516001600160a01b0390911681526020015b60405180910390f35b6102c76102c2366004612428565b61061e565b005b6102dc6102d736600461245b565b610648565b60405190151581526020016102ab565b6102f4610659565b6040516102ab91906124c8565b61029761030f3660046124db565b6106eb565b6102c76103223660046124f4565b610712565b6102f46103353660046124db565b61082c565b600e54610297906001600160a01b031681565b6103556108d8565b6040516102ab9190612520565b6008545b6040519081526020016102ab565b6102c7610382366004612582565b6109b1565b6102c7610395366004612428565b6109e3565b6103666103a83660046124f4565b610a0d565b6102c7610aa3565b6102c76103c3366004612582565b610ada565b6102c76103d63660046124db565b610af5565b6103666103e93660046124db565b610b23565b6102c76103fc36600461264f565b610bb6565b601054610297906001600160a01b031681565b6102976104223660046124db565b610bce565b6102f4610c2e565b61036661043d366004612428565b610c3b565b6102c7610cc1565b61045d610458366004612428565b610cd5565b6040516102ab9190612698565b610472610d97565b6040516102ab91906126dc565b6102c761048d36600461271d565b610df8565b600a546001600160a01b0316610297565b601154610297906001600160a01b031681565b6104c96104c43660046124db565b6112e3565b6040516102ab9190612773565b6102f4611460565b6102c76104ec366004612428565b61146f565b6102c76104ff3660046127f0565b611499565b6102c7610512366004612428565b6114a4565b6102c7610525366004612825565b6114ce565b601354610297906001600160a01b031681565b6102f461054b3660046124db565b611506565b6016546102dc9060ff1681565b600f54610297906001600160a01b031681565b6102c761057e366004612428565b61156d565b6102dc6105913660046128a5565b6001600160a01b03918216600090815260056020908152604080832093909416825291909152205460ff1690565b6102c76105cd366004612428565b611597565b6102c76105e0366004612428565b6115c1565b6102c76105f33660046128de565b611637565b600d54610297906001600160a01b031681565b6102c7610619366004612428565b611652565b61062661167c565b601080546001600160a01b0319166001600160a01b0392909216919091179055565b6000610653826116d6565b92915050565b606060008054610668906128f9565b80601f0160208091040260200160405190810160405280929190818152602001828054610694906128f9565b80156106e15780601f106106b6576101008083540402835291602001916106e1565b820191906000526020600020905b8154815290600101906020018083116106c457829003601f168201915b5050505050905090565b60006106f6826116fb565b506000908152600460205260409020546001600160a01b031690565b600061071d82610bce565b9050806001600160a01b0316836001600160a01b03160361078f5760405162461bcd60e51b815260206004820152602160248201527f4552433732313a20617070726f76616c20746f2063757272656e74206f776e656044820152603960f91b60648201526084015b60405180910390fd5b336001600160a01b03821614806107ab57506107ab8133610591565b61081d5760405162461bcd60e51b815260206004820152603d60248201527f4552433732313a20617070726f76652063616c6c6572206973206e6f7420746f60448201527f6b656e206f776e6572206f7220617070726f76656420666f7220616c6c0000006064820152608401610786565b610827838361175a565b505050565b6017818154811061083c57600080fd5b906000526020600020016000915090508054610857906128f9565b80601f0160208091040260200160405190810160405280929190818152602001828054610883906128f9565b80156108d05780601f106108a5576101008083540402835291602001916108d0565b820191906000526020600020905b8154815290600101906020018083116108b357829003601f168201915b505050505081565b60606017805480602002602001604051908101604052809291908181526020016000905b828210156109a857838290600052602060002001805461091b906128f9565b80601f0160208091040260200160405190810160405280929190818152602001828054610947906128f9565b80156109945780601f1061096957610100808354040283529160200191610994565b820191906000526020600020905b81548152906001019060200180831161097757829003601f168201915b5050505050815260200190600101906108fc565b50505050905090565b6109bc335b826117c8565b6109d85760405162461bcd60e51b81526004016107869061292d565b610827838383611847565b6109eb61167c565b600f80546001600160a01b0319166001600160a01b0392909216919091179055565b6000610a1883610c3b565b8210610a7a5760405162461bcd60e51b815260206004820152602b60248201527f455243373231456e756d657261626c653a206f776e657220696e646578206f7560448201526a74206f6620626f756e647360a81b6064820152608401610786565b506001600160a01b03919091166000908152600660209081526040808320938352929052205490565b610aab61167c565b60405133904780156108fc02916000818181858888f19350505050158015610ad7573d6000803e3d6000fd5b50565b610827838383604051806020016040528060008152506114ce565b610afe336109b6565b610b1a5760405162461bcd60e51b81526004016107869061292d565b610ad7816119b8565b6000610b2e60085490565b8210610b915760405162461bcd60e51b815260206004820152602c60248201527f455243373231456e756d657261626c653a20676c6f62616c20696e646578206f60448201526b7574206f6620626f756e647360a01b6064820152608401610786565b60088281548110610ba457610ba461297a565b90600052602060002001549050919050565b610bbe61167c565b6015610bca82826129de565b5050565b6000818152600260205260408120546001600160a01b0316806106535760405162461bcd60e51b8152602060048201526018602482015277115490cdcc8c4e881a5b9d985b1a59081d1bdad95b88125160421b6044820152606401610786565b60158054610857906128f9565b60006001600160a01b038216610ca55760405162461bcd60e51b815260206004820152602960248201527f4552433732313a2061646472657373207a65726f206973206e6f7420612076616044820152683634b21037bbb732b960b91b6064820152608401610786565b506001600160a01b031660009081526003602052604090205490565b610cc961167c565b610cd36000611a5b565b565b60606000610ce283610c3b565b905080600003610d065760408051600080825260208201909252905b509392505050565b60008167ffffffffffffffff811115610d2157610d216125c3565b604051908082528060200260200182016040528015610d4a578160200160208202803683370190505b50905060005b82811015610cfe57610d628582610a0d565b828281518110610d7457610d7461297a565b602090810291909101015280610d8981612ab4565b915050610d50565b50919050565b606060148054806020026020016040519081016040528092919081815260200182805480156106e157602002820191906000526020600020905b81546001600160a01b03168152600190910190602001808311610dd1575050505050905090565b610e00611aad565b60165460ff16610e405760405162461bcd60e51b815260206004820152600b60248201526a1352539517d0d313d4d15160aa1b6044820152606401610786565b6017548210610e835760405162461bcd60e51b815260206004820152600f60248201526e494e56414c49445f4d45535341474560881b6044820152606401610786565b6001600160a01b0381163303610eca5760405162461bcd60e51b815260206004820152600c60248201526b29a2a7222faa27afa9a2a62360a11b6044820152606401610786565b600e546001600160a01b0386811691161480610ef35750600f546001600160a01b038681169116145b80610f0b57506010546001600160a01b038681169116145b80610f2357506011546001600160a01b038681169116145b80610f3b57506012546001600160a01b038681169116145b80610f5357506013546001600160a01b038681169116145b610f935760405162461bcd60e51b81526020600482015260116024820152702aa729aaa82827a92a22a22faa27a5a2a760791b6044820152606401610786565b336040516331a9108f60e11b8152600481018690526001600160a01b0391821691871690636352211e90602401602060405180830381865afa158015610fdd573d6000803e3d6000fd5b505050506040513d601f19601f820116820180604052508101906110019190612acd565b6001600160a01b0316146110435760405162461bcd60e51b81526020600482015260096024820152682727aa2fa7aba722a960b91b6044820152606401610786565b600d546000906001600160a01b031662fdd58e336040516001600160e01b031960e084901b1681526001600160a01b03909116600482015260248101879052604401602060405180830381865afa1580156110a2573d6000803e3d6000fd5b505050506040513d601f19601f820116820180604052508101906110c69190612aea565b116111005760405162461bcd60e51b815260206004820152600a6024820152694e4f5f415254574f524b60b01b6044820152606401610786565b600061110b60085490565b90506111178282611b06565b6040518060c00160405280876001600160a01b03168152602001868152602001858152602001601785815481106111505761115061297a565b906000526020600020018054611165906128f9565b80601f0160208091040260200160405190810160405280929190818152602001828054611191906128f9565b80156111de5780601f106111b3576101008083540402835291602001916111de565b820191906000526020600020905b8154815290600101906020018083116111c157829003601f168201915b505050505081526020016111ef3390565b6001600160a01b0390811682528481166020928301526000848152600c8352604090819020845181546001600160a01b03191693169290921782559183015160018201559082015160028201556060820151600382019061125090826129de565b5060808201516004820180546001600160a01b03199081166001600160a01b039384161790915560a0909301516005909201805490931691161790556000818152600c60205260409081902090517feee21c301f227d8b72b720f449f8732042457abbf8cbdecb4c5bca51b47ae6d9916112c991612b03565b60405180910390a1506112dc6001600b55565b5050505050565b6040805160c0810182526000808252602082018190529181018290526060808201526080810182905260a08101919091528161131e60085490565b1115611426576000828152600c6020908152604091829020825160c08101845281546001600160a01b0316815260018201549281019290925260028101549282019290925260038201805491929160608401919061137b906128f9565b80601f01602080910402602001604051908101604052809291908181526020018280546113a7906128f9565b80156113f45780601f106113c9576101008083540402835291602001916113f4565b820191906000526020600020905b8154815290600101906020018083116113d757829003601f168201915b505050918352505060048201546001600160a01b03908116602083015260059092015490911660409091015292915050565b60405162461bcd60e51b815260206004820152600f60248201526e10d0549117d393d517d35253951151608a1b6044820152606401610786565b606060018054610668906128f9565b61147761167c565b601280546001600160a01b0319166001600160a01b0392909216919091179055565b610bca338383611b20565b6114ac61167c565b601180546001600160a01b0319166001600160a01b0392909216919091179055565b6114d833836117c8565b6114f45760405162461bcd60e51b81526004016107869061292d565b61150084848484611bee565b50505050565b6060611511826116fb565b600061151b611c21565b9050600081511161153b5760405180602001604052806000815250611566565b8061154584611c30565b604051602001611556929190612be1565b6040516020818303038152906040525b9392505050565b61157561167c565b601380546001600160a01b0319166001600160a01b0392909216919091179055565b61159f61167c565b600d80546001600160a01b0319166001600160a01b0392909216919091179055565b6115c961167c565b6001600160a01b03811661162e5760405162461bcd60e51b815260206004820152602660248201527f4f776e61626c653a206e6577206f776e657220697320746865207a65726f206160448201526564647265737360d01b6064820152608401610786565b610ad781611a5b565b61163f61167c565b6016805460ff1916911515919091179055565b61165a61167c565b600e80546001600160a01b0319166001600160a01b0392909216919091179055565b600a546001600160a01b03163314610cd35760405162461bcd60e51b815260206004820181905260248201527f4f776e61626c653a2063616c6c6572206973206e6f7420746865206f776e65726044820152606401610786565b60006001600160e01b0319821663780e9d6360e01b1480610653575061065382611cc1565b6000818152600260205260409020546001600160a01b0316610ad75760405162461bcd60e51b8152602060048201526018602482015277115490cdcc8c4e881a5b9d985b1a59081d1bdad95b88125160421b6044820152606401610786565b600081815260046020526040902080546001600160a01b0319166001600160a01b038416908117909155819061178f82610bce565b6001600160a01b03167f8c5be1e5ebec7d5bd14f71427d1e84f3dd0314c0f7b2291e5b200ac8c7c3b92560405160405180910390a45050565b6000806117d483610bce565b9050806001600160a01b0316846001600160a01b0316148061181b57506001600160a01b0380821660009081526005602090815260408083209388168352929052205460ff165b8061183f5750836001600160a01b0316611834846106eb565b6001600160a01b0316145b949350505050565b826001600160a01b031661185a82610bce565b6001600160a01b0316146118805760405162461bcd60e51b815260040161078690612c10565b6001600160a01b0382166118e25760405162461bcd60e51b8152602060048201526024808201527f4552433732313a207472616e7366657220746f20746865207a65726f206164646044820152637265737360e01b6064820152608401610786565b6118ef8383836001611d11565b826001600160a01b031661190282610bce565b6001600160a01b0316146119285760405162461bcd60e51b815260040161078690612c10565b600081815260046020908152604080832080546001600160a01b03199081169091556001600160a01b0387811680865260038552838620805460001901905590871680865283862080546001019055868652600290945282852080549092168417909155905184937fddf252ad1be2c89b69c2b068fc378daa952ba7f163c4a11628f55a4df523b3ef91a4505050565b60006119c382610bce565b90506119d3816000846001611d11565b6119dc82610bce565b600083815260046020908152604080832080546001600160a01b03199081169091556001600160a01b0385168085526003845282852080546000190190558785526002909352818420805490911690555192935084927fddf252ad1be2c89b69c2b068fc378daa952ba7f163c4a11628f55a4df523b3ef908390a45050565b600a80546001600160a01b038381166001600160a01b0319831681179093556040519116919082907f8be0079c531659141344cd1fd0a4f28419497f9722a3daafe3b4186f6b6457e090600090a35050565b6002600b5403611aff5760405162461bcd60e51b815260206004820152601f60248201527f5265656e7472616e637947756172643a207265656e7472616e742063616c6c006044820152606401610786565b6002600b55565b610bca828260405180602001604052806000815250611d1d565b816001600160a01b0316836001600160a01b031603611b815760405162461bcd60e51b815260206004820152601960248201527f4552433732313a20617070726f766520746f2063616c6c6572000000000000006044820152606401610786565b6001600160a01b03838116600081815260056020908152604080832094871680845294825291829020805460ff191686151590811790915591519182527f17307eab39ab6107e8899845ad3d59bd9653f200f220920489ca2b5937696c31910160405180910390a3505050565b611bf9848484611847565b611c0584848484611d50565b6115005760405162461bcd60e51b815260040161078690612c55565b606060158054610668906128f9565b60606000611c3d83611e51565b600101905060008167ffffffffffffffff811115611c5d57611c5d6125c3565b6040519080825280601f01601f191660200182016040528015611c87576020820181803683370190505b5090508181016020015b600019016f181899199a1a9b1b9c1cb0b131b232b360811b600a86061a8153600a850494508415610cfe57611c91565b60006001600160e01b031982166380ac58cd60e01b1480611cf257506001600160e01b03198216635b5e139f60e01b145b8061065357506301ffc9a760e01b6001600160e01b0319831614610653565b61150084848484611f29565b611d278383612062565b611d346000848484611d50565b6108275760405162461bcd60e51b815260040161078690612c55565b60006001600160a01b0384163b15611e4657604051630a85bd0160e11b81526001600160a01b0385169063150b7a0290611d94903390899088908890600401612ca7565b6020604051808303816000875af1925050508015611dcf575060408051601f3d908101601f19168201909252611dcc91810190612cda565b60015b611e2c573d808015611dfd576040519150601f19603f3d011682016040523d82523d6000602084013e611e02565b606091505b508051600003611e245760405162461bcd60e51b815260040161078690612c55565b805181602001fd5b6001600160e01b031916630a85bd0160e11b14905061183f565b506001949350505050565b60008072184f03e93ff9f4daa797ed6e38ed64bf6a1f0160401b8310611e905772184f03e93ff9f4daa797ed6e38ed64bf6a1f0160401b830492506040015b6d04ee2d6d415b85acef81000000008310611ebc576d04ee2d6d415b85acef8100000000830492506020015b662386f26fc100008310611eda57662386f26fc10000830492506010015b6305f5e1008310611ef2576305f5e100830492506008015b6127108310611f0657612710830492506004015b60648310611f18576064830492506002015b600a83106106535760010192915050565b611f35848484846121fb565b6001811115611fa45760405162461bcd60e51b815260206004820152603560248201527f455243373231456e756d657261626c653a20636f6e7365637574697665207472604482015274185b9cd9995c9cc81b9bdd081cdd5c1c1bdc9d1959605a1b6064820152608401610786565b816001600160a01b03851661200057611ffb81600880546000838152600960205260408120829055600182018355919091527ff3f7a9fe364faab93b216da50a3214154f22a0a2b415b23a84c8169e8b636ee30155565b612023565b836001600160a01b0316856001600160a01b031614612023576120238582612283565b6001600160a01b03841661203f5761203a81612320565b6112dc565b846001600160a01b0316846001600160a01b0316146112dc576112dc84826123cf565b6001600160a01b0382166120b85760405162461bcd60e51b815260206004820181905260248201527f4552433732313a206d696e7420746f20746865207a65726f20616464726573736044820152606401610786565b6000818152600260205260409020546001600160a01b03161561211d5760405162461bcd60e51b815260206004820152601c60248201527f4552433732313a20746f6b656e20616c7265616479206d696e746564000000006044820152606401610786565b61212b600083836001611d11565b6000818152600260205260409020546001600160a01b0316156121905760405162461bcd60e51b815260206004820152601c60248201527f4552433732313a20746f6b656e20616c7265616479206d696e746564000000006044820152606401610786565b6001600160a01b038216600081815260036020908152604080832080546001019055848352600290915280822080546001600160a01b0319168417905551839291907fddf252ad1be2c89b69c2b068fc378daa952ba7f163c4a11628f55a4df523b3ef908290a45050565b6001811115611500576001600160a01b03841615612241576001600160a01b0384166000908152600360205260408120805483929061223b908490612cf7565b90915550505b6001600160a01b03831615611500576001600160a01b03831660009081526003602052604081208054839290612278908490612d0a565b909155505050505050565b6000600161229084610c3b565b61229a9190612cf7565b6000838152600760205260409020549091508082146122ed576001600160a01b03841660009081526006602090815260408083208584528252808320548484528184208190558352600790915290208190555b5060009182526007602090815260408084208490556001600160a01b039094168352600681528383209183525290812055565b60085460009061233290600190612cf7565b6000838152600960205260408120546008805493945090928490811061235a5761235a61297a565b90600052602060002001549050806008838154811061237b5761237b61297a565b60009182526020808320909101929092558281526009909152604080822084905585825281205560088054806123b3576123b3612d1d565b6001900381819060005260206000200160009055905550505050565b60006123da83610c3b565b6001600160a01b039093166000908152600660209081526040808320868452825280832085905593825260079052919091209190915550565b6001600160a01b0381168114610ad757600080fd5b60006020828403121561243a57600080fd5b813561156681612413565b6001600160e01b031981168114610ad757600080fd5b60006020828403121561246d57600080fd5b813561156681612445565b60005b8381101561249357818101518382015260200161247b565b50506000910152565b600081518084526124b4816020860160208601612478565b601f01601f19169290920160200192915050565b602081526000611566602083018461249c565b6000602082840312156124ed57600080fd5b5035919050565b6000806040838503121561250757600080fd5b823561251281612413565b946020939093013593505050565b6000602080830181845280855180835260408601915060408160051b870101925083870160005b8281101561257557603f1988860301845261256385835161249c565b94509285019290850190600101612547565b5092979650505050505050565b60008060006060848603121561259757600080fd5b83356125a281612413565b925060208401356125b281612413565b929592945050506040919091013590565b634e487b7160e01b600052604160045260246000fd5b600067ffffffffffffffff808411156125f4576125f46125c3565b604051601f8501601f19908116603f0116810190828211818310171561261c5761261c6125c3565b8160405280935085815286868601111561263557600080fd5b858560208301376000602087830101525050509392505050565b60006020828403121561266157600080fd5b813567ffffffffffffffff81111561267857600080fd5b8201601f8101841361268957600080fd5b61183f848235602084016125d9565b6020808252825182820181905260009190848201906040850190845b818110156126d0578351835292840192918401916001016126b4565b50909695505050505050565b6020808252825182820181905260009190848201906040850190845b818110156126d05783516001600160a01b0316835292840192918401916001016126f8565b600080600080600060a0868803121561273557600080fd5b853561274081612413565b9450602086013593506040860135925060608601359150608086013561276581612413565b809150509295509295909350565b60208152600060018060a01b038084511660208401526020840151604084015260408401516060840152606084015160c060808501526127b660e085018261249c565b90508160808601511660a08501528160a08601511660c0850152809250505092915050565b803580151581146127eb57600080fd5b919050565b6000806040838503121561280357600080fd5b823561280e81612413565b915061281c602084016127db565b90509250929050565b6000806000806080858703121561283b57600080fd5b843561284681612413565b9350602085013561285681612413565b925060408501359150606085013567ffffffffffffffff81111561287957600080fd5b8501601f8101871361288a57600080fd5b612899878235602084016125d9565b91505092959194509250565b600080604083850312156128b857600080fd5b82356128c381612413565b915060208301356128d381612413565b809150509250929050565b6000602082840312156128f057600080fd5b611566826127db565b600181811c9082168061290d57607f821691505b602082108103610d9157634e487b7160e01b600052602260045260246000fd5b6020808252602d908201527f4552433732313a2063616c6c6572206973206e6f7420746f6b656e206f776e6560408201526c1c881bdc88185c1c1c9bdd9959609a1b606082015260800190565b634e487b7160e01b600052603260045260246000fd5b601f82111561082757600081815260208120601f850160051c810160208610156129b75750805b601f850160051c820191505b818110156129d6578281556001016129c3565b505050505050565b815167ffffffffffffffff8111156129f8576129f86125c3565b612a0c81612a0684546128f9565b84612990565b602080601f831160018114612a415760008415612a295750858301515b600019600386901b1c1916600185901b1785556129d6565b600085815260208120601f198616915b82811015612a7057888601518255948401946001909101908401612a51565b5085821015612a8e5787850151600019600388901b60f8161c191681555b5050505050600190811b01905550565b634e487b7160e01b600052601160045260246000fd5b600060018201612ac657612ac6612a9e565b5060010190565b600060208284031215612adf57600080fd5b815161156681612413565b600060208284031215612afc57600080fd5b5051919050565b6000602080835260018060a01b03845416818401526001808501546040850152600285015460608501526003850160c0608086015260008154612b45816128f9565b8060e089015261010085831660008114612b665760018114612b8057612bae565b60ff1984168a83015282151560051b8a0182019450612bae565b856000528760002060005b84811015612ba65781548c8201850152908801908901612b8b565b8b0183019550505b5050505060048701546001600160a01b0390811660a088015260058801541660c0870181905293505b9695505050505050565b60008351612bf3818460208801612478565b835190830190612c07818360208801612478565b01949350505050565b60208082526025908201527f4552433732313a207472616e736665722066726f6d20696e636f72726563742060408201526437bbb732b960d91b606082015260800190565b60208082526032908201527f4552433732313a207472616e7366657220746f206e6f6e20455243373231526560408201527131b2b4bb32b91034b6b83632b6b2b73a32b960711b606082015260800190565b6001600160a01b0385811682528416602082015260408101839052608060608201819052600090612bd79083018461249c565b600060208284031215612cec57600080fd5b815161156681612445565b8181038181111561065357610653612a9e565b8082018082111561065357610653612a9e565b634e487b7160e01b600052603160045260246000fdfea2646970667358221220aff17ea24c7f077b8e7b428c0bcd9645d49d2b1119e7e2587827d5f6341dade964736f6c63430008110033486170707920486f6c6964617973212045617420706c656e7479206f66204a656c6c7920446f6e757473214d617920796f757220486f6c69646179732062652066756c6c206f6620216d61676963",
    "linkReferences": {}
  },
  "methodIdentifiers": {
    "approve(address,uint256)": "095ea7b3",
    "artworkAddress()": "fa6c9cb3",
    "availableMessages()": "1324111b",
    "balanceOf(address)": "70a08231",
    "baseURI()": "6c0360eb",
    "beastsAddress()": "0113c93a",
    "burn(uint256)": "42966c68",
    "getApproved(uint256)": "081812fc",
    "getCard(uint256)": "9188d312",
    "isApprovedForAll(address,address)": "e985e9c5",
    "messages(uint256)": "0d80fefd",
    "mint(address,uint256,uint256,uint256,address)": "8cb75cad",
    "mintEnabled()": "d1239730",
    "name()": "06fdde03",
    "owner()": "8da5cb5b",
    "ownerOf(uint256)": "6352211e",
    "poniesAddress()": "8de87e4d",
    "renounceOwnership()": "715018a6",
    "safeTransferFrom(address,address,uint256)": "42842e0e",
    "safeTransferFrom(address,address,uint256,bytes)": "b88d4fde",
    "setApprovalForAll(address,bool)": "a22cb465",
    "setArtworkAddress(address)": "ec8e1e13",
    "setBaseURI(string)": "55f804b3",
    "setBeastsAddress(address)": "99af4f1e",
    "setMintEnabled(bool)": "f46a04eb",
    "setPoniesAddress(address)": "aa5f37a3",
    "setSoulsAddress(address)": "2a0f9d34",
    "setSpawnAddress(address)": "df86078a",
    "setWarriorsAddress(address)": "01b87a12",
    "setWizardsAddress(address)": "fc6b0bc8",
    "soulsAddress()": "d281d63d",
    "spawnAddress()": "c10c32b2",
    "supportedContracts()": "8bb4db27",
    "supportsInterface(bytes4)": "01ffc9a7",
    "symbol()": "95d89b41",
    "tokenByIndex(uint256)": "4f6ccce7",
    "tokenOfOwnerByIndex(address,uint256)": "2f745c59",
    "tokenURI(uint256)": "c87b56dd",
    "tokensOfOwner(address)": "8462151c",
    "totalSupply()": "18160ddd",
    "transferFrom(address,address,uint256)": "23b872dd",
    "transferOwnership(address)": "f2fde38b",
    "warriorsAddress()": "60e06b1d",
    "withdraw()": "3ccfd60b",
    "wizardsAddress()": "10de9062"
  },
  "id": 38
}